{
  "contractName": "CollectorsDAO",
  "abi": [
    {
      "anonymous": false,
      "inputs": [
        {
          "indexed": true,
          "internalType": "address",
          "name": "previousOwner",
          "type": "address"
        },
        {
          "indexed": true,
          "internalType": "address",
          "name": "newOwner",
          "type": "address"
        }
      ],
      "name": "OwnershipTransferred",
      "type": "event"
    },
    {
      "anonymous": false,
      "inputs": [
        {
          "indexed": false,
          "internalType": "uint256",
          "name": "daoId",
          "type": "uint256"
        },
        {
          "indexed": false,
          "internalType": "string",
          "name": "daoName",
          "type": "string"
        }
      ],
      "name": "daoCreated",
      "type": "event"
    },
    {
      "anonymous": false,
      "inputs": [
        {
          "indexed": false,
          "internalType": "uint256",
          "name": "proposalId",
          "type": "uint256"
        },
        {
          "indexed": false,
          "internalType": "bool",
          "name": "digitalMinted",
          "type": "bool"
        }
      ],
      "name": "digitalMinted",
      "type": "event"
    },
    {
      "anonymous": false,
      "inputs": [
        {
          "indexed": false,
          "internalType": "uint256",
          "name": "proposalId",
          "type": "uint256"
        },
        {
          "indexed": false,
          "internalType": "bool",
          "name": "propertyMinted",
          "type": "bool"
        }
      ],
      "name": "propertyMinted",
      "type": "event"
    },
    {
      "anonymous": false,
      "inputs": [
        {
          "indexed": false,
          "internalType": "uint256",
          "name": "proposalId",
          "type": "uint256"
        },
        {
          "indexed": false,
          "internalType": "uint256",
          "name": "finalValue",
          "type": "uint256"
        },
        {
          "indexed": false,
          "internalType": "string",
          "name": "votingStatus",
          "type": "string"
        }
      ],
      "name": "proposalClosed",
      "type": "event"
    },
    {
      "anonymous": false,
      "inputs": [
        {
          "indexed": false,
          "internalType": "uint256",
          "name": "daoId",
          "type": "uint256"
        },
        {
          "indexed": false,
          "internalType": "uint256",
          "name": "proposalId",
          "type": "uint256"
        },
        {
          "indexed": false,
          "internalType": "address",
          "name": "owner",
          "type": "address"
        },
        {
          "indexed": false,
          "internalType": "string",
          "name": "proposalName",
          "type": "string"
        },
        {
          "indexed": false,
          "internalType": "string",
          "name": "proposalDesc",
          "type": "string"
        },
        {
          "indexed": false,
          "internalType": "uint256",
          "name": "value",
          "type": "uint256"
        },
        {
          "indexed": false,
          "internalType": "string",
          "name": "docOwnership",
          "type": "string"
        },
        {
          "indexed": false,
          "internalType": "string",
          "name": "mainImage",
          "type": "string"
        }
      ],
      "name": "proposalCreated",
      "type": "event"
    },
    {
      "anonymous": false,
      "inputs": [
        {
          "indexed": false,
          "internalType": "uint256",
          "name": "proposalId",
          "type": "uint256"
        },
        {
          "indexed": false,
          "internalType": "address",
          "name": "voter",
          "type": "address"
        },
        {
          "indexed": false,
          "internalType": "enum CollectorsDAO.VotingOptions",
          "name": "vote",
          "type": "uint8"
        },
        {
          "indexed": false,
          "internalType": "bool",
          "name": "updatedProposalStatus",
          "type": "bool"
        }
      ],
      "name": "voteSetted",
      "type": "event"
    },
    {
      "inputs": [],
      "name": "_id",
      "outputs": [
        {
          "internalType": "uint256",
          "name": "_value",
          "type": "uint256"
        }
      ],
      "stateMutability": "view",
      "type": "function",
      "constant": true
    },
    {
      "inputs": [],
      "name": "_proposalCount",
      "outputs": [
        {
          "internalType": "uint256",
          "name": "_value",
          "type": "uint256"
        }
      ],
      "stateMutability": "view",
      "type": "function",
      "constant": true
    },
    {
      "inputs": [
        {
          "internalType": "address",
          "name": "",
          "type": "address"
        },
        {
          "internalType": "uint256",
          "name": "",
          "type": "uint256"
        }
      ],
      "name": "daoMembers",
      "outputs": [
        {
          "internalType": "bool",
          "name": "",
          "type": "bool"
        }
      ],
      "stateMutability": "view",
      "type": "function",
      "constant": true
    },
    {
      "inputs": [],
      "name": "owner",
      "outputs": [
        {
          "internalType": "address",
          "name": "",
          "type": "address"
        }
      ],
      "stateMutability": "view",
      "type": "function",
      "constant": true
    },
    {
      "inputs": [
        {
          "internalType": "uint256",
          "name": "",
          "type": "uint256"
        }
      ],
      "name": "proposals",
      "outputs": [
        {
          "internalType": "uint256",
          "name": "daoId",
          "type": "uint256"
        },
        {
          "internalType": "uint256",
          "name": "proposalId",
          "type": "uint256"
        },
        {
          "internalType": "address",
          "name": "author",
          "type": "address"
        },
        {
          "internalType": "string",
          "name": "name",
          "type": "string"
        },
        {
          "internalType": "string",
          "name": "description",
          "type": "string"
        },
        {
          "internalType": "uint256",
          "name": "value",
          "type": "uint256"
        },
        {
          "internalType": "uint256",
          "name": "votesForYes",
          "type": "uint256"
        },
        {
          "internalType": "uint256",
          "name": "votesForNo",
          "type": "uint256"
        },
        {
          "internalType": "bool",
          "name": "status",
          "type": "bool"
        },
        {
          "internalType": "string",
          "name": "votingStatus",
          "type": "string"
        },
        {
          "internalType": "bool",
          "name": "propertyNftMinted",
          "type": "bool"
        },
        {
          "internalType": "bool",
          "name": "digitalNftMinted",
          "type": "bool"
        },
        {
          "internalType": "string",
          "name": "docOwnership",
          "type": "string"
        },
        {
          "internalType": "string",
          "name": "mainImage",
          "type": "string"
        }
      ],
      "stateMutability": "view",
      "type": "function",
      "constant": true
    },
    {
      "inputs": [],
      "name": "renounceOwnership",
      "outputs": [],
      "stateMutability": "nonpayable",
      "type": "function"
    },
    {
      "inputs": [
        {
          "internalType": "uint256",
          "name": "",
          "type": "uint256"
        }
      ],
      "name": "subDao",
      "outputs": [
        {
          "internalType": "uint256",
          "name": "id",
          "type": "uint256"
        },
        {
          "internalType": "string",
          "name": "name",
          "type": "string"
        }
      ],
      "stateMutability": "view",
      "type": "function",
      "constant": true
    },
    {
      "inputs": [
        {
          "internalType": "address",
          "name": "newOwner",
          "type": "address"
        }
      ],
      "name": "transferOwnership",
      "outputs": [],
      "stateMutability": "nonpayable",
      "type": "function"
    },
    {
      "inputs": [
        {
          "internalType": "address",
          "name": "",
          "type": "address"
        },
        {
          "internalType": "uint256",
          "name": "",
          "type": "uint256"
        }
      ],
      "name": "votes",
      "outputs": [
        {
          "internalType": "bool",
          "name": "",
          "type": "bool"
        }
      ],
      "stateMutability": "view",
      "type": "function",
      "constant": true
    },
    {
      "inputs": [
        {
          "internalType": "string",
          "name": "_name",
          "type": "string"
        }
      ],
      "name": "createDAO",
      "outputs": [],
      "stateMutability": "nonpayable",
      "type": "function"
    },
    {
      "inputs": [
        {
          "internalType": "uint256",
          "name": "_daoId",
          "type": "uint256"
        },
        {
          "internalType": "string",
          "name": "_name",
          "type": "string"
        },
        {
          "internalType": "string",
          "name": "_description",
          "type": "string"
        },
        {
          "internalType": "uint256",
          "name": "_value",
          "type": "uint256"
        },
        {
          "internalType": "string",
          "name": "_docOwnership",
          "type": "string"
        },
        {
          "internalType": "string",
          "name": "_mainImage",
          "type": "string"
        }
      ],
      "name": "createProposal",
      "outputs": [],
      "stateMutability": "nonpayable",
      "type": "function"
    },
    {
      "inputs": [
        {
          "internalType": "uint256",
          "name": "_proposalId",
          "type": "uint256"
        },
        {
          "internalType": "uint256",
          "name": "_value",
          "type": "uint256"
        },
        {
          "internalType": "enum CollectorsDAO.VotingOptions",
          "name": "_vote",
          "type": "uint8"
        }
      ],
      "name": "vote",
      "outputs": [],
      "stateMutability": "nonpayable",
      "type": "function"
    },
    {
      "inputs": [
        {
          "internalType": "uint256",
          "name": "_proposalId",
          "type": "uint256"
        }
      ],
      "name": "closeProposal",
      "outputs": [],
      "stateMutability": "nonpayable",
      "type": "function"
    },
    {
      "inputs": [
        {
          "internalType": "uint256",
          "name": "_proposalId",
          "type": "uint256"
        }
      ],
      "name": "getProposalStatus",
      "outputs": [
        {
          "internalType": "bool",
          "name": "proposalStatus",
          "type": "bool"
        }
      ],
      "stateMutability": "view",
      "type": "function",
      "constant": true
    },
    {
      "inputs": [
        {
          "internalType": "uint256",
          "name": "_proposalId",
          "type": "uint256"
        }
      ],
      "name": "updatePropertyMintStatus",
      "outputs": [],
      "stateMutability": "nonpayable",
      "type": "function"
    },
    {
      "inputs": [
        {
          "internalType": "uint256",
          "name": "_proposalId",
          "type": "uint256"
        }
      ],
      "name": "updateDigitalMintStatus",
      "outputs": [],
      "stateMutability": "nonpayable",
      "type": "function"
    }
  ],
  "bytecode": "0x608060405234801561001057600080fd5b5061001a3361001f565b61006f565b600080546001600160a01b038381166001600160a01b0319831681178455604051919092169283917f8be0079c531659141344cd1fd0a4f28419497f9722a3daafe3b4186f6b6457e09190a35050565b6118558061007e6000396000f3fe608060405234801561001057600080fd5b50600436106101005760003560e01c8063845c776d116100975780639f2524ee116100665780639f2524ee14610252578063bbb2eab914610280578063c4e0214714610293578063f2fde38b146102b457600080fd5b8063845c776d146101d65780638a465bd1146101e95780638da5cb5b14610217578063979a63de1461023f57600080fd5b8063401853b7116100d3578063401853b71461017b5780634830ebcf146101b15780636f2904cc146101c4578063715018a6146101ce57600080fd5b8063013cf08b146101055780630386a0161461013b5780630518023714610150578063259a446614610168575b600080fd5b610118610113366004610ff4565b6102c7565b6040516101329e9d9c9b9a99989796959493929190611071565b60405180910390f35b61014e610149366004610ff4565b6105fe565b005b60015461015a9081565b604051908152602001610132565b61014e610176366004610ff4565b610744565b6101a1610189366004610ff4565b60009081526005602052604090206008015460ff1690565b6040519015158152602001610132565b61014e6101bf366004611228565b6107bd565b60025461015a9081565b61014e610895565b61014e6101e4366004610ff4565b6108a9565b6101a16101f736600461128e565b600460209081526000928352604080842090915290825290205460ff1681565b60005460405173ffffffffffffffffffffffffffffffffffffffff9091168152602001610132565b61014e61024d3660046112b8565b6108fd565b6101a161026036600461128e565b600660209081526000928352604080842090915290825290205460ff1681565b61014e61028e366004611377565b610b75565b6102a66102a1366004610ff4565b610d8f565b6040516101329291906113b4565b61014e6102c23660046113cd565b610e47565b60056020526000908152604090208054600182015460028301546003840180549394929373ffffffffffffffffffffffffffffffffffffffff909216929161030e906113ef565b80601f016020809104026020016040519081016040528092919081815260200182805461033a906113ef565b80156103875780601f1061035c57610100808354040283529160200191610387565b820191906000526020600020905b81548152906001019060200180831161036a57829003601f168201915b50505050509080600401805461039c906113ef565b80601f01602080910402602001604051908101604052809291908181526020018280546103c8906113ef565b80156104155780601f106103ea57610100808354040283529160200191610415565b820191906000526020600020905b8154815290600101906020018083116103f857829003601f168201915b50505060058401546006850154600786015460088701546009880180549798949793965091945060ff16929161044a906113ef565b80601f0160208091040260200160405190810160405280929190818152602001828054610476906113ef565b80156104c35780601f10610498576101008083540402835291602001916104c3565b820191906000526020600020905b8154815290600101906020018083116104a657829003601f168201915b50505050600a830154600b84018054939460ff80841695610100909404169350916104ed906113ef565b80601f0160208091040260200160405190810160405280929190818152602001828054610519906113ef565b80156105665780601f1061053b57610100808354040283529160200191610566565b820191906000526020600020905b81548152906001019060200180831161054957829003601f168201915b50505050509080600c01805461057b906113ef565b80601f01602080910402602001604051908101604052809291908181526020018280546105a7906113ef565b80156105f45780601f106105c9576101008083540402835291602001916105f4565b820191906000526020600020905b8154815290600101906020018083116105d757829003601f168201915b505050505090508e565b610606610efe565b60008181526005602052604090206008015460ff161515600103610682576040518060400160405280600881526020017f616363657074656400000000000000000000000000000000000000000000000081525060056000838152602001908152602001600020600901908161067c9190611491565b506106ee565b6040518060400160405280600781526020017f72656675736564000000000000000000000000000000000000000000000000008152506005600083815260200190815260200160002060090190816106da9190611491565b506000818152600560208190526040822001555b6000818152600560208190526040918290209081015491517f321c3f57789939cd39adec5d8128505091bd9203987e6809db9bc7c8213c485f926107399285926009909101906115ab565b60405180910390a150565b60008181526005602052604090819020600a0180547fffffffffffffffffffffffffffffffffffffffffffffffffffffffffffff00ff16610100179055517f5802cc018bf0d01c7ed6c794bb8d560c639d43858443f4aaf18d96cd6051419b906107399083906001909182521515602082015260400190565b604080518082019091526001805482526020820183815260038054928301815560005282517fc2575a0e9e593c00f959f8c92f12db2869c3395a3b0502d05e2516446f71f85b6002909302928301908155905183927fc2575a0e9e593c00f959f8c92f12db2869c3395a3b0502d05e2516446f71f85c019061083f9082611491565b5050507f233468f62cb5569433a2646a1c57b4333dc80fc4881a358e28455bb25feb3be361086c60015490565b8360405161087b9291906113b4565b60405180910390a1610891600180546001019055565b5050565b61089d610efe565b6108a76000610f7f565b565b600081815260056020908152604091829020600a01805460ff191660019081179091558251848152918201527fc2c6d84af001f6703730e6a4be5cdb2d3ed3e5998823abcfb475ffc10dc80d139101610739565b600061090860025490565b604080516101c081018252898152602080820184815233838501908152606084018c8152608085018c905260a085018b9052600060c0860181905260e08601819052610100860181905286518088018852600781527f70656e64696e6700000000000000000000000000000000000000000000000000818701526101208701526101408601819052610160860181905261018086018b90526101a086018a9052878152600590945294909220835181559051600182015590516002820180547fffffffffffffffffffffffff00000000000000000000000000000000000000001673ffffffffffffffffffffffffffffffffffffffff9092169190911790559151929350916003820190610a1c9082611491565b5060808201516004820190610a319082611491565b5060a0820151600582015560c0820151600682015560e0820151600782015561010082015160088201805460ff19169115159190911790556101208201516009820190610a7e9082611491565b50610140820151600a820180546101608501511515610100027fffffffffffffffffffffffffffffffffffffffffffffffffffffffffffff00ff931515939093167fffffffffffffffffffffffffffffffffffffffffffffffffffffffffffff000090911617919091179055610180820151600b820190610aff9082611491565b506101a0820151600c820190610b159082611491565b509050507f3def31f11840d66bfe2d5e185f6a870795e28798376bac72ba4d66745b09c9df8782338989898989604051610b56989796959493929190611645565b60405180910390a1610b6c600280546001019055565b50505050505050565b6000838152600560209081526040808320338452600683528184208785529092529091205460ff1615610c09576040517f08c379a000000000000000000000000000000000000000000000000000000000815260206004820152600d60248201527f616c726561647920766f7465640000000000000000000000000000000000000060448201526064015b60405180910390fd5b3360009081526006602090815260408083208784529091528120805460ff19166001179055826001811115610c4057610c406116d2565b03610ce7576001816006016000828254610c5a9190611730565b909155505060078101546006820154603291610c7591611730565b6006830154610c85906064611749565b610c8f9190611760565b1115610ce25760088101805460ff191660019081179091556006820154908490610cb9908361179b565b8360050154610cc89190611749565b610cd29190611730565b610cdc9190611760565b60058201555b610d44565b6001816007016000828254610cfc9190611730565b909155505060078101546006820154603291610d1791611730565b6007830154610d27906064611749565b610d319190611760565b1115610d445760088101805460ff191690555b60088101546040517f850c01f77ce89db19c181f2bfa4b0511a21b3950c753d84abe84ef69195cce1191610d819187913391879160ff16906117ae565b60405180910390a150505050565b60038181548110610d9f57600080fd5b60009182526020909120600290910201805460018201805491935090610dc4906113ef565b80601f0160208091040260200160405190810160405280929190818152602001828054610df0906113ef565b8015610e3d5780601f10610e1257610100808354040283529160200191610e3d565b820191906000526020600020905b815481529060010190602001808311610e2057829003601f168201915b5050505050905082565b610e4f610efe565b73ffffffffffffffffffffffffffffffffffffffff8116610ef2576040517f08c379a000000000000000000000000000000000000000000000000000000000815260206004820152602660248201527f4f776e61626c653a206e6577206f776e657220697320746865207a65726f206160448201527f64647265737300000000000000000000000000000000000000000000000000006064820152608401610c00565b610efb81610f7f565b50565b60005473ffffffffffffffffffffffffffffffffffffffff1633146108a7576040517f08c379a000000000000000000000000000000000000000000000000000000000815260206004820181905260248201527f4f776e61626c653a2063616c6c6572206973206e6f7420746865206f776e65726044820152606401610c00565b6000805473ffffffffffffffffffffffffffffffffffffffff8381167fffffffffffffffffffffffff0000000000000000000000000000000000000000831681178455604051919092169283917f8be0079c531659141344cd1fd0a4f28419497f9722a3daafe3b4186f6b6457e09190a35050565b60006020828403121561100657600080fd5b5035919050565b6000815180845260005b8181101561103357602081850181015186830182015201611017565b5060006020828601015260207fffffffffffffffffffffffffffffffffffffffffffffffffffffffffffffffe0601f83011685010191505092915050565b8e81528d602082015261109c604082018e73ffffffffffffffffffffffffffffffffffffffff169052565b6101c0606082015260006110b46101c083018e61100d565b82810360808401526110c6818e61100d565b90508b60a08401528a60c08401528960e08401526110e961010084018a15159052565b8281036101208401526110fc818961100d565b8715156101408501529050851515610160840152828103610180840152611123818661100d565b90508281036101a0840152611138818561100d565b9150509f9e505050505050505050505050505050565b7f4e487b7100000000000000000000000000000000000000000000000000000000600052604160045260246000fd5b600082601f83011261118e57600080fd5b813567ffffffffffffffff808211156111a9576111a961114e565b604051601f83017fffffffffffffffffffffffffffffffffffffffffffffffffffffffffffffffe0908116603f011681019082821181831017156111ef576111ef61114e565b8160405283815286602085880101111561120857600080fd5b836020870160208301376000602085830101528094505050505092915050565b60006020828403121561123a57600080fd5b813567ffffffffffffffff81111561125157600080fd5b61125d8482850161117d565b949350505050565b803573ffffffffffffffffffffffffffffffffffffffff8116811461128957600080fd5b919050565b600080604083850312156112a157600080fd5b6112aa83611265565b946020939093013593505050565b60008060008060008060c087890312156112d157600080fd5b86359550602087013567ffffffffffffffff808211156112f057600080fd5b6112fc8a838b0161117d565b9650604089013591508082111561131257600080fd5b61131e8a838b0161117d565b955060608901359450608089013591508082111561133b57600080fd5b6113478a838b0161117d565b935060a089013591508082111561135d57600080fd5b5061136a89828a0161117d565b9150509295509295509295565b60008060006060848603121561138c57600080fd5b83359250602084013591506040840135600281106113a957600080fd5b809150509250925092565b82815260406020820152600061125d604083018461100d565b6000602082840312156113df57600080fd5b6113e882611265565b9392505050565b600181811c9082168061140357607f821691505b60208210810361143c577f4e487b7100000000000000000000000000000000000000000000000000000000600052602260045260246000fd5b50919050565b601f82111561148c57600081815260208120601f850160051c810160208610156114695750805b601f850160051c820191505b8181101561148857828155600101611475565b5050505b505050565b815167ffffffffffffffff8111156114ab576114ab61114e565b6114bf816114b984546113ef565b84611442565b602080601f83116001811461151257600084156114dc5750858301515b7fffffffffffffffffffffffffffffffffffffffffffffffffffffffffffffffff600386901b1c1916600185901b178555611488565b6000858152602081207fffffffffffffffffffffffffffffffffffffffffffffffffffffffffffffffe08616915b8281101561155f57888601518255948401946001909101908401611540565b508582101561159b57878501517fffffffffffffffffffffffffffffffffffffffffffffffffffffffffffffffff600388901b60f8161c191681555b5050505050600190811b01905550565b83815260006020848184015260606040840152600084546115cb816113ef565b80606087015260806001808416600081146115ed576001811461160757611635565b60ff198516838a01528284151560051b8a01019550611635565b896000528660002060005b8581101561162d5781548b8201860152908301908801611612565b8a0184019650505b50939a9950505050505050505050565b60006101008a835289602084015273ffffffffffffffffffffffffffffffffffffffff891660408401528060608401526116818184018961100d565b90508281036080840152611695818861100d565b90508560a084015282810360c08401526116af818661100d565b905082810360e08401526116c3818561100d565b9b9a5050505050505050505050565b7f4e487b7100000000000000000000000000000000000000000000000000000000600052602160045260246000fd5b7f4e487b7100000000000000000000000000000000000000000000000000000000600052601160045260246000fd5b8082018082111561174357611743611701565b92915050565b808202811582820484141761174357611743611701565b600082611796577f4e487b7100000000000000000000000000000000000000000000000000000000600052601260045260246000fd5b500490565b8181038181111561174357611743611701565b84815273ffffffffffffffffffffffffffffffffffffffff841660208201526080810160028410611808577f4e487b7100000000000000000000000000000000000000000000000000000000600052602160045260246000fd5b83604083015282151560608301529594505050505056fea26469706673582212202bc88048ade810c2995ddc4e230b535294fc710f2f6a3eae3cad1075ae1303ad64736f6c63430008110033",
  "immutableReferences": {},
  "source": "// SPDX-License-Identifier: GPL-3.0\npragma solidity 0.8.17;\n\nimport \"../node_modules/@openzeppelin/contracts/utils/Counters.sol\";\nimport \"../node_modules/@openzeppelin/contracts/access/Ownable.sol\";\n\ncontract CollectorsDAO is Ownable {\n    using Counters for Counters.Counter;\n    Counters.Counter public _id;\n    Counters.Counter public _proposalCount;\n\n    enum VotingOptions {\n        Yes,\n        No\n    }\n\n    enum VotingStatus {\n        pending,\n        accepted,\n        refused\n    }\n\n    struct SubDao {\n        uint256 id;\n        string name;\n    }\n\n    SubDao[] public subDao;\n\n    struct Proposal {\n        uint256 daoId;\n        uint256 proposalId;\n        address author;\n        string name;\n        string description;\n        uint256 value;\n        uint256 votesForYes;\n        uint256 votesForNo;\n        bool status;\n        string votingStatus;\n        bool propertyNftMinted;\n        bool digitalNftMinted;\n        string docOwnership;\n        string mainImage;\n    }\n\n    event daoCreated(uint256 daoId, string daoName);\n\n    event proposalCreated(\n        uint256 daoId,\n        uint256 proposalId,\n        address owner,\n        string proposalName,\n        string proposalDesc,\n        uint256 value,\n        string docOwnership,\n        string mainImage\n    );\n\n    event voteSetted(\n        uint256 proposalId,\n        address voter,\n        VotingOptions vote,\n        bool updatedProposalStatus\n    );\n\n    event proposalClosed(\n        uint256 proposalId,\n        uint256 finalValue,\n        string votingStatus\n    );\n\n    event propertyMinted(uint256 proposalId, bool propertyMinted);\n    event digitalMinted(uint256 proposalId, bool digitalMinted);\n\n    /// @notice list of members of each DAO : user address => daoId (ie collectionId) => member status\n    mapping(address => mapping(uint256 => bool)) public daoMembers;\n\n    /// @notice store all proposals: proposalId => proposal\n    mapping(uint256 => Proposal) public proposals;\n    /// @notice who already votes for who and to avoid vote twice: voter => proposalId => vote Status\n    mapping(address => mapping(uint256 => bool)) public votes;\n\n    uint256 constant VOTING_PERIOD = 7 days;\n\n    function createDAO(string memory _name) external {\n        SubDao memory newSubDao;\n        newSubDao.id = _id.current();\n        newSubDao.name = _name;\n\n        subDao.push(newSubDao);\n\n        emit daoCreated(_id.current(), _name);\n\n        _id.increment();\n    }\n\n    function createProposal(\n        uint256 _daoId,\n        string memory _name,\n        string memory _description,\n        uint256 _value,\n        string memory _docOwnership,\n        string memory _mainImage\n    ) external {\n        uint256 proposalId = _proposalCount.current();\n\n        proposals[proposalId] = Proposal(\n            _daoId,\n            proposalId,\n            msg.sender,\n            _name,\n            _description,\n            _value,\n            0,\n            0,\n            false,\n            \"pending\",\n            false,\n            false,\n            _docOwnership,\n            _mainImage\n        );\n\n        emit proposalCreated(\n            _daoId,\n            proposalId,\n            msg.sender,\n            _name,\n            _description,\n            _value,\n            _docOwnership,\n            _mainImage\n        );\n\n        _proposalCount.increment();\n    }\n\n    function vote(\n        uint256 _proposalId,\n        uint256 _value,\n        VotingOptions _vote\n    ) external {\n        Proposal storage proposal = proposals[_proposalId];\n        require(votes[msg.sender][_proposalId] == false, \"already voted\");\n        votes[msg.sender][_proposalId] = true;\n        if (_vote == VotingOptions.Yes) {\n            proposal.votesForYes += 1;\n            if (\n                (proposal.votesForYes * 100) /\n                    (proposal.votesForYes + proposal.votesForNo) >\n                50\n            ) {\n                proposal.status = true;\n                proposal.value =\n                    (proposal.value * (proposal.votesForYes - 1) + _value) /\n                    proposal.votesForYes;\n            }\n        } else {\n            proposal.votesForNo += 1;\n            if (\n                (proposal.votesForNo * 100) /\n                    (proposal.votesForYes + proposal.votesForNo) >\n                50\n            ) {\n                proposal.status = false;\n            }\n        }\n\n        emit voteSetted(_proposalId, msg.sender, _vote, proposal.status);\n    }\n\n    function closeProposal(uint256 _proposalId) external onlyOwner {\n        if (proposals[_proposalId].status == true) {\n            proposals[_proposalId].votingStatus = \"accepted\";\n        } else {\n            proposals[_proposalId].votingStatus = \"refused\";\n            proposals[_proposalId].value = 0;\n        }\n\n        emit proposalClosed(\n            _proposalId,\n            proposals[_proposalId].value,\n            proposals[_proposalId].votingStatus\n        );\n    }\n\n    function getProposalStatus(uint256 _proposalId)\n        external\n        view\n        returns (bool proposalStatus)\n    {\n        // require(block.timestamp >= proposals[_daoId][_proposalId].createdAt + VOTING_PERIOD, \"Voting period is not over\");\n        return proposals[_proposalId].status;\n    }\n\n    function updatePropertyMintStatus(uint256 _proposalId) external {\n        proposals[_proposalId].propertyNftMinted = true;\n\n        emit propertyMinted(_proposalId, true);\n    }\n\n    function updateDigitalMintStatus(uint256 _proposalId) external {\n        proposals[_proposalId].digitalNftMinted = true;\n\n        emit digitalMinted(_proposalId, true);\n    }\n}\n",
  "sourcePath": "/Users/jeromejulien/Documents/vscode/FormationAlyra/02_Projets/CollectorChain_TokenizedCollectibles/truffle/contracts/CollectorsDAO.sol",
  "compiler": {
    "name": "solc",
    "version": "0.8.17+commit.8df45f5f.Emscripten.clang"
  },
  "schemaVersion": "3.4.10",
  "updatedAt": "2022-12-08T10:01:38.059Z",
  "networkType": "ethereum",
  "devdoc": {
    "kind": "dev",
    "methods": {
      "owner()": {
        "details": "Returns the address of the current owner."
      },
      "renounceOwnership()": {
        "details": "Leaves the contract without owner. It will not be possible to call `onlyOwner` functions anymore. Can only be called by the current owner. NOTE: Renouncing ownership will leave the contract without an owner, thereby removing any functionality that is only available to the owner."
      },
      "transferOwnership(address)": {
        "details": "Transfers ownership of the contract to a new account (`newOwner`). Can only be called by the current owner."
      }
    },
    "version": 1
  },
  "userdoc": {
    "kind": "user",
    "methods": {
      "daoMembers(address,uint256)": {
        "notice": "list of members of each DAO : user address => daoId (ie collectionId) => member status"
      },
      "proposals(uint256)": {
        "notice": "store all proposals: proposalId => proposal"
      },
      "votes(address,uint256)": {
        "notice": "who already votes for who and to avoid vote twice: voter => proposalId => vote Status"
      }
    },
    "version": 1
  }
}