{
  "contractName": "CollectorsDAO",
  "abi": [
    {
      "anonymous": false,
      "inputs": [
        {
          "indexed": true,
          "internalType": "address",
          "name": "previousOwner",
          "type": "address"
        },
        {
          "indexed": true,
          "internalType": "address",
          "name": "newOwner",
          "type": "address"
        }
      ],
      "name": "OwnershipTransferred",
      "type": "event"
    },
    {
      "anonymous": false,
      "inputs": [
        {
          "indexed": false,
          "internalType": "uint256",
          "name": "daoId",
          "type": "uint256"
        },
        {
          "indexed": false,
          "internalType": "string",
          "name": "daoName",
          "type": "string"
        }
      ],
      "name": "daoCreated",
      "type": "event"
    },
    {
      "anonymous": false,
      "inputs": [
        {
          "indexed": false,
          "internalType": "uint256",
          "name": "proposalId",
          "type": "uint256"
        },
        {
          "indexed": false,
          "internalType": "bool",
          "name": "digitalMinted",
          "type": "bool"
        }
      ],
      "name": "digitalMinted",
      "type": "event"
    },
    {
      "anonymous": false,
      "inputs": [
        {
          "indexed": false,
          "internalType": "address",
          "name": "newMember",
          "type": "address"
        }
      ],
      "name": "memberAdded",
      "type": "event"
    },
    {
      "anonymous": false,
      "inputs": [
        {
          "indexed": false,
          "internalType": "uint256",
          "name": "proposalId",
          "type": "uint256"
        },
        {
          "indexed": false,
          "internalType": "bool",
          "name": "propertyMinted",
          "type": "bool"
        }
      ],
      "name": "propertyMinted",
      "type": "event"
    },
    {
      "anonymous": false,
      "inputs": [
        {
          "indexed": false,
          "internalType": "uint256",
          "name": "proposalId",
          "type": "uint256"
        },
        {
          "indexed": false,
          "internalType": "uint256",
          "name": "finalValue",
          "type": "uint256"
        },
        {
          "indexed": false,
          "internalType": "string",
          "name": "votingStatus",
          "type": "string"
        }
      ],
      "name": "proposalClosed",
      "type": "event"
    },
    {
      "anonymous": false,
      "inputs": [
        {
          "indexed": false,
          "internalType": "uint256",
          "name": "daoId",
          "type": "uint256"
        },
        {
          "indexed": false,
          "internalType": "uint256",
          "name": "proposalId",
          "type": "uint256"
        },
        {
          "indexed": false,
          "internalType": "address",
          "name": "owner",
          "type": "address"
        },
        {
          "indexed": false,
          "internalType": "string",
          "name": "proposalName",
          "type": "string"
        },
        {
          "indexed": false,
          "internalType": "string",
          "name": "proposalDesc",
          "type": "string"
        },
        {
          "indexed": false,
          "internalType": "uint256",
          "name": "value",
          "type": "uint256"
        },
        {
          "indexed": false,
          "internalType": "string",
          "name": "docOwnership",
          "type": "string"
        },
        {
          "indexed": false,
          "internalType": "string",
          "name": "mainImage",
          "type": "string"
        }
      ],
      "name": "proposalCreated",
      "type": "event"
    },
    {
      "anonymous": false,
      "inputs": [
        {
          "indexed": false,
          "internalType": "uint256",
          "name": "proposalId",
          "type": "uint256"
        },
        {
          "indexed": false,
          "internalType": "address",
          "name": "voter",
          "type": "address"
        },
        {
          "indexed": false,
          "internalType": "enum CollectorsDAO.VotingOptions",
          "name": "vote",
          "type": "uint8"
        },
        {
          "indexed": false,
          "internalType": "bool",
          "name": "updatedProposalStatus",
          "type": "bool"
        }
      ],
      "name": "voteSetted",
      "type": "event"
    },
    {
      "inputs": [],
      "name": "_id",
      "outputs": [
        {
          "internalType": "uint256",
          "name": "_value",
          "type": "uint256"
        }
      ],
      "stateMutability": "view",
      "type": "function",
      "constant": true
    },
    {
      "inputs": [],
      "name": "_proposalCount",
      "outputs": [
        {
          "internalType": "uint256",
          "name": "_value",
          "type": "uint256"
        }
      ],
      "stateMutability": "view",
      "type": "function",
      "constant": true
    },
    {
      "inputs": [
        {
          "internalType": "address",
          "name": "",
          "type": "address"
        }
      ],
      "name": "daoMembers",
      "outputs": [
        {
          "internalType": "bool",
          "name": "",
          "type": "bool"
        }
      ],
      "stateMutability": "view",
      "type": "function",
      "constant": true
    },
    {
      "inputs": [],
      "name": "owner",
      "outputs": [
        {
          "internalType": "address",
          "name": "",
          "type": "address"
        }
      ],
      "stateMutability": "view",
      "type": "function",
      "constant": true
    },
    {
      "inputs": [
        {
          "internalType": "uint256",
          "name": "",
          "type": "uint256"
        }
      ],
      "name": "proposals",
      "outputs": [
        {
          "internalType": "uint256",
          "name": "daoId",
          "type": "uint256"
        },
        {
          "internalType": "uint256",
          "name": "proposalId",
          "type": "uint256"
        },
        {
          "internalType": "address",
          "name": "author",
          "type": "address"
        },
        {
          "internalType": "string",
          "name": "name",
          "type": "string"
        },
        {
          "internalType": "string",
          "name": "description",
          "type": "string"
        },
        {
          "internalType": "uint256",
          "name": "value",
          "type": "uint256"
        },
        {
          "internalType": "uint256",
          "name": "votesForYes",
          "type": "uint256"
        },
        {
          "internalType": "uint256",
          "name": "votesForNo",
          "type": "uint256"
        },
        {
          "internalType": "bool",
          "name": "status",
          "type": "bool"
        },
        {
          "internalType": "string",
          "name": "votingStatus",
          "type": "string"
        },
        {
          "internalType": "bool",
          "name": "propertyNftMinted",
          "type": "bool"
        },
        {
          "internalType": "bool",
          "name": "digitalNftMinted",
          "type": "bool"
        },
        {
          "internalType": "string",
          "name": "docOwnership",
          "type": "string"
        },
        {
          "internalType": "string",
          "name": "mainImage",
          "type": "string"
        }
      ],
      "stateMutability": "view",
      "type": "function",
      "constant": true
    },
    {
      "inputs": [],
      "name": "renounceOwnership",
      "outputs": [],
      "stateMutability": "nonpayable",
      "type": "function"
    },
    {
      "inputs": [
        {
          "internalType": "uint256",
          "name": "",
          "type": "uint256"
        }
      ],
      "name": "subDao",
      "outputs": [
        {
          "internalType": "uint256",
          "name": "id",
          "type": "uint256"
        },
        {
          "internalType": "string",
          "name": "name",
          "type": "string"
        }
      ],
      "stateMutability": "view",
      "type": "function",
      "constant": true
    },
    {
      "inputs": [
        {
          "internalType": "address",
          "name": "newOwner",
          "type": "address"
        }
      ],
      "name": "transferOwnership",
      "outputs": [],
      "stateMutability": "nonpayable",
      "type": "function"
    },
    {
      "inputs": [
        {
          "internalType": "address",
          "name": "",
          "type": "address"
        },
        {
          "internalType": "uint256",
          "name": "",
          "type": "uint256"
        }
      ],
      "name": "votes",
      "outputs": [
        {
          "internalType": "bool",
          "name": "",
          "type": "bool"
        }
      ],
      "stateMutability": "view",
      "type": "function",
      "constant": true
    },
    {
      "inputs": [
        {
          "internalType": "string",
          "name": "_name",
          "type": "string"
        }
      ],
      "name": "createDAO",
      "outputs": [],
      "stateMutability": "nonpayable",
      "type": "function"
    },
    {
      "inputs": [
        {
          "internalType": "address",
          "name": "_newMember",
          "type": "address"
        }
      ],
      "name": "addDaoMember",
      "outputs": [],
      "stateMutability": "nonpayable",
      "type": "function"
    },
    {
      "inputs": [
        {
          "internalType": "uint256",
          "name": "_daoId",
          "type": "uint256"
        },
        {
          "internalType": "string",
          "name": "_name",
          "type": "string"
        },
        {
          "internalType": "string",
          "name": "_description",
          "type": "string"
        },
        {
          "internalType": "uint256",
          "name": "_value",
          "type": "uint256"
        },
        {
          "internalType": "string",
          "name": "_docOwnership",
          "type": "string"
        },
        {
          "internalType": "string",
          "name": "_mainImage",
          "type": "string"
        }
      ],
      "name": "createProposal",
      "outputs": [],
      "stateMutability": "nonpayable",
      "type": "function"
    },
    {
      "inputs": [
        {
          "internalType": "uint256",
          "name": "_proposalId",
          "type": "uint256"
        },
        {
          "internalType": "uint256",
          "name": "_value",
          "type": "uint256"
        },
        {
          "internalType": "enum CollectorsDAO.VotingOptions",
          "name": "_vote",
          "type": "uint8"
        }
      ],
      "name": "vote",
      "outputs": [],
      "stateMutability": "nonpayable",
      "type": "function"
    },
    {
      "inputs": [
        {
          "internalType": "uint256",
          "name": "_proposalId",
          "type": "uint256"
        }
      ],
      "name": "closeProposal",
      "outputs": [],
      "stateMutability": "nonpayable",
      "type": "function"
    },
    {
      "inputs": [
        {
          "internalType": "uint256",
          "name": "_proposalId",
          "type": "uint256"
        }
      ],
      "name": "getProposalStatus",
      "outputs": [
        {
          "internalType": "bool",
          "name": "proposalStatus",
          "type": "bool"
        }
      ],
      "stateMutability": "view",
      "type": "function",
      "constant": true
    },
    {
      "inputs": [
        {
          "internalType": "uint256",
          "name": "_proposalId",
          "type": "uint256"
        }
      ],
      "name": "updatePropertyMintStatus",
      "outputs": [],
      "stateMutability": "nonpayable",
      "type": "function"
    },
    {
      "inputs": [
        {
          "internalType": "uint256",
          "name": "_proposalId",
          "type": "uint256"
        }
      ],
      "name": "updateDigitalMintStatus",
      "outputs": [],
      "stateMutability": "nonpayable",
      "type": "function"
    }
  ],
  "bytecode": "0x608060405234801561001057600080fd5b5061001a3361001f565b61006f565b600080546001600160a01b038381166001600160a01b0319831681178455604051919092169283917f8be0079c531659141344cd1fd0a4f28419497f9722a3daafe3b4186f6b6457e09190a35050565b611a688061007e6000396000f3fe608060405234801561001057600080fd5b506004361061011b5760003560e01c8063845c776d116100b2578063979a63de11610081578063bbb2eab911610066578063bbb2eab9146102a3578063c4e02147146102b6578063f2fde38b146102d757600080fd5b8063979a63de146102625780639f2524ee1461027557600080fd5b8063845c776d146101f1578063864defa2146102045780638da5cb5b14610217578063959068ea1461023f57600080fd5b8063401853b7116100ee578063401853b7146101965780634830ebcf146101cc5780636f2904cc146101df578063715018a6146101e957600080fd5b8063013cf08b146101205780630386a01614610156578063051802371461016b578063259a446614610183575b600080fd5b61013361012e366004611207565b6102ea565b60405161014d9e9d9c9b9a99989796959493929190611284565b60405180910390f35b610169610164366004611207565b610621565b005b6001546101759081565b60405190815260200161014d565b610169610191366004611207565b6107e2565b6101bc6101a4366004611207565b60009081526005602052604090206008015460ff1690565b604051901515815260200161014d565b6101696101da36600461143b565b61085b565b6002546101759081565b610169610933565b6101696101ff366004611207565b610947565b6101696102123660046114a1565b61099b565b60005460405173ffffffffffffffffffffffffffffffffffffffff909116815260200161014d565b6101bc61024d3660046114a1565b60046020526000908152604090205460ff1681565b6101696102703660046114c3565b610a94565b6101bc610283366004611582565b600660209081526000928352604080842090915290825290205460ff1681565b6101696102b13660046115ac565b610d0c565b6102c96102c4366004611207565b610fa2565b60405161014d9291906115e9565b6101696102e53660046114a1565b61105a565b60056020526000908152604090208054600182015460028301546003840180549394929373ffffffffffffffffffffffffffffffffffffffff909216929161033190611602565b80601f016020809104026020016040519081016040528092919081815260200182805461035d90611602565b80156103aa5780601f1061037f576101008083540402835291602001916103aa565b820191906000526020600020905b81548152906001019060200180831161038d57829003601f168201915b5050505050908060040180546103bf90611602565b80601f01602080910402602001604051908101604052809291908181526020018280546103eb90611602565b80156104385780601f1061040d57610100808354040283529160200191610438565b820191906000526020600020905b81548152906001019060200180831161041b57829003601f168201915b50505060058401546006850154600786015460088701546009880180549798949793965091945060ff16929161046d90611602565b80601f016020809104026020016040519081016040528092919081815260200182805461049990611602565b80156104e65780601f106104bb576101008083540402835291602001916104e6565b820191906000526020600020905b8154815290600101906020018083116104c957829003601f168201915b50505050600a830154600b84018054939460ff808416956101009094041693509161051090611602565b80601f016020809104026020016040519081016040528092919081815260200182805461053c90611602565b80156105895780601f1061055e57610100808354040283529160200191610589565b820191906000526020600020905b81548152906001019060200180831161056c57829003601f168201915b50505050509080600c01805461059e90611602565b80601f01602080910402602001604051908101604052809291908181526020018280546105ca90611602565b80156106175780601f106105ec57610100808354040283529160200191610617565b820191906000526020600020905b8154815290600101906020018083116105fa57829003601f168201915b505050505090508e565b3360009081526004602052604090205460ff1615156001146106a4576040517f08c379a000000000000000000000000000000000000000000000000000000000815260206004820152601560248201527f6e6f74206d656d626572206f66207468652044414f000000000000000000000060448201526064015b60405180910390fd5b60008181526005602052604090206008015460ff161515600103610720576040518060400160405280600881526020017f616363657074656400000000000000000000000000000000000000000000000081525060056000838152602001908152602001600020600901908161071a91906116a4565b5061078c565b6040518060400160405280600781526020017f726566757365640000000000000000000000000000000000000000000000000081525060056000838152602001908152602001600020600901908161077891906116a4565b506000818152600560208190526040822001555b6000818152600560208190526040918290209081015491517f321c3f57789939cd39adec5d8128505091bd9203987e6809db9bc7c8213c485f926107d79285926009909101906117be565b60405180910390a150565b60008181526005602052604090819020600a0180547fffffffffffffffffffffffffffffffffffffffffffffffffffffffffffff00ff16610100179055517f5802cc018bf0d01c7ed6c794bb8d560c639d43858443f4aaf18d96cd6051419b906107d79083906001909182521515602082015260400190565b604080518082019091526001805482526020820183815260038054928301815560005282517fc2575a0e9e593c00f959f8c92f12db2869c3395a3b0502d05e2516446f71f85b6002909302928301908155905183927fc2575a0e9e593c00f959f8c92f12db2869c3395a3b0502d05e2516446f71f85c01906108dd90826116a4565b5050507f233468f62cb5569433a2646a1c57b4333dc80fc4881a358e28455bb25feb3be361090a60015490565b836040516109199291906115e9565b60405180910390a161092f600180546001019055565b5050565b61093b611111565b6109456000611192565b565b600081815260056020908152604091829020600a01805460ff191660019081179091558251848152918201527fc2c6d84af001f6703730e6a4be5cdb2d3ed3e5998823abcfb475ffc10dc80d1391016107d7565b6109a3611111565b73ffffffffffffffffffffffffffffffffffffffff811660009081526004602052604090205460ff1615610a33576040517f08c379a000000000000000000000000000000000000000000000000000000000815260206004820152601060248201527f616c72656164792061206d656d62657200000000000000000000000000000000604482015260640161069b565b73ffffffffffffffffffffffffffffffffffffffff8116600081815260046020908152604091829020805460ff1916600117905590519182527fdbfcb877450159cfc3af51c0e4fd98de8b92ebb8fe2b8ee929f3320c5c5a897091016107d7565b6000610a9f60025490565b604080516101c081018252898152602080820184815233838501908152606084018c8152608085018c905260a085018b9052600060c0860181905260e08601819052610100860181905286518088018852600781527f70656e64696e6700000000000000000000000000000000000000000000000000818701526101208701526101408601819052610160860181905261018086018b90526101a086018a9052878152600590945294909220835181559051600182015590516002820180547fffffffffffffffffffffffff00000000000000000000000000000000000000001673ffffffffffffffffffffffffffffffffffffffff9092169190911790559151929350916003820190610bb390826116a4565b5060808201516004820190610bc890826116a4565b5060a0820151600582015560c0820151600682015560e0820151600782015561010082015160088201805460ff19169115159190911790556101208201516009820190610c1590826116a4565b50610140820151600a820180546101608501511515610100027fffffffffffffffffffffffffffffffffffffffffffffffffffffffffffff00ff931515939093167fffffffffffffffffffffffffffffffffffffffffffffffffffffffffffff000090911617919091179055610180820151600b820190610c9690826116a4565b506101a0820151600c820190610cac90826116a4565b509050507f3def31f11840d66bfe2d5e185f6a870795e28798376bac72ba4d66745b09c9df8782338989898989604051610ced989796959493929190611858565b60405180910390a1610d03600280546001019055565b50505050505050565b600083815260056020908152604080832033845260049092529091205460ff161515600114610d97576040517f08c379a000000000000000000000000000000000000000000000000000000000815260206004820152601560248201527f6e6f74206d656d626572206f66207468652044414f0000000000000000000000604482015260640161069b565b33600090815260066020908152604080832087845290915290205460ff1615610e1c576040517f08c379a000000000000000000000000000000000000000000000000000000000815260206004820152600d60248201527f616c726561647920766f74656400000000000000000000000000000000000000604482015260640161069b565b3360009081526006602090815260408083208784529091528120805460ff19166001179055826001811115610e5357610e536118e5565b03610efa576001816006016000828254610e6d9190611943565b909155505060078101546006820154603291610e8891611943565b6006830154610e9890606461195c565b610ea29190611973565b1115610ef55760088101805460ff191660019081179091556006820154908490610ecc90836119ae565b8360050154610edb919061195c565b610ee59190611943565b610eef9190611973565b60058201555b610f57565b6001816007016000828254610f0f9190611943565b909155505060078101546006820154603291610f2a91611943565b6007830154610f3a90606461195c565b610f449190611973565b1115610f575760088101805460ff191690555b60088101546040517f850c01f77ce89db19c181f2bfa4b0511a21b3950c753d84abe84ef69195cce1191610f949187913391879160ff16906119c1565b60405180910390a150505050565b60038181548110610fb257600080fd5b60009182526020909120600290910201805460018201805491935090610fd790611602565b80601f016020809104026020016040519081016040528092919081815260200182805461100390611602565b80156110505780601f1061102557610100808354040283529160200191611050565b820191906000526020600020905b81548152906001019060200180831161103357829003601f168201915b5050505050905082565b611062611111565b73ffffffffffffffffffffffffffffffffffffffff8116611105576040517f08c379a000000000000000000000000000000000000000000000000000000000815260206004820152602660248201527f4f776e61626c653a206e6577206f776e657220697320746865207a65726f206160448201527f6464726573730000000000000000000000000000000000000000000000000000606482015260840161069b565b61110e81611192565b50565b60005473ffffffffffffffffffffffffffffffffffffffff163314610945576040517f08c379a000000000000000000000000000000000000000000000000000000000815260206004820181905260248201527f4f776e61626c653a2063616c6c6572206973206e6f7420746865206f776e6572604482015260640161069b565b6000805473ffffffffffffffffffffffffffffffffffffffff8381167fffffffffffffffffffffffff0000000000000000000000000000000000000000831681178455604051919092169283917f8be0079c531659141344cd1fd0a4f28419497f9722a3daafe3b4186f6b6457e09190a35050565b60006020828403121561121957600080fd5b5035919050565b6000815180845260005b818110156112465760208185018101518683018201520161122a565b5060006020828601015260207fffffffffffffffffffffffffffffffffffffffffffffffffffffffffffffffe0601f83011685010191505092915050565b8e81528d60208201526112af604082018e73ffffffffffffffffffffffffffffffffffffffff169052565b6101c0606082015260006112c76101c083018e611220565b82810360808401526112d9818e611220565b90508b60a08401528a60c08401528960e08401526112fc61010084018a15159052565b82810361012084015261130f8189611220565b87151561014085015290508515156101608401528281036101808401526113368186611220565b90508281036101a084015261134b8185611220565b9150509f9e505050505050505050505050505050565b7f4e487b7100000000000000000000000000000000000000000000000000000000600052604160045260246000fd5b600082601f8301126113a157600080fd5b813567ffffffffffffffff808211156113bc576113bc611361565b604051601f83017fffffffffffffffffffffffffffffffffffffffffffffffffffffffffffffffe0908116603f0116810190828211818310171561140257611402611361565b8160405283815286602085880101111561141b57600080fd5b836020870160208301376000602085830101528094505050505092915050565b60006020828403121561144d57600080fd5b813567ffffffffffffffff81111561146457600080fd5b61147084828501611390565b949350505050565b803573ffffffffffffffffffffffffffffffffffffffff8116811461149c57600080fd5b919050565b6000602082840312156114b357600080fd5b6114bc82611478565b9392505050565b60008060008060008060c087890312156114dc57600080fd5b86359550602087013567ffffffffffffffff808211156114fb57600080fd5b6115078a838b01611390565b9650604089013591508082111561151d57600080fd5b6115298a838b01611390565b955060608901359450608089013591508082111561154657600080fd5b6115528a838b01611390565b935060a089013591508082111561156857600080fd5b5061157589828a01611390565b9150509295509295509295565b6000806040838503121561159557600080fd5b61159e83611478565b946020939093013593505050565b6000806000606084860312156115c157600080fd5b83359250602084013591506040840135600281106115de57600080fd5b809150509250925092565b8281526040602082015260006114706040830184611220565b600181811c9082168061161657607f821691505b60208210810361164f577f4e487b7100000000000000000000000000000000000000000000000000000000600052602260045260246000fd5b50919050565b601f82111561169f57600081815260208120601f850160051c8101602086101561167c5750805b601f850160051c820191505b8181101561169b57828155600101611688565b5050505b505050565b815167ffffffffffffffff8111156116be576116be611361565b6116d2816116cc8454611602565b84611655565b602080601f83116001811461172557600084156116ef5750858301515b7fffffffffffffffffffffffffffffffffffffffffffffffffffffffffffffffff600386901b1c1916600185901b17855561169b565b6000858152602081207fffffffffffffffffffffffffffffffffffffffffffffffffffffffffffffffe08616915b8281101561177257888601518255948401946001909101908401611753565b50858210156117ae57878501517fffffffffffffffffffffffffffffffffffffffffffffffffffffffffffffffff600388901b60f8161c191681555b5050505050600190811b01905550565b83815260006020848184015260606040840152600084546117de81611602565b8060608701526080600180841660008114611800576001811461181a57611848565b60ff198516838a01528284151560051b8a01019550611848565b896000528660002060005b858110156118405781548b8201860152908301908801611825565b8a0184019650505b50939a9950505050505050505050565b60006101008a835289602084015273ffffffffffffffffffffffffffffffffffffffff8916604084015280606084015261189481840189611220565b905082810360808401526118a88188611220565b90508560a084015282810360c08401526118c28186611220565b905082810360e08401526118d68185611220565b9b9a5050505050505050505050565b7f4e487b7100000000000000000000000000000000000000000000000000000000600052602160045260246000fd5b7f4e487b7100000000000000000000000000000000000000000000000000000000600052601160045260246000fd5b8082018082111561195657611956611914565b92915050565b808202811582820484141761195657611956611914565b6000826119a9577f4e487b7100000000000000000000000000000000000000000000000000000000600052601260045260246000fd5b500490565b8181038181111561195657611956611914565b84815273ffffffffffffffffffffffffffffffffffffffff841660208201526080810160028410611a1b577f4e487b7100000000000000000000000000000000000000000000000000000000600052602160045260246000fd5b83604083015282151560608301529594505050505056fea2646970667358221220cee227346744a669e92a5a13945c3333e61a1585a5f2d1b576aa1fe94c9b447d64736f6c63430008110033",
  "immutableReferences": {},
  "source": "// SPDX-License-Identifier: GPL-3.0\npragma solidity 0.8.17;\n\nimport \"../node_modules/@openzeppelin/contracts/utils/Counters.sol\";\nimport \"../node_modules/@openzeppelin/contracts/access/Ownable.sol\";\n\n/// @notice this contract manage all topic of the DAO : subDao creation, member management, proposal and vote management\ncontract CollectorsDAO is Ownable {\n    using Counters for Counters.Counter;\n    Counters.Counter public _id;\n    Counters.Counter public _proposalCount;\n\n    enum VotingOptions {\n        Yes,\n        No\n    }\n\n    enum VotingStatus {\n        pending,\n        accepted,\n        refused\n    }\n\n    struct SubDao {\n        uint256 id;\n        string name;\n    }\n\n    SubDao[] public subDao;\n\n    struct Proposal {\n        uint256 daoId;\n        uint256 proposalId;\n        address author;\n        string name;\n        string description;\n        uint256 value;\n        uint256 votesForYes;\n        uint256 votesForNo;\n        bool status;\n        string votingStatus;\n        bool propertyNftMinted;\n        bool digitalNftMinted;\n        string docOwnership;\n        string mainImage;\n    }\n\n    event daoCreated(uint256 daoId, string daoName);\n\n    event memberAdded(address newMember);\n\n    event proposalCreated(\n        uint256 daoId,\n        uint256 proposalId,\n        address owner,\n        string proposalName,\n        string proposalDesc,\n        uint256 value,\n        string docOwnership,\n        string mainImage\n    );\n\n    event voteSetted(\n        uint256 proposalId,\n        address voter,\n        VotingOptions vote,\n        bool updatedProposalStatus\n    );\n\n    event proposalClosed(\n        uint256 proposalId,\n        uint256 finalValue,\n        string votingStatus\n    );\n\n    event propertyMinted(uint256 proposalId, bool propertyMinted);\n    event digitalMinted(uint256 proposalId, bool digitalMinted);\n\n    /// @notice list of members of the DAO : user address => member status\n    /// @notice allow member to vote and close proposal\n    mapping(address => bool) public daoMembers;\n\n    /// @notice store all proposals: proposalId => proposal\n    /// @dev call by front end\n    mapping(uint256 => Proposal) public proposals;\n    /// @notice who already votes for which proposal and to avoid vote twice: voter => proposalId => vote Status\n    /// @dev call by front end\n    mapping(address => mapping(uint256 => bool)) public votes;\n\n    /// @dev to be used later\n    uint256 constant VOTING_PERIOD = 7 days;\n\n    /// @notice create a new DAO linked to a collection\n    /// @param _name name of the new collection\n    /// @dev function call by factory contract\n    function createDAO(string memory _name) external {\n        SubDao memory newSubDao;\n        newSubDao.id = _id.current();\n        newSubDao.name = _name;\n\n        subDao.push(newSubDao);\n\n        emit daoCreated(_id.current(), _name);\n\n        _id.increment();\n    }\n\n    /// @notice add member to DAO to allow him to vote and close for proposal\n    /// @notice only owner of the contract can call the function\n    function addDaoMember(address _newMember) external onlyOwner {\n        require(daoMembers[_newMember] == false, \"already a member\");\n        daoMembers[_newMember] = true;\n\n        emit memberAdded(_newMember);\n    }\n\n    /// @notice create a new proposal\n    /// @param _daoId dao concerned by the proposal\n    /// @param _name name of the object to mint\n    /// @param _description description of the object to mint\n    /// @param _value estimated value of the object by the applicant\n    /// @param _docOwnership picture of the proof of ownership provided by the applicant\n    /// @param _mainImage picture of the object provided by the applicant\n    function createProposal(\n        uint256 _daoId,\n        string memory _name,\n        string memory _description,\n        uint256 _value,\n        string memory _docOwnership,\n        string memory _mainImage\n    ) external {\n        uint256 proposalId = _proposalCount.current();\n\n        proposals[proposalId] = Proposal(\n            _daoId,\n            proposalId,\n            msg.sender,\n            _name,\n            _description,\n            _value,\n            0,\n            0,\n            false,\n            \"pending\",\n            false,\n            false,\n            _docOwnership,\n            _mainImage\n        );\n\n        emit proposalCreated(\n            _daoId,\n            proposalId,\n            msg.sender,\n            _name,\n            _description,\n            _value,\n            _docOwnership,\n            _mainImage\n        );\n\n        _proposalCount.increment();\n    }\n\n    /// @notice set a vote for a proposal\n    /// @notice only DAO members can do it\n    /// @notice user need to vote yes or no + give a estimated value\n    function vote(\n        uint256 _proposalId,\n        uint256 _value,\n        VotingOptions _vote\n    ) external {\n        Proposal storage proposal = proposals[_proposalId];\n        require(daoMembers[msg.sender] == true, \"not member of the DAO\");\n        require(votes[msg.sender][_proposalId] == false, \"already voted\");\n        votes[msg.sender][_proposalId] = true;\n        if (_vote == VotingOptions.Yes) {\n            proposal.votesForYes += 1;\n            if (\n                (proposal.votesForYes * 100) /\n                    (proposal.votesForYes + proposal.votesForNo) >\n                50\n            ) {\n                proposal.status = true;\n                proposal.value =\n                    (proposal.value * (proposal.votesForYes - 1) + _value) /\n                    proposal.votesForYes;\n            }\n        } else {\n            proposal.votesForNo += 1;\n            if (\n                (proposal.votesForNo * 100) /\n                    (proposal.votesForYes + proposal.votesForNo) >\n                50\n            ) {\n                proposal.status = false;\n            }\n        }\n\n        emit voteSetted(_proposalId, msg.sender, _vote, proposal.status);\n    }\n\n    /// @notice close a proposal\n    /// @notice only DAO members can do it\n    /// @notice the status of the proposal is set during this fonction (accepted if vote yes > vote no)\n    function closeProposal(uint256 _proposalId) external {\n        require(daoMembers[msg.sender] == true, \"not member of the DAO\");\n        if (proposals[_proposalId].status == true) {\n            proposals[_proposalId].votingStatus = \"accepted\";\n        } else {\n            proposals[_proposalId].votingStatus = \"refused\";\n            proposals[_proposalId].value = 0;\n        }\n\n        emit proposalClosed(\n            _proposalId,\n            proposals[_proposalId].value,\n            proposals[_proposalId].votingStatus\n        );\n    }\n\n    /// @dev getter for development purpose\n    function getProposalStatus(uint256 _proposalId)\n        external\n        view\n        returns (bool proposalStatus)\n    {\n        // require(block.timestamp >= proposals[_daoId][_proposalId].createdAt + VOTING_PERIOD, \"Voting period is not over\");\n        return proposals[_proposalId].status;\n    }\n\n    /// @dev for front end management purpose\n    function updatePropertyMintStatus(uint256 _proposalId) external {\n        proposals[_proposalId].propertyNftMinted = true;\n\n        emit propertyMinted(_proposalId, true);\n    }\n\n    /// @dev for front end management purpose\n    function updateDigitalMintStatus(uint256 _proposalId) external {\n        proposals[_proposalId].digitalNftMinted = true;\n\n        emit digitalMinted(_proposalId, true);\n    }\n}\n",
  "sourcePath": "/Users/jeromejulien/Documents/vscode/FormationAlyra/02_Projets/CollectorChain_TokenizedCollectibles/truffle/contracts/CollectorsDAO.sol",
  "compiler": {
    "name": "solc",
    "version": "0.8.17+commit.8df45f5f.Emscripten.clang"
  },
  "schemaVersion": "3.4.10",
  "updatedAt": "2022-12-08T11:59:17.943Z",
  "networkType": "ethereum",
  "devdoc": {
    "kind": "dev",
    "methods": {
      "createDAO(string)": {
        "details": "function call by factory contract",
        "params": {
          "_name": "name of the new collection"
        }
      },
      "createProposal(uint256,string,string,uint256,string,string)": {
        "params": {
          "_daoId": "dao concerned by the proposal",
          "_description": "description of the object to mint",
          "_docOwnership": "picture of the proof of ownership provided by the applicant",
          "_mainImage": "picture of the object provided by the applicant",
          "_name": "name of the object to mint",
          "_value": "estimated value of the object by the applicant"
        }
      },
      "getProposalStatus(uint256)": {
        "details": "getter for development purpose"
      },
      "owner()": {
        "details": "Returns the address of the current owner."
      },
      "renounceOwnership()": {
        "details": "Leaves the contract without owner. It will not be possible to call `onlyOwner` functions anymore. Can only be called by the current owner. NOTE: Renouncing ownership will leave the contract without an owner, thereby removing any functionality that is only available to the owner."
      },
      "transferOwnership(address)": {
        "details": "Transfers ownership of the contract to a new account (`newOwner`). Can only be called by the current owner."
      },
      "updateDigitalMintStatus(uint256)": {
        "details": "for front end management purpose"
      },
      "updatePropertyMintStatus(uint256)": {
        "details": "for front end management purpose"
      }
    },
    "stateVariables": {
      "VOTING_PERIOD": {
        "details": "to be used later"
      },
      "proposals": {
        "details": "call by front end"
      },
      "votes": {
        "details": "call by front end"
      }
    },
    "version": 1
  },
  "userdoc": {
    "kind": "user",
    "methods": {
      "addDaoMember(address)": {
        "notice": "add member to DAO to allow him to vote and close for proposalonly owner of the contract can call the function"
      },
      "closeProposal(uint256)": {
        "notice": "close a proposalonly DAO members can do itthe status of the proposal is set during this fonction (accepted if vote yes > vote no)"
      },
      "createDAO(string)": {
        "notice": "create a new DAO linked to a collection"
      },
      "createProposal(uint256,string,string,uint256,string,string)": {
        "notice": "create a new proposal"
      },
      "daoMembers(address)": {
        "notice": "list of members of the DAO : user address => member statusallow member to vote and close proposal"
      },
      "proposals(uint256)": {
        "notice": "store all proposals: proposalId => proposal"
      },
      "vote(uint256,uint256,uint8)": {
        "notice": "set a vote for a proposalonly DAO members can do ituser need to vote yes or no + give a estimated value"
      },
      "votes(address,uint256)": {
        "notice": "who already votes for which proposal and to avoid vote twice: voter => proposalId => vote Status"
      }
    },
    "notice": "this contract manage all topic of the DAO : subDao creation, member management, proposal and vote management",
    "version": 1
  }
}