{
  "contractName": "CollectorsDAO",
  "abi": [
    {
      "inputs": [],
      "name": "_id",
      "outputs": [
        {
          "internalType": "uint256",
          "name": "_value",
          "type": "uint256"
        }
      ],
      "stateMutability": "view",
      "type": "function",
      "constant": true
    },
    {
      "inputs": [
        {
          "internalType": "address",
          "name": "",
          "type": "address"
        },
        {
          "internalType": "uint256",
          "name": "",
          "type": "uint256"
        }
      ],
      "name": "daoMembers",
      "outputs": [
        {
          "internalType": "bool",
          "name": "",
          "type": "bool"
        }
      ],
      "stateMutability": "view",
      "type": "function",
      "constant": true
    },
    {
      "inputs": [
        {
          "internalType": "uint256",
          "name": "",
          "type": "uint256"
        },
        {
          "internalType": "uint256",
          "name": "",
          "type": "uint256"
        }
      ],
      "name": "proposals",
      "outputs": [
        {
          "internalType": "uint256",
          "name": "id",
          "type": "uint256"
        },
        {
          "internalType": "address",
          "name": "author",
          "type": "address"
        },
        {
          "internalType": "string",
          "name": "name",
          "type": "string"
        },
        {
          "internalType": "string",
          "name": "description",
          "type": "string"
        },
        {
          "internalType": "uint256",
          "name": "createdAt",
          "type": "uint256"
        },
        {
          "internalType": "uint256",
          "name": "votesForYes",
          "type": "uint256"
        },
        {
          "internalType": "uint256",
          "name": "votesForNo",
          "type": "uint256"
        },
        {
          "internalType": "bool",
          "name": "status",
          "type": "bool"
        }
      ],
      "stateMutability": "view",
      "type": "function",
      "constant": true
    },
    {
      "inputs": [
        {
          "internalType": "uint256",
          "name": "",
          "type": "uint256"
        }
      ],
      "name": "subDao",
      "outputs": [
        {
          "internalType": "uint256",
          "name": "id",
          "type": "uint256"
        },
        {
          "internalType": "string",
          "name": "name",
          "type": "string"
        },
        {
          "internalType": "uint256",
          "name": "proposalCount",
          "type": "uint256"
        }
      ],
      "stateMutability": "view",
      "type": "function",
      "constant": true
    },
    {
      "inputs": [
        {
          "internalType": "address",
          "name": "",
          "type": "address"
        },
        {
          "internalType": "uint256",
          "name": "",
          "type": "uint256"
        },
        {
          "internalType": "uint256",
          "name": "",
          "type": "uint256"
        }
      ],
      "name": "votes",
      "outputs": [
        {
          "internalType": "bool",
          "name": "",
          "type": "bool"
        }
      ],
      "stateMutability": "view",
      "type": "function",
      "constant": true
    },
    {
      "inputs": [
        {
          "internalType": "string",
          "name": "_name",
          "type": "string"
        }
      ],
      "name": "createDAO",
      "outputs": [],
      "stateMutability": "nonpayable",
      "type": "function"
    },
    {
      "inputs": [
        {
          "internalType": "uint256",
          "name": "_daoId",
          "type": "uint256"
        },
        {
          "internalType": "string",
          "name": "_name",
          "type": "string"
        },
        {
          "internalType": "string",
          "name": "_description",
          "type": "string"
        }
      ],
      "name": "createProposal",
      "outputs": [],
      "stateMutability": "nonpayable",
      "type": "function"
    },
    {
      "inputs": [
        {
          "internalType": "uint256",
          "name": "_daoId",
          "type": "uint256"
        },
        {
          "internalType": "uint256",
          "name": "_proposalId",
          "type": "uint256"
        },
        {
          "internalType": "enum CollectorsDAO.VotingOptions",
          "name": "_vote",
          "type": "uint8"
        }
      ],
      "name": "vote",
      "outputs": [],
      "stateMutability": "nonpayable",
      "type": "function"
    },
    {
      "inputs": [
        {
          "internalType": "uint256",
          "name": "_daoId",
          "type": "uint256"
        },
        {
          "internalType": "uint256",
          "name": "_proposalId",
          "type": "uint256"
        }
      ],
      "name": "getProposalStatus",
      "outputs": [
        {
          "internalType": "bool",
          "name": "proposalStatus",
          "type": "bool"
        }
      ],
      "stateMutability": "view",
      "type": "function",
      "constant": true
    }
  ],
  "bytecode": "0x608060405234801561001057600080fd5b50610d15806100206000396000f3fe608060405234801561001057600080fd5b50600436106100935760003560e01c8063b925cecd11610066578063b925cecd1461011b578063bbb2eab91461014f578063c2cfee2714610162578063c4e0214714610189578063e06f379a146101ab57600080fd5b806305180237146100985780634830ebcf146100b55780637a5e3a26146100ca5780638a465bd1146100dd575b600080fd5b6000546100a29081565b6040519081526020015b60405180910390f35b6100c86100c3366004610895565b6101be565b005b6100c86100d83660046108d2565b61027f565b61010b6100eb36600461095b565b600260209081526000928352604080842090915290825290205460ff1681565b60405190151581526020016100ac565b61010b610129366004610985565b600460209081526000938452604080852082529284528284209052825290205460ff1681565b6100c861015d3660046109b8565b6103c3565b6101756101703660046109f5565b6105a3565b6040516100ac989796959493929190610a5d565b61019c610197366004610ac6565b61070d565b6040516100ac93929190610adf565b61010b6101b93660046109f5565b6107cb565b6101e260405180606001604052806000815260200160608152602001600081525090565b6000548152602081018281526000604083018190526001805480820182559152825160039091027fb10e2d527612073b26eecdfd717e6a320cf44b4afac2b0732d9fcbe2b7fa0cf68101918255915183927fb10e2d527612073b26eecdfd717e6a320cf44b4afac2b0732d9fcbe2b7fa0cf701906102609082610b91565b5060408201518160020155505061027b600080546001019055565b5050565b60006001848154811061029457610294610c51565b600091825260208083206003928302016002908101546040805161010081018252828152338186019081528183018b8152606083018b905242608084015260a0830189905260c0830189905260e083018990528c895296865282882084895290955295208551815592516001840180546001600160a01b0319166001600160a01b0390921691909117905592519294509091908201906103349082610b91565b50606082015160038201906103499082610b91565b506080820151600482015560a0820151600582015560c0820151600682015560e0909101516007909101805460ff19169115159190911790556001805481908690811061039857610398610c51565b906000526020600020906003020160020160008282546103b89190610c7d565b909155505050505050565b600083815260036020908152604080832085845282528083203384526004835281842087855283528184208685529092529091205460ff161561043d5760405162461bcd60e51b815260206004820152600d60248201526c185b1c9958591e481d9bdd1959609a1b60448201526064015b60405180910390fd5b62093a8081600401546104509190610c7d565b4211156104975760405162461bcd60e51b81526020600482015260156024820152742b37ba34b733903832b934b7b21034b99037bb32b960591b6044820152606401610434565b33600090815260046020908152604080832087845282528083208684529091528120805460ff191660011790558260018111156104d6576104d6610c90565b036105405760018160050160008282546104f09190610c7d565b90915550506006810154600582015460329161050b91610c7d565b600583015461051b906064610ca6565b6105259190610cbd565b111561053b5760078101805460ff191660011790555b61059d565b60018160060160008282546105559190610c7d565b90915550506006810154600582015460329161057091610c7d565b6006830154610580906064610ca6565b61058a9190610cbd565b111561059d5760078101805460ff191690555b50505050565b600360209081526000928352604080842090915290825290208054600182015460028301805492936001600160a01b03909216926105e090610b08565b80601f016020809104026020016040519081016040528092919081815260200182805461060c90610b08565b80156106595780601f1061062e57610100808354040283529160200191610659565b820191906000526020600020905b81548152906001019060200180831161063c57829003601f168201915b50505050509080600301805461066e90610b08565b80601f016020809104026020016040519081016040528092919081815260200182805461069a90610b08565b80156106e75780601f106106bc576101008083540402835291602001916106e7565b820191906000526020600020905b8154815290600101906020018083116106ca57829003601f168201915b505050506004830154600584015460068501546007909501549394919390925060ff1688565b6001818154811061071d57600080fd5b6000918252602090912060039091020180546001820180549193509061074290610b08565b80601f016020809104026020016040519081016040528092919081815260200182805461076e90610b08565b80156107bb5780601f10610790576101008083540402835291602001916107bb565b820191906000526020600020905b81548152906001019060200180831161079e57829003601f168201915b5050505050908060020154905083565b600082815260036020908152604080832084845290915290206007015460ff165b92915050565b634e487b7160e01b600052604160045260246000fd5b600082601f83011261081957600080fd5b813567ffffffffffffffff80821115610834576108346107f2565b604051601f8301601f19908116603f0116810190828211818310171561085c5761085c6107f2565b8160405283815286602085880101111561087557600080fd5b836020870160208301376000602085830101528094505050505092915050565b6000602082840312156108a757600080fd5b813567ffffffffffffffff8111156108be57600080fd5b6108ca84828501610808565b949350505050565b6000806000606084860312156108e757600080fd5b83359250602084013567ffffffffffffffff8082111561090657600080fd5b61091287838801610808565b9350604086013591508082111561092857600080fd5b5061093586828701610808565b9150509250925092565b80356001600160a01b038116811461095657600080fd5b919050565b6000806040838503121561096e57600080fd5b6109778361093f565b946020939093013593505050565b60008060006060848603121561099a57600080fd5b6109a38461093f565b95602085013595506040909401359392505050565b6000806000606084860312156109cd57600080fd5b83359250602084013591506040840135600281106109ea57600080fd5b809150509250925092565b60008060408385031215610a0857600080fd5b50508035926020909101359150565b6000815180845260005b81811015610a3d57602081850181015186830182015201610a21565b506000602082860101526020601f19601f83011685010191505092915050565b8881526001600160a01b038816602082015261010060408201819052600090610a888382018a610a17565b90508281036060840152610a9c8189610a17565b9150508560808301528460a08301528360c083015282151560e08301529998505050505050505050565b600060208284031215610ad857600080fd5b5035919050565b838152606060208201526000610af86060830185610a17565b9050826040830152949350505050565b600181811c90821680610b1c57607f821691505b602082108103610b3c57634e487b7160e01b600052602260045260246000fd5b50919050565b601f821115610b8c57600081815260208120601f850160051c81016020861015610b695750805b601f850160051c820191505b81811015610b8857828155600101610b75565b5050505b505050565b815167ffffffffffffffff811115610bab57610bab6107f2565b610bbf81610bb98454610b08565b84610b42565b602080601f831160018114610bf45760008415610bdc5750858301515b600019600386901b1c1916600185901b178555610b88565b600085815260208120601f198616915b82811015610c2357888601518255948401946001909101908401610c04565b5085821015610c415787850151600019600388901b60f8161c191681555b5050505050600190811b01905550565b634e487b7160e01b600052603260045260246000fd5b634e487b7160e01b600052601160045260246000fd5b808201808211156107ec576107ec610c67565b634e487b7160e01b600052602160045260246000fd5b80820281158282048414176107ec576107ec610c67565b600082610cda57634e487b7160e01b600052601260045260246000fd5b50049056fea2646970667358221220dd0403d02436c953b5c957f63d6322fbf80921f772e99131e8b3f7d9850fc07164736f6c63430008110033",
  "immutableReferences": {},
  "source": "// SPDX-License-Identifier: GPL-3.0\npragma solidity 0.8.17;\n\nimport \"../node_modules/@openzeppelin/contracts/utils/Counters.sol\";\n\ncontract CollectorsDAO {\n    using Counters for Counters.Counter;\n    Counters.Counter public _id;\n\n    enum VotingOptions {\n        Yes,\n        No\n    }\n\n    struct SubDao {\n        uint256 id;\n        string name;\n        uint256 proposalCount;\n    }\n\n    SubDao[] public subDao;\n\n    struct Proposal {\n        uint256 id;\n        address author;\n        string name;\n        string description;\n        uint256 createdAt;\n        uint256 votesForYes;\n        uint256 votesForNo;\n        bool status;\n    }\n\n    /// @notice list of members of each DAO : user address => daoId (ie collectionId) => member status\n    mapping(address => mapping(uint256 => bool)) public daoMembers;\n\n    /// @notice store all proposals: daoId (ie CollectionId) => proposalId => proposal\n    mapping(uint256 => mapping(uint256 => Proposal)) public proposals;\n    /// @notice who already votes for who and to avoid vote twice: voter => daoId (ie collectionId) => proposalId => vote Status\n    mapping(address => mapping(uint256 => mapping(uint256 => bool)))\n        public votes;\n\n    uint256 constant VOTING_PERIOD = 7 days;\n\n    function createDAO(string memory _name) external {\n        SubDao memory newSubDao;\n        newSubDao.id = _id.current();\n        newSubDao.name = _name;\n        newSubDao.proposalCount = 0;\n\n        subDao.push(newSubDao);\n\n        _id.increment();\n    }\n\n    function createProposal(\n        uint256 _daoId,\n        string memory _name,\n        string memory _description\n    ) external {\n        uint256 proposalId = subDao[_daoId].proposalCount;\n\n        proposals[_daoId][proposalId] = Proposal(\n            proposalId,\n            msg.sender,\n            _name,\n            _description,\n            block.timestamp,\n            0,\n            0,\n            false\n        );\n        subDao[_daoId].proposalCount += 1;\n    }\n\n    function vote(\n        uint256 _daoId,\n        uint256 _proposalId,\n        VotingOptions _vote\n    ) external {\n        Proposal storage proposal = proposals[_daoId][_proposalId];\n        require(\n            votes[msg.sender][_daoId][_proposalId] == false,\n            \"already voted\"\n        );\n        require(\n            block.timestamp <= proposal.createdAt + VOTING_PERIOD,\n            \"Voting period is over\"\n        );\n        votes[msg.sender][_daoId][_proposalId] = true;\n        if (_vote == VotingOptions.Yes) {\n            proposal.votesForYes += 1;\n            if (\n                (proposal.votesForYes * 100) /\n                    (proposal.votesForYes + proposal.votesForNo) >\n                50\n            ) {\n                proposal.status = true;\n            }\n        } else {\n            proposal.votesForNo += 1;\n            if (\n                (proposal.votesForNo * 100) /\n                    (proposal.votesForYes + proposal.votesForNo) >\n                50\n            ) {\n                proposal.status = false;\n            }\n        }\n    }\n\n    function getProposalStatus(uint256 _daoId, uint256 _proposalId)\n        external\n        view\n        returns (bool proposalStatus)\n    {\n        // require(block.timestamp >= proposals[_daoId][_proposalId].createdAt + VOTING_PERIOD, \"Voting period is not over\");\n        return proposals[_daoId][_proposalId].status;\n    }\n}\n",
  "sourcePath": "/Users/jeromejulien/Documents/vscode/FormationAlyra/02_Projets/CollectorChain_TokenizedCollectibles/truffle/contracts/CollectorsDAO.sol",
  "compiler": {
    "name": "solc",
    "version": "0.8.17+commit.8df45f5f.Emscripten.clang"
  },
  "schemaVersion": "3.4.10",
  "updatedAt": "2022-12-02T12:46:59.434Z",
  "networkType": "ethereum",
  "devdoc": {
    "kind": "dev",
    "methods": {},
    "version": 1
  },
  "userdoc": {
    "kind": "user",
    "methods": {
      "daoMembers(address,uint256)": {
        "notice": "list of members of each DAO : user address => daoId (ie collectionId) => member status"
      },
      "proposals(uint256,uint256)": {
        "notice": "store all proposals: daoId (ie CollectionId) => proposalId => proposal"
      },
      "votes(address,uint256,uint256)": {
        "notice": "who already votes for who and to avoid vote twice: voter => daoId (ie collectionId) => proposalId => vote Status"
      }
    },
    "version": 1
  }
}