{
  "contractName": "CollectorsDAO",
  "abi": [
    {
      "anonymous": false,
      "inputs": [
        {
          "indexed": true,
          "internalType": "address",
          "name": "previousOwner",
          "type": "address"
        },
        {
          "indexed": true,
          "internalType": "address",
          "name": "newOwner",
          "type": "address"
        }
      ],
      "name": "OwnershipTransferred",
      "type": "event"
    },
    {
      "anonymous": false,
      "inputs": [
        {
          "indexed": false,
          "internalType": "uint256",
          "name": "daoId",
          "type": "uint256"
        },
        {
          "indexed": false,
          "internalType": "string",
          "name": "daoName",
          "type": "string"
        }
      ],
      "name": "daoCreated",
      "type": "event"
    },
    {
      "anonymous": false,
      "inputs": [
        {
          "indexed": false,
          "internalType": "uint256",
          "name": "proposalId",
          "type": "uint256"
        },
        {
          "indexed": false,
          "internalType": "bool",
          "name": "digitalMinted",
          "type": "bool"
        }
      ],
      "name": "digitalMinted",
      "type": "event"
    },
    {
      "anonymous": false,
      "inputs": [
        {
          "indexed": false,
          "internalType": "address",
          "name": "newMember",
          "type": "address"
        }
      ],
      "name": "memberAdded",
      "type": "event"
    },
    {
      "anonymous": false,
      "inputs": [
        {
          "indexed": false,
          "internalType": "uint256",
          "name": "proposalId",
          "type": "uint256"
        },
        {
          "indexed": false,
          "internalType": "bool",
          "name": "propertyMinted",
          "type": "bool"
        }
      ],
      "name": "propertyMinted",
      "type": "event"
    },
    {
      "anonymous": false,
      "inputs": [
        {
          "indexed": false,
          "internalType": "uint256",
          "name": "proposalId",
          "type": "uint256"
        },
        {
          "indexed": false,
          "internalType": "uint256",
          "name": "finalValue",
          "type": "uint256"
        },
        {
          "indexed": false,
          "internalType": "string",
          "name": "votingStatus",
          "type": "string"
        }
      ],
      "name": "proposalClosed",
      "type": "event"
    },
    {
      "anonymous": false,
      "inputs": [
        {
          "indexed": false,
          "internalType": "uint256",
          "name": "daoId",
          "type": "uint256"
        },
        {
          "indexed": false,
          "internalType": "uint256",
          "name": "proposalId",
          "type": "uint256"
        },
        {
          "indexed": false,
          "internalType": "address",
          "name": "owner",
          "type": "address"
        },
        {
          "indexed": false,
          "internalType": "string",
          "name": "proposalName",
          "type": "string"
        },
        {
          "indexed": false,
          "internalType": "string",
          "name": "proposalDesc",
          "type": "string"
        },
        {
          "indexed": false,
          "internalType": "uint256",
          "name": "value",
          "type": "uint256"
        },
        {
          "indexed": false,
          "internalType": "string",
          "name": "docOwnership",
          "type": "string"
        },
        {
          "indexed": false,
          "internalType": "string",
          "name": "mainImage",
          "type": "string"
        }
      ],
      "name": "proposalCreated",
      "type": "event"
    },
    {
      "anonymous": false,
      "inputs": [
        {
          "indexed": false,
          "internalType": "uint256",
          "name": "proposalId",
          "type": "uint256"
        },
        {
          "indexed": false,
          "internalType": "address",
          "name": "voter",
          "type": "address"
        },
        {
          "indexed": false,
          "internalType": "enum CollectorsDAO.VotingOptions",
          "name": "vote",
          "type": "uint8"
        },
        {
          "indexed": false,
          "internalType": "bool",
          "name": "updatedProposalStatus",
          "type": "bool"
        }
      ],
      "name": "voteSetted",
      "type": "event"
    },
    {
      "inputs": [],
      "name": "_id",
      "outputs": [
        {
          "internalType": "uint256",
          "name": "_value",
          "type": "uint256"
        }
      ],
      "stateMutability": "view",
      "type": "function",
      "constant": true
    },
    {
      "inputs": [],
      "name": "_proposalCount",
      "outputs": [
        {
          "internalType": "uint256",
          "name": "_value",
          "type": "uint256"
        }
      ],
      "stateMutability": "view",
      "type": "function",
      "constant": true
    },
    {
      "inputs": [
        {
          "internalType": "address",
          "name": "",
          "type": "address"
        }
      ],
      "name": "daoMembers",
      "outputs": [
        {
          "internalType": "bool",
          "name": "",
          "type": "bool"
        }
      ],
      "stateMutability": "view",
      "type": "function",
      "constant": true
    },
    {
      "inputs": [],
      "name": "owner",
      "outputs": [
        {
          "internalType": "address",
          "name": "",
          "type": "address"
        }
      ],
      "stateMutability": "view",
      "type": "function",
      "constant": true
    },
    {
      "inputs": [
        {
          "internalType": "uint256",
          "name": "",
          "type": "uint256"
        }
      ],
      "name": "proposals",
      "outputs": [
        {
          "internalType": "uint256",
          "name": "daoId",
          "type": "uint256"
        },
        {
          "internalType": "uint256",
          "name": "proposalId",
          "type": "uint256"
        },
        {
          "internalType": "address",
          "name": "author",
          "type": "address"
        },
        {
          "internalType": "string",
          "name": "name",
          "type": "string"
        },
        {
          "internalType": "string",
          "name": "description",
          "type": "string"
        },
        {
          "internalType": "uint256",
          "name": "value",
          "type": "uint256"
        },
        {
          "internalType": "uint256",
          "name": "votesForYes",
          "type": "uint256"
        },
        {
          "internalType": "uint256",
          "name": "votesForNo",
          "type": "uint256"
        },
        {
          "internalType": "bool",
          "name": "status",
          "type": "bool"
        },
        {
          "internalType": "string",
          "name": "votingStatus",
          "type": "string"
        },
        {
          "internalType": "bool",
          "name": "propertyNftMinted",
          "type": "bool"
        },
        {
          "internalType": "bool",
          "name": "digitalNftMinted",
          "type": "bool"
        },
        {
          "internalType": "string",
          "name": "docOwnership",
          "type": "string"
        },
        {
          "internalType": "string",
          "name": "mainImage",
          "type": "string"
        }
      ],
      "stateMutability": "view",
      "type": "function",
      "constant": true
    },
    {
      "inputs": [],
      "name": "renounceOwnership",
      "outputs": [],
      "stateMutability": "nonpayable",
      "type": "function"
    },
    {
      "inputs": [
        {
          "internalType": "uint256",
          "name": "",
          "type": "uint256"
        }
      ],
      "name": "subDao",
      "outputs": [
        {
          "internalType": "uint256",
          "name": "id",
          "type": "uint256"
        },
        {
          "internalType": "string",
          "name": "name",
          "type": "string"
        }
      ],
      "stateMutability": "view",
      "type": "function",
      "constant": true
    },
    {
      "inputs": [
        {
          "internalType": "address",
          "name": "newOwner",
          "type": "address"
        }
      ],
      "name": "transferOwnership",
      "outputs": [],
      "stateMutability": "nonpayable",
      "type": "function"
    },
    {
      "inputs": [
        {
          "internalType": "address",
          "name": "",
          "type": "address"
        },
        {
          "internalType": "uint256",
          "name": "",
          "type": "uint256"
        }
      ],
      "name": "votes",
      "outputs": [
        {
          "internalType": "bool",
          "name": "",
          "type": "bool"
        }
      ],
      "stateMutability": "view",
      "type": "function",
      "constant": true
    },
    {
      "inputs": [
        {
          "internalType": "string",
          "name": "_name",
          "type": "string"
        }
      ],
      "name": "createDAO",
      "outputs": [],
      "stateMutability": "nonpayable",
      "type": "function"
    },
    {
      "inputs": [
        {
          "internalType": "address",
          "name": "_newMember",
          "type": "address"
        }
      ],
      "name": "addDaoMember",
      "outputs": [],
      "stateMutability": "nonpayable",
      "type": "function"
    },
    {
      "inputs": [
        {
          "internalType": "uint256",
          "name": "_daoId",
          "type": "uint256"
        },
        {
          "internalType": "string",
          "name": "_name",
          "type": "string"
        },
        {
          "internalType": "string",
          "name": "_description",
          "type": "string"
        },
        {
          "internalType": "uint256",
          "name": "_value",
          "type": "uint256"
        },
        {
          "internalType": "string",
          "name": "_docOwnership",
          "type": "string"
        },
        {
          "internalType": "string",
          "name": "_mainImage",
          "type": "string"
        }
      ],
      "name": "createProposal",
      "outputs": [],
      "stateMutability": "nonpayable",
      "type": "function"
    },
    {
      "inputs": [
        {
          "internalType": "uint256",
          "name": "_proposalId",
          "type": "uint256"
        },
        {
          "internalType": "uint256",
          "name": "_value",
          "type": "uint256"
        },
        {
          "internalType": "enum CollectorsDAO.VotingOptions",
          "name": "_vote",
          "type": "uint8"
        }
      ],
      "name": "vote",
      "outputs": [],
      "stateMutability": "nonpayable",
      "type": "function"
    },
    {
      "inputs": [
        {
          "internalType": "uint256",
          "name": "_proposalId",
          "type": "uint256"
        }
      ],
      "name": "closeProposal",
      "outputs": [],
      "stateMutability": "nonpayable",
      "type": "function"
    },
    {
      "inputs": [
        {
          "internalType": "uint256",
          "name": "_proposalId",
          "type": "uint256"
        }
      ],
      "name": "getProposalStatus",
      "outputs": [
        {
          "internalType": "bool",
          "name": "proposalStatus",
          "type": "bool"
        }
      ],
      "stateMutability": "view",
      "type": "function",
      "constant": true
    },
    {
      "inputs": [
        {
          "internalType": "uint256",
          "name": "_proposalId",
          "type": "uint256"
        }
      ],
      "name": "updatePropertyMintStatus",
      "outputs": [],
      "stateMutability": "nonpayable",
      "type": "function"
    },
    {
      "inputs": [
        {
          "internalType": "uint256",
          "name": "_proposalId",
          "type": "uint256"
        }
      ],
      "name": "updateDigitalMintStatus",
      "outputs": [],
      "stateMutability": "nonpayable",
      "type": "function"
    }
  ],
  "bytecode": "0x608060405234801561001057600080fd5b5061001a3361001f565b61006f565b600080546001600160a01b038381166001600160a01b0319831681178455604051919092169283917f8be0079c531659141344cd1fd0a4f28419497f9722a3daafe3b4186f6b6457e09190a35050565b611ad98061007e6000396000f3fe608060405234801561001057600080fd5b506004361061011b5760003560e01c8063845c776d116100b2578063979a63de11610081578063bbb2eab911610066578063bbb2eab9146102a3578063c4e02147146102b6578063f2fde38b146102d757600080fd5b8063979a63de146102625780639f2524ee1461027557600080fd5b8063845c776d146101f1578063864defa2146102045780638da5cb5b14610217578063959068ea1461023f57600080fd5b8063401853b7116100ee578063401853b7146101965780634830ebcf146101cc5780636f2904cc146101df578063715018a6146101e957600080fd5b8063013cf08b146101205780630386a01614610156578063051802371461016b578063259a446614610183575b600080fd5b61013361012e366004611278565b6102ea565b60405161014d9e9d9c9b9a999897969594939291906112f5565b60405180910390f35b610169610164366004611278565b610621565b005b6001546101759081565b60405190815260200161014d565b610169610191366004611278565b6107e2565b6101bc6101a4366004611278565b60009081526005602052604090206008015460ff1690565b604051901515815260200161014d565b6101696101da3660046114ac565b61085b565b6002546101759081565b610169610933565b6101696101ff366004611278565b610947565b610169610212366004611512565b61099b565b60005460405173ffffffffffffffffffffffffffffffffffffffff909116815260200161014d565b6101bc61024d366004611512565b60046020526000908152604090205460ff1681565b610169610270366004611534565b610a94565b6101bc6102833660046115f3565b600660209081526000928352604080842090915290825290205460ff1681565b6101696102b136600461161d565b610d7d565b6102c96102c4366004611278565b611013565b60405161014d92919061165a565b6101696102e5366004611512565b6110cb565b60056020526000908152604090208054600182015460028301546003840180549394929373ffffffffffffffffffffffffffffffffffffffff909216929161033190611673565b80601f016020809104026020016040519081016040528092919081815260200182805461035d90611673565b80156103aa5780601f1061037f576101008083540402835291602001916103aa565b820191906000526020600020905b81548152906001019060200180831161038d57829003601f168201915b5050505050908060040180546103bf90611673565b80601f01602080910402602001604051908101604052809291908181526020018280546103eb90611673565b80156104385780601f1061040d57610100808354040283529160200191610438565b820191906000526020600020905b81548152906001019060200180831161041b57829003601f168201915b50505060058401546006850154600786015460088701546009880180549798949793965091945060ff16929161046d90611673565b80601f016020809104026020016040519081016040528092919081815260200182805461049990611673565b80156104e65780601f106104bb576101008083540402835291602001916104e6565b820191906000526020600020905b8154815290600101906020018083116104c957829003601f168201915b50505050600a830154600b84018054939460ff808416956101009094041693509161051090611673565b80601f016020809104026020016040519081016040528092919081815260200182805461053c90611673565b80156105895780601f1061055e57610100808354040283529160200191610589565b820191906000526020600020905b81548152906001019060200180831161056c57829003601f168201915b50505050509080600c01805461059e90611673565b80601f01602080910402602001604051908101604052809291908181526020018280546105ca90611673565b80156106175780601f106105ec57610100808354040283529160200191610617565b820191906000526020600020905b8154815290600101906020018083116105fa57829003601f168201915b505050505090508e565b3360009081526004602052604090205460ff1615156001146106a4576040517f08c379a000000000000000000000000000000000000000000000000000000000815260206004820152601560248201527f6e6f74206d656d626572206f66207468652044414f000000000000000000000060448201526064015b60405180910390fd5b60008181526005602052604090206008015460ff161515600103610720576040518060400160405280600881526020017f616363657074656400000000000000000000000000000000000000000000000081525060056000838152602001908152602001600020600901908161071a9190611715565b5061078c565b6040518060400160405280600781526020017f72656675736564000000000000000000000000000000000000000000000000008152506005600083815260200190815260200160002060090190816107789190611715565b506000818152600560208190526040822001555b6000818152600560208190526040918290209081015491517f321c3f57789939cd39adec5d8128505091bd9203987e6809db9bc7c8213c485f926107d792859260099091019061182f565b60405180910390a150565b60008181526005602052604090819020600a0180547fffffffffffffffffffffffffffffffffffffffffffffffffffffffffffff00ff16610100179055517f5802cc018bf0d01c7ed6c794bb8d560c639d43858443f4aaf18d96cd6051419b906107d79083906001909182521515602082015260400190565b604080518082019091526001805482526020820183815260038054928301815560005282517fc2575a0e9e593c00f959f8c92f12db2869c3395a3b0502d05e2516446f71f85b6002909302928301908155905183927fc2575a0e9e593c00f959f8c92f12db2869c3395a3b0502d05e2516446f71f85c01906108dd9082611715565b5050507f233468f62cb5569433a2646a1c57b4333dc80fc4881a358e28455bb25feb3be361090a60015490565b8360405161091992919061165a565b60405180910390a161092f600180546001019055565b5050565b61093b611182565b6109456000611203565b565b600081815260056020908152604091829020600a01805460ff191660019081179091558251848152918201527fc2c6d84af001f6703730e6a4be5cdb2d3ed3e5998823abcfb475ffc10dc80d1391016107d7565b6109a3611182565b73ffffffffffffffffffffffffffffffffffffffff811660009081526004602052604090205460ff1615610a33576040517f08c379a000000000000000000000000000000000000000000000000000000000815260206004820152601060248201527f616c72656164792061206d656d62657200000000000000000000000000000000604482015260640161069b565b73ffffffffffffffffffffffffffffffffffffffff8116600081815260046020908152604091829020805460ff1916600117905590519182527fdbfcb877450159cfc3af51c0e4fd98de8b92ebb8fe2b8ee929f3320c5c5a897091016107d7565b85610a9e60015490565b11610b05576040517f08c379a000000000000000000000000000000000000000000000000000000000815260206004820152601260248201527f746869732064616f206e6f742065786973740000000000000000000000000000604482015260640161069b565b6000610b1060025490565b604080516101c081018252898152602080820184815233838501908152606084018c8152608085018c905260a085018b9052600060c0860181905260e08601819052610100860181905286518088018852600781527f70656e64696e6700000000000000000000000000000000000000000000000000818701526101208701526101408601819052610160860181905261018086018b90526101a086018a9052878152600590945294909220835181559051600182015590516002820180547fffffffffffffffffffffffff00000000000000000000000000000000000000001673ffffffffffffffffffffffffffffffffffffffff9092169190911790559151929350916003820190610c249082611715565b5060808201516004820190610c399082611715565b5060a0820151600582015560c0820151600682015560e0820151600782015561010082015160088201805460ff19169115159190911790556101208201516009820190610c869082611715565b50610140820151600a820180546101608501511515610100027fffffffffffffffffffffffffffffffffffffffffffffffffffffffffffff00ff931515939093167fffffffffffffffffffffffffffffffffffffffffffffffffffffffffffff000090911617919091179055610180820151600b820190610d079082611715565b506101a0820151600c820190610d1d9082611715565b509050507f3def31f11840d66bfe2d5e185f6a870795e28798376bac72ba4d66745b09c9df8782338989898989604051610d5e9897969594939291906118c9565b60405180910390a1610d74600280546001019055565b50505050505050565b600083815260056020908152604080832033845260049092529091205460ff161515600114610e08576040517f08c379a000000000000000000000000000000000000000000000000000000000815260206004820152601560248201527f6e6f74206d656d626572206f66207468652044414f0000000000000000000000604482015260640161069b565b33600090815260066020908152604080832087845290915290205460ff1615610e8d576040517f08c379a000000000000000000000000000000000000000000000000000000000815260206004820152600d60248201527f616c726561647920766f74656400000000000000000000000000000000000000604482015260640161069b565b3360009081526006602090815260408083208784529091528120805460ff19166001179055826001811115610ec457610ec4611956565b03610f6b576001816006016000828254610ede91906119b4565b909155505060078101546006820154603291610ef9916119b4565b6006830154610f099060646119cd565b610f1391906119e4565b1115610f665760088101805460ff191660019081179091556006820154908490610f3d9083611a1f565b8360050154610f4c91906119cd565b610f5691906119b4565b610f6091906119e4565b60058201555b610fc8565b6001816007016000828254610f8091906119b4565b909155505060078101546006820154603291610f9b916119b4565b6007830154610fab9060646119cd565b610fb591906119e4565b1115610fc85760088101805460ff191690555b60088101546040517f850c01f77ce89db19c181f2bfa4b0511a21b3950c753d84abe84ef69195cce11916110059187913391879160ff1690611a32565b60405180910390a150505050565b6003818154811061102357600080fd5b6000918252602090912060029091020180546001820180549193509061104890611673565b80601f016020809104026020016040519081016040528092919081815260200182805461107490611673565b80156110c15780601f10611096576101008083540402835291602001916110c1565b820191906000526020600020905b8154815290600101906020018083116110a457829003601f168201915b5050505050905082565b6110d3611182565b73ffffffffffffffffffffffffffffffffffffffff8116611176576040517f08c379a000000000000000000000000000000000000000000000000000000000815260206004820152602660248201527f4f776e61626c653a206e6577206f776e657220697320746865207a65726f206160448201527f6464726573730000000000000000000000000000000000000000000000000000606482015260840161069b565b61117f81611203565b50565b60005473ffffffffffffffffffffffffffffffffffffffff163314610945576040517f08c379a000000000000000000000000000000000000000000000000000000000815260206004820181905260248201527f4f776e61626c653a2063616c6c6572206973206e6f7420746865206f776e6572604482015260640161069b565b6000805473ffffffffffffffffffffffffffffffffffffffff8381167fffffffffffffffffffffffff0000000000000000000000000000000000000000831681178455604051919092169283917f8be0079c531659141344cd1fd0a4f28419497f9722a3daafe3b4186f6b6457e09190a35050565b60006020828403121561128a57600080fd5b5035919050565b6000815180845260005b818110156112b75760208185018101518683018201520161129b565b5060006020828601015260207fffffffffffffffffffffffffffffffffffffffffffffffffffffffffffffffe0601f83011685010191505092915050565b8e81528d6020820152611320604082018e73ffffffffffffffffffffffffffffffffffffffff169052565b6101c0606082015260006113386101c083018e611291565b828103608084015261134a818e611291565b90508b60a08401528a60c08401528960e084015261136d61010084018a15159052565b8281036101208401526113808189611291565b87151561014085015290508515156101608401528281036101808401526113a78186611291565b90508281036101a08401526113bc8185611291565b9150509f9e505050505050505050505050505050565b7f4e487b7100000000000000000000000000000000000000000000000000000000600052604160045260246000fd5b600082601f83011261141257600080fd5b813567ffffffffffffffff8082111561142d5761142d6113d2565b604051601f83017fffffffffffffffffffffffffffffffffffffffffffffffffffffffffffffffe0908116603f01168101908282118183101715611473576114736113d2565b8160405283815286602085880101111561148c57600080fd5b836020870160208301376000602085830101528094505050505092915050565b6000602082840312156114be57600080fd5b813567ffffffffffffffff8111156114d557600080fd5b6114e184828501611401565b949350505050565b803573ffffffffffffffffffffffffffffffffffffffff8116811461150d57600080fd5b919050565b60006020828403121561152457600080fd5b61152d826114e9565b9392505050565b60008060008060008060c0878903121561154d57600080fd5b86359550602087013567ffffffffffffffff8082111561156c57600080fd5b6115788a838b01611401565b9650604089013591508082111561158e57600080fd5b61159a8a838b01611401565b95506060890135945060808901359150808211156115b757600080fd5b6115c38a838b01611401565b935060a08901359150808211156115d957600080fd5b506115e689828a01611401565b9150509295509295509295565b6000806040838503121561160657600080fd5b61160f836114e9565b946020939093013593505050565b60008060006060848603121561163257600080fd5b833592506020840135915060408401356002811061164f57600080fd5b809150509250925092565b8281526040602082015260006114e16040830184611291565b600181811c9082168061168757607f821691505b6020821081036116c0577f4e487b7100000000000000000000000000000000000000000000000000000000600052602260045260246000fd5b50919050565b601f82111561171057600081815260208120601f850160051c810160208610156116ed5750805b601f850160051c820191505b8181101561170c578281556001016116f9565b5050505b505050565b815167ffffffffffffffff81111561172f5761172f6113d2565b6117438161173d8454611673565b846116c6565b602080601f83116001811461179657600084156117605750858301515b7fffffffffffffffffffffffffffffffffffffffffffffffffffffffffffffffff600386901b1c1916600185901b17855561170c565b6000858152602081207fffffffffffffffffffffffffffffffffffffffffffffffffffffffffffffffe08616915b828110156117e3578886015182559484019460019091019084016117c4565b508582101561181f57878501517fffffffffffffffffffffffffffffffffffffffffffffffffffffffffffffffff600388901b60f8161c191681555b5050505050600190811b01905550565b838152600060208481840152606060408401526000845461184f81611673565b8060608701526080600180841660008114611871576001811461188b576118b9565b60ff198516838a01528284151560051b8a010195506118b9565b896000528660002060005b858110156118b15781548b8201860152908301908801611896565b8a0184019650505b50939a9950505050505050505050565b60006101008a835289602084015273ffffffffffffffffffffffffffffffffffffffff8916604084015280606084015261190581840189611291565b905082810360808401526119198188611291565b90508560a084015282810360c08401526119338186611291565b905082810360e08401526119478185611291565b9b9a5050505050505050505050565b7f4e487b7100000000000000000000000000000000000000000000000000000000600052602160045260246000fd5b7f4e487b7100000000000000000000000000000000000000000000000000000000600052601160045260246000fd5b808201808211156119c7576119c7611985565b92915050565b80820281158282048414176119c7576119c7611985565b600082611a1a577f4e487b7100000000000000000000000000000000000000000000000000000000600052601260045260246000fd5b500490565b818103818111156119c7576119c7611985565b84815273ffffffffffffffffffffffffffffffffffffffff841660208201526080810160028410611a8c577f4e487b7100000000000000000000000000000000000000000000000000000000600052602160045260246000fd5b83604083015282151560608301529594505050505056fea26469706673582212204f2b8eb817af424526717229004d50605369364ae3966f14457b84f445b061a764736f6c63430008110033",
  "immutableReferences": {},
  "source": "// SPDX-License-Identifier: GPL-3.0\npragma solidity 0.8.17;\n\nimport \"../node_modules/@openzeppelin/contracts/utils/Counters.sol\";\nimport \"../node_modules/@openzeppelin/contracts/access/Ownable.sol\";\n\n/// @notice this contract manage all topic of the DAO : subDao creation, member management, proposal and vote management\ncontract CollectorsDAO is Ownable {\n    using Counters for Counters.Counter;\n    Counters.Counter public _id;\n    Counters.Counter public _proposalCount;\n\n    enum VotingOptions {\n        Yes,\n        No\n    }\n\n    enum VotingStatus {\n        pending,\n        accepted,\n        refused\n    }\n\n    struct SubDao {\n        uint256 id;\n        string name;\n    }\n\n    SubDao[] public subDao;\n\n    struct Proposal {\n        uint256 daoId;\n        uint256 proposalId;\n        address author;\n        string name;\n        string description;\n        uint256 value;\n        uint256 votesForYes;\n        uint256 votesForNo;\n        bool status;\n        string votingStatus;\n        bool propertyNftMinted;\n        bool digitalNftMinted;\n        string docOwnership;\n        string mainImage;\n    }\n\n    event daoCreated(uint256 daoId, string daoName);\n\n    event memberAdded(address newMember);\n\n    event proposalCreated(\n        uint256 daoId,\n        uint256 proposalId,\n        address owner,\n        string proposalName,\n        string proposalDesc,\n        uint256 value,\n        string docOwnership,\n        string mainImage\n    );\n\n    event voteSetted(\n        uint256 proposalId,\n        address voter,\n        VotingOptions vote,\n        bool updatedProposalStatus\n    );\n\n    event proposalClosed(\n        uint256 proposalId,\n        uint256 finalValue,\n        string votingStatus\n    );\n\n    event propertyMinted(uint256 proposalId, bool propertyMinted);\n    event digitalMinted(uint256 proposalId, bool digitalMinted);\n\n    /// @notice list of members of the DAO : user address => member status\n    /// @notice allow member to vote and close proposal\n    mapping(address => bool) public daoMembers;\n\n    /// @notice store all proposals: proposalId => proposal\n    /// @dev call by front end\n    mapping(uint256 => Proposal) public proposals;\n    /// @notice who already votes for which proposal and to avoid vote twice: voter => proposalId => vote Status\n    /// @dev call by front end\n    mapping(address => mapping(uint256 => bool)) public votes;\n\n    /// @dev to be used later\n    uint256 constant VOTING_PERIOD = 7 days;\n\n    /// @notice create a new DAO linked to a collection\n    /// @param _name name of the new collection\n    /// @dev function call by factory contract\n    function createDAO(string memory _name) external {\n        SubDao memory newSubDao;\n        newSubDao.id = _id.current();\n        newSubDao.name = _name;\n\n        subDao.push(newSubDao);\n\n        emit daoCreated(_id.current(), _name);\n\n        _id.increment();\n    }\n\n    /// @notice add member to DAO to allow him to vote and close for proposal\n    /// @notice only owner of the contract can call the function\n    function addDaoMember(address _newMember) external onlyOwner {\n        require(daoMembers[_newMember] == false, \"already a member\");\n        daoMembers[_newMember] = true;\n\n        emit memberAdded(_newMember);\n    }\n\n    /// @notice create a new proposal\n    /// @param _daoId dao concerned by the proposal\n    /// @param _name name of the object to mint\n    /// @param _description description of the object to mint\n    /// @param _value estimated value of the object by the applicant\n    /// @param _docOwnership picture of the proof of ownership provided by the applicant\n    /// @param _mainImage picture of the object provided by the applicant\n    function createProposal(\n        uint256 _daoId,\n        string memory _name,\n        string memory _description,\n        uint256 _value,\n        string memory _docOwnership,\n        string memory _mainImage\n    ) external {\n        require(_id.current() > _daoId, \"this dao not exist\");\n        uint256 proposalId = _proposalCount.current();\n\n        proposals[proposalId] = Proposal(\n            _daoId,\n            proposalId,\n            msg.sender,\n            _name,\n            _description,\n            _value,\n            0,\n            0,\n            false,\n            \"pending\",\n            false,\n            false,\n            _docOwnership,\n            _mainImage\n        );\n\n        emit proposalCreated(\n            _daoId,\n            proposalId,\n            msg.sender,\n            _name,\n            _description,\n            _value,\n            _docOwnership,\n            _mainImage\n        );\n\n        _proposalCount.increment();\n    }\n\n    /// @notice set a vote for a proposal\n    /// @notice only DAO members can do it\n    /// @notice user need to vote yes or no + give a estimated value\n    function vote(\n        uint256 _proposalId,\n        uint256 _value,\n        VotingOptions _vote\n    ) external {\n        Proposal storage proposal = proposals[_proposalId];\n        require(daoMembers[msg.sender] == true, \"not member of the DAO\");\n        require(votes[msg.sender][_proposalId] == false, \"already voted\");\n        votes[msg.sender][_proposalId] = true;\n        if (_vote == VotingOptions.Yes) {\n            proposal.votesForYes += 1;\n            if (\n                (proposal.votesForYes * 100) /\n                    (proposal.votesForYes + proposal.votesForNo) >\n                50\n            ) {\n                proposal.status = true;\n                proposal.value =\n                    (proposal.value * (proposal.votesForYes - 1) + _value) /\n                    proposal.votesForYes;\n            }\n        } else {\n            proposal.votesForNo += 1;\n            if (\n                (proposal.votesForNo * 100) /\n                    (proposal.votesForYes + proposal.votesForNo) >\n                50\n            ) {\n                proposal.status = false;\n            }\n        }\n\n        emit voteSetted(_proposalId, msg.sender, _vote, proposal.status);\n    }\n\n    /// @notice close a proposal\n    /// @notice only DAO members can do it\n    /// @notice the status of the proposal is set during this fonction (accepted if vote yes > vote no)\n    function closeProposal(uint256 _proposalId) external {\n        require(daoMembers[msg.sender] == true, \"not member of the DAO\");\n        if (proposals[_proposalId].status == true) {\n            proposals[_proposalId].votingStatus = \"accepted\";\n        } else {\n            proposals[_proposalId].votingStatus = \"refused\";\n            proposals[_proposalId].value = 0;\n        }\n\n        emit proposalClosed(\n            _proposalId,\n            proposals[_proposalId].value,\n            proposals[_proposalId].votingStatus\n        );\n    }\n\n    /// @dev getter for development purpose\n    function getProposalStatus(uint256 _proposalId)\n        external\n        view\n        returns (bool proposalStatus)\n    {\n        // require(block.timestamp >= proposals[_daoId][_proposalId].createdAt + VOTING_PERIOD, \"Voting period is not over\");\n        return proposals[_proposalId].status;\n    }\n\n    /// @dev for front end management purpose\n    function updatePropertyMintStatus(uint256 _proposalId) external {\n        proposals[_proposalId].propertyNftMinted = true;\n\n        emit propertyMinted(_proposalId, true);\n    }\n\n    /// @dev for front end management purpose\n    function updateDigitalMintStatus(uint256 _proposalId) external {\n        proposals[_proposalId].digitalNftMinted = true;\n\n        emit digitalMinted(_proposalId, true);\n    }\n}\n",
  "sourcePath": "/Users/jeromejulien/Documents/vscode/FormationAlyra/02_Projets/CollectorChain_TokenizedCollectibles/truffle/contracts/CollectorsDAO.sol",
  "compiler": {
    "name": "solc",
    "version": "0.8.17+commit.8df45f5f.Emscripten.clang"
  },
  "schemaVersion": "3.4.10",
  "updatedAt": "2022-12-09T08:50:21.538Z",
  "networkType": "ethereum",
  "devdoc": {
    "kind": "dev",
    "methods": {
      "createDAO(string)": {
        "details": "function call by factory contract",
        "params": {
          "_name": "name of the new collection"
        }
      },
      "createProposal(uint256,string,string,uint256,string,string)": {
        "params": {
          "_daoId": "dao concerned by the proposal",
          "_description": "description of the object to mint",
          "_docOwnership": "picture of the proof of ownership provided by the applicant",
          "_mainImage": "picture of the object provided by the applicant",
          "_name": "name of the object to mint",
          "_value": "estimated value of the object by the applicant"
        }
      },
      "getProposalStatus(uint256)": {
        "details": "getter for development purpose"
      },
      "owner()": {
        "details": "Returns the address of the current owner."
      },
      "renounceOwnership()": {
        "details": "Leaves the contract without owner. It will not be possible to call `onlyOwner` functions anymore. Can only be called by the current owner. NOTE: Renouncing ownership will leave the contract without an owner, thereby removing any functionality that is only available to the owner."
      },
      "transferOwnership(address)": {
        "details": "Transfers ownership of the contract to a new account (`newOwner`). Can only be called by the current owner."
      },
      "updateDigitalMintStatus(uint256)": {
        "details": "for front end management purpose"
      },
      "updatePropertyMintStatus(uint256)": {
        "details": "for front end management purpose"
      }
    },
    "stateVariables": {
      "VOTING_PERIOD": {
        "details": "to be used later"
      },
      "proposals": {
        "details": "call by front end"
      },
      "votes": {
        "details": "call by front end"
      }
    },
    "version": 1
  },
  "userdoc": {
    "kind": "user",
    "methods": {
      "addDaoMember(address)": {
        "notice": "add member to DAO to allow him to vote and close for proposalonly owner of the contract can call the function"
      },
      "closeProposal(uint256)": {
        "notice": "close a proposalonly DAO members can do itthe status of the proposal is set during this fonction (accepted if vote yes > vote no)"
      },
      "createDAO(string)": {
        "notice": "create a new DAO linked to a collection"
      },
      "createProposal(uint256,string,string,uint256,string,string)": {
        "notice": "create a new proposal"
      },
      "daoMembers(address)": {
        "notice": "list of members of the DAO : user address => member statusallow member to vote and close proposal"
      },
      "proposals(uint256)": {
        "notice": "store all proposals: proposalId => proposal"
      },
      "vote(uint256,uint256,uint8)": {
        "notice": "set a vote for a proposalonly DAO members can do ituser need to vote yes or no + give a estimated value"
      },
      "votes(address,uint256)": {
        "notice": "who already votes for which proposal and to avoid vote twice: voter => proposalId => vote Status"
      }
    },
    "notice": "this contract manage all topic of the DAO : subDao creation, member management, proposal and vote management",
    "version": 1
  }
}