{
  "contractName": "CollectorsDAO",
  "abi": [
    {
      "anonymous": false,
      "inputs": [
        {
          "indexed": true,
          "internalType": "address",
          "name": "previousOwner",
          "type": "address"
        },
        {
          "indexed": true,
          "internalType": "address",
          "name": "newOwner",
          "type": "address"
        }
      ],
      "name": "OwnershipTransferred",
      "type": "event"
    },
    {
      "anonymous": false,
      "inputs": [
        {
          "indexed": false,
          "internalType": "uint256",
          "name": "daoId",
          "type": "uint256"
        },
        {
          "indexed": false,
          "internalType": "string",
          "name": "daoName",
          "type": "string"
        }
      ],
      "name": "daoCreated",
      "type": "event"
    },
    {
      "anonymous": false,
      "inputs": [
        {
          "indexed": false,
          "internalType": "uint256",
          "name": "proposalId",
          "type": "uint256"
        },
        {
          "indexed": false,
          "internalType": "uint256",
          "name": "finalValue",
          "type": "uint256"
        },
        {
          "indexed": false,
          "internalType": "string",
          "name": "votingStatus",
          "type": "string"
        }
      ],
      "name": "proposalClosed",
      "type": "event"
    },
    {
      "anonymous": false,
      "inputs": [
        {
          "indexed": false,
          "internalType": "uint256",
          "name": "daoId",
          "type": "uint256"
        },
        {
          "indexed": false,
          "internalType": "uint256",
          "name": "proposalId",
          "type": "uint256"
        },
        {
          "indexed": false,
          "internalType": "address",
          "name": "owner",
          "type": "address"
        },
        {
          "indexed": false,
          "internalType": "string",
          "name": "proposalName",
          "type": "string"
        },
        {
          "indexed": false,
          "internalType": "string",
          "name": "proposalDesc",
          "type": "string"
        },
        {
          "indexed": false,
          "internalType": "uint256",
          "name": "value",
          "type": "uint256"
        },
        {
          "indexed": false,
          "internalType": "uint256",
          "name": "voteForYes",
          "type": "uint256"
        },
        {
          "indexed": false,
          "internalType": "uint256",
          "name": "voteForNo",
          "type": "uint256"
        },
        {
          "indexed": false,
          "internalType": "bool",
          "name": "status",
          "type": "bool"
        },
        {
          "indexed": false,
          "internalType": "string",
          "name": "votingStatus",
          "type": "string"
        }
      ],
      "name": "proposalCreated",
      "type": "event"
    },
    {
      "anonymous": false,
      "inputs": [
        {
          "indexed": false,
          "internalType": "uint256",
          "name": "proposalId",
          "type": "uint256"
        },
        {
          "indexed": false,
          "internalType": "address",
          "name": "voter",
          "type": "address"
        },
        {
          "indexed": false,
          "internalType": "enum CollectorsDAO.VotingOptions",
          "name": "vote",
          "type": "uint8"
        },
        {
          "indexed": false,
          "internalType": "bool",
          "name": "updatedProposalStatus",
          "type": "bool"
        }
      ],
      "name": "voteSetted",
      "type": "event"
    },
    {
      "inputs": [],
      "name": "_id",
      "outputs": [
        {
          "internalType": "uint256",
          "name": "_value",
          "type": "uint256"
        }
      ],
      "stateMutability": "view",
      "type": "function",
      "constant": true
    },
    {
      "inputs": [],
      "name": "_proposalCount",
      "outputs": [
        {
          "internalType": "uint256",
          "name": "_value",
          "type": "uint256"
        }
      ],
      "stateMutability": "view",
      "type": "function",
      "constant": true
    },
    {
      "inputs": [
        {
          "internalType": "address",
          "name": "",
          "type": "address"
        },
        {
          "internalType": "uint256",
          "name": "",
          "type": "uint256"
        }
      ],
      "name": "daoMembers",
      "outputs": [
        {
          "internalType": "bool",
          "name": "",
          "type": "bool"
        }
      ],
      "stateMutability": "view",
      "type": "function",
      "constant": true
    },
    {
      "inputs": [],
      "name": "owner",
      "outputs": [
        {
          "internalType": "address",
          "name": "",
          "type": "address"
        }
      ],
      "stateMutability": "view",
      "type": "function",
      "constant": true
    },
    {
      "inputs": [
        {
          "internalType": "uint256",
          "name": "",
          "type": "uint256"
        }
      ],
      "name": "proposals",
      "outputs": [
        {
          "internalType": "uint256",
          "name": "daoId",
          "type": "uint256"
        },
        {
          "internalType": "uint256",
          "name": "proposalId",
          "type": "uint256"
        },
        {
          "internalType": "address",
          "name": "author",
          "type": "address"
        },
        {
          "internalType": "string",
          "name": "name",
          "type": "string"
        },
        {
          "internalType": "string",
          "name": "description",
          "type": "string"
        },
        {
          "internalType": "uint256",
          "name": "value",
          "type": "uint256"
        },
        {
          "internalType": "uint256",
          "name": "createdAt",
          "type": "uint256"
        },
        {
          "internalType": "uint256",
          "name": "votesForYes",
          "type": "uint256"
        },
        {
          "internalType": "uint256",
          "name": "votesForNo",
          "type": "uint256"
        },
        {
          "internalType": "bool",
          "name": "status",
          "type": "bool"
        },
        {
          "internalType": "string",
          "name": "votingStatus",
          "type": "string"
        }
      ],
      "stateMutability": "view",
      "type": "function",
      "constant": true
    },
    {
      "inputs": [],
      "name": "renounceOwnership",
      "outputs": [],
      "stateMutability": "nonpayable",
      "type": "function"
    },
    {
      "inputs": [
        {
          "internalType": "uint256",
          "name": "",
          "type": "uint256"
        }
      ],
      "name": "subDao",
      "outputs": [
        {
          "internalType": "uint256",
          "name": "id",
          "type": "uint256"
        },
        {
          "internalType": "string",
          "name": "name",
          "type": "string"
        }
      ],
      "stateMutability": "view",
      "type": "function",
      "constant": true
    },
    {
      "inputs": [
        {
          "internalType": "address",
          "name": "newOwner",
          "type": "address"
        }
      ],
      "name": "transferOwnership",
      "outputs": [],
      "stateMutability": "nonpayable",
      "type": "function"
    },
    {
      "inputs": [
        {
          "internalType": "address",
          "name": "",
          "type": "address"
        },
        {
          "internalType": "uint256",
          "name": "",
          "type": "uint256"
        }
      ],
      "name": "votes",
      "outputs": [
        {
          "internalType": "bool",
          "name": "",
          "type": "bool"
        }
      ],
      "stateMutability": "view",
      "type": "function",
      "constant": true
    },
    {
      "inputs": [
        {
          "internalType": "string",
          "name": "_name",
          "type": "string"
        }
      ],
      "name": "createDAO",
      "outputs": [],
      "stateMutability": "nonpayable",
      "type": "function"
    },
    {
      "inputs": [
        {
          "internalType": "uint256",
          "name": "_daoId",
          "type": "uint256"
        },
        {
          "internalType": "string",
          "name": "_name",
          "type": "string"
        },
        {
          "internalType": "string",
          "name": "_description",
          "type": "string"
        },
        {
          "internalType": "uint256",
          "name": "_value",
          "type": "uint256"
        }
      ],
      "name": "createProposal",
      "outputs": [],
      "stateMutability": "nonpayable",
      "type": "function"
    },
    {
      "inputs": [
        {
          "internalType": "uint256",
          "name": "_proposalId",
          "type": "uint256"
        },
        {
          "internalType": "uint256",
          "name": "_value",
          "type": "uint256"
        },
        {
          "internalType": "enum CollectorsDAO.VotingOptions",
          "name": "_vote",
          "type": "uint8"
        }
      ],
      "name": "vote",
      "outputs": [],
      "stateMutability": "nonpayable",
      "type": "function"
    },
    {
      "inputs": [
        {
          "internalType": "uint256",
          "name": "_proposalId",
          "type": "uint256"
        }
      ],
      "name": "closeProposal",
      "outputs": [],
      "stateMutability": "nonpayable",
      "type": "function"
    },
    {
      "inputs": [
        {
          "internalType": "uint256",
          "name": "_proposalId",
          "type": "uint256"
        }
      ],
      "name": "getProposalStatus",
      "outputs": [
        {
          "internalType": "bool",
          "name": "proposalStatus",
          "type": "bool"
        }
      ],
      "stateMutability": "view",
      "type": "function",
      "constant": true
    }
  ],
  "bytecode": "0x608060405234801561001057600080fd5b5061001a3361001f565b61006f565b600080546001600160a01b038381166001600160a01b0319831681178455604051919092169283917f8be0079c531659141344cd1fd0a4f28419497f9722a3daafe3b4186f6b6457e09190a35050565b6112cd8061007e6000396000f3fe608060405234801561001057600080fd5b50600436106100ea5760003560e01c8063715018a61161008c5780639f2524ee116100665780639f2524ee14610206578063bbb2eab914610234578063c4e0214714610247578063f2fde38b1461026857600080fd5b8063715018a6146101b55780638a465bd1146101bd5780638da5cb5b146101eb57600080fd5b8063401853b7116100c8578063401853b71461014f5780634830ebcf146101855780635ada0a41146101985780636f2904cc146101ab57600080fd5b8063013cf08b146100ef5780630386a016146101225780630518023714610137575b600080fd5b6101026100fd366004610c45565b61027b565b6040516101199b9a99989796959493929190610ca4565b60405180910390f35b610135610130366004610c45565b61047f565b005b6001546101419081565b604051908152602001610119565b61017561015d366004610c45565b60009081526005602052604090206009015460ff1690565b6040519015158152602001610119565b610135610193366004610dd6565b61059a565b6101356101a6366004610e13565b610672565b6002546101419081565b61013561080c565b6101756101cb366004610ea4565b600460209081526000928352604080842090915290825290205460ff1681565b6000546040516001600160a01b039091168152602001610119565b610175610214366004610ea4565b600660209081526000928352604080842090915290825290205460ff1681565b610135610242366004610ece565b610820565b61025a610255366004610c45565b610a6a565b604051610119929190610f0b565b610135610276366004610f24565b610b22565b6005602052600090815260409020805460018201546002830154600384018054939492936001600160a01b0390921692916102b590610f46565b80601f01602080910402602001604051908101604052809291908181526020018280546102e190610f46565b801561032e5780601f106103035761010080835404028352916020019161032e565b820191906000526020600020905b81548152906001019060200180831161031157829003601f168201915b50505050509080600401805461034390610f46565b80601f016020809104026020016040519081016040528092919081815260200182805461036f90610f46565b80156103bc5780601f10610391576101008083540402835291602001916103bc565b820191906000526020600020905b81548152906001019060200180831161039f57829003601f168201915b5050505050908060050154908060060154908060070154908060080154908060090160009054906101000a900460ff169080600a0180546103fc90610f46565b80601f016020809104026020016040519081016040528092919081815260200182805461042890610f46565b80156104755780601f1061044a57610100808354040283529160200191610475565b820191906000526020600020905b81548152906001019060200180831161045857829003601f168201915b505050505090508b565b610487610b9b565b60008181526005602052604090206009015460ff1615156001036104ee57604051806040016040528060088152602001671858d8d95c1d195960c21b81525060056000838152602001908152602001600020600a0190816104e89190610fcf565b50610544565b604051806040016040528060078152602001661c99599d5cd95960ca1b81525060056000838152602001908152602001600020600a0190816105309190610fcf565b506000818152600560208190526040822001555b6000818152600560208190526040918290209081015491517f321c3f57789939cd39adec5d8128505091bd9203987e6809db9bc7c8213c485f9261058f928592600a9091019061108f565b60405180910390a150565b604080518082019091526001805482526020820183815260038054928301815560005282517fc2575a0e9e593c00f959f8c92f12db2869c3395a3b0502d05e2516446f71f85b6002909302928301908155905183927fc2575a0e9e593c00f959f8c92f12db2869c3395a3b0502d05e2516446f71f85c019061061c9082610fcf565b5050507f233468f62cb5569433a2646a1c57b4333dc80fc4881a358e28455bb25feb3be361064960015490565b83604051610658929190610f0b565b60405180910390a161066e600180546001019055565b5050565b600061067d60025490565b6040805161016081018252878152602080820184815233838501908152606084018a8152608085018a905260a085018990524260c0860152600060e086018190526101008601819052610120860181905286518088018852600781526670656e64696e6760c81b81870152610140870152878152600590945294909220835181559051600182015590516002820180546001600160a01b0319166001600160a01b03909216919091179055915192935091600382019061073d9082610fcf565b50608082015160048201906107529082610fcf565b5060a0820151600582015560c0820151600682015560e08201516007820155610100820151600882015561012082015160098201805460ff1916911515919091179055610140820151600a8201906107aa9082610fcf565b509050507f1253bf6def5202c1568990c81799e2d04936abc31d30bfa34c34cb05d321e99085823387878760008060006040516107ef99989796959493929190611129565b60405180910390a1610805600280546001019055565b5050505050565b610814610b9b565b61081e6000610bf5565b565b6000838152600560209081526040808320338452600683528184208785529092529091205460ff161561088a5760405162461bcd60e51b815260206004820152600d60248201526c185b1c9958591e481d9bdd1959609a1b60448201526064015b60405180910390fd5b62093a80816006015461089d91906111d1565b4211156108e45760405162461bcd60e51b81526020600482015260156024820152742b37ba34b733903832b934b7b21034b99037bb32b960591b6044820152606401610881565b3360009081526006602090815260408083208784529091528120805460ff1916600117905582600181111561091b5761091b6111ea565b036109c257600181600701600082825461093591906111d1565b909155505060088101546007820154603291610950916111d1565b6007830154610960906064611200565b61096a9190611217565b11156109bd5760098101805460ff1916600190811790915560078201549084906109949083611239565b83600501546109a39190611200565b6109ad91906111d1565b6109b79190611217565b60058201555b610a1f565b60018160080160008282546109d791906111d1565b9091555050600881015460078201546032916109f2916111d1565b6008830154610a02906064611200565b610a0c9190611217565b1115610a1f5760098101805460ff191690555b60098101546040517f850c01f77ce89db19c181f2bfa4b0511a21b3950c753d84abe84ef69195cce1191610a5c9187913391879160ff169061124c565b60405180910390a150505050565b60038181548110610a7a57600080fd5b60009182526020909120600290910201805460018201805491935090610a9f90610f46565b80601f0160208091040260200160405190810160405280929190818152602001828054610acb90610f46565b8015610b185780601f10610aed57610100808354040283529160200191610b18565b820191906000526020600020905b815481529060010190602001808311610afb57829003601f168201915b5050505050905082565b610b2a610b9b565b6001600160a01b038116610b8f5760405162461bcd60e51b815260206004820152602660248201527f4f776e61626c653a206e6577206f776e657220697320746865207a65726f206160448201526564647265737360d01b6064820152608401610881565b610b9881610bf5565b50565b6000546001600160a01b0316331461081e5760405162461bcd60e51b815260206004820181905260248201527f4f776e61626c653a2063616c6c6572206973206e6f7420746865206f776e65726044820152606401610881565b600080546001600160a01b038381166001600160a01b0319831681178455604051919092169283917f8be0079c531659141344cd1fd0a4f28419497f9722a3daafe3b4186f6b6457e09190a35050565b600060208284031215610c5757600080fd5b5035919050565b6000815180845260005b81811015610c8457602081850181015186830182015201610c68565b506000602082860101526020601f19601f83011685010191505092915050565b8b8152602081018b90526001600160a01b038a16604082015261016060608201819052600090610cd68382018c610c5e565b90508281036080840152610cea818b610c5e565b90508860a08401528760c08401528660e084015285610100840152841515610120840152828103610140840152610d218185610c5e565b9e9d5050505050505050505050505050565b634e487b7160e01b600052604160045260246000fd5b600082601f830112610d5a57600080fd5b813567ffffffffffffffff80821115610d7557610d75610d33565b604051601f8301601f19908116603f01168101908282118183101715610d9d57610d9d610d33565b81604052838152866020858801011115610db657600080fd5b836020870160208301376000602085830101528094505050505092915050565b600060208284031215610de857600080fd5b813567ffffffffffffffff811115610dff57600080fd5b610e0b84828501610d49565b949350505050565b60008060008060808587031215610e2957600080fd5b84359350602085013567ffffffffffffffff80821115610e4857600080fd5b610e5488838901610d49565b94506040870135915080821115610e6a57600080fd5b50610e7787828801610d49565b949793965093946060013593505050565b80356001600160a01b0381168114610e9f57600080fd5b919050565b60008060408385031215610eb757600080fd5b610ec083610e88565b946020939093013593505050565b600080600060608486031215610ee357600080fd5b8335925060208401359150604084013560028110610f0057600080fd5b809150509250925092565b828152604060208201526000610e0b6040830184610c5e565b600060208284031215610f3657600080fd5b610f3f82610e88565b9392505050565b600181811c90821680610f5a57607f821691505b602082108103610f7a57634e487b7160e01b600052602260045260246000fd5b50919050565b601f821115610fca57600081815260208120601f850160051c81016020861015610fa75750805b601f850160051c820191505b81811015610fc657828155600101610fb3565b5050505b505050565b815167ffffffffffffffff811115610fe957610fe9610d33565b610ffd81610ff78454610f46565b84610f80565b602080601f831160018114611032576000841561101a5750858301515b600019600386901b1c1916600185901b178555610fc6565b600085815260208120601f198616915b8281101561106157888601518255948401946001909101908401611042565b508582101561107f5787850151600019600388901b60f8161c191681555b5050505050600190811b01905550565b83815260006020848184015260606040840152600084546110af81610f46565b80606087015260806001808416600081146110d157600181146110eb57611119565b60ff1985168984015283151560051b890183019550611119565b896000528660002060005b858110156111115781548b82018601529083019088016110f6565b8a0184019650505b50939a9950505050505050505050565b898152602081018990526001600160a01b03881660408201526101406060820181905260009061115b8382018a610c5e565b9050828103608084015261116f8189610c5e565b60a0840197909752505060c081019390935260e0830191909152151561010082015280820361012090910152600781526670656e64696e6760c81b602082015260400195945050505050565b634e487b7160e01b600052601160045260246000fd5b808201808211156111e4576111e46111bb565b92915050565b634e487b7160e01b600052602160045260246000fd5b80820281158282048414176111e4576111e46111bb565b60008261123457634e487b7160e01b600052601260045260246000fd5b500490565b818103818111156111e4576111e46111bb565b8481526001600160a01b0384166020820152608081016002841061128057634e487b7160e01b600052602160045260246000fd5b83604083015282151560608301529594505050505056fea26469706673582212208335de30bff60c6f3f6a1d0b0e851a4233ec2d060724a167b4f48b44eafa636764736f6c63430008110033",
  "immutableReferences": {},
  "source": "// SPDX-License-Identifier: GPL-3.0\npragma solidity 0.8.17;\n\nimport \"../node_modules/@openzeppelin/contracts/utils/Counters.sol\";\nimport \"../node_modules/@openzeppelin/contracts/access/Ownable.sol\";\n\ncontract CollectorsDAO is Ownable {\n    using Counters for Counters.Counter;\n    Counters.Counter public _id;\n    Counters.Counter public _proposalCount;\n\n    enum VotingOptions {\n        Yes,\n        No\n    }\n\n    enum VotingStatus {\n        pending,\n        accepted,\n        refused\n    }\n\n    struct SubDao {\n        uint256 id;\n        string name;\n    }\n\n    SubDao[] public subDao;\n\n    struct Proposal {\n        uint256 daoId;\n        uint256 proposalId;\n        address author;\n        string name;\n        string description;\n        uint256 value;\n        uint256 createdAt;\n        uint256 votesForYes;\n        uint256 votesForNo;\n        bool status;\n        string votingStatus;\n    }\n\n    event daoCreated(uint256 daoId, string daoName);\n\n    event proposalCreated(\n        uint256 daoId,\n        uint256 proposalId,\n        address owner,\n        string proposalName,\n        string proposalDesc,\n        uint256 value,\n        uint256 voteForYes,\n        uint256 voteForNo,\n        bool status,\n        string votingStatus\n    );\n\n    event voteSetted(\n        uint256 proposalId,\n        address voter,\n        VotingOptions vote,\n        bool updatedProposalStatus\n    );\n\n    event proposalClosed(\n        uint256 proposalId,\n        uint256 finalValue,\n        string votingStatus\n    );\n\n    /// @notice list of members of each DAO : user address => daoId (ie collectionId) => member status\n    mapping(address => mapping(uint256 => bool)) public daoMembers;\n\n    /// @notice store all proposals: proposalId => proposal\n    mapping(uint256 => Proposal) public proposals;\n    /// @notice who already votes for who and to avoid vote twice: voter => proposalId => vote Status\n    mapping(address => mapping(uint256 => bool)) public votes;\n\n    uint256 constant VOTING_PERIOD = 7 days;\n\n    function createDAO(string memory _name) external {\n        SubDao memory newSubDao;\n        newSubDao.id = _id.current();\n        newSubDao.name = _name;\n\n        subDao.push(newSubDao);\n\n        emit daoCreated(_id.current(), _name);\n\n        _id.increment();\n    }\n\n    function createProposal(\n        uint256 _daoId,\n        string memory _name,\n        string memory _description,\n        uint256 _value\n    ) external {\n        uint256 proposalId = _proposalCount.current();\n\n        proposals[proposalId] = Proposal(\n            _daoId,\n            proposalId,\n            msg.sender,\n            _name,\n            _description,\n            _value,\n            block.timestamp,\n            0,\n            0,\n            false,\n            \"pending\"\n        );\n\n        emit proposalCreated(\n            _daoId,\n            proposalId,\n            msg.sender,\n            _name,\n            _description,\n            _value,\n            0,\n            0,\n            false,\n            \"pending\"\n        );\n\n        _proposalCount.increment();\n    }\n\n    function vote(\n        uint256 _proposalId,\n        uint256 _value,\n        VotingOptions _vote\n    ) external {\n        Proposal storage proposal = proposals[_proposalId];\n        require(votes[msg.sender][_proposalId] == false, \"already voted\");\n        require(\n            block.timestamp <= proposal.createdAt + VOTING_PERIOD,\n            \"Voting period is over\"\n        );\n        votes[msg.sender][_proposalId] = true;\n        if (_vote == VotingOptions.Yes) {\n            proposal.votesForYes += 1;\n            if (\n                (proposal.votesForYes * 100) /\n                    (proposal.votesForYes + proposal.votesForNo) >\n                50\n            ) {\n                proposal.status = true;\n                proposal.value =\n                    (proposal.value * (proposal.votesForYes - 1) + _value) /\n                    proposal.votesForYes;\n            }\n        } else {\n            proposal.votesForNo += 1;\n            if (\n                (proposal.votesForNo * 100) /\n                    (proposal.votesForYes + proposal.votesForNo) >\n                50\n            ) {\n                proposal.status = false;\n            }\n        }\n\n        emit voteSetted(_proposalId, msg.sender, _vote, proposal.status);\n    }\n\n    function closeProposal(uint256 _proposalId) external onlyOwner {\n        if (proposals[_proposalId].status == true) {\n            proposals[_proposalId].votingStatus = \"accepted\";\n        } else {\n            proposals[_proposalId].votingStatus = \"refused\";\n            proposals[_proposalId].value = 0;\n        }\n\n        emit proposalClosed(\n            _proposalId,\n            proposals[_proposalId].value,\n            proposals[_proposalId].votingStatus\n        );\n    }\n\n    function getProposalStatus(uint256 _proposalId)\n        external\n        view\n        returns (bool proposalStatus)\n    {\n        // require(block.timestamp >= proposals[_daoId][_proposalId].createdAt + VOTING_PERIOD, \"Voting period is not over\");\n        return proposals[_proposalId].status;\n    }\n}\n",
  "sourcePath": "/Users/jeromejulien/Documents/vscode/FormationAlyra/02_Projets/CollectorChain_TokenizedCollectibles/truffle/contracts/CollectorsDAO.sol",
  "compiler": {
    "name": "solc",
    "version": "0.8.17+commit.8df45f5f.Emscripten.clang"
  },
  "schemaVersion": "3.4.10",
  "updatedAt": "2022-12-06T08:59:06.229Z",
  "networkType": "ethereum",
  "devdoc": {
    "kind": "dev",
    "methods": {
      "owner()": {
        "details": "Returns the address of the current owner."
      },
      "renounceOwnership()": {
        "details": "Leaves the contract without owner. It will not be possible to call `onlyOwner` functions anymore. Can only be called by the current owner. NOTE: Renouncing ownership will leave the contract without an owner, thereby removing any functionality that is only available to the owner."
      },
      "transferOwnership(address)": {
        "details": "Transfers ownership of the contract to a new account (`newOwner`). Can only be called by the current owner."
      }
    },
    "version": 1
  },
  "userdoc": {
    "kind": "user",
    "methods": {
      "daoMembers(address,uint256)": {
        "notice": "list of members of each DAO : user address => daoId (ie collectionId) => member status"
      },
      "proposals(uint256)": {
        "notice": "store all proposals: proposalId => proposal"
      },
      "votes(address,uint256)": {
        "notice": "who already votes for who and to avoid vote twice: voter => proposalId => vote Status"
      }
    },
    "version": 1
  }
}