{
  "contractName": "CollectorsDAO",
  "abi": [
    {
      "anonymous": false,
      "inputs": [
        {
          "indexed": true,
          "internalType": "address",
          "name": "previousOwner",
          "type": "address"
        },
        {
          "indexed": true,
          "internalType": "address",
          "name": "newOwner",
          "type": "address"
        }
      ],
      "name": "OwnershipTransferred",
      "type": "event"
    },
    {
      "anonymous": false,
      "inputs": [
        {
          "indexed": false,
          "internalType": "uint256",
          "name": "daoId",
          "type": "uint256"
        },
        {
          "indexed": false,
          "internalType": "string",
          "name": "daoName",
          "type": "string"
        }
      ],
      "name": "daoCreated",
      "type": "event"
    },
    {
      "anonymous": false,
      "inputs": [
        {
          "indexed": false,
          "internalType": "uint256",
          "name": "proposalId",
          "type": "uint256"
        },
        {
          "indexed": false,
          "internalType": "bool",
          "name": "digitalMinted",
          "type": "bool"
        }
      ],
      "name": "digitalMinted",
      "type": "event"
    },
    {
      "anonymous": false,
      "inputs": [
        {
          "indexed": false,
          "internalType": "uint256",
          "name": "proposalId",
          "type": "uint256"
        },
        {
          "indexed": false,
          "internalType": "bool",
          "name": "propertyMinted",
          "type": "bool"
        }
      ],
      "name": "propertyMinted",
      "type": "event"
    },
    {
      "anonymous": false,
      "inputs": [
        {
          "indexed": false,
          "internalType": "uint256",
          "name": "proposalId",
          "type": "uint256"
        },
        {
          "indexed": false,
          "internalType": "uint256",
          "name": "finalValue",
          "type": "uint256"
        },
        {
          "indexed": false,
          "internalType": "string",
          "name": "votingStatus",
          "type": "string"
        }
      ],
      "name": "proposalClosed",
      "type": "event"
    },
    {
      "anonymous": false,
      "inputs": [
        {
          "indexed": false,
          "internalType": "uint256",
          "name": "daoId",
          "type": "uint256"
        },
        {
          "indexed": false,
          "internalType": "uint256",
          "name": "proposalId",
          "type": "uint256"
        },
        {
          "indexed": false,
          "internalType": "address",
          "name": "owner",
          "type": "address"
        },
        {
          "indexed": false,
          "internalType": "string",
          "name": "proposalName",
          "type": "string"
        },
        {
          "indexed": false,
          "internalType": "string",
          "name": "proposalDesc",
          "type": "string"
        },
        {
          "indexed": false,
          "internalType": "uint256",
          "name": "value",
          "type": "uint256"
        },
        {
          "indexed": false,
          "internalType": "uint256",
          "name": "voteForYes",
          "type": "uint256"
        },
        {
          "indexed": false,
          "internalType": "uint256",
          "name": "voteForNo",
          "type": "uint256"
        },
        {
          "indexed": false,
          "internalType": "bool",
          "name": "status",
          "type": "bool"
        },
        {
          "indexed": false,
          "internalType": "string",
          "name": "votingStatus",
          "type": "string"
        },
        {
          "indexed": false,
          "internalType": "bool",
          "name": "propertyNftMinted",
          "type": "bool"
        },
        {
          "indexed": false,
          "internalType": "bool",
          "name": "digitalNftMinted",
          "type": "bool"
        }
      ],
      "name": "proposalCreated",
      "type": "event"
    },
    {
      "anonymous": false,
      "inputs": [
        {
          "indexed": false,
          "internalType": "uint256",
          "name": "proposalId",
          "type": "uint256"
        },
        {
          "indexed": false,
          "internalType": "address",
          "name": "voter",
          "type": "address"
        },
        {
          "indexed": false,
          "internalType": "enum CollectorsDAO.VotingOptions",
          "name": "vote",
          "type": "uint8"
        },
        {
          "indexed": false,
          "internalType": "bool",
          "name": "updatedProposalStatus",
          "type": "bool"
        }
      ],
      "name": "voteSetted",
      "type": "event"
    },
    {
      "inputs": [],
      "name": "_id",
      "outputs": [
        {
          "internalType": "uint256",
          "name": "_value",
          "type": "uint256"
        }
      ],
      "stateMutability": "view",
      "type": "function",
      "constant": true
    },
    {
      "inputs": [],
      "name": "_proposalCount",
      "outputs": [
        {
          "internalType": "uint256",
          "name": "_value",
          "type": "uint256"
        }
      ],
      "stateMutability": "view",
      "type": "function",
      "constant": true
    },
    {
      "inputs": [
        {
          "internalType": "address",
          "name": "",
          "type": "address"
        },
        {
          "internalType": "uint256",
          "name": "",
          "type": "uint256"
        }
      ],
      "name": "daoMembers",
      "outputs": [
        {
          "internalType": "bool",
          "name": "",
          "type": "bool"
        }
      ],
      "stateMutability": "view",
      "type": "function",
      "constant": true
    },
    {
      "inputs": [],
      "name": "owner",
      "outputs": [
        {
          "internalType": "address",
          "name": "",
          "type": "address"
        }
      ],
      "stateMutability": "view",
      "type": "function",
      "constant": true
    },
    {
      "inputs": [
        {
          "internalType": "uint256",
          "name": "",
          "type": "uint256"
        }
      ],
      "name": "proposals",
      "outputs": [
        {
          "internalType": "uint256",
          "name": "daoId",
          "type": "uint256"
        },
        {
          "internalType": "uint256",
          "name": "proposalId",
          "type": "uint256"
        },
        {
          "internalType": "address",
          "name": "author",
          "type": "address"
        },
        {
          "internalType": "string",
          "name": "name",
          "type": "string"
        },
        {
          "internalType": "string",
          "name": "description",
          "type": "string"
        },
        {
          "internalType": "uint256",
          "name": "value",
          "type": "uint256"
        },
        {
          "internalType": "uint256",
          "name": "createdAt",
          "type": "uint256"
        },
        {
          "internalType": "uint256",
          "name": "votesForYes",
          "type": "uint256"
        },
        {
          "internalType": "uint256",
          "name": "votesForNo",
          "type": "uint256"
        },
        {
          "internalType": "bool",
          "name": "status",
          "type": "bool"
        },
        {
          "internalType": "string",
          "name": "votingStatus",
          "type": "string"
        },
        {
          "internalType": "bool",
          "name": "propertyNftMinted",
          "type": "bool"
        },
        {
          "internalType": "bool",
          "name": "digitalNftMinted",
          "type": "bool"
        }
      ],
      "stateMutability": "view",
      "type": "function",
      "constant": true
    },
    {
      "inputs": [],
      "name": "renounceOwnership",
      "outputs": [],
      "stateMutability": "nonpayable",
      "type": "function"
    },
    {
      "inputs": [
        {
          "internalType": "uint256",
          "name": "",
          "type": "uint256"
        }
      ],
      "name": "subDao",
      "outputs": [
        {
          "internalType": "uint256",
          "name": "id",
          "type": "uint256"
        },
        {
          "internalType": "string",
          "name": "name",
          "type": "string"
        }
      ],
      "stateMutability": "view",
      "type": "function",
      "constant": true
    },
    {
      "inputs": [
        {
          "internalType": "address",
          "name": "newOwner",
          "type": "address"
        }
      ],
      "name": "transferOwnership",
      "outputs": [],
      "stateMutability": "nonpayable",
      "type": "function"
    },
    {
      "inputs": [
        {
          "internalType": "address",
          "name": "",
          "type": "address"
        },
        {
          "internalType": "uint256",
          "name": "",
          "type": "uint256"
        }
      ],
      "name": "votes",
      "outputs": [
        {
          "internalType": "bool",
          "name": "",
          "type": "bool"
        }
      ],
      "stateMutability": "view",
      "type": "function",
      "constant": true
    },
    {
      "inputs": [
        {
          "internalType": "string",
          "name": "_name",
          "type": "string"
        }
      ],
      "name": "createDAO",
      "outputs": [],
      "stateMutability": "nonpayable",
      "type": "function"
    },
    {
      "inputs": [
        {
          "internalType": "uint256",
          "name": "_daoId",
          "type": "uint256"
        },
        {
          "internalType": "string",
          "name": "_name",
          "type": "string"
        },
        {
          "internalType": "string",
          "name": "_description",
          "type": "string"
        },
        {
          "internalType": "uint256",
          "name": "_value",
          "type": "uint256"
        }
      ],
      "name": "createProposal",
      "outputs": [],
      "stateMutability": "nonpayable",
      "type": "function"
    },
    {
      "inputs": [
        {
          "internalType": "uint256",
          "name": "_proposalId",
          "type": "uint256"
        },
        {
          "internalType": "uint256",
          "name": "_value",
          "type": "uint256"
        },
        {
          "internalType": "enum CollectorsDAO.VotingOptions",
          "name": "_vote",
          "type": "uint8"
        }
      ],
      "name": "vote",
      "outputs": [],
      "stateMutability": "nonpayable",
      "type": "function"
    },
    {
      "inputs": [
        {
          "internalType": "uint256",
          "name": "_proposalId",
          "type": "uint256"
        }
      ],
      "name": "closeProposal",
      "outputs": [],
      "stateMutability": "nonpayable",
      "type": "function"
    },
    {
      "inputs": [
        {
          "internalType": "uint256",
          "name": "_proposalId",
          "type": "uint256"
        }
      ],
      "name": "getProposalStatus",
      "outputs": [
        {
          "internalType": "bool",
          "name": "proposalStatus",
          "type": "bool"
        }
      ],
      "stateMutability": "view",
      "type": "function",
      "constant": true
    },
    {
      "inputs": [
        {
          "internalType": "uint256",
          "name": "_proposalId",
          "type": "uint256"
        }
      ],
      "name": "updatePropertyMintStatus",
      "outputs": [],
      "stateMutability": "nonpayable",
      "type": "function"
    },
    {
      "inputs": [
        {
          "internalType": "uint256",
          "name": "_proposalId",
          "type": "uint256"
        }
      ],
      "name": "updateDigitalMintStatus",
      "outputs": [],
      "stateMutability": "nonpayable",
      "type": "function"
    }
  ],
  "bytecode": "0x608060405234801561001057600080fd5b5061001a3361001f565b61006f565b600080546001600160a01b038381166001600160a01b0319831681178455604051919092169283917f8be0079c531659141344cd1fd0a4f28419497f9722a3daafe3b4186f6b6457e09190a35050565b61144f8061007e6000396000f3fe608060405234801561001057600080fd5b50600436106101005760003560e01c8063715018a6116100975780639f2524ee116100665780639f2524ee14610244578063bbb2eab914610272578063c4e0214714610285578063f2fde38b146102a657600080fd5b8063715018a6146101e0578063845c776d146101e85780638a465bd1146101fb5780638da5cb5b1461022957600080fd5b8063401853b7116100d3578063401853b71461017a5780634830ebcf146101b05780635ada0a41146101c35780636f2904cc146101d657600080fd5b8063013cf08b146101055780630386a0161461013a578063051802371461014f578063259a446614610167575b600080fd5b610118610113366004610d89565b6102b9565b6040516101319d9c9b9a99989796959493929190610de8565b60405180910390f35b61014d610148366004610d89565b6104cf565b005b6001546101599081565b604051908152602001610131565b61014d610175366004610d89565b6105ea565b6101a0610188366004610d89565b60009081526005602052604090206009015460ff1690565b6040519015158152602001610131565b61014d6101be366004610f3b565b610646565b61014d6101d1366004610f78565b61071e565b6002546101599081565b61014d6108fc565b61014d6101f6366004610d89565b610910565b6101a0610209366004611009565b600460209081526000928352604080842090915290825290205460ff1681565b6000546040516001600160a01b039091168152602001610131565b6101a0610252366004611009565b600660209081526000928352604080842090915290825290205460ff1681565b61014d610280366004611033565b610964565b610298610293366004610d89565b610bae565b604051610131929190611070565b61014d6102b4366004611089565b610c66565b6005602052600090815260409020805460018201546002830154600384018054939492936001600160a01b0390921692916102f3906110ab565b80601f016020809104026020016040519081016040528092919081815260200182805461031f906110ab565b801561036c5780601f106103415761010080835404028352916020019161036c565b820191906000526020600020905b81548152906001019060200180831161034f57829003601f168201915b505050505090806004018054610381906110ab565b80601f01602080910402602001604051908101604052809291908181526020018280546103ad906110ab565b80156103fa5780601f106103cf576101008083540402835291602001916103fa565b820191906000526020600020905b8154815290600101906020018083116103dd57829003601f168201915b5050505050908060050154908060060154908060070154908060080154908060090160009054906101000a900460ff169080600a01805461043a906110ab565b80601f0160208091040260200160405190810160405280929190818152602001828054610466906110ab565b80156104b35780601f10610488576101008083540402835291602001916104b3565b820191906000526020600020905b81548152906001019060200180831161049657829003601f168201915b505050600b909301549192505060ff808216916101009004168d565b6104d7610cdf565b60008181526005602052604090206009015460ff16151560010361053e57604051806040016040528060088152602001671858d8d95c1d195960c21b81525060056000838152602001908152602001600020600a0190816105389190611134565b50610594565b604051806040016040528060078152602001661c99599d5cd95960ca1b81525060056000838152602001908152602001600020600a0190816105809190611134565b506000818152600560208190526040822001555b6000818152600560208190526040918290209081015491517f321c3f57789939cd39adec5d8128505091bd9203987e6809db9bc7c8213c485f926105df928592600a909101906111f4565b60405180910390a150565b60008181526005602052604090819020600b01805461ff001916610100179055517f5802cc018bf0d01c7ed6c794bb8d560c639d43858443f4aaf18d96cd6051419b906105df9083906001909182521515602082015260400190565b604080518082019091526001805482526020820183815260038054928301815560005282517fc2575a0e9e593c00f959f8c92f12db2869c3395a3b0502d05e2516446f71f85b6002909302928301908155905183927fc2575a0e9e593c00f959f8c92f12db2869c3395a3b0502d05e2516446f71f85c01906106c89082611134565b5050507f233468f62cb5569433a2646a1c57b4333dc80fc4881a358e28455bb25feb3be36106f560015490565b83604051610704929190611070565b60405180910390a161071a600180546001019055565b5050565b600061072960025490565b604080516101a081018252878152602080820184815233838501908152606084018a8152608085018a905260a085018990524260c0860152600060e086018190526101008601819052610120860181905286518088018852600781526670656e64696e6760c81b8187015261014087015261016086018190526101808601819052878152600590945294909220835181559051600182015590516002820180546001600160a01b0319166001600160a01b0390921691909117905591519293509160038201906107f99082611134565b506080820151600482019061080e9082611134565b5060a0820151600582015560c0820151600682015560e08201516007820155610100820151600882015561012082015160098201805460ff1916911515919091179055610140820151600a8201906108669082611134565b50610160820151600b90910180546101809093015115156101000261ff00199215159290921661ffff19909316929092171790556040517ffe37e28f452d368b9eb0263371477878a29834f8a96febb1fe844c35bbaeaa51906108df90879084903390899089908990600090819081908190819061128e565b60405180910390a16108f5600280546001019055565b5050505050565b610904610cdf565b61090e6000610d39565b565b600081815260056020908152604091829020600b01805460ff191660019081179091558251848152918201527fc2c6d84af001f6703730e6a4be5cdb2d3ed3e5998823abcfb475ffc10dc80d1391016105df565b6000838152600560209081526040808320338452600683528184208785529092529091205460ff16156109ce5760405162461bcd60e51b815260206004820152600d60248201526c185b1c9958591e481d9bdd1959609a1b60448201526064015b60405180910390fd5b62093a8081600601546109e19190611353565b421115610a285760405162461bcd60e51b81526020600482015260156024820152742b37ba34b733903832b934b7b21034b99037bb32b960591b60448201526064016109c5565b3360009081526006602090815260408083208784529091528120805460ff19166001179055826001811115610a5f57610a5f61136c565b03610b06576001816007016000828254610a799190611353565b909155505060088101546007820154603291610a9491611353565b6007830154610aa4906064611382565b610aae9190611399565b1115610b015760098101805460ff191660019081179091556007820154908490610ad890836113bb565b8360050154610ae79190611382565b610af19190611353565b610afb9190611399565b60058201555b610b63565b6001816008016000828254610b1b9190611353565b909155505060088101546007820154603291610b3691611353565b6008830154610b46906064611382565b610b509190611399565b1115610b635760098101805460ff191690555b60098101546040517f850c01f77ce89db19c181f2bfa4b0511a21b3950c753d84abe84ef69195cce1191610ba09187913391879160ff16906113ce565b60405180910390a150505050565b60038181548110610bbe57600080fd5b60009182526020909120600290910201805460018201805491935090610be3906110ab565b80601f0160208091040260200160405190810160405280929190818152602001828054610c0f906110ab565b8015610c5c5780601f10610c3157610100808354040283529160200191610c5c565b820191906000526020600020905b815481529060010190602001808311610c3f57829003601f168201915b5050505050905082565b610c6e610cdf565b6001600160a01b038116610cd35760405162461bcd60e51b815260206004820152602660248201527f4f776e61626c653a206e6577206f776e657220697320746865207a65726f206160448201526564647265737360d01b60648201526084016109c5565b610cdc81610d39565b50565b6000546001600160a01b0316331461090e5760405162461bcd60e51b815260206004820181905260248201527f4f776e61626c653a2063616c6c6572206973206e6f7420746865206f776e657260448201526064016109c5565b600080546001600160a01b038381166001600160a01b0319831681178455604051919092169283917f8be0079c531659141344cd1fd0a4f28419497f9722a3daafe3b4186f6b6457e09190a35050565b600060208284031215610d9b57600080fd5b5035919050565b6000815180845260005b81811015610dc857602081850181015186830182015201610dac565b506000602082860101526020601f19601f83011685010191505092915050565b8d8152602081018d90526001600160a01b038c1660408201526101a060608201819052600090610e1a8382018e610da2565b90508281036080840152610e2e818d610da2565b90508a60a08401528960c08401528860e084015287610100840152610e5861012084018815159052565b828103610140840152610e6b8187610da2565b915050610e7d61016083018515159052565b8215156101808301529e9d5050505050505050505050505050565b634e487b7160e01b600052604160045260246000fd5b600082601f830112610ebf57600080fd5b813567ffffffffffffffff80821115610eda57610eda610e98565b604051601f8301601f19908116603f01168101908282118183101715610f0257610f02610e98565b81604052838152866020858801011115610f1b57600080fd5b836020870160208301376000602085830101528094505050505092915050565b600060208284031215610f4d57600080fd5b813567ffffffffffffffff811115610f6457600080fd5b610f7084828501610eae565b949350505050565b60008060008060808587031215610f8e57600080fd5b84359350602085013567ffffffffffffffff80821115610fad57600080fd5b610fb988838901610eae565b94506040870135915080821115610fcf57600080fd5b50610fdc87828801610eae565b949793965093946060013593505050565b80356001600160a01b038116811461100457600080fd5b919050565b6000806040838503121561101c57600080fd5b61102583610fed565b946020939093013593505050565b60008060006060848603121561104857600080fd5b833592506020840135915060408401356002811061106557600080fd5b809150509250925092565b828152604060208201526000610f706040830184610da2565b60006020828403121561109b57600080fd5b6110a482610fed565b9392505050565b600181811c908216806110bf57607f821691505b6020821081036110df57634e487b7160e01b600052602260045260246000fd5b50919050565b601f82111561112f57600081815260208120601f850160051c8101602086101561110c5750805b601f850160051c820191505b8181101561112b57828155600101611118565b5050505b505050565b815167ffffffffffffffff81111561114e5761114e610e98565b6111628161115c84546110ab565b846110e5565b602080601f831160018114611197576000841561117f5750858301515b600019600386901b1c1916600185901b17855561112b565b600085815260208120601f198616915b828110156111c6578886015182559484019460019091019084016111a7565b50858210156111e45787850151600019600388901b60f8161c191681555b5050505050600190811b01905550565b8381526000602084818401526060604084015260008454611214816110ab565b806060870152608060018084166000811461123657600181146112505761127e565b60ff1985168984015283151560051b89018301955061127e565b896000528660002060005b858110156112765781548b820186015290830190880161125b565b8a0184019650505b50939a9950505050505050505050565b8b8152602081018b90526001600160a01b038a166040820152610180606082018190526000906112c08382018c610da2565b905082810360808401526112d4818b610da2565b90508860a08401528760c08401528660e0840152851515610100840152828103610120840152600781526670656e64696e6760c81b60208201526040810191505061132461014083018515159052565b8215156101608301529c9b505050505050505050505050565b634e487b7160e01b600052601160045260246000fd5b808201808211156113665761136661133d565b92915050565b634e487b7160e01b600052602160045260246000fd5b80820281158282048414176113665761136661133d565b6000826113b657634e487b7160e01b600052601260045260246000fd5b500490565b818103818111156113665761136661133d565b8481526001600160a01b0384166020820152608081016002841061140257634e487b7160e01b600052602160045260246000fd5b83604083015282151560608301529594505050505056fea2646970667358221220bb2c098faf4a61dc6902ebc6e7844d4cb49402438a90096c6161fbe0ded4996964736f6c63430008110033",
  "immutableReferences": {},
  "source": "// SPDX-License-Identifier: GPL-3.0\npragma solidity 0.8.17;\n\nimport \"../node_modules/@openzeppelin/contracts/utils/Counters.sol\";\nimport \"../node_modules/@openzeppelin/contracts/access/Ownable.sol\";\n\ncontract CollectorsDAO is Ownable {\n    using Counters for Counters.Counter;\n    Counters.Counter public _id;\n    Counters.Counter public _proposalCount;\n\n    enum VotingOptions {\n        Yes,\n        No\n    }\n\n    enum VotingStatus {\n        pending,\n        accepted,\n        refused\n    }\n\n    struct SubDao {\n        uint256 id;\n        string name;\n    }\n\n    SubDao[] public subDao;\n\n    struct Proposal {\n        uint256 daoId;\n        uint256 proposalId;\n        address author;\n        string name;\n        string description;\n        uint256 value;\n        uint256 createdAt;\n        uint256 votesForYes;\n        uint256 votesForNo;\n        bool status;\n        string votingStatus;\n        bool propertyNftMinted;\n        bool digitalNftMinted;\n    }\n\n    event daoCreated(uint256 daoId, string daoName);\n\n    event proposalCreated(\n        uint256 daoId,\n        uint256 proposalId,\n        address owner,\n        string proposalName,\n        string proposalDesc,\n        uint256 value,\n        uint256 voteForYes,\n        uint256 voteForNo,\n        bool status,\n        string votingStatus,\n        bool propertyNftMinted,\n        bool digitalNftMinted\n    );\n\n    event voteSetted(\n        uint256 proposalId,\n        address voter,\n        VotingOptions vote,\n        bool updatedProposalStatus\n    );\n\n    event proposalClosed(\n        uint256 proposalId,\n        uint256 finalValue,\n        string votingStatus\n    );\n\n    event propertyMinted(uint256 proposalId, bool propertyMinted);\n    event digitalMinted(uint256 proposalId, bool digitalMinted);\n\n    /// @notice list of members of each DAO : user address => daoId (ie collectionId) => member status\n    mapping(address => mapping(uint256 => bool)) public daoMembers;\n\n    /// @notice store all proposals: proposalId => proposal\n    mapping(uint256 => Proposal) public proposals;\n    /// @notice who already votes for who and to avoid vote twice: voter => proposalId => vote Status\n    mapping(address => mapping(uint256 => bool)) public votes;\n\n    uint256 constant VOTING_PERIOD = 7 days;\n\n    function createDAO(string memory _name) external {\n        SubDao memory newSubDao;\n        newSubDao.id = _id.current();\n        newSubDao.name = _name;\n\n        subDao.push(newSubDao);\n\n        emit daoCreated(_id.current(), _name);\n\n        _id.increment();\n    }\n\n    function createProposal(\n        uint256 _daoId,\n        string memory _name,\n        string memory _description,\n        uint256 _value\n    ) external {\n        uint256 proposalId = _proposalCount.current();\n\n        proposals[proposalId] = Proposal(\n            _daoId,\n            proposalId,\n            msg.sender,\n            _name,\n            _description,\n            _value,\n            block.timestamp,\n            0,\n            0,\n            false,\n            \"pending\",\n            false,\n            false\n        );\n\n        emit proposalCreated(\n            _daoId,\n            proposalId,\n            msg.sender,\n            _name,\n            _description,\n            _value,\n            0,\n            0,\n            false,\n            \"pending\",\n            false,\n            false\n        );\n\n        _proposalCount.increment();\n    }\n\n    function vote(\n        uint256 _proposalId,\n        uint256 _value,\n        VotingOptions _vote\n    ) external {\n        Proposal storage proposal = proposals[_proposalId];\n        require(votes[msg.sender][_proposalId] == false, \"already voted\");\n        require(\n            block.timestamp <= proposal.createdAt + VOTING_PERIOD,\n            \"Voting period is over\"\n        );\n        votes[msg.sender][_proposalId] = true;\n        if (_vote == VotingOptions.Yes) {\n            proposal.votesForYes += 1;\n            if (\n                (proposal.votesForYes * 100) /\n                    (proposal.votesForYes + proposal.votesForNo) >\n                50\n            ) {\n                proposal.status = true;\n                proposal.value =\n                    (proposal.value * (proposal.votesForYes - 1) + _value) /\n                    proposal.votesForYes;\n            }\n        } else {\n            proposal.votesForNo += 1;\n            if (\n                (proposal.votesForNo * 100) /\n                    (proposal.votesForYes + proposal.votesForNo) >\n                50\n            ) {\n                proposal.status = false;\n            }\n        }\n\n        emit voteSetted(_proposalId, msg.sender, _vote, proposal.status);\n    }\n\n    function closeProposal(uint256 _proposalId) external onlyOwner {\n        if (proposals[_proposalId].status == true) {\n            proposals[_proposalId].votingStatus = \"accepted\";\n        } else {\n            proposals[_proposalId].votingStatus = \"refused\";\n            proposals[_proposalId].value = 0;\n        }\n\n        emit proposalClosed(\n            _proposalId,\n            proposals[_proposalId].value,\n            proposals[_proposalId].votingStatus\n        );\n    }\n\n    function getProposalStatus(uint256 _proposalId)\n        external\n        view\n        returns (bool proposalStatus)\n    {\n        // require(block.timestamp >= proposals[_daoId][_proposalId].createdAt + VOTING_PERIOD, \"Voting period is not over\");\n        return proposals[_proposalId].status;\n    }\n\n    function updatePropertyMintStatus(uint256 _proposalId) external {\n        proposals[_proposalId].propertyNftMinted = true;\n\n        emit propertyMinted(_proposalId, true);\n    }\n\n    function updateDigitalMintStatus(uint256 _proposalId) external {\n        proposals[_proposalId].digitalNftMinted = true;\n\n        emit digitalMinted(_proposalId, true);\n    }\n}\n",
  "sourcePath": "/Users/jeromejulien/Documents/vscode/FormationAlyra/02_Projets/CollectorChain_TokenizedCollectibles/truffle/contracts/CollectorsDAO.sol",
  "compiler": {
    "name": "solc",
    "version": "0.8.17+commit.8df45f5f.Emscripten.clang"
  },
  "schemaVersion": "3.4.10",
  "updatedAt": "2022-12-06T13:14:27.504Z",
  "networkType": "ethereum",
  "devdoc": {
    "kind": "dev",
    "methods": {
      "owner()": {
        "details": "Returns the address of the current owner."
      },
      "renounceOwnership()": {
        "details": "Leaves the contract without owner. It will not be possible to call `onlyOwner` functions anymore. Can only be called by the current owner. NOTE: Renouncing ownership will leave the contract without an owner, thereby removing any functionality that is only available to the owner."
      },
      "transferOwnership(address)": {
        "details": "Transfers ownership of the contract to a new account (`newOwner`). Can only be called by the current owner."
      }
    },
    "version": 1
  },
  "userdoc": {
    "kind": "user",
    "methods": {
      "daoMembers(address,uint256)": {
        "notice": "list of members of each DAO : user address => daoId (ie collectionId) => member status"
      },
      "proposals(uint256)": {
        "notice": "store all proposals: proposalId => proposal"
      },
      "votes(address,uint256)": {
        "notice": "who already votes for who and to avoid vote twice: voter => proposalId => vote Status"
      }
    },
    "version": 1
  }
}