{
  "contractName": "CollectorsDAO",
  "abi": [
    {
      "anonymous": false,
      "inputs": [
        {
          "indexed": true,
          "internalType": "address",
          "name": "previousOwner",
          "type": "address"
        },
        {
          "indexed": true,
          "internalType": "address",
          "name": "newOwner",
          "type": "address"
        }
      ],
      "name": "OwnershipTransferred",
      "type": "event"
    },
    {
      "anonymous": false,
      "inputs": [
        {
          "indexed": false,
          "internalType": "uint256",
          "name": "daoId",
          "type": "uint256"
        },
        {
          "indexed": false,
          "internalType": "string",
          "name": "daoName",
          "type": "string"
        }
      ],
      "name": "daoCreated",
      "type": "event"
    },
    {
      "anonymous": false,
      "inputs": [
        {
          "indexed": false,
          "internalType": "uint256",
          "name": "daoId",
          "type": "uint256"
        },
        {
          "indexed": false,
          "internalType": "uint256",
          "name": "proposalId",
          "type": "uint256"
        },
        {
          "indexed": false,
          "internalType": "string",
          "name": "proposalName",
          "type": "string"
        },
        {
          "indexed": false,
          "internalType": "string",
          "name": "proposalDesc",
          "type": "string"
        }
      ],
      "name": "proposalCreated",
      "type": "event"
    },
    {
      "inputs": [],
      "name": "_id",
      "outputs": [
        {
          "internalType": "uint256",
          "name": "_value",
          "type": "uint256"
        }
      ],
      "stateMutability": "view",
      "type": "function",
      "constant": true
    },
    {
      "inputs": [
        {
          "internalType": "address",
          "name": "",
          "type": "address"
        },
        {
          "internalType": "uint256",
          "name": "",
          "type": "uint256"
        }
      ],
      "name": "daoMembers",
      "outputs": [
        {
          "internalType": "bool",
          "name": "",
          "type": "bool"
        }
      ],
      "stateMutability": "view",
      "type": "function",
      "constant": true
    },
    {
      "inputs": [],
      "name": "owner",
      "outputs": [
        {
          "internalType": "address",
          "name": "",
          "type": "address"
        }
      ],
      "stateMutability": "view",
      "type": "function",
      "constant": true
    },
    {
      "inputs": [
        {
          "internalType": "uint256",
          "name": "",
          "type": "uint256"
        },
        {
          "internalType": "uint256",
          "name": "",
          "type": "uint256"
        }
      ],
      "name": "proposals",
      "outputs": [
        {
          "internalType": "uint256",
          "name": "id",
          "type": "uint256"
        },
        {
          "internalType": "address",
          "name": "author",
          "type": "address"
        },
        {
          "internalType": "string",
          "name": "name",
          "type": "string"
        },
        {
          "internalType": "string",
          "name": "description",
          "type": "string"
        },
        {
          "internalType": "uint256",
          "name": "createdAt",
          "type": "uint256"
        },
        {
          "internalType": "uint256",
          "name": "votesForYes",
          "type": "uint256"
        },
        {
          "internalType": "uint256",
          "name": "votesForNo",
          "type": "uint256"
        },
        {
          "internalType": "bool",
          "name": "status",
          "type": "bool"
        }
      ],
      "stateMutability": "view",
      "type": "function",
      "constant": true
    },
    {
      "inputs": [],
      "name": "renounceOwnership",
      "outputs": [],
      "stateMutability": "nonpayable",
      "type": "function"
    },
    {
      "inputs": [
        {
          "internalType": "uint256",
          "name": "",
          "type": "uint256"
        }
      ],
      "name": "subDao",
      "outputs": [
        {
          "internalType": "uint256",
          "name": "id",
          "type": "uint256"
        },
        {
          "internalType": "string",
          "name": "name",
          "type": "string"
        },
        {
          "internalType": "uint256",
          "name": "proposalCount",
          "type": "uint256"
        }
      ],
      "stateMutability": "view",
      "type": "function",
      "constant": true
    },
    {
      "inputs": [
        {
          "internalType": "address",
          "name": "newOwner",
          "type": "address"
        }
      ],
      "name": "transferOwnership",
      "outputs": [],
      "stateMutability": "nonpayable",
      "type": "function"
    },
    {
      "inputs": [
        {
          "internalType": "address",
          "name": "",
          "type": "address"
        },
        {
          "internalType": "uint256",
          "name": "",
          "type": "uint256"
        },
        {
          "internalType": "uint256",
          "name": "",
          "type": "uint256"
        }
      ],
      "name": "votes",
      "outputs": [
        {
          "internalType": "bool",
          "name": "",
          "type": "bool"
        }
      ],
      "stateMutability": "view",
      "type": "function",
      "constant": true
    },
    {
      "inputs": [
        {
          "internalType": "string",
          "name": "_name",
          "type": "string"
        }
      ],
      "name": "createDAO",
      "outputs": [],
      "stateMutability": "nonpayable",
      "type": "function"
    },
    {
      "inputs": [
        {
          "internalType": "uint256",
          "name": "_daoId",
          "type": "uint256"
        },
        {
          "internalType": "string",
          "name": "_name",
          "type": "string"
        },
        {
          "internalType": "string",
          "name": "_description",
          "type": "string"
        }
      ],
      "name": "createProposal",
      "outputs": [],
      "stateMutability": "nonpayable",
      "type": "function"
    },
    {
      "inputs": [
        {
          "internalType": "uint256",
          "name": "_daoId",
          "type": "uint256"
        },
        {
          "internalType": "uint256",
          "name": "_proposalId",
          "type": "uint256"
        },
        {
          "internalType": "enum CollectorsDAO.VotingOptions",
          "name": "_vote",
          "type": "uint8"
        }
      ],
      "name": "vote",
      "outputs": [],
      "stateMutability": "nonpayable",
      "type": "function"
    },
    {
      "inputs": [
        {
          "internalType": "uint256",
          "name": "_daoId",
          "type": "uint256"
        },
        {
          "internalType": "uint256",
          "name": "_proposalId",
          "type": "uint256"
        }
      ],
      "name": "getProposalStatus",
      "outputs": [
        {
          "internalType": "bool",
          "name": "proposalStatus",
          "type": "bool"
        }
      ],
      "stateMutability": "view",
      "type": "function",
      "constant": true
    }
  ],
  "bytecode": "0x608060405234801561001057600080fd5b5061001a3361001f565b61006f565b600080546001600160a01b038381166001600160a01b0319831681178455604051919092169283917f8be0079c531659141344cd1fd0a4f28419497f9722a3daafe3b4186f6b6457e09190a35050565b610f9d8061007e6000396000f3fe608060405234801561001057600080fd5b50600436106100b45760003560e01c8063b925cecd11610071578063b925cecd1461015f578063bbb2eab914610193578063c2cfee27146101a6578063c4e02147146101cd578063e06f379a146101ef578063f2fde38b1461020257600080fd5b806305180237146100b95780634830ebcf146100d6578063715018a6146100eb5780637a5e3a26146100f35780638a465bd1146101065780638da5cb5b14610144575b600080fd5b6001546100c39081565b6040519081526020015b60405180910390f35b6100e96100e4366004610aa6565b610215565b005b6100e9610318565b6100e9610101366004610ae3565b61032c565b610134610114366004610b6c565b600360209081526000928352604080842090915290825290205460ff1681565b60405190151581526020016100cd565b6000546040516001600160a01b0390911681526020016100cd565b61013461016d366004610b96565b600560209081526000938452604080852082529284528284209052825290205460ff1681565b6100e96101a1366004610bc9565b6104b1565b6101b96101b4366004610c06565b610691565b6040516100cd989796959493929190610c6e565b6101e06101db366004610cd7565b6107fb565b6040516100cd93929190610cf0565b6101346101fd366004610c06565b6108b9565b6100e9610210366004610d19565b6108e0565b61023960405180606001604052806000815260200160608152602001600081525090565b600154815260208101828152600060408301819052600280546001810182559152825160039091027f405787fa12a823e0f2b7631cc41b3ba8828b3321ca811111fa75cd3aa3bb5ace8101918255915183927f405787fa12a823e0f2b7631cc41b3ba8828b3321ca811111fa75cd3aa3bb5acf01906102b89082610dc4565b506040820151816002015550507f233468f62cb5569433a2646a1c57b4333dc80fc4881a358e28455bb25feb3be36102ef60015490565b836040516102fe929190610e84565b60405180910390a1610314600180546001019055565b5050565b610320610959565b61032a60006109b3565b565b60006002848154811061034157610341610e9d565b6000918252602080832060026003909302018201546040805161010081018252828152338185019081528183018a8152606083018a905242608084015260a0830188905260c0830188905260e083018890528b885260048652838820858952909552919095208551815590516001820180546001600160a01b03929092166001600160a01b0319909216919091179055915190945090918201906103e59082610dc4565b50606082015160038201906103fa9082610dc4565b506080820151600482015560a0820151600582015560c0820151600682015560e0909101516007909101805460ff19169115159190911790556040517f52075cdf58597806cc414673eb45f722b966dea0f2b70263b418270a5a79592f90610469908690849087908790610eb3565b60405180910390a160016002858154811061048657610486610e9d565b906000526020600020906003020160020160008282546104a69190610f05565b909155505050505050565b600083815260046020908152604080832085845282528083203384526005835281842087855283528184208685529092529091205460ff161561052b5760405162461bcd60e51b815260206004820152600d60248201526c185b1c9958591e481d9bdd1959609a1b60448201526064015b60405180910390fd5b62093a80816004015461053e9190610f05565b4211156105855760405162461bcd60e51b81526020600482015260156024820152742b37ba34b733903832b934b7b21034b99037bb32b960591b6044820152606401610522565b33600090815260056020908152604080832087845282528083208684529091528120805460ff191660011790558260018111156105c4576105c4610f18565b0361062e5760018160050160008282546105de9190610f05565b9091555050600681015460058201546032916105f991610f05565b6005830154610609906064610f2e565b6106139190610f45565b11156106295760078101805460ff191660011790555b61068b565b60018160060160008282546106439190610f05565b90915550506006810154600582015460329161065e91610f05565b600683015461066e906064610f2e565b6106789190610f45565b111561068b5760078101805460ff191690555b50505050565b600460209081526000928352604080842090915290825290208054600182015460028301805492936001600160a01b03909216926106ce90610d3b565b80601f01602080910402602001604051908101604052809291908181526020018280546106fa90610d3b565b80156107475780601f1061071c57610100808354040283529160200191610747565b820191906000526020600020905b81548152906001019060200180831161072a57829003601f168201915b50505050509080600301805461075c90610d3b565b80601f016020809104026020016040519081016040528092919081815260200182805461078890610d3b565b80156107d55780601f106107aa576101008083540402835291602001916107d5565b820191906000526020600020905b8154815290600101906020018083116107b857829003601f168201915b505050506004830154600584015460068501546007909501549394919390925060ff1688565b6002818154811061080b57600080fd5b6000918252602090912060039091020180546001820180549193509061083090610d3b565b80601f016020809104026020016040519081016040528092919081815260200182805461085c90610d3b565b80156108a95780601f1061087e576101008083540402835291602001916108a9565b820191906000526020600020905b81548152906001019060200180831161088c57829003601f168201915b5050505050908060020154905083565b600082815260046020908152604080832084845290915290206007015460ff165b92915050565b6108e8610959565b6001600160a01b03811661094d5760405162461bcd60e51b815260206004820152602660248201527f4f776e61626c653a206e6577206f776e657220697320746865207a65726f206160448201526564647265737360d01b6064820152608401610522565b610956816109b3565b50565b6000546001600160a01b0316331461032a5760405162461bcd60e51b815260206004820181905260248201527f4f776e61626c653a2063616c6c6572206973206e6f7420746865206f776e65726044820152606401610522565b600080546001600160a01b038381166001600160a01b0319831681178455604051919092169283917f8be0079c531659141344cd1fd0a4f28419497f9722a3daafe3b4186f6b6457e09190a35050565b634e487b7160e01b600052604160045260246000fd5b600082601f830112610a2a57600080fd5b813567ffffffffffffffff80821115610a4557610a45610a03565b604051601f8301601f19908116603f01168101908282118183101715610a6d57610a6d610a03565b81604052838152866020858801011115610a8657600080fd5b836020870160208301376000602085830101528094505050505092915050565b600060208284031215610ab857600080fd5b813567ffffffffffffffff811115610acf57600080fd5b610adb84828501610a19565b949350505050565b600080600060608486031215610af857600080fd5b83359250602084013567ffffffffffffffff80821115610b1757600080fd5b610b2387838801610a19565b93506040860135915080821115610b3957600080fd5b50610b4686828701610a19565b9150509250925092565b80356001600160a01b0381168114610b6757600080fd5b919050565b60008060408385031215610b7f57600080fd5b610b8883610b50565b946020939093013593505050565b600080600060608486031215610bab57600080fd5b610bb484610b50565b95602085013595506040909401359392505050565b600080600060608486031215610bde57600080fd5b8335925060208401359150604084013560028110610bfb57600080fd5b809150509250925092565b60008060408385031215610c1957600080fd5b50508035926020909101359150565b6000815180845260005b81811015610c4e57602081850181015186830182015201610c32565b506000602082860101526020601f19601f83011685010191505092915050565b8881526001600160a01b038816602082015261010060408201819052600090610c998382018a610c28565b90508281036060840152610cad8189610c28565b9150508560808301528460a08301528360c083015282151560e08301529998505050505050505050565b600060208284031215610ce957600080fd5b5035919050565b838152606060208201526000610d096060830185610c28565b9050826040830152949350505050565b600060208284031215610d2b57600080fd5b610d3482610b50565b9392505050565b600181811c90821680610d4f57607f821691505b602082108103610d6f57634e487b7160e01b600052602260045260246000fd5b50919050565b601f821115610dbf57600081815260208120601f850160051c81016020861015610d9c5750805b601f850160051c820191505b81811015610dbb57828155600101610da8565b5050505b505050565b815167ffffffffffffffff811115610dde57610dde610a03565b610df281610dec8454610d3b565b84610d75565b602080601f831160018114610e275760008415610e0f5750858301515b600019600386901b1c1916600185901b178555610dbb565b600085815260208120601f198616915b82811015610e5657888601518255948401946001909101908401610e37565b5085821015610e745787850151600019600388901b60f8161c191681555b5050505050600190811b01905550565b828152604060208201526000610adb6040830184610c28565b634e487b7160e01b600052603260045260246000fd5b848152836020820152608060408201526000610ed26080830185610c28565b8281036060840152610ee48185610c28565b979650505050505050565b634e487b7160e01b600052601160045260246000fd5b808201808211156108da576108da610eef565b634e487b7160e01b600052602160045260246000fd5b80820281158282048414176108da576108da610eef565b600082610f6257634e487b7160e01b600052601260045260246000fd5b50049056fea26469706673582212205f627d32c176c2bcf86e83cca474111d39555f4a52f425333d800c5d454c903164736f6c63430008110033",
  "immutableReferences": {},
  "source": "// SPDX-License-Identifier: GPL-3.0\npragma solidity 0.8.17;\n\nimport \"../node_modules/@openzeppelin/contracts/utils/Counters.sol\";\nimport \"../node_modules/@openzeppelin/contracts/access/Ownable.sol\";\n\ncontract CollectorsDAO is Ownable {\n    using Counters for Counters.Counter;\n    Counters.Counter public _id;\n\n    enum VotingOptions {\n        Yes,\n        No\n    }\n\n    struct SubDao {\n        uint256 id;\n        string name;\n        uint256 proposalCount;\n    }\n\n    SubDao[] public subDao;\n\n    struct Proposal {\n        uint256 id;\n        address author;\n        string name;\n        string description;\n        uint256 createdAt;\n        uint256 votesForYes;\n        uint256 votesForNo;\n        bool status;\n    }\n\n    event daoCreated(uint256 daoId, string daoName);\n\n    event proposalCreated(\n        uint256 daoId,\n        uint256 proposalId,\n        string proposalName,\n        string proposalDesc\n    );\n\n    /// @notice list of members of each DAO : user address => daoId (ie collectionId) => member status\n    mapping(address => mapping(uint256 => bool)) public daoMembers;\n\n    /// @notice store all proposals: daoId (ie CollectionId) => proposalId => proposal\n    mapping(uint256 => mapping(uint256 => Proposal)) public proposals;\n    /// @notice who already votes for who and to avoid vote twice: voter => daoId (ie collectionId) => proposalId => vote Status\n    mapping(address => mapping(uint256 => mapping(uint256 => bool)))\n        public votes;\n\n    uint256 constant VOTING_PERIOD = 7 days;\n\n    function createDAO(string memory _name) external {\n        SubDao memory newSubDao;\n        newSubDao.id = _id.current();\n        newSubDao.name = _name;\n        newSubDao.proposalCount = 0;\n\n        subDao.push(newSubDao);\n\n        emit daoCreated(_id.current(), _name);\n\n        _id.increment();\n    }\n\n    function createProposal(\n        uint256 _daoId,\n        string memory _name,\n        string memory _description\n    ) external {\n        uint256 proposalId = subDao[_daoId].proposalCount;\n\n        proposals[_daoId][proposalId] = Proposal(\n            proposalId,\n            msg.sender,\n            _name,\n            _description,\n            block.timestamp,\n            0,\n            0,\n            false\n        );\n\n        emit proposalCreated(_daoId, proposalId, _name, _description);\n\n        subDao[_daoId].proposalCount += 1;\n    }\n\n    function vote(\n        uint256 _daoId,\n        uint256 _proposalId,\n        VotingOptions _vote\n    ) external {\n        Proposal storage proposal = proposals[_daoId][_proposalId];\n        require(\n            votes[msg.sender][_daoId][_proposalId] == false,\n            \"already voted\"\n        );\n        require(\n            block.timestamp <= proposal.createdAt + VOTING_PERIOD,\n            \"Voting period is over\"\n        );\n        votes[msg.sender][_daoId][_proposalId] = true;\n        if (_vote == VotingOptions.Yes) {\n            proposal.votesForYes += 1;\n            if (\n                (proposal.votesForYes * 100) /\n                    (proposal.votesForYes + proposal.votesForNo) >\n                50\n            ) {\n                proposal.status = true;\n            }\n        } else {\n            proposal.votesForNo += 1;\n            if (\n                (proposal.votesForNo * 100) /\n                    (proposal.votesForYes + proposal.votesForNo) >\n                50\n            ) {\n                proposal.status = false;\n            }\n        }\n    }\n\n    function getProposalStatus(uint256 _daoId, uint256 _proposalId)\n        external\n        view\n        returns (bool proposalStatus)\n    {\n        // require(block.timestamp >= proposals[_daoId][_proposalId].createdAt + VOTING_PERIOD, \"Voting period is not over\");\n        return proposals[_daoId][_proposalId].status;\n    }\n}\n",
  "sourcePath": "/Users/jeromejulien/Documents/vscode/FormationAlyra/02_Projets/CollectorChain_TokenizedCollectibles/truffle/contracts/CollectorsDAO.sol",
  "compiler": {
    "name": "solc",
    "version": "0.8.17+commit.8df45f5f.Emscripten.clang"
  },
  "schemaVersion": "3.4.10",
  "updatedAt": "2022-12-04T15:35:42.449Z",
  "networkType": "ethereum",
  "devdoc": {
    "kind": "dev",
    "methods": {
      "owner()": {
        "details": "Returns the address of the current owner."
      },
      "renounceOwnership()": {
        "details": "Leaves the contract without owner. It will not be possible to call `onlyOwner` functions anymore. Can only be called by the current owner. NOTE: Renouncing ownership will leave the contract without an owner, thereby removing any functionality that is only available to the owner."
      },
      "transferOwnership(address)": {
        "details": "Transfers ownership of the contract to a new account (`newOwner`). Can only be called by the current owner."
      }
    },
    "version": 1
  },
  "userdoc": {
    "kind": "user",
    "methods": {
      "daoMembers(address,uint256)": {
        "notice": "list of members of each DAO : user address => daoId (ie collectionId) => member status"
      },
      "proposals(uint256,uint256)": {
        "notice": "store all proposals: daoId (ie CollectionId) => proposalId => proposal"
      },
      "votes(address,uint256,uint256)": {
        "notice": "who already votes for who and to avoid vote twice: voter => daoId (ie collectionId) => proposalId => vote Status"
      }
    },
    "version": 1
  }
}