{
  "contractName": "Factory",
  "abi": [
    {
      "inputs": [
        {
          "internalType": "address",
          "name": "daoAddress_",
          "type": "address"
        }
      ],
      "stateMutability": "nonpayable",
      "type": "constructor"
    },
    {
      "anonymous": false,
      "inputs": [
        {
          "indexed": true,
          "internalType": "address",
          "name": "previousOwner",
          "type": "address"
        },
        {
          "indexed": true,
          "internalType": "address",
          "name": "newOwner",
          "type": "address"
        }
      ],
      "name": "OwnershipTransferred",
      "type": "event"
    },
    {
      "anonymous": false,
      "inputs": [
        {
          "indexed": false,
          "internalType": "uint256",
          "name": "collectionId",
          "type": "uint256"
        },
        {
          "indexed": false,
          "internalType": "string",
          "name": "collectionName",
          "type": "string"
        },
        {
          "indexed": false,
          "internalType": "address",
          "name": "propertyCollectionAddress",
          "type": "address"
        },
        {
          "indexed": false,
          "internalType": "address",
          "name": "digitalCollectionAddress",
          "type": "address"
        }
      ],
      "name": "collectionCreated",
      "type": "event"
    },
    {
      "inputs": [],
      "name": "_id",
      "outputs": [
        {
          "internalType": "uint256",
          "name": "_value",
          "type": "uint256"
        }
      ],
      "stateMutability": "view",
      "type": "function",
      "constant": true
    },
    {
      "inputs": [
        {
          "internalType": "uint256",
          "name": "",
          "type": "uint256"
        }
      ],
      "name": "collections",
      "outputs": [
        {
          "internalType": "uint256",
          "name": "_collectionId",
          "type": "uint256"
        },
        {
          "internalType": "string",
          "name": "_name",
          "type": "string"
        },
        {
          "internalType": "address",
          "name": "_propertyCollectionAddress",
          "type": "address"
        },
        {
          "internalType": "address",
          "name": "_digitalCollectionAddress",
          "type": "address"
        }
      ],
      "stateMutability": "view",
      "type": "function",
      "constant": true
    },
    {
      "inputs": [
        {
          "internalType": "string",
          "name": "",
          "type": "string"
        }
      ],
      "name": "collectionsAddress",
      "outputs": [
        {
          "internalType": "address",
          "name": "",
          "type": "address"
        }
      ],
      "stateMutability": "view",
      "type": "function",
      "constant": true
    },
    {
      "inputs": [],
      "name": "owner",
      "outputs": [
        {
          "internalType": "address",
          "name": "",
          "type": "address"
        }
      ],
      "stateMutability": "view",
      "type": "function",
      "constant": true
    },
    {
      "inputs": [],
      "name": "renounceOwnership",
      "outputs": [],
      "stateMutability": "nonpayable",
      "type": "function"
    },
    {
      "inputs": [
        {
          "internalType": "address",
          "name": "newOwner",
          "type": "address"
        }
      ],
      "name": "transferOwnership",
      "outputs": [],
      "stateMutability": "nonpayable",
      "type": "function"
    },
    {
      "inputs": [
        {
          "internalType": "string",
          "name": "_collectionName",
          "type": "string"
        },
        {
          "internalType": "string",
          "name": "_collectionURI",
          "type": "string"
        },
        {
          "internalType": "string",
          "name": "_collectionSymbol",
          "type": "string"
        }
      ],
      "name": "createCollection",
      "outputs": [
        {
          "internalType": "address",
          "name": "nftPropertyAddr",
          "type": "address"
        },
        {
          "internalType": "address",
          "name": "nftDigitalAddr",
          "type": "address"
        }
      ],
      "stateMutability": "nonpayable",
      "type": "function"
    }
  ],
  "bytecode": "0x608060405234801561001057600080fd5b5060405161485538038061485583398101604081905261002f916100b7565b61003833610067565b600480546001600160a01b039092166001600160a01b03199283168117909155600380549092161790556100e7565b600080546001600160a01b038381166001600160a01b0319831681178455604051919092169283917f8be0079c531659141344cd1fd0a4f28419497f9722a3daafe3b4186f6b6457e09190a35050565b6000602082840312156100c957600080fd5b81516001600160a01b03811681146100e057600080fd5b9392505050565b61475f806100f66000396000f3fe60806040523480156200001157600080fd5b5060043610620000875760003560e01c80638da5cb5b11620000625780638da5cb5b1462000106578063ece86c211462000118578063f2fde38b1462000150578063fdbda0ec146200016757600080fd5b806305180237146200008c5780635983da9a14620000aa578063715018a614620000fa575b600080fd5b600154620000979081565b6040519081526020015b60405180910390f35b620000e1620000bb366004620007c0565b80516020818301810180516005825292820191909301209152546001600160a01b031681565b6040516001600160a01b039091168152602001620000a1565b6200010462000190565b005b6000546001600160a01b0316620000e1565b6200012f6200012936600462000801565b620001a8565b604080516001600160a01b03938416815292909116602083015201620000a1565b620001046200016136600462000893565b620004f4565b6200017e62000178366004620008c5565b62000573565b604051620000a1949392919062000927565b6200019a6200064d565b620001a66000620006a9565b565b600080620001b56200064d565b6000855111620002175760405162461bcd60e51b815260206004820152602260248201527f636f6c6c656374696f6e206e616d652073686f756c64206e6f74206265206e756044820152611b1b60f21b60648201526084015b60405180910390fd5b6000845111620002745760405162461bcd60e51b815260206004820152602160248201527f636f6c6c656374696f6e205552492073686f756c64206e6f74206265206e756c6044820152601b60fa1b60648201526084016200020e565b60006200028060015490565b60045460405187916001600160a01b0316906200029d90620006f9565b620002ab9392919062000963565b604051809103906000f080158015620002c8573d6000803e3d6000fd5b5090506000620002d760015490565b600454604051899188916001600160a01b0390911690620002f89062000707565b62000307949392919062000996565b604051809103906000f08015801562000324573d6000803e3d6000fd5b509050620003656040518060800160405280600081526020016060815260200160006001600160a01b0316815260200160006001600160a01b031681525090565b600180548252602082018981526001600160a01b0385811660408501528416606084015260028054928301815560005282517f405787fa12a823e0f2b7631cc41b3ba8828b3321ca811111fa75cd3aa3bb5ace6004909302928301908155905183927f405787fa12a823e0f2b7631cc41b3ba8828b3321ca811111fa75cd3aa3bb5acf0190620003f6908262000a6e565b506040828101516002830180546001600160a01b03199081166001600160a01b0393841617909155606090940151600393840180549095169082161790935590549051634830ebcf60e01b8152911690634830ebcf906200045c908b9060040162000b3b565b600060405180830381600087803b1580156200047757600080fd5b505af11580156200048c573d6000803e3d6000fd5b505050507f81032603cc83ea314c740484276d4b1d8e02c0e6c3a997883c4bc72bf8409353620004bb60015490565b898585604051620004d0949392919062000927565b60405180910390a1620004e7600180546001019055565b5090969095509350505050565b620004fe6200064d565b6001600160a01b038116620005655760405162461bcd60e51b815260206004820152602660248201527f4f776e61626c653a206e6577206f776e657220697320746865207a65726f206160448201526564647265737360d01b60648201526084016200020e565b6200057081620006a9565b50565b600281815481106200058457600080fd5b60009182526020909120600490910201805460018201805491935090620005ab90620009df565b80601f0160208091040260200160405190810160405280929190818152602001828054620005d990620009df565b80156200062a5780601f10620005fe576101008083540402835291602001916200062a565b820191906000526020600020905b8154815290600101906020018083116200060c57829003601f168201915b50505050600283015460039093015491926001600160a01b039081169216905084565b6000546001600160a01b03163314620001a65760405162461bcd60e51b815260206004820181905260248201527f4f776e61626c653a2063616c6c6572206973206e6f7420746865206f776e657260448201526064016200020e565b600080546001600160a01b038381166001600160a01b0319831681178455604051919092169283917f8be0079c531659141344cd1fd0a4f28419497f9722a3daafe3b4186f6b6457e09190a35050565b611e138062000b5183390190565b611dc6806200296483390190565b634e487b7160e01b600052604160045260246000fd5b600082601f8301126200073d57600080fd5b813567ffffffffffffffff808211156200075b576200075b62000715565b604051601f8301601f19908116603f0116810190828211818310171562000786576200078662000715565b81604052838152866020858801011115620007a057600080fd5b836020870160208301376000602085830101528094505050505092915050565b600060208284031215620007d357600080fd5b813567ffffffffffffffff811115620007eb57600080fd5b620007f9848285016200072b565b949350505050565b6000806000606084860312156200081757600080fd5b833567ffffffffffffffff808211156200083057600080fd5b6200083e878388016200072b565b945060208601359150808211156200085557600080fd5b62000863878388016200072b565b935060408601359150808211156200087a57600080fd5b5062000889868287016200072b565b9150509250925092565b600060208284031215620008a657600080fd5b81356001600160a01b0381168114620008be57600080fd5b9392505050565b600060208284031215620008d857600080fd5b5035919050565b6000815180845260005b818110156200090757602081850181015186830182015201620008e9565b506000602082860101526020601f19601f83011685010191505092915050565b848152608060208201526000620009426080830186620008df565b6001600160a01b039485166040840152929093166060909101529392505050565b8381526060602082015260006200097e6060830185620008df565b905060018060a01b0383166040830152949350505050565b848152608060208201526000620009b16080830186620008df565b8281036040840152620009c58186620008df565b91505060018060a01b038316606083015295945050505050565b600181811c90821680620009f457607f821691505b60208210810362000a1557634e487b7160e01b600052602260045260246000fd5b50919050565b601f82111562000a6957600081815260208120601f850160051c8101602086101562000a445750805b601f850160051c820191505b8181101562000a655782815560010162000a50565b5050505b505050565b815167ffffffffffffffff81111562000a8b5762000a8b62000715565b62000aa38162000a9c8454620009df565b8462000a1b565b602080601f83116001811462000adb576000841562000ac25750858301515b600019600386901b1c1916600185901b17855562000a65565b600085815260208120601f198616915b8281101562000b0c5788860151825594840194600190910190840162000aeb565b508582101562000b2b5787850151600019600388901b60f8161c191681555b5050505050600190811b01905550565b602081526000620008be6020830184620008df56fe60806040523480156200001157600080fd5b5060405162001e1338038062001e138339810160408190526200003491620000b2565b8162000040816200006d565b5060059290925550600680546001600160a01b0319166001600160a01b03909216919091179055620002ff565b60026200007b828262000233565b5050565b634e487b7160e01b600052604160045260246000fd5b80516001600160a01b0381168114620000ad57600080fd5b919050565b600080600060608486031215620000c857600080fd5b8351602080860151919450906001600160401b0380821115620000ea57600080fd5b818701915087601f830112620000ff57600080fd5b8151818111156200011457620001146200007f565b604051601f8201601f19908116603f011681019083821181831017156200013f576200013f6200007f565b816040528281528a868487010111156200015857600080fd5b600093505b828410156200017c57848401860151818501870152928501926200015d565b60008684830101528097505050505050506200019b6040850162000095565b90509250925092565b600181811c90821680620001b957607f821691505b602082108103620001da57634e487b7160e01b600052602260045260246000fd5b50919050565b601f8211156200022e57600081815260208120601f850160051c81016020861015620002095750805b601f850160051c820191505b818110156200022a5782815560010162000215565b5050505b505050565b81516001600160401b038111156200024f576200024f6200007f565b6200026781620002608454620001a4565b84620001e0565b602080601f8311600181146200029f5760008415620002865750858301515b600019600386901b1c1916600185901b1785556200022a565b600085815260208120601f198616915b82811015620002d057888601518255948401946001909101908401620002af565b5085821015620002ef5787850151600019600388901b60f8161c191681555b5050505050600190811b01905550565b611b04806200030f6000396000f3fe608060405234801561001057600080fd5b50600436106100e95760003560e01c80637c8e7bfe1161008c578063bd26938011610066578063bd269380146101cd578063e5326ab1146101f1578063e985e9c5146101f9578063f242432a1461023557600080fd5b80637c8e7bfe146101a95780638296a2e8146101b1578063a22cb465146101ba57600080fd5b80630e89341c116100c85780630e89341c146101415780631a76d863146101615780632eb2c2d6146101765780634e1273f41461018957600080fd5b8062fdd58e146100ee57806301ffc9a7146101145780630518023714610137575b600080fd5b6101016100fc3660046110cc565b610248565b6040519081526020015b60405180910390f35b61012761012236600461110f565b6102e1565b604051901515815260200161010b565b6003546101019081565b61015461014f366004611133565b610331565b60405161010b9190611192565b61017461016f366004611246565b6103c5565b005b61017461018436600461137a565b610624565b61019c610197366004611424565b610670565b60405161010b919061152a565b600554610101565b61010160055481565b6101746101c836600461154b565b61079a565b6101e06101db366004611133565b6107a9565b60405161010b959493929190611582565b610154610881565b6101276102073660046115c3565b6001600160a01b03918216600090815260016020908152604080832093909416825291909152205460ff1690565b6101746102433660046115f6565b61090f565b60006001600160a01b0383166102b85760405162461bcd60e51b815260206004820152602a60248201527f455243313135353a2061646472657373207a65726f206973206e6f742061207660448201526930b634b21037bbb732b960b11b60648201526084015b60405180910390fd5b506000818152602081815260408083206001600160a01b03861684529091529020545b92915050565b60006001600160e01b03198216636cdb3d1360e11b148061031257506001600160e01b031982166303a24d0760e21b145b806102db57506301ffc9a760e01b6001600160e01b03198316146102db565b6060600280546103409061165b565b80601f016020809104026020016040519081016040528092919081815260200182805461036c9061165b565b80156103b95780601f1061038e576101008083540402835291602001916103b9565b820191906000526020600020905b81548152906001019060200180831161039c57829003601f168201915b50505050509050919050565b60065460405163401853b760e01b8152600481018790526000916001600160a01b03169063401853b790602401602060405180830381865afa15801561040f573d6000803e3d6000fd5b505050506040513d601f19601f820116820180604052508101906104339190611695565b90506001811515146104875760405162461bcd60e51b815260206004820152601860248201527f70726f706f73616c206973206e6f74206163636570746564000000000000000060448201526064016102af565b600061049260035490565b6040805160a081018252600580548252602082018481529282018a8152606083018a90526001600160a01b038816608084015260078054600181018255600091909152835192027fa66cc928b5edb82af9bd49922954155ab7b0942694bea4ce44661d9a8736c688810192835593517fa66cc928b5edb82af9bd49922954155ab7b0942694bea4ce44661d9a8736c68985015551939450909290917fa66cc928b5edb82af9bd49922954155ab7b0942694bea4ce44661d9a8736c68a019061055a90826116fd565b506060820151816003015560808201518160040160006101000a8154816001600160a01b0302191690836001600160a01b0316021790555050506105af33828660405180602001604052806000815250610954565b6105bd600380546001019055565b60065460405163845c776d60e01b8152600481018990526001600160a01b039091169063845c776d90602401600060405180830381600087803b15801561060357600080fd5b505af1158015610617573d6000803e3d6000fd5b5050505050505050505050565b6001600160a01b03851633148061064057506106408533610207565b61065c5760405162461bcd60e51b81526004016102af906117bd565b6106698585858585610a68565b5050505050565b606081518351146106d55760405162461bcd60e51b815260206004820152602960248201527f455243313135353a206163636f756e747320616e6420696473206c656e677468604482015268040dad2e6dac2e8c6d60bb1b60648201526084016102af565b6000835167ffffffffffffffff8111156106f1576106f16111a5565b60405190808252806020026020018201604052801561071a578160200160208202803683370190505b50905060005b84518110156107925761076585828151811061073e5761073e61180b565b60200260200101518583815181106107585761075861180b565b6020026020010151610248565b8282815181106107775761077761180b565b602090810291909101015261078b81611837565b9050610720565b509392505050565b6107a5338383610c45565b5050565b600781815481106107b957600080fd5b90600052602060002090600502016000915090508060000154908060010154908060020180546107e89061165b565b80601f01602080910402602001604051908101604052809291908181526020018280546108149061165b565b80156108615780601f1061083657610100808354040283529160200191610861565b820191906000526020600020905b81548152906001019060200180831161084457829003601f168201915b5050505060038301546004909301549192916001600160a01b0316905085565b6004805461088e9061165b565b80601f01602080910402602001604051908101604052809291908181526020018280546108ba9061165b565b80156109075780601f106108dc57610100808354040283529160200191610907565b820191906000526020600020905b8154815290600101906020018083116108ea57829003601f168201915b505050505081565b6001600160a01b03851633148061092b575061092b8533610207565b6109475760405162461bcd60e51b81526004016102af906117bd565b6106698585858585610d25565b6001600160a01b0384166109b45760405162461bcd60e51b815260206004820152602160248201527f455243313135353a206d696e7420746f20746865207a65726f206164647265736044820152607360f81b60648201526084016102af565b3360006109c085610e4f565b905060006109cd85610e4f565b90506000868152602081815260408083206001600160a01b038b168452909152812080548792906109ff908490611850565b909155505060408051878152602081018790526001600160a01b03808a1692600092918716917fc3d58168c5ae7397731d063d5bbf3d657854427343f4c083240f7aacaa2d0f62910160405180910390a4610a5f83600089898989610e9a565b50505050505050565b8151835114610aca5760405162461bcd60e51b815260206004820152602860248201527f455243313135353a2069647320616e6420616d6f756e7473206c656e677468206044820152670dad2e6dac2e8c6d60c31b60648201526084016102af565b6001600160a01b038416610af05760405162461bcd60e51b81526004016102af90611863565b3360005b8451811015610bd7576000858281518110610b1157610b1161180b565b602002602001015190506000858381518110610b2f57610b2f61180b565b602090810291909101810151600084815280835260408082206001600160a01b038e168352909352919091205490915081811015610b7f5760405162461bcd60e51b81526004016102af906118a8565b6000838152602081815260408083206001600160a01b038e8116855292528083208585039055908b16825281208054849290610bbc908490611850565b9250508190555050505080610bd090611837565b9050610af4565b50846001600160a01b0316866001600160a01b0316826001600160a01b03167f4a39dc06d4c0dbc64b70af90fd698a233a518aa5d07e595d983b8c0526c8f7fb8787604051610c279291906118f2565b60405180910390a4610c3d818787878787610ff5565b505050505050565b816001600160a01b0316836001600160a01b031603610cb85760405162461bcd60e51b815260206004820152602960248201527f455243313135353a2073657474696e6720617070726f76616c20737461747573604482015268103337b91039b2b63360b91b60648201526084016102af565b6001600160a01b03838116600081815260016020908152604080832094871680845294825291829020805460ff191686151590811790915591519182527f17307eab39ab6107e8899845ad3d59bd9653f200f220920489ca2b5937696c31910160405180910390a3505050565b6001600160a01b038416610d4b5760405162461bcd60e51b81526004016102af90611863565b336000610d5785610e4f565b90506000610d6485610e4f565b90506000868152602081815260408083206001600160a01b038c16845290915290205485811015610da75760405162461bcd60e51b81526004016102af906118a8565b6000878152602081815260408083206001600160a01b038d8116855292528083208985039055908a16825281208054889290610de4908490611850565b909155505060408051888152602081018890526001600160a01b03808b16928c821692918816917fc3d58168c5ae7397731d063d5bbf3d657854427343f4c083240f7aacaa2d0f62910160405180910390a4610e44848a8a8a8a8a610e9a565b505050505050505050565b60408051600180825281830190925260609160009190602080830190803683370190505090508281600081518110610e8957610e8961180b565b602090810291909101015292915050565b6001600160a01b0384163b15610c3d5760405163f23a6e6160e01b81526001600160a01b0385169063f23a6e6190610ede9089908990889088908890600401611920565b6020604051808303816000875af1925050508015610f19575060408051601f3d908101601f19168201909252610f1691810190611965565b60015b610fc557610f25611982565b806308c379a003610f5e5750610f3961199e565b80610f445750610f60565b8060405162461bcd60e51b81526004016102af9190611192565b505b60405162461bcd60e51b815260206004820152603460248201527f455243313135353a207472616e7366657220746f206e6f6e2d455243313135356044820152732932b1b2b4bb32b91034b6b83632b6b2b73a32b960611b60648201526084016102af565b6001600160e01b0319811663f23a6e6160e01b14610a5f5760405162461bcd60e51b81526004016102af90611a28565b6001600160a01b0384163b15610c3d5760405163bc197c8160e01b81526001600160a01b0385169063bc197c81906110399089908990889088908890600401611a70565b6020604051808303816000875af1925050508015611074575060408051601f3d908101601f1916820190925261107191810190611965565b60015b61108057610f25611982565b6001600160e01b0319811663bc197c8160e01b14610a5f5760405162461bcd60e51b81526004016102af90611a28565b80356001600160a01b03811681146110c757600080fd5b919050565b600080604083850312156110df57600080fd5b6110e8836110b0565b946020939093013593505050565b6001600160e01b03198116811461110c57600080fd5b50565b60006020828403121561112157600080fd5b813561112c816110f6565b9392505050565b60006020828403121561114557600080fd5b5035919050565b6000815180845260005b8181101561117257602081850181015186830182015201611156565b506000602082860101526020601f19601f83011685010191505092915050565b60208152600061112c602083018461114c565b634e487b7160e01b600052604160045260246000fd5b601f8201601f1916810167ffffffffffffffff811182821017156111e1576111e16111a5565b6040525050565b600067ffffffffffffffff831115611202576112026111a5565b604051611219601f8501601f1916602001826111bb565b80915083815284848401111561122e57600080fd5b83836020830137600060208583010152509392505050565b600080600080600060a0868803121561125e57600080fd5b85359450602086013567ffffffffffffffff81111561127c57600080fd5b8601601f8101881361128d57600080fd5b61129c888235602084016111e8565b94505060408601359250606086013591506112b9608087016110b0565b90509295509295909350565b600067ffffffffffffffff8211156112df576112df6111a5565b5060051b60200190565b600082601f8301126112fa57600080fd5b81356020611307826112c5565b60405161131482826111bb565b83815260059390931b850182019282810191508684111561133457600080fd5b8286015b8481101561134f5780358352918301918301611338565b509695505050505050565b600082601f83011261136b57600080fd5b61112c838335602085016111e8565b600080600080600060a0868803121561139257600080fd5b61139b866110b0565b94506113a9602087016110b0565b9350604086013567ffffffffffffffff808211156113c657600080fd5b6113d289838a016112e9565b945060608801359150808211156113e857600080fd5b6113f489838a016112e9565b9350608088013591508082111561140a57600080fd5b506114178882890161135a565b9150509295509295909350565b6000806040838503121561143757600080fd5b823567ffffffffffffffff8082111561144f57600080fd5b818501915085601f83011261146357600080fd5b81356020611470826112c5565b60405161147d82826111bb565b83815260059390931b850182019282810191508984111561149d57600080fd5b948201945b838610156114c2576114b3866110b0565b825294820194908201906114a2565b965050860135925050808211156114d857600080fd5b506114e5858286016112e9565b9150509250929050565b600081518084526020808501945080840160005b8381101561151f57815187529582019590820190600101611503565b509495945050505050565b60208152600061112c60208301846114ef565b801515811461110c57600080fd5b6000806040838503121561155e57600080fd5b611567836110b0565b915060208301356115778161153d565b809150509250929050565b85815284602082015260a0604082015260006115a160a083018661114c565b6060830194909452506001600160a01b03919091166080909101529392505050565b600080604083850312156115d657600080fd5b6115df836110b0565b91506115ed602084016110b0565b90509250929050565b600080600080600060a0868803121561160e57600080fd5b611617866110b0565b9450611625602087016110b0565b93506040860135925060608601359150608086013567ffffffffffffffff81111561164f57600080fd5b6114178882890161135a565b600181811c9082168061166f57607f821691505b60208210810361168f57634e487b7160e01b600052602260045260246000fd5b50919050565b6000602082840312156116a757600080fd5b815161112c8161153d565b601f8211156116f857600081815260208120601f850160051c810160208610156116d95750805b601f850160051c820191505b81811015610c3d578281556001016116e5565b505050565b815167ffffffffffffffff811115611717576117176111a5565b61172b81611725845461165b565b846116b2565b602080601f83116001811461176057600084156117485750858301515b600019600386901b1c1916600185901b178555610c3d565b600085815260208120601f198616915b8281101561178f57888601518255948401946001909101908401611770565b50858210156117ad5787850151600019600388901b60f8161c191681555b5050505050600190811b01905550565b6020808252602e908201527f455243313135353a2063616c6c6572206973206e6f7420746f6b656e206f776e60408201526d195c881bdc88185c1c1c9bdd995960921b606082015260800190565b634e487b7160e01b600052603260045260246000fd5b634e487b7160e01b600052601160045260246000fd5b60006001820161184957611849611821565b5060010190565b808201808211156102db576102db611821565b60208082526025908201527f455243313135353a207472616e7366657220746f20746865207a65726f206164604082015264647265737360d81b606082015260800190565b6020808252602a908201527f455243313135353a20696e73756666696369656e742062616c616e636520666f60408201526939103a3930b739b332b960b11b606082015260800190565b60408152600061190560408301856114ef565b828103602084015261191781856114ef565b95945050505050565b6001600160a01b03868116825285166020820152604081018490526060810183905260a06080820181905260009061195a9083018461114c565b979650505050505050565b60006020828403121561197757600080fd5b815161112c816110f6565b600060033d111561199b5760046000803e5060005160e01c5b90565b600060443d10156119ac5790565b6040516003193d81016004833e81513d67ffffffffffffffff81602484011181841117156119dc57505050505090565b82850191508151818111156119f45750505050505090565b843d8701016020828501011115611a0e5750505050505090565b611a1d602082860101876111bb565b509095945050505050565b60208082526028908201527f455243313135353a204552433131353552656365697665722072656a656374656040820152676420746f6b656e7360c01b606082015260800190565b6001600160a01b0386811682528516602082015260a060408201819052600090611a9c908301866114ef565b8281036060840152611aae81866114ef565b90508281036080840152611ac2818561114c565b9897505050505050505056fea26469706673582212206ae6ef50cd55d7f24d4558eea3c87c43a8fe121e05dc7b42b7f5cf70c33cbba464736f6c6343000811003360806040523480156200001157600080fd5b5060405162001dc638038062001dc6833981016040819052620000349162000148565b828260006200004483826200026d565b5060016200005382826200026d565b505050600a939093555050600b80546001600160a01b0319166001600160a01b0390921691909117905562000339565b634e487b7160e01b600052604160045260246000fd5b600082601f830112620000ab57600080fd5b81516001600160401b0380821115620000c857620000c862000083565b604051601f8301601f19908116603f01168101908282118183101715620000f357620000f362000083565b816040528381526020925086838588010111156200011057600080fd5b600091505b8382101562000134578582018301518183018401529082019062000115565b600093810190920192909252949350505050565b600080600080608085870312156200015f57600080fd5b845160208601519094506001600160401b03808211156200017f57600080fd5b6200018d8883890162000099565b94506040870151915080821115620001a457600080fd5b50620001b38782880162000099565b606087015190935090506001600160a01b0381168114620001d357600080fd5b939692955090935050565b600181811c90821680620001f357607f821691505b6020821081036200021457634e487b7160e01b600052602260045260246000fd5b50919050565b601f8211156200026857600081815260208120601f850160051c81016020861015620002435750805b601f850160051c820191505b8181101562000264578281556001016200024f565b5050505b505050565b81516001600160401b0381111562000289576200028962000083565b620002a1816200029a8454620001de565b846200021a565b602080601f831160018114620002d95760008415620002c05750858301515b600019600386901b1c1916600185901b17855562000264565b600085815260208120601f198616915b828110156200030a57888601518255948401946001909101908401620002e9565b5085821015620003295787850151600019600388901b60f8161c191681555b5050505050600190811b01905550565b611a7d80620003496000396000f3fe608060405234801561001057600080fd5b50600436106101005760003560e01c80636352211e11610097578063a22cb46511610066578063a22cb46514610223578063b88d4fde14610236578063c87b56dd14610249578063e985e9c51461025c57600080fd5b80636352211e146101d357806370a08231146101e6578063777f09e2146101f957806395d89b411461021b57600080fd5b8063095ea7b3116100d3578063095ea7b31461018557806323b872dd1461019a5780633259cf6f146101ad57806342842e0e146101c057600080fd5b806301ffc9a714610105578063051802371461012d57806306fdde0314610145578063081812fc1461015a575b600080fd5b6101186101133660046113a9565b61026f565b60405190151581526020015b60405180910390f35b6007546101379081565b604051908152602001610124565b61014d6102c1565b6040516101249190611416565b61016d610168366004611429565b610353565b6040516001600160a01b039091168152602001610124565b61019861019336600461145e565b61037a565b005b6101986101a8366004611488565b610494565b6101986101bb366004611550565b6104c5565b6101986101ce366004611488565b610708565b61016d6101e1366004611429565b610723565b6101376101f4366004611602565b610783565b61020c610207366004611429565b610809565b6040516101249392919061161d565b61014d6108cb565b610198610231366004611653565b6108da565b61019861024436600461168a565b6108e9565b61014d610257366004611429565b610921565b61011861026a366004611706565b610a31565b60006001600160e01b031982166380ac58cd60e01b14806102a057506001600160e01b03198216635b5e139f60e01b145b806102bb57506301ffc9a760e01b6001600160e01b03198316145b92915050565b6060600080546102d090611739565b80601f01602080910402602001604051908101604052809291908181526020018280546102fc90611739565b80156103495780601f1061031e57610100808354040283529160200191610349565b820191906000526020600020905b81548152906001019060200180831161032c57829003601f168201915b5050505050905090565b600061035e82610a5f565b506000908152600460205260409020546001600160a01b031690565b600061038582610723565b9050806001600160a01b0316836001600160a01b0316036103f75760405162461bcd60e51b815260206004820152602160248201527f4552433732313a20617070726f76616c20746f2063757272656e74206f776e656044820152603960f91b60648201526084015b60405180910390fd5b336001600160a01b038216148061041357506104138133610a31565b6104855760405162461bcd60e51b815260206004820152603d60248201527f4552433732313a20617070726f76652063616c6c6572206973206e6f7420746f60448201527f6b656e206f776e6572206f7220617070726f76656420666f7220616c6c00000060648201526084016103ee565b61048f8383610ac1565b505050565b61049e3382610b2f565b6104ba5760405162461bcd60e51b81526004016103ee90611773565b61048f838383610b8d565b600b5460405163401853b760e01b8152600481018690526000916001600160a01b03169063401853b790602401602060405180830381865afa15801561050f573d6000803e3d6000fd5b505050506040513d601f19601f8201168201806040525081019061053391906117c0565b90506001811515146105875760405162461bcd60e51b815260206004820152601860248201527f70726f706f73616c206973206e6f74206163636570746564000000000000000060448201526064016103ee565b600061059260075490565b60408051606081018252600a54815260208101838152918101888152600c8054600181018255600091909152825160039091027fdf6966c971051c3d54ec59162606531493a51404a002842f56009d7e5cf4a8c7810191825593517fdf6966c971051c3d54ec59162606531493a51404a002842f56009d7e5cf4a8c88501559051939450909290917fdf6966c971051c3d54ec59162606531493a51404a002842f56009d7e5cf4a8c90190610647908261182b565b5050506106543382610cfe565b6106948185858080601f016020809104026020016040519081016040528093929190818152602001838380828437600092019190915250610e9792505050565b6106a2600780546001019055565b600b546040516312cd223360e11b8152600481018890526001600160a01b039091169063259a446690602401600060405180830381600087803b1580156106e857600080fd5b505af11580156106fc573d6000803e3d6000fd5b50505050505050505050565b61048f838383604051806020016040528060008152506108e9565b6000818152600260205260408120546001600160a01b0316806102bb5760405162461bcd60e51b8152602060048201526018602482015277115490cdcc8c4e881a5b9d985b1a59081d1bdad95b88125160421b60448201526064016103ee565b60006001600160a01b0382166107ed5760405162461bcd60e51b815260206004820152602960248201527f4552433732313a2061646472657373207a65726f206973206e6f7420612076616044820152683634b21037bbb732b960b91b60648201526084016103ee565b506001600160a01b031660009081526003602052604090205490565b600c818154811061081957600080fd5b906000526020600020906003020160009150905080600001549080600101549080600201805461084890611739565b80601f016020809104026020016040519081016040528092919081815260200182805461087490611739565b80156108c15780601f10610896576101008083540402835291602001916108c1565b820191906000526020600020905b8154815290600101906020018083116108a457829003601f168201915b5050505050905083565b6060600180546102d090611739565b6108e5338383610f2a565b5050565b6108f33383610b2f565b61090f5760405162461bcd60e51b81526004016103ee90611773565b61091b84848484610ff8565b50505050565b606061092c82610a5f565b6000828152600660205260408120805461094590611739565b80601f016020809104026020016040519081016040528092919081815260200182805461097190611739565b80156109be5780601f10610993576101008083540402835291602001916109be565b820191906000526020600020905b8154815290600101906020018083116109a157829003601f168201915b5050505050905060006109dc60408051602081019091526000815290565b905080516000036109ee575092915050565b815115610a20578082604051602001610a089291906118eb565b60405160208183030381529060405292505050919050565b610a298461102b565b949350505050565b6001600160a01b03918216600090815260056020908152604080832093909416825291909152205460ff1690565b6000818152600260205260409020546001600160a01b0316610abe5760405162461bcd60e51b8152602060048201526018602482015277115490cdcc8c4e881a5b9d985b1a59081d1bdad95b88125160421b60448201526064016103ee565b50565b600081815260046020526040902080546001600160a01b0319166001600160a01b0384169081179091558190610af682610723565b6001600160a01b03167f8c5be1e5ebec7d5bd14f71427d1e84f3dd0314c0f7b2291e5b200ac8c7c3b92560405160405180910390a45050565b600080610b3b83610723565b9050806001600160a01b0316846001600160a01b03161480610b625750610b628185610a31565b80610a295750836001600160a01b0316610b7b84610353565b6001600160a01b031614949350505050565b826001600160a01b0316610ba082610723565b6001600160a01b031614610bc65760405162461bcd60e51b81526004016103ee9061191a565b6001600160a01b038216610c285760405162461bcd60e51b8152602060048201526024808201527f4552433732313a207472616e7366657220746f20746865207a65726f206164646044820152637265737360e01b60648201526084016103ee565b610c35838383600161109f565b826001600160a01b0316610c4882610723565b6001600160a01b031614610c6e5760405162461bcd60e51b81526004016103ee9061191a565b600081815260046020908152604080832080546001600160a01b03199081169091556001600160a01b0387811680865260038552838620805460001901905590871680865283862080546001019055868652600290945282852080549092168417909155905184937fddf252ad1be2c89b69c2b068fc378daa952ba7f163c4a11628f55a4df523b3ef91a4505050565b6001600160a01b038216610d545760405162461bcd60e51b815260206004820181905260248201527f4552433732313a206d696e7420746f20746865207a65726f206164647265737360448201526064016103ee565b6000818152600260205260409020546001600160a01b031615610db95760405162461bcd60e51b815260206004820152601c60248201527f4552433732313a20746f6b656e20616c7265616479206d696e7465640000000060448201526064016103ee565b610dc760008383600161109f565b6000818152600260205260409020546001600160a01b031615610e2c5760405162461bcd60e51b815260206004820152601c60248201527f4552433732313a20746f6b656e20616c7265616479206d696e7465640000000060448201526064016103ee565b6001600160a01b038216600081815260036020908152604080832080546001019055848352600290915280822080546001600160a01b0319168417905551839291907fddf252ad1be2c89b69c2b068fc378daa952ba7f163c4a11628f55a4df523b3ef908290a45050565b6000828152600260205260409020546001600160a01b0316610f125760405162461bcd60e51b815260206004820152602e60248201527f45524337323155524953746f726167653a2055524920736574206f66206e6f6e60448201526d32bc34b9ba32b73a103a37b5b2b760911b60648201526084016103ee565b600082815260066020526040902061048f828261182b565b816001600160a01b0316836001600160a01b031603610f8b5760405162461bcd60e51b815260206004820152601960248201527f4552433732313a20617070726f766520746f2063616c6c65720000000000000060448201526064016103ee565b6001600160a01b03838116600081815260056020908152604080832094871680845294825291829020805460ff191686151590811790915591519182527f17307eab39ab6107e8899845ad3d59bd9653f200f220920489ca2b5937696c31910160405180910390a3505050565b611003848484610b8d565b61100f84848484611127565b61091b5760405162461bcd60e51b81526004016103ee9061195f565b606061103682610a5f565b600061104d60408051602081019091526000815290565b9050600081511161106d5760405180602001604052806000815250611098565b8061107784611228565b6040516020016110889291906118eb565b6040516020818303038152906040525b9392505050565b600181111561091b576001600160a01b038416156110e5576001600160a01b038416600090815260036020526040812080548392906110df9084906119c7565b90915550505b6001600160a01b0383161561091b576001600160a01b0383166000908152600360205260408120805483929061111c9084906119da565b909155505050505050565b60006001600160a01b0384163b1561121d57604051630a85bd0160e11b81526001600160a01b0385169063150b7a029061116b9033908990889088906004016119ed565b6020604051808303816000875af19250505080156111a6575060408051601f3d908101601f191682019092526111a391810190611a2a565b60015b611203573d8080156111d4576040519150601f19603f3d011682016040523d82523d6000602084013e6111d9565b606091505b5080516000036111fb5760405162461bcd60e51b81526004016103ee9061195f565b805181602001fd5b6001600160e01b031916630a85bd0160e11b149050610a29565b506001949350505050565b60606000611235836112bb565b600101905060008167ffffffffffffffff811115611255576112556114c4565b6040519080825280601f01601f19166020018201604052801561127f576020820181803683370190505b5090508181016020015b600019016f181899199a1a9b1b9c1cb0b131b232b360811b600a86061a8153600a850494508461128957509392505050565b60008072184f03e93ff9f4daa797ed6e38ed64bf6a1f0160401b83106112fa5772184f03e93ff9f4daa797ed6e38ed64bf6a1f0160401b830492506040015b6d04ee2d6d415b85acef81000000008310611326576d04ee2d6d415b85acef8100000000830492506020015b662386f26fc10000831061134457662386f26fc10000830492506010015b6305f5e100831061135c576305f5e100830492506008015b612710831061137057612710830492506004015b60648310611382576064830492506002015b600a83106102bb5760010192915050565b6001600160e01b031981168114610abe57600080fd5b6000602082840312156113bb57600080fd5b813561109881611393565b60005b838110156113e15781810151838201526020016113c9565b50506000910152565b600081518084526114028160208601602086016113c6565b601f01601f19169290920160200192915050565b60208152600061109860208301846113ea565b60006020828403121561143b57600080fd5b5035919050565b80356001600160a01b038116811461145957600080fd5b919050565b6000806040838503121561147157600080fd5b61147a83611442565b946020939093013593505050565b60008060006060848603121561149d57600080fd5b6114a684611442565b92506114b460208501611442565b9150604084013590509250925092565b634e487b7160e01b600052604160045260246000fd5b600067ffffffffffffffff808411156114f5576114f56114c4565b604051601f8501601f19908116603f0116810190828211818310171561151d5761151d6114c4565b8160405280935085815286868601111561153657600080fd5b858560208301376000602087830101525050509392505050565b6000806000806060858703121561156657600080fd5b84359350602085013567ffffffffffffffff8082111561158557600080fd5b818701915087601f83011261159957600080fd5b6115a8888335602085016114da565b945060408701359150808211156115be57600080fd5b818701915087601f8301126115d257600080fd5b8135818111156115e157600080fd5b8860208285010111156115f357600080fd5b95989497505060200194505050565b60006020828403121561161457600080fd5b61109882611442565b83815282602082015260606040820152600061163c60608301846113ea565b95945050505050565b8015158114610abe57600080fd5b6000806040838503121561166657600080fd5b61166f83611442565b9150602083013561167f81611645565b809150509250929050565b600080600080608085870312156116a057600080fd5b6116a985611442565b93506116b760208601611442565b925060408501359150606085013567ffffffffffffffff8111156116da57600080fd5b8501601f810187136116eb57600080fd5b6116fa878235602084016114da565b91505092959194509250565b6000806040838503121561171957600080fd5b61172283611442565b915061173060208401611442565b90509250929050565b600181811c9082168061174d57607f821691505b60208210810361176d57634e487b7160e01b600052602260045260246000fd5b50919050565b6020808252602d908201527f4552433732313a2063616c6c6572206973206e6f7420746f6b656e206f776e6560408201526c1c881bdc88185c1c1c9bdd9959609a1b606082015260800190565b6000602082840312156117d257600080fd5b815161109881611645565b601f82111561048f57600081815260208120601f850160051c810160208610156118045750805b601f850160051c820191505b8181101561182357828155600101611810565b505050505050565b815167ffffffffffffffff811115611845576118456114c4565b611859816118538454611739565b846117dd565b602080601f83116001811461188e57600084156118765750858301515b600019600386901b1c1916600185901b178555611823565b600085815260208120601f198616915b828110156118bd5788860151825594840194600190910190840161189e565b50858210156118db5787850151600019600388901b60f8161c191681555b5050505050600190811b01905550565b600083516118fd8184602088016113c6565b8351908301906119118183602088016113c6565b01949350505050565b60208082526025908201527f4552433732313a207472616e736665722066726f6d20696e636f72726563742060408201526437bbb732b960d91b606082015260800190565b60208082526032908201527f4552433732313a207472616e7366657220746f206e6f6e20455243373231526560408201527131b2b4bb32b91034b6b83632b6b2b73a32b960711b606082015260800190565b634e487b7160e01b600052601160045260246000fd5b818103818111156102bb576102bb6119b1565b808201808211156102bb576102bb6119b1565b6001600160a01b0385811682528416602082015260408101839052608060608201819052600090611a20908301846113ea565b9695505050505050565b600060208284031215611a3c57600080fd5b81516110988161139356fea26469706673582212207ad0807464e2a90704e2115fe5a2d4597e1afb057a5fbc79356ac5a65e47d6f564736f6c63430008110033a2646970667358221220cb9cd06bf782e202fb8eb135cc904586b8facb7fef594b138ee41ff40fd021d464736f6c63430008110033",
  "immutableReferences": {},
  "source": "// SPDX-License-Identifier: GPL-3.0\npragma solidity 0.8.17;\n\nimport \"../node_modules/@openzeppelin/contracts/utils/Counters.sol\";\nimport \"../node_modules/@openzeppelin/contracts/access/Ownable.sol\";\nimport \"./NftProperty.sol\";\nimport \"./NftDigital.sol\";\n\ninterface ICollectorsDAO {\n    function createDAO(string memory _name) external;\n}\n\ncontract Factory is Ownable {\n    using Counters for Counters.Counter;\n    Counters.Counter public _id;\n\n    event collectionCreated(\n        uint256 collectionId,\n        string collectionName,\n        address propertyCollectionAddress,\n        address digitalCollectionAddress\n    );\n\n    struct Collection {\n        uint256 _collectionId;\n        string _name;\n        address _propertyCollectionAddress;\n        address _digitalCollectionAddress;\n    }\n\n    Collection[] public collections;\n\n    ICollectorsDAO collectorsDAO;\n\n    address daoContractAddress;\n\n    /// @dev mapping collectionName => collectionAddress\n    mapping(string => address) public collectionsAddress;\n\n    constructor(address daoAddress_) {\n        daoContractAddress = daoAddress_;\n        collectorsDAO = ICollectorsDAO(daoAddress_);\n    }\n\n    function createCollection(\n        string memory _collectionName,\n        string memory _collectionURI,\n        string memory _collectionSymbol\n    )\n        external\n        onlyOwner\n        returns (address nftPropertyAddr, address nftDigitalAddr)\n    {\n        require(\n            bytes(_collectionName).length > 0,\n            \"collection name should not be null\"\n        );\n        require(\n            bytes(_collectionURI).length > 0,\n            \"collection URI should not be null\"\n        );\n\n        NftProperty nftProperty = new NftProperty(\n            _id.current(),\n            _collectionURI,\n            daoContractAddress\n        );\n        NftDigital nftDigital = new NftDigital(\n            _id.current(),\n            _collectionName,\n            _collectionSymbol,\n            daoContractAddress\n        );\n\n        Collection memory newCollection;\n        newCollection._collectionId = _id.current();\n        newCollection._name = _collectionName;\n        newCollection._propertyCollectionAddress = address(nftProperty);\n        newCollection._digitalCollectionAddress = address(nftDigital);\n        collections.push(newCollection);\n\n        collectorsDAO.createDAO(_collectionName);\n\n        emit collectionCreated(\n            _id.current(),\n            _collectionName,\n            address(nftProperty),\n            address(nftDigital)\n        );\n\n        _id.increment();\n\n        return (address(nftProperty), address(nftDigital));\n    }\n}\n",
  "sourcePath": "/Users/jeromejulien/Documents/vscode/FormationAlyra/02_Projets/CollectorChain_TokenizedCollectibles/truffle/contracts/Factory.sol",
  "compiler": {
    "name": "solc",
    "version": "0.8.17+commit.8df45f5f.Emscripten.clang"
  },
  "schemaVersion": "3.4.10",
  "updatedAt": "2022-12-07T17:47:40.326Z",
  "networkType": "ethereum",
  "devdoc": {
    "kind": "dev",
    "methods": {
      "owner()": {
        "details": "Returns the address of the current owner."
      },
      "renounceOwnership()": {
        "details": "Leaves the contract without owner. It will not be possible to call `onlyOwner` functions anymore. Can only be called by the current owner. NOTE: Renouncing ownership will leave the contract without an owner, thereby removing any functionality that is only available to the owner."
      },
      "transferOwnership(address)": {
        "details": "Transfers ownership of the contract to a new account (`newOwner`). Can only be called by the current owner."
      }
    },
    "stateVariables": {
      "collectionsAddress": {
        "details": "mapping collectionName => collectionAddress"
      }
    },
    "version": 1
  },
  "userdoc": {
    "kind": "user",
    "methods": {},
    "version": 1
  }
}