{
  "contractName": "Factory",
  "abi": [
    {
      "anonymous": false,
      "inputs": [
        {
          "indexed": false,
          "internalType": "uint256",
          "name": "collectionId",
          "type": "uint256"
        },
        {
          "indexed": false,
          "internalType": "string",
          "name": "collectionName",
          "type": "string"
        },
        {
          "indexed": false,
          "internalType": "address",
          "name": "propertyCollectionAddress",
          "type": "address"
        },
        {
          "indexed": false,
          "internalType": "address",
          "name": "digitalCollectionAddress",
          "type": "address"
        }
      ],
      "name": "collectionCreated",
      "type": "event"
    },
    {
      "inputs": [],
      "name": "_id",
      "outputs": [
        {
          "internalType": "uint256",
          "name": "_value",
          "type": "uint256"
        }
      ],
      "stateMutability": "view",
      "type": "function",
      "constant": true
    },
    {
      "inputs": [
        {
          "internalType": "uint256",
          "name": "",
          "type": "uint256"
        }
      ],
      "name": "collections",
      "outputs": [
        {
          "internalType": "uint256",
          "name": "_collectionId",
          "type": "uint256"
        },
        {
          "internalType": "string",
          "name": "_name",
          "type": "string"
        },
        {
          "internalType": "address",
          "name": "_propertyCollectionAddress",
          "type": "address"
        },
        {
          "internalType": "address",
          "name": "_digitalCollectionAddress",
          "type": "address"
        }
      ],
      "stateMutability": "view",
      "type": "function",
      "constant": true
    },
    {
      "inputs": [
        {
          "internalType": "string",
          "name": "",
          "type": "string"
        }
      ],
      "name": "collectionsAddress",
      "outputs": [
        {
          "internalType": "address",
          "name": "",
          "type": "address"
        }
      ],
      "stateMutability": "view",
      "type": "function",
      "constant": true
    },
    {
      "inputs": [
        {
          "internalType": "address",
          "name": "_addr",
          "type": "address"
        }
      ],
      "name": "setDaoAddres",
      "outputs": [],
      "stateMutability": "nonpayable",
      "type": "function"
    },
    {
      "inputs": [
        {
          "internalType": "string",
          "name": "_collectionName",
          "type": "string"
        },
        {
          "internalType": "string",
          "name": "_collectionURI",
          "type": "string"
        },
        {
          "internalType": "string",
          "name": "_collectionSymbol",
          "type": "string"
        }
      ],
      "name": "createCollection",
      "outputs": [
        {
          "internalType": "address",
          "name": "nftPropertyAddr",
          "type": "address"
        },
        {
          "internalType": "address",
          "name": "nftDigitalAddr",
          "type": "address"
        }
      ],
      "stateMutability": "nonpayable",
      "type": "function"
    }
  ],
  "bytecode": "0x608060405234801561001057600080fd5b506141ac806100206000396000f3fe60806040523480156200001157600080fd5b50600436106200005e5760003560e01c80630416a56014620000635780630518023714620000985780635983da9a14620000b6578063ece86c211462000106578063fdbda0ec146200013e575b600080fd5b62000096620000743660046200056d565b600280546001600160a01b0319166001600160a01b0392909216919091179055565b005b600054620000a39081565b6040519081526020015b60405180910390f35b620000ed620000c73660046200064a565b80516020818301810180516003825292820191909301209152546001600160a01b031681565b6040516001600160a01b039091168152602001620000ad565b6200011d620001173660046200068b565b62000167565b604080516001600160a01b03938416815292909116602083015201620000ad565b620001556200014f3660046200071d565b62000477565b604051620000ad94939291906200077f565b6000806000855111620001cc5760405162461bcd60e51b815260206004820152602260248201527f636f6c6c656374696f6e206e616d652073686f756c64206e6f74206265206e756044820152611b1b60f21b60648201526084015b60405180910390fd5b6000845111620002295760405162461bcd60e51b815260206004820152602160248201527f636f6c6c656374696f6e205552492073686f756c64206e6f74206265206e756c6044820152601b60fa1b6064820152608401620001c3565b60008054905060008186604051620002419062000551565b6200024e929190620007bb565b604051809103906000f0801580156200026b573d6000803e3d6000fd5b509050600082888760405162000281906200055f565b6200028f93929190620007d6565b604051809103906000f080158015620002ac573d6000803e3d6000fd5b509050620002ed6040518060800160405280600081526020016060815260200160006001600160a01b0316815260200160006001600160a01b031681525090565b838152602081018981526001600160a01b03808516604084015283166060830152600180548082018255600091909152825160049091027fb10e2d527612073b26eecdfd717e6a320cf44b4afac2b0732d9fcbe2b7fa0cf68101918255915183927fb10e2d527612073b26eecdfd717e6a320cf44b4afac2b0732d9fcbe2b7fa0cf701906200037d90826200089e565b50604082810151600283810180546001600160a01b03199081166001600160a01b0394851617909155606090950151600390940180549095169382169390931790935590549051634830ebcf60e01b8152911690634830ebcf90620003e7908c906004016200096b565b600060405180830381600087803b1580156200040257600080fd5b505af115801562000417573d6000803e3d6000fd5b505050507f81032603cc83ea314c740484276d4b1d8e02c0e6c3a997883c4bc72bf8409353848a85856040516200045294939291906200077f565b60405180910390a162000469600080546001019055565b509097909650945050505050565b600181815481106200048857600080fd5b60009182526020909120600490910201805460018201805491935090620004af906200080f565b80601f0160208091040260200160405190810160405280929190818152602001828054620004dd906200080f565b80156200052e5780601f1062000502576101008083540402835291602001916200052e565b820191906000526020600020905b8154815290600101906020018083116200051057829003601f168201915b50505050600283015460039093015491926001600160a01b039081169216905084565b611bd5806200098183390190565b611c21806200255683390190565b6000602082840312156200058057600080fd5b81356001600160a01b03811681146200059857600080fd5b9392505050565b634e487b7160e01b600052604160045260246000fd5b600082601f830112620005c757600080fd5b813567ffffffffffffffff80821115620005e557620005e56200059f565b604051601f8301601f19908116603f011681019082821181831017156200061057620006106200059f565b816040528381528660208588010111156200062a57600080fd5b836020870160208301376000602085830101528094505050505092915050565b6000602082840312156200065d57600080fd5b813567ffffffffffffffff8111156200067557600080fd5b6200068384828501620005b5565b949350505050565b600080600060608486031215620006a157600080fd5b833567ffffffffffffffff80821115620006ba57600080fd5b620006c887838801620005b5565b94506020860135915080821115620006df57600080fd5b620006ed87838801620005b5565b935060408601359150808211156200070457600080fd5b506200071386828701620005b5565b9150509250925092565b6000602082840312156200073057600080fd5b5035919050565b6000815180845260005b818110156200075f5760208185018101518683018201520162000741565b506000602082860101526020601f19601f83011685010191505092915050565b8481526080602082015260006200079a608083018662000737565b6001600160a01b039485166040840152929093166060909101529392505050565b82815260406020820152600062000683604083018462000737565b838152606060208201526000620007f1606083018562000737565b828103604084015262000805818562000737565b9695505050505050565b600181811c908216806200082457607f821691505b6020821081036200084557634e487b7160e01b600052602260045260246000fd5b50919050565b601f8211156200089957600081815260208120601f850160051c81016020861015620008745750805b601f850160051c820191505b81811015620008955782815560010162000880565b5050505b505050565b815167ffffffffffffffff811115620008bb57620008bb6200059f565b620008d381620008cc84546200080f565b846200084b565b602080601f8311600181146200090b5760008415620008f25750858301515b600019600386901b1c1916600185901b17855562000895565b600085815260208120601f198616915b828110156200093c578886015182559484019460019091019084016200091b565b50858210156200095b5787850151600019600388901b60f8161c191681555b5050505050600190811b01905550565b6020815260006200059860208301846200073756fe60806040523480156200001157600080fd5b5060405162001bd538038062001bd5833981016040819052620000349162000073565b8062000040816200004b565b5050600555620002ae565b6002620000598282620001e2565b5050565b634e487b7160e01b600052604160045260246000fd5b600080604083850312156200008757600080fd5b8251602080850151919350906001600160401b0380821115620000a957600080fd5b818601915086601f830112620000be57600080fd5b815181811115620000d357620000d36200005d565b604051601f8201601f19908116603f01168101908382118183101715620000fe57620000fe6200005d565b8160405282815289868487010111156200011757600080fd5b600093505b828410156200013b57848401860151818501870152928501926200011c565b60008684830101528096505050505050509250929050565b600181811c908216806200016857607f821691505b6020821081036200018957634e487b7160e01b600052602260045260246000fd5b50919050565b601f821115620001dd57600081815260208120601f850160051c81016020861015620001b85750805b601f850160051c820191505b81811015620001d957828155600101620001c4565b5050505b505050565b81516001600160401b03811115620001fe57620001fe6200005d565b62000216816200020f845462000153565b846200018f565b602080601f8311600181146200024e5760008415620002355750858301515b600019600386901b1c1916600185901b178555620001d9565b600085815260208120601f198616915b828110156200027f578886015182559484019460019091019084016200025e565b50858210156200029e5787850151600019600388901b60f8161c191681555b5050505050600190811b01905550565b61191780620002be6000396000f3fe608060405234801561001057600080fd5b50600436106100ce5760003560e01c80634e1273f41161008c578063dd1ccc8611610066578063dd1ccc86146101c7578063e5326ab1146101da578063e985e9c5146101e2578063f242432a1461021e57600080fd5b80634e1273f4146101645780637fa9136d14610184578063a22cb465146101b457600080fd5b8062fdd58e146100d357806301ffc9a7146100f9578063051802371461011c5780630e89341c146101265780632eb2c2d6146101465780633d26bb671461015b575b600080fd5b6100e66100e1366004610f19565b610231565b6040519081526020015b60405180910390f35b61010c610107366004610f5c565b6102ca565b60405190151581526020016100f0565b6003546100e69081565b610139610134366004610f80565b61031a565b6040516100f09190610fdf565b610159610154366004611148565b6103ae565b005b6100e660055481565b6101776101723660046111f2565b6103fa565b6040516100f091906112f8565b61015961019236600461130b565b600680546001600160a01b0319166001600160a01b0392909216919091179055565b6101596101c2366004611334565b610524565b6101596101d536600461136b565b610533565b6101396106d6565b61010c6101f03660046113d6565b6001600160a01b03918216600090815260016020908152604080832093909416825291909152205460ff1690565b61015961022c366004611409565b610764565b60006001600160a01b0383166102a15760405162461bcd60e51b815260206004820152602a60248201527f455243313135353a2061646472657373207a65726f206973206e6f742061207660448201526930b634b21037bbb732b960b11b60648201526084015b60405180910390fd5b506000818152602081815260408083206001600160a01b03861684529091529020545b92915050565b60006001600160e01b03198216636cdb3d1360e11b14806102fb57506001600160e01b031982166303a24d0760e21b145b806102c457506301ffc9a760e01b6001600160e01b03198316146102c4565b6060600280546103299061146e565b80601f01602080910402602001604051908101604052809291908181526020018280546103559061146e565b80156103a25780601f10610377576101008083540402835291602001916103a2565b820191906000526020600020905b81548152906001019060200180831161038557829003601f168201915b50505050509050919050565b6001600160a01b0385163314806103ca57506103ca85336101f0565b6103e65760405162461bcd60e51b8152600401610298906114a8565b6103f385858585856107a9565b5050505050565b6060815183511461045f5760405162461bcd60e51b815260206004820152602960248201527f455243313135353a206163636f756e747320616e6420696473206c656e677468604482015268040dad2e6dac2e8c6d60bb1b6064820152608401610298565b6000835167ffffffffffffffff81111561047b5761047b610ff2565b6040519080825280602002602001820160405280156104a4578160200160208202803683370190505b50905060005b845181101561051c576104ef8582815181106104c8576104c86114f6565b60200260200101518583815181106104e2576104e26114f6565b6020026020010151610231565b828281518110610501576105016114f6565b602090810291909101015261051581611522565b90506104aa565b509392505050565b61052f33838361097e565b5050565b6006546005546040516370379bcd60e11b81526004810191909152602481018690526000916001600160a01b03169063e06f379a90604401602060405180830381865afa158015610588573d6000803e3d6000fd5b505050506040513d601f19601f820116820180604052508101906105ac919061153b565b90506001811515146106005760405162461bcd60e51b815260206004820152601860248201527f70726f706f73616c206973206e6f7420616363657074656400000000000000006044820152606401610298565b600061060b60035490565b604080516060810182528281526020810188815291810187905260078054600181018255600091909152815160039091027fa66cc928b5edb82af9bd49922954155ab7b0942694bea4ce44661d9a8736c68881019182559251939450909290917fa66cc928b5edb82af9bd49922954155ab7b0942694bea4ce44661d9a8736c689019061069890826115a3565b506040820151816002015550506106c033828560405180602001604052806000815250610a5e565b6106ce600380546001019055565b505050505050565b600480546106e39061146e565b80601f016020809104026020016040519081016040528092919081815260200182805461070f9061146e565b801561075c5780601f106107315761010080835404028352916020019161075c565b820191906000526020600020905b81548152906001019060200180831161073f57829003601f168201915b505050505081565b6001600160a01b038516331480610780575061078085336101f0565b61079c5760405162461bcd60e51b8152600401610298906114a8565b6103f38585858585610b72565b815183511461080b5760405162461bcd60e51b815260206004820152602860248201527f455243313135353a2069647320616e6420616d6f756e7473206c656e677468206044820152670dad2e6dac2e8c6d60c31b6064820152608401610298565b6001600160a01b0384166108315760405162461bcd60e51b815260040161029890611663565b3360005b8451811015610918576000858281518110610852576108526114f6565b602002602001015190506000858381518110610870576108706114f6565b602090810291909101810151600084815280835260408082206001600160a01b038e1683529093529190912054909150818110156108c05760405162461bcd60e51b8152600401610298906116a8565b6000838152602081815260408083206001600160a01b038e8116855292528083208585039055908b168252812080548492906108fd9084906116f2565b925050819055505050508061091190611522565b9050610835565b50846001600160a01b0316866001600160a01b0316826001600160a01b03167f4a39dc06d4c0dbc64b70af90fd698a233a518aa5d07e595d983b8c0526c8f7fb8787604051610968929190611705565b60405180910390a46106ce818787878787610c9c565b816001600160a01b0316836001600160a01b0316036109f15760405162461bcd60e51b815260206004820152602960248201527f455243313135353a2073657474696e6720617070726f76616c20737461747573604482015268103337b91039b2b63360b91b6064820152608401610298565b6001600160a01b03838116600081815260016020908152604080832094871680845294825291829020805460ff191686151590811790915591519182527f17307eab39ab6107e8899845ad3d59bd9653f200f220920489ca2b5937696c31910160405180910390a3505050565b6001600160a01b038416610abe5760405162461bcd60e51b815260206004820152602160248201527f455243313135353a206d696e7420746f20746865207a65726f206164647265736044820152607360f81b6064820152608401610298565b336000610aca85610df7565b90506000610ad785610df7565b90506000868152602081815260408083206001600160a01b038b16845290915281208054879290610b099084906116f2565b909155505060408051878152602081018790526001600160a01b03808a1692600092918716917fc3d58168c5ae7397731d063d5bbf3d657854427343f4c083240f7aacaa2d0f62910160405180910390a4610b6983600089898989610e42565b50505050505050565b6001600160a01b038416610b985760405162461bcd60e51b815260040161029890611663565b336000610ba485610df7565b90506000610bb185610df7565b90506000868152602081815260408083206001600160a01b038c16845290915290205485811015610bf45760405162461bcd60e51b8152600401610298906116a8565b6000878152602081815260408083206001600160a01b038d8116855292528083208985039055908a16825281208054889290610c319084906116f2565b909155505060408051888152602081018890526001600160a01b03808b16928c821692918816917fc3d58168c5ae7397731d063d5bbf3d657854427343f4c083240f7aacaa2d0f62910160405180910390a4610c91848a8a8a8a8a610e42565b505050505050505050565b6001600160a01b0384163b156106ce5760405163bc197c8160e01b81526001600160a01b0385169063bc197c8190610ce09089908990889088908890600401611733565b6020604051808303816000875af1925050508015610d1b575060408051601f3d908101601f19168201909252610d1891810190611791565b60015b610dc757610d276117ae565b806308c379a003610d605750610d3b6117ca565b80610d465750610d62565b8060405162461bcd60e51b81526004016102989190610fdf565b505b60405162461bcd60e51b815260206004820152603460248201527f455243313135353a207472616e7366657220746f206e6f6e2d455243313135356044820152732932b1b2b4bb32b91034b6b83632b6b2b73a32b960611b6064820152608401610298565b6001600160e01b0319811663bc197c8160e01b14610b695760405162461bcd60e51b815260040161029890611854565b60408051600180825281830190925260609160009190602080830190803683370190505090508281600081518110610e3157610e316114f6565b602090810291909101015292915050565b6001600160a01b0384163b156106ce5760405163f23a6e6160e01b81526001600160a01b0385169063f23a6e6190610e86908990899088908890889060040161189c565b6020604051808303816000875af1925050508015610ec1575060408051601f3d908101601f19168201909252610ebe91810190611791565b60015b610ecd57610d276117ae565b6001600160e01b0319811663f23a6e6160e01b14610b695760405162461bcd60e51b815260040161029890611854565b80356001600160a01b0381168114610f1457600080fd5b919050565b60008060408385031215610f2c57600080fd5b610f3583610efd565b946020939093013593505050565b6001600160e01b031981168114610f5957600080fd5b50565b600060208284031215610f6e57600080fd5b8135610f7981610f43565b9392505050565b600060208284031215610f9257600080fd5b5035919050565b6000815180845260005b81811015610fbf57602081850181015186830182015201610fa3565b506000602082860101526020601f19601f83011685010191505092915050565b602081526000610f796020830184610f99565b634e487b7160e01b600052604160045260246000fd5b601f8201601f1916810167ffffffffffffffff8111828210171561102e5761102e610ff2565b6040525050565b600067ffffffffffffffff82111561104f5761104f610ff2565b5060051b60200190565b600082601f83011261106a57600080fd5b8135602061107782611035565b6040516110848282611008565b83815260059390931b85018201928281019150868411156110a457600080fd5b8286015b848110156110bf57803583529183019183016110a8565b509695505050505050565b600067ffffffffffffffff8311156110e4576110e4610ff2565b6040516110fb601f8501601f191660200182611008565b80915083815284848401111561111057600080fd5b83836020830137600060208583010152509392505050565b600082601f83011261113957600080fd5b610f79838335602085016110ca565b600080600080600060a0868803121561116057600080fd5b61116986610efd565b945061117760208701610efd565b9350604086013567ffffffffffffffff8082111561119457600080fd5b6111a089838a01611059565b945060608801359150808211156111b657600080fd5b6111c289838a01611059565b935060808801359150808211156111d857600080fd5b506111e588828901611128565b9150509295509295909350565b6000806040838503121561120557600080fd5b823567ffffffffffffffff8082111561121d57600080fd5b818501915085601f83011261123157600080fd5b8135602061123e82611035565b60405161124b8282611008565b83815260059390931b850182019282810191508984111561126b57600080fd5b948201945b838610156112905761128186610efd565b82529482019490820190611270565b965050860135925050808211156112a657600080fd5b506112b385828601611059565b9150509250929050565b600081518084526020808501945080840160005b838110156112ed578151875295820195908201906001016112d1565b509495945050505050565b602081526000610f7960208301846112bd565b60006020828403121561131d57600080fd5b610f7982610efd565b8015158114610f5957600080fd5b6000806040838503121561134757600080fd5b61135083610efd565b9150602083013561136081611326565b809150509250929050565b6000806000806080858703121561138157600080fd5b84359350602085013567ffffffffffffffff81111561139f57600080fd5b8501601f810187136113b057600080fd5b6113bf878235602084016110ca565b949794965050505060408301359260600135919050565b600080604083850312156113e957600080fd5b6113f283610efd565b915061140060208401610efd565b90509250929050565b600080600080600060a0868803121561142157600080fd5b61142a86610efd565b945061143860208701610efd565b93506040860135925060608601359150608086013567ffffffffffffffff81111561146257600080fd5b6111e588828901611128565b600181811c9082168061148257607f821691505b6020821081036114a257634e487b7160e01b600052602260045260246000fd5b50919050565b6020808252602e908201527f455243313135353a2063616c6c6572206973206e6f7420746f6b656e206f776e60408201526d195c881bdc88185c1c1c9bdd995960921b606082015260800190565b634e487b7160e01b600052603260045260246000fd5b634e487b7160e01b600052601160045260246000fd5b6000600182016115345761153461150c565b5060010190565b60006020828403121561154d57600080fd5b8151610f7981611326565b601f82111561159e57600081815260208120601f850160051c8101602086101561157f5750805b601f850160051c820191505b818110156106ce5782815560010161158b565b505050565b815167ffffffffffffffff8111156115bd576115bd610ff2565b6115d1816115cb845461146e565b84611558565b602080601f83116001811461160657600084156115ee5750858301515b600019600386901b1c1916600185901b1785556106ce565b600085815260208120601f198616915b8281101561163557888601518255948401946001909101908401611616565b50858210156116535787850151600019600388901b60f8161c191681555b5050505050600190811b01905550565b60208082526025908201527f455243313135353a207472616e7366657220746f20746865207a65726f206164604082015264647265737360d81b606082015260800190565b6020808252602a908201527f455243313135353a20696e73756666696369656e742062616c616e636520666f60408201526939103a3930b739b332b960b11b606082015260800190565b808201808211156102c4576102c461150c565b60408152600061171860408301856112bd565b828103602084015261172a81856112bd565b95945050505050565b6001600160a01b0386811682528516602082015260a06040820181905260009061175f908301866112bd565b828103606084015261177181866112bd565b905082810360808401526117858185610f99565b98975050505050505050565b6000602082840312156117a357600080fd5b8151610f7981610f43565b600060033d11156117c75760046000803e5060005160e01c5b90565b600060443d10156117d85790565b6040516003193d81016004833e81513d67ffffffffffffffff816024840111818411171561180857505050505090565b82850191508151818111156118205750505050505090565b843d870101602082850101111561183a5750505050505090565b61184960208286010187611008565b509095945050505050565b60208082526028908201527f455243313135353a204552433131353552656365697665722072656a656374656040820152676420746f6b656e7360c01b606082015260800190565b6001600160a01b03868116825285166020820152604081018490526060810183905260a0608082018190526000906118d690830184610f99565b97965050505050505056fea2646970667358221220d56d59b5ce8d58a1ecd64948eb3599f7e291ebff5defae0a367dafc5eefa1c6a64736f6c6343000811003360806040523480156200001157600080fd5b5060405162001c2138038062001c2183398101604081905262000034916200012a565b818160006200004483826200022d565b5060016200005382826200022d565b505050600a9290925550620002f99050565b634e487b7160e01b600052604160045260246000fd5b600082601f8301126200008d57600080fd5b81516001600160401b0380821115620000aa57620000aa62000065565b604051601f8301601f19908116603f01168101908282118183101715620000d557620000d562000065565b81604052838152602092508683858801011115620000f257600080fd5b600091505b83821015620001165785820183015181830184015290820190620000f7565b600093810190920192909252949350505050565b6000806000606084860312156200014057600080fd5b835160208501519093506001600160401b03808211156200016057600080fd5b6200016e878388016200007b565b935060408601519150808211156200018557600080fd5b5062000194868287016200007b565b9150509250925092565b600181811c90821680620001b357607f821691505b602082108103620001d457634e487b7160e01b600052602260045260246000fd5b50919050565b601f8211156200022857600081815260208120601f850160051c81016020861015620002035750805b601f850160051c820191505b8181101562000224578281556001016200020f565b5050505b505050565b81516001600160401b0381111562000249576200024962000065565b62000261816200025a84546200019e565b84620001da565b602080601f831160018114620002995760008415620002805750858301515b600019600386901b1c1916600185901b17855562000224565b600085815260208120601f198616915b82811015620002ca57888601518255948401946001909101908401620002a9565b5085821015620002e95787850151600019600388901b60f8161c191681555b5050505050600190811b01905550565b61191880620003096000396000f3fe608060405234801561001057600080fd5b50600436106101005760003560e01c80636352211e11610097578063a22cb46511610066578063a22cb46514610231578063b88d4fde14610244578063c87b56dd14610257578063e985e9c51461026a57600080fd5b80636352211e146101d357806370a08231146101e65780637fa9136d146101f957806395d89b411461022957600080fd5b8063095ea7b3116100d3578063095ea7b31461018557806323b872dd1461019a5780633259cf6f146101ad57806342842e0e146101c057600080fd5b806301ffc9a714610105578063051802371461012d57806306fdde0314610145578063081812fc1461015a575b600080fd5b610118610113366004611274565b61027d565b60405190151581526020015b60405180910390f35b6007546101379081565b604051908152602001610124565b61014d6102cf565b60405161012491906112e1565b61016d6101683660046112f4565b610361565b6040516001600160a01b039091168152602001610124565b610198610193366004611329565b610388565b005b6101986101a8366004611353565b6104a2565b6101986101bb36600461141b565b6104d3565b6101986101ce366004611353565b610695565b61016d6101e13660046112f4565b6106b0565b6101376101f43660046114cd565b610710565b6101986102073660046114cd565b600b80546001600160a01b0319166001600160a01b0392909216919091179055565b61014d610796565b61019861023f3660046114f6565b6107a5565b61019861025236600461152d565b6107b4565b61014d6102653660046112f4565b6107ec565b6101186102783660046115a9565b6108fc565b60006001600160e01b031982166380ac58cd60e01b14806102ae57506001600160e01b03198216635b5e139f60e01b145b806102c957506301ffc9a760e01b6001600160e01b03198316145b92915050565b6060600080546102de906115dc565b80601f016020809104026020016040519081016040528092919081815260200182805461030a906115dc565b80156103575780601f1061032c57610100808354040283529160200191610357565b820191906000526020600020905b81548152906001019060200180831161033a57829003601f168201915b5050505050905090565b600061036c8261092a565b506000908152600460205260409020546001600160a01b031690565b6000610393826106b0565b9050806001600160a01b0316836001600160a01b0316036104055760405162461bcd60e51b815260206004820152602160248201527f4552433732313a20617070726f76616c20746f2063757272656e74206f776e656044820152603960f91b60648201526084015b60405180910390fd5b336001600160a01b0382161480610421575061042181336108fc565b6104935760405162461bcd60e51b815260206004820152603d60248201527f4552433732313a20617070726f76652063616c6c6572206973206e6f7420746f60448201527f6b656e206f776e6572206f7220617070726f76656420666f7220616c6c00000060648201526084016103fc565b61049d838361098c565b505050565b6104ac33826109fa565b6104c85760405162461bcd60e51b81526004016103fc90611616565b61049d838383610a58565b600b54600a546040516370379bcd60e11b81526004810191909152602481018690526000916001600160a01b03169063e06f379a90604401602060405180830381865afa158015610528573d6000803e3d6000fd5b505050506040513d601f19601f8201168201806040525081019061054c9190611663565b90506001811515146105a05760405162461bcd60e51b815260206004820152601860248201527f70726f706f73616c206973206e6f74206163636570746564000000000000000060448201526064016103fc565b60006105ab60075490565b6040805180820190915281815260208101878152600c8054600181018255600091909152825160029091027fdf6966c971051c3d54ec59162606531493a51404a002842f56009d7e5cf4a8c78101918255915193945091927fdf6966c971051c3d54ec59162606531493a51404a002842f56009d7e5cf4a8c89091019061063290826116c6565b50505061063f3382610bc9565b61067f8185858080601f016020809104026020016040519081016040528093929190818152602001838380828437600092019190915250610d6292505050565b61068d600780546001019055565b505050505050565b61049d838383604051806020016040528060008152506107b4565b6000818152600260205260408120546001600160a01b0316806102c95760405162461bcd60e51b8152602060048201526018602482015277115490cdcc8c4e881a5b9d985b1a59081d1bdad95b88125160421b60448201526064016103fc565b60006001600160a01b03821661077a5760405162461bcd60e51b815260206004820152602960248201527f4552433732313a2061646472657373207a65726f206973206e6f7420612076616044820152683634b21037bbb732b960b91b60648201526084016103fc565b506001600160a01b031660009081526003602052604090205490565b6060600180546102de906115dc565b6107b0338383610df5565b5050565b6107be33836109fa565b6107da5760405162461bcd60e51b81526004016103fc90611616565b6107e684848484610ec3565b50505050565b60606107f78261092a565b60008281526006602052604081208054610810906115dc565b80601f016020809104026020016040519081016040528092919081815260200182805461083c906115dc565b80156108895780601f1061085e57610100808354040283529160200191610889565b820191906000526020600020905b81548152906001019060200180831161086c57829003601f168201915b5050505050905060006108a760408051602081019091526000815290565b905080516000036108b9575092915050565b8151156108eb5780826040516020016108d3929190611786565b60405160208183030381529060405292505050919050565b6108f484610ef6565b949350505050565b6001600160a01b03918216600090815260056020908152604080832093909416825291909152205460ff1690565b6000818152600260205260409020546001600160a01b03166109895760405162461bcd60e51b8152602060048201526018602482015277115490cdcc8c4e881a5b9d985b1a59081d1bdad95b88125160421b60448201526064016103fc565b50565b600081815260046020526040902080546001600160a01b0319166001600160a01b03841690811790915581906109c1826106b0565b6001600160a01b03167f8c5be1e5ebec7d5bd14f71427d1e84f3dd0314c0f7b2291e5b200ac8c7c3b92560405160405180910390a45050565b600080610a06836106b0565b9050806001600160a01b0316846001600160a01b03161480610a2d5750610a2d81856108fc565b806108f45750836001600160a01b0316610a4684610361565b6001600160a01b031614949350505050565b826001600160a01b0316610a6b826106b0565b6001600160a01b031614610a915760405162461bcd60e51b81526004016103fc906117b5565b6001600160a01b038216610af35760405162461bcd60e51b8152602060048201526024808201527f4552433732313a207472616e7366657220746f20746865207a65726f206164646044820152637265737360e01b60648201526084016103fc565b610b008383836001610f6a565b826001600160a01b0316610b13826106b0565b6001600160a01b031614610b395760405162461bcd60e51b81526004016103fc906117b5565b600081815260046020908152604080832080546001600160a01b03199081169091556001600160a01b0387811680865260038552838620805460001901905590871680865283862080546001019055868652600290945282852080549092168417909155905184937fddf252ad1be2c89b69c2b068fc378daa952ba7f163c4a11628f55a4df523b3ef91a4505050565b6001600160a01b038216610c1f5760405162461bcd60e51b815260206004820181905260248201527f4552433732313a206d696e7420746f20746865207a65726f206164647265737360448201526064016103fc565b6000818152600260205260409020546001600160a01b031615610c845760405162461bcd60e51b815260206004820152601c60248201527f4552433732313a20746f6b656e20616c7265616479206d696e7465640000000060448201526064016103fc565b610c92600083836001610f6a565b6000818152600260205260409020546001600160a01b031615610cf75760405162461bcd60e51b815260206004820152601c60248201527f4552433732313a20746f6b656e20616c7265616479206d696e7465640000000060448201526064016103fc565b6001600160a01b038216600081815260036020908152604080832080546001019055848352600290915280822080546001600160a01b0319168417905551839291907fddf252ad1be2c89b69c2b068fc378daa952ba7f163c4a11628f55a4df523b3ef908290a45050565b6000828152600260205260409020546001600160a01b0316610ddd5760405162461bcd60e51b815260206004820152602e60248201527f45524337323155524953746f726167653a2055524920736574206f66206e6f6e60448201526d32bc34b9ba32b73a103a37b5b2b760911b60648201526084016103fc565b600082815260066020526040902061049d82826116c6565b816001600160a01b0316836001600160a01b031603610e565760405162461bcd60e51b815260206004820152601960248201527f4552433732313a20617070726f766520746f2063616c6c65720000000000000060448201526064016103fc565b6001600160a01b03838116600081815260056020908152604080832094871680845294825291829020805460ff191686151590811790915591519182527f17307eab39ab6107e8899845ad3d59bd9653f200f220920489ca2b5937696c31910160405180910390a3505050565b610ece848484610a58565b610eda84848484610ff2565b6107e65760405162461bcd60e51b81526004016103fc906117fa565b6060610f018261092a565b6000610f1860408051602081019091526000815290565b90506000815111610f385760405180602001604052806000815250610f63565b80610f42846110f3565b604051602001610f53929190611786565b6040516020818303038152906040525b9392505050565b60018111156107e6576001600160a01b03841615610fb0576001600160a01b03841660009081526003602052604081208054839290610faa908490611862565b90915550505b6001600160a01b038316156107e6576001600160a01b03831660009081526003602052604081208054839290610fe7908490611875565b909155505050505050565b60006001600160a01b0384163b156110e857604051630a85bd0160e11b81526001600160a01b0385169063150b7a0290611036903390899088908890600401611888565b6020604051808303816000875af1925050508015611071575060408051601f3d908101601f1916820190925261106e918101906118c5565b60015b6110ce573d80801561109f576040519150601f19603f3d011682016040523d82523d6000602084013e6110a4565b606091505b5080516000036110c65760405162461bcd60e51b81526004016103fc906117fa565b805181602001fd5b6001600160e01b031916630a85bd0160e11b1490506108f4565b506001949350505050565b6060600061110083611186565b600101905060008167ffffffffffffffff8111156111205761112061138f565b6040519080825280601f01601f19166020018201604052801561114a576020820181803683370190505b5090508181016020015b600019016f181899199a1a9b1b9c1cb0b131b232b360811b600a86061a8153600a850494508461115457509392505050565b60008072184f03e93ff9f4daa797ed6e38ed64bf6a1f0160401b83106111c55772184f03e93ff9f4daa797ed6e38ed64bf6a1f0160401b830492506040015b6d04ee2d6d415b85acef810000000083106111f1576d04ee2d6d415b85acef8100000000830492506020015b662386f26fc10000831061120f57662386f26fc10000830492506010015b6305f5e1008310611227576305f5e100830492506008015b612710831061123b57612710830492506004015b6064831061124d576064830492506002015b600a83106102c95760010192915050565b6001600160e01b03198116811461098957600080fd5b60006020828403121561128657600080fd5b8135610f638161125e565b60005b838110156112ac578181015183820152602001611294565b50506000910152565b600081518084526112cd816020860160208601611291565b601f01601f19169290920160200192915050565b602081526000610f6360208301846112b5565b60006020828403121561130657600080fd5b5035919050565b80356001600160a01b038116811461132457600080fd5b919050565b6000806040838503121561133c57600080fd5b6113458361130d565b946020939093013593505050565b60008060006060848603121561136857600080fd5b6113718461130d565b925061137f6020850161130d565b9150604084013590509250925092565b634e487b7160e01b600052604160045260246000fd5b600067ffffffffffffffff808411156113c0576113c061138f565b604051601f8501601f19908116603f011681019082821181831017156113e8576113e861138f565b8160405280935085815286868601111561140157600080fd5b858560208301376000602087830101525050509392505050565b6000806000806060858703121561143157600080fd5b84359350602085013567ffffffffffffffff8082111561145057600080fd5b818701915087601f83011261146457600080fd5b611473888335602085016113a5565b9450604087013591508082111561148957600080fd5b818701915087601f83011261149d57600080fd5b8135818111156114ac57600080fd5b8860208285010111156114be57600080fd5b95989497505060200194505050565b6000602082840312156114df57600080fd5b610f638261130d565b801515811461098957600080fd5b6000806040838503121561150957600080fd5b6115128361130d565b91506020830135611522816114e8565b809150509250929050565b6000806000806080858703121561154357600080fd5b61154c8561130d565b935061155a6020860161130d565b925060408501359150606085013567ffffffffffffffff81111561157d57600080fd5b8501601f8101871361158e57600080fd5b61159d878235602084016113a5565b91505092959194509250565b600080604083850312156115bc57600080fd5b6115c58361130d565b91506115d36020840161130d565b90509250929050565b600181811c908216806115f057607f821691505b60208210810361161057634e487b7160e01b600052602260045260246000fd5b50919050565b6020808252602d908201527f4552433732313a2063616c6c6572206973206e6f7420746f6b656e206f776e6560408201526c1c881bdc88185c1c1c9bdd9959609a1b606082015260800190565b60006020828403121561167557600080fd5b8151610f63816114e8565b601f82111561049d57600081815260208120601f850160051c810160208610156116a75750805b601f850160051c820191505b8181101561068d578281556001016116b3565b815167ffffffffffffffff8111156116e0576116e061138f565b6116f4816116ee84546115dc565b84611680565b602080601f83116001811461172957600084156117115750858301515b600019600386901b1c1916600185901b17855561068d565b600085815260208120601f198616915b8281101561175857888601518255948401946001909101908401611739565b50858210156117765787850151600019600388901b60f8161c191681555b5050505050600190811b01905550565b60008351611798818460208801611291565b8351908301906117ac818360208801611291565b01949350505050565b60208082526025908201527f4552433732313a207472616e736665722066726f6d20696e636f72726563742060408201526437bbb732b960d91b606082015260800190565b60208082526032908201527f4552433732313a207472616e7366657220746f206e6f6e20455243373231526560408201527131b2b4bb32b91034b6b83632b6b2b73a32b960711b606082015260800190565b634e487b7160e01b600052601160045260246000fd5b818103818111156102c9576102c961184c565b808201808211156102c9576102c961184c565b6001600160a01b03858116825284166020820152604081018390526080606082018190526000906118bb908301846112b5565b9695505050505050565b6000602082840312156118d757600080fd5b8151610f638161125e56fea2646970667358221220d006463d95bbec34ac1385fb08f12808649e861132c864152acd169d04d26e8a64736f6c63430008110033a26469706673582212207a10a2539d1032af49b3709ebdf990f635d3aac4d98ee9ecfe2107b4f757d14f64736f6c63430008110033",
  "immutableReferences": {},
  "source": "// SPDX-License-Identifier: GPL-3.0\npragma solidity 0.8.17;\n\nimport \"../node_modules/@openzeppelin/contracts/utils/Counters.sol\";\nimport \"./NftProperty.sol\";\nimport \"./NftDigital.sol\";\n\ninterface ICollectorsDAO {\n    function createDAO(string memory _name) external;\n}\n\ncontract Factory {\n    using Counters for Counters.Counter;\n    Counters.Counter public _id;\n\n    event collectionCreated(\n        uint256 collectionId,\n        string collectionName,\n        address propertyCollectionAddress,\n        address digitalCollectionAddress\n    );\n\n    struct Collection {\n        uint256 _collectionId;\n        string _name;\n        address _propertyCollectionAddress;\n        address _digitalCollectionAddress;\n    }\n\n    Collection[] public collections;\n\n    ICollectorsDAO collectorsDAO;\n\n    /// @dev mapping collectionName => collectionAddress\n    mapping(string => address) public collectionsAddress;\n\n    function setDaoAddres(address _addr) public {\n        collectorsDAO = ICollectorsDAO(_addr);\n    }\n\n    function createCollection(\n        string memory _collectionName,\n        string memory _collectionURI,\n        string memory _collectionSymbol\n    ) external returns (address nftPropertyAddr, address nftDigitalAddr) {\n        require(\n            bytes(_collectionName).length > 0,\n            \"collection name should not be null\"\n        );\n        require(\n            bytes(_collectionURI).length > 0,\n            \"collection URI should not be null\"\n        );\n\n        uint256 _collectionId = _id.current();\n\n        NftProperty nftProperty = new NftProperty(\n            _collectionId,\n            _collectionURI\n        );\n        NftDigital nftDigital = new NftDigital(\n            _collectionId,\n            _collectionName,\n            _collectionSymbol\n        );\n\n        Collection memory newCollection;\n        newCollection._collectionId = _collectionId;\n        newCollection._name = _collectionName;\n        newCollection._propertyCollectionAddress = address(nftProperty);\n        newCollection._digitalCollectionAddress = address(nftDigital);\n        collections.push(newCollection);\n\n        collectorsDAO.createDAO(_collectionName);\n\n        emit collectionCreated(\n            _collectionId,\n            _collectionName,\n            address(nftProperty),\n            address(nftDigital)\n        );\n\n        _id.increment();\n\n        return (address(nftProperty), address(nftDigital));\n    }\n}\n",
  "sourcePath": "/Users/jeromejulien/Documents/vscode/FormationAlyra/02_Projets/CollectorChain_TokenizedCollectibles/truffle/contracts/Factory.sol",
  "compiler": {
    "name": "solc",
    "version": "0.8.17+commit.8df45f5f.Emscripten.clang"
  },
  "schemaVersion": "3.4.10",
  "updatedAt": "2022-12-02T12:46:59.334Z",
  "networkType": "ethereum",
  "devdoc": {
    "kind": "dev",
    "methods": {},
    "stateVariables": {
      "collectionsAddress": {
        "details": "mapping collectionName => collectionAddress"
      }
    },
    "version": 1
  },
  "userdoc": {
    "kind": "user",
    "methods": {},
    "version": 1
  }
}