{
  "contractName": "Factory",
  "abi": [
    {
      "inputs": [
        {
          "internalType": "address",
          "name": "daoAddress_",
          "type": "address"
        }
      ],
      "stateMutability": "nonpayable",
      "type": "constructor"
    },
    {
      "anonymous": false,
      "inputs": [
        {
          "indexed": true,
          "internalType": "address",
          "name": "previousOwner",
          "type": "address"
        },
        {
          "indexed": true,
          "internalType": "address",
          "name": "newOwner",
          "type": "address"
        }
      ],
      "name": "OwnershipTransferred",
      "type": "event"
    },
    {
      "anonymous": false,
      "inputs": [
        {
          "indexed": false,
          "internalType": "uint256",
          "name": "collectionId",
          "type": "uint256"
        },
        {
          "indexed": false,
          "internalType": "string",
          "name": "collectionName",
          "type": "string"
        },
        {
          "indexed": false,
          "internalType": "address",
          "name": "propertyCollectionAddress",
          "type": "address"
        },
        {
          "indexed": false,
          "internalType": "address",
          "name": "digitalCollectionAddress",
          "type": "address"
        }
      ],
      "name": "collectionCreated",
      "type": "event"
    },
    {
      "inputs": [],
      "name": "_id",
      "outputs": [
        {
          "internalType": "uint256",
          "name": "_value",
          "type": "uint256"
        }
      ],
      "stateMutability": "view",
      "type": "function",
      "constant": true
    },
    {
      "inputs": [
        {
          "internalType": "uint256",
          "name": "",
          "type": "uint256"
        }
      ],
      "name": "collections",
      "outputs": [
        {
          "internalType": "uint256",
          "name": "_collectionId",
          "type": "uint256"
        },
        {
          "internalType": "string",
          "name": "_name",
          "type": "string"
        },
        {
          "internalType": "address",
          "name": "_propertyCollectionAddress",
          "type": "address"
        },
        {
          "internalType": "address",
          "name": "_digitalCollectionAddress",
          "type": "address"
        }
      ],
      "stateMutability": "view",
      "type": "function",
      "constant": true
    },
    {
      "inputs": [],
      "name": "owner",
      "outputs": [
        {
          "internalType": "address",
          "name": "",
          "type": "address"
        }
      ],
      "stateMutability": "view",
      "type": "function",
      "constant": true
    },
    {
      "inputs": [],
      "name": "renounceOwnership",
      "outputs": [],
      "stateMutability": "nonpayable",
      "type": "function"
    },
    {
      "inputs": [
        {
          "internalType": "address",
          "name": "newOwner",
          "type": "address"
        }
      ],
      "name": "transferOwnership",
      "outputs": [],
      "stateMutability": "nonpayable",
      "type": "function"
    },
    {
      "inputs": [
        {
          "internalType": "string",
          "name": "_collectionName",
          "type": "string"
        },
        {
          "internalType": "string",
          "name": "_collectionURI",
          "type": "string"
        },
        {
          "internalType": "string",
          "name": "_collectionSymbol",
          "type": "string"
        }
      ],
      "name": "createCollection",
      "outputs": [
        {
          "internalType": "address",
          "name": "nftPropertyAddr",
          "type": "address"
        },
        {
          "internalType": "address",
          "name": "nftDigitalAddr",
          "type": "address"
        }
      ],
      "stateMutability": "nonpayable",
      "type": "function"
    }
  ],
  "bytecode": "0x608060405234801561001057600080fd5b50604051615cd9380380615cd983398101604081905261002f916100b7565b61003833610067565b600580546001600160a01b039092166001600160a01b03199283168117909155600480549092161790556100e7565b600080546001600160a01b038381166001600160a01b0319831681178455604051919092169283917f8be0079c531659141344cd1fd0a4f28419497f9722a3daafe3b4186f6b6457e09190a35050565b6000602082840312156100c957600080fd5b81516001600160a01b03811681146100e057600080fd5b9392505050565b615be3806100f66000396000f3fe60806040523480156200001157600080fd5b50600436106200007b5760003560e01c8063ece86c211162000056578063ece86c2114620000d3578063f2fde38b1462000118578063fdbda0ec146200012f57600080fd5b8063051802371462000080578063715018a6146200009e5780638da5cb5b14620000aa575b600080fd5b6001546200008b9081565b6040519081526020015b60405180910390f35b620000a862000158565b005b60005460405173ffffffffffffffffffffffffffffffffffffffff909116815260200162000095565b620000ea620000e436600462000a25565b62000170565b6040805173ffffffffffffffffffffffffffffffffffffffff93841681529290911660208301520162000095565b620000a86200012936600462000ab7565b6200068b565b620001466200014036600462000af6565b62000748565b60405162000095949392919062000b82565b620001626200082f565b6200016e6000620008b2565b565b6000806200017d6200082f565b600085511162000214576040517f08c379a000000000000000000000000000000000000000000000000000000000815260206004820152602260248201527f636f6c6c656374696f6e206e616d652073686f756c64206e6f74206265206e7560448201527f6c6c00000000000000000000000000000000000000000000000000000000000060648201526084015b60405180910390fd5b6000845111620002a7576040517f08c379a000000000000000000000000000000000000000000000000000000000815260206004820152602160248201527f636f6c6c656374696f6e205552492073686f756c64206e6f74206265206e756c60448201527f6c0000000000000000000000000000000000000000000000000000000000000060648201526084016200020b565b600385604051620002b9919062000bcb565b9081526040519081900360200190205460ff161562000335576040517f08c379a000000000000000000000000000000000000000000000000000000000815260206004820152601a60248201527f636f6c6c656374696f6e20616c7265616479206372656174656400000000000060448201526064016200020b565b60006200034160015490565b600554604051879173ffffffffffffffffffffffffffffffffffffffff16906200036b9062000927565b620003799392919062000be9565b604051809103906000f08015801562000396573d6000803e3d6000fd5b5090506000620003a560015490565b6005546040518991889173ffffffffffffffffffffffffffffffffffffffff90911690620003d39062000935565b620003e2949392919062000c2a565b604051809103906000f080158015620003ff573d6000803e3d6000fd5b5090506200045a60405180608001604052806000815260200160608152602001600073ffffffffffffffffffffffffffffffffffffffff168152602001600073ffffffffffffffffffffffffffffffffffffffff1681525090565b6001805482526020820189815273ffffffffffffffffffffffffffffffffffffffff85811660408501528416606084015260028054928301815560005282517f405787fa12a823e0f2b7631cc41b3ba8828b3321ca811111fa75cd3aa3bb5ace6004909302928301908155905183927f405787fa12a823e0f2b7631cc41b3ba8828b3321ca811111fa75cd3aa3bb5acf0190620004f8908262000d29565b506040828101516002830180547fffffffffffffffffffffffff000000000000000000000000000000000000000090811673ffffffffffffffffffffffffffffffffffffffff9384161790915560609094015160039093018054909416928116929092179092556004805492517f4830ebcf0000000000000000000000000000000000000000000000000000000081529290911691634830ebcf91620005a1918c910162000e50565b600060405180830381600087803b158015620005bc57600080fd5b505af1158015620005d1573d6000803e3d6000fd5b505050506001600389604051620005e9919062000bcb565b90815260405190819003602001902080549115157fffffffffffffffffffffffffffffffffffffffffffffffffffffffffffffff009092169190911790557f81032603cc83ea314c740484276d4b1d8e02c0e6c3a997883c4bc72bf84093536200065260015490565b89858560405162000667949392919062000b82565b60405180910390a16200067e600180546001019055565b5090969095509350505050565b620006956200082f565b73ffffffffffffffffffffffffffffffffffffffff81166200073a576040517f08c379a000000000000000000000000000000000000000000000000000000000815260206004820152602660248201527f4f776e61626c653a206e6577206f776e657220697320746865207a65726f206160448201527f646472657373000000000000000000000000000000000000000000000000000060648201526084016200020b565b6200074581620008b2565b50565b600281815481106200075957600080fd5b60009182526020909120600490910201805460018201805491935090620007809062000c81565b80601f0160208091040260200160405190810160405280929190818152602001828054620007ae9062000c81565b8015620007ff5780601f10620007d357610100808354040283529160200191620007ff565b820191906000526020600020905b815481529060010190602001808311620007e157829003601f168201915b505050506002830154600390930154919273ffffffffffffffffffffffffffffffffffffffff9081169216905084565b60005473ffffffffffffffffffffffffffffffffffffffff1633146200016e576040517f08c379a000000000000000000000000000000000000000000000000000000000815260206004820181905260248201527f4f776e61626c653a2063616c6c6572206973206e6f7420746865206f776e657260448201526064016200020b565b6000805473ffffffffffffffffffffffffffffffffffffffff8381167fffffffffffffffffffffffff0000000000000000000000000000000000000000831681178455604051919092169283917f8be0079c531659141344cd1fd0a4f28419497f9722a3daafe3b4186f6b6457e09190a35050565b6127d38062000e6683390190565b612575806200363983390190565b7f4e487b7100000000000000000000000000000000000000000000000000000000600052604160045260246000fd5b600082601f8301126200098457600080fd5b813567ffffffffffffffff80821115620009a257620009a262000943565b604051601f83017fffffffffffffffffffffffffffffffffffffffffffffffffffffffffffffffe0908116603f01168101908282118183101715620009eb57620009eb62000943565b8160405283815286602085880101111562000a0557600080fd5b836020870160208301376000602085830101528094505050505092915050565b60008060006060848603121562000a3b57600080fd5b833567ffffffffffffffff8082111562000a5457600080fd5b62000a628783880162000972565b9450602086013591508082111562000a7957600080fd5b62000a878783880162000972565b9350604086013591508082111562000a9e57600080fd5b5062000aad8682870162000972565b9150509250925092565b60006020828403121562000aca57600080fd5b813573ffffffffffffffffffffffffffffffffffffffff8116811462000aef57600080fd5b9392505050565b60006020828403121562000b0957600080fd5b5035919050565b60005b8381101562000b2d57818101518382015260200162000b13565b50506000910152565b6000815180845262000b5081602086016020860162000b10565b601f017fffffffffffffffffffffffffffffffffffffffffffffffffffffffffffffffe0169290920160200192915050565b84815260806020820152600062000b9d608083018662000b36565b73ffffffffffffffffffffffffffffffffffffffff9485166040840152929093166060909101529392505050565b6000825162000bdf81846020870162000b10565b9190910192915050565b83815260606020820152600062000c04606083018562000b36565b905073ffffffffffffffffffffffffffffffffffffffff83166040830152949350505050565b84815260806020820152600062000c45608083018662000b36565b828103604084015262000c59818662000b36565b91505073ffffffffffffffffffffffffffffffffffffffff8316606083015295945050505050565b600181811c9082168062000c9657607f821691505b60208210810362000cd0577f4e487b7100000000000000000000000000000000000000000000000000000000600052602260045260246000fd5b50919050565b601f82111562000d2457600081815260208120601f850160051c8101602086101562000cff5750805b601f850160051c820191505b8181101562000d205782815560010162000d0b565b5050505b505050565b815167ffffffffffffffff81111562000d465762000d4662000943565b62000d5e8162000d57845462000c81565b8462000cd6565b602080601f83116001811462000db4576000841562000d7d5750858301515b7fffffffffffffffffffffffffffffffffffffffffffffffffffffffffffffffff600386901b1c1916600185901b17855562000d20565b6000858152602081207fffffffffffffffffffffffffffffffffffffffffffffffffffffffffffffffe08616915b8281101562000e035788860151825594840194600190910190840162000de2565b508582101562000e4057878501517fffffffffffffffffffffffffffffffffffffffffffffffffffffffffffffffff600388901b60f8161c191681555b5050505050600190811b01905550565b60208152600062000aef602083018462000b3656fe60a0604052600060809081526003906200001a90826200013b565b503480156200002857600080fd5b50604051620027d3380380620027d38339810160408190526200004b9162000224565b81620000578162000084565b5060079290925550600880546001600160a01b0319166001600160a01b0390921691909117905562000316565b60026200009282826200013b565b5050565b634e487b7160e01b600052604160045260246000fd5b600181811c90821680620000c157607f821691505b602082108103620000e257634e487b7160e01b600052602260045260246000fd5b50919050565b601f8211156200013657600081815260208120601f850160051c81016020861015620001115750805b601f850160051c820191505b8181101562000132578281556001016200011d565b5050505b505050565b81516001600160401b0381111562000157576200015762000096565b6200016f81620001688454620000ac565b84620000e8565b602080601f831160018114620001a757600084156200018e5750858301515b600019600386901b1c1916600185901b17855562000132565b600085815260208120601f198616915b82811015620001d857888601518255948401946001909101908401620001b7565b5085821015620001f75787850151600019600388901b60f8161c191681555b5050505050600190811b01905550565b80516001600160a01b03811681146200021f57600080fd5b919050565b6000806000606084860312156200023a57600080fd5b8351602080860151919450906001600160401b03808211156200025c57600080fd5b818701915087601f8301126200027157600080fd5b81518181111562000286576200028662000096565b604051601f8201601f19908116603f01168101908382118183101715620002b157620002b162000096565b816040528281528a86848701011115620002ca57600080fd5b600093505b82841015620002ee5784840186015181850187015292850192620002cf565b60008684830101528097505050505050506200030d6040850162000207565b90509250925092565b6124ad80620003266000396000f3fe608060405234801561001057600080fd5b50600436106100f45760003560e01c80637c8e7bfe11610097578063e5326ab111610066578063e5326ab1146101fd578063e985e9c514610205578063f242432a1461024e578063fc94041e1461026157600080fd5b80637c8e7bfe146101b45780638296a2e8146101bc578063a22cb465146101c5578063bd269380146101d857600080fd5b80630e89341c116100d35780630e89341c1461014c5780632eb2c2d61461016c5780633c6c13ab146101815780634e1273f41461019457600080fd5b8062fdd58e146100f957806301ffc9a71461011f5780630518023714610142575b600080fd5b61010c610107366004611987565b610274565b6040519081526020015b60405180910390f35b61013261012d3660046119e2565b61033a565b6040519015158152602001610116565b60055461010c9081565b61015f61015a3660046119ff565b61041d565b6040516101169190611a68565b61017f61017a366004611be0565b6104fd565b005b61017f61018f366004611c8a565b6105ac565b6101a76101a2366004611d1a565b6108a2565b6040516101169190611e20565b60075461010c565b61010c60075481565b61017f6101d3366004611e41565b6109e0565b6101eb6101e63660046119ff565b6109ef565b60405161011696959493929190611e78565b61015f610b66565b610132610213366004611ed8565b73ffffffffffffffffffffffffffffffffffffffff918216600090815260016020908152604080832093909416825291909152205460ff1690565b61017f61025c366004611f0b565b610bf4565b61017f61026f366004611f70565b610c9c565b600073ffffffffffffffffffffffffffffffffffffffff83166103045760405162461bcd60e51b815260206004820152602a60248201527f455243313135353a2061646472657373207a65726f206973206e6f742061207660448201527f616c6964206f776e65720000000000000000000000000000000000000000000060648201526084015b60405180910390fd5b5060008181526020818152604080832073ffffffffffffffffffffffffffffffffffffffff861684529091529020545b92915050565b60007fffffffff0000000000000000000000000000000000000000000000000000000082167fd9b67a260000000000000000000000000000000000000000000000000000000014806103cd57507fffffffff0000000000000000000000000000000000000000000000000000000082167f0e89341c00000000000000000000000000000000000000000000000000000000145b8061033457507f01ffc9a7000000000000000000000000000000000000000000000000000000007fffffffff00000000000000000000000000000000000000000000000000000000831614610334565b60008181526004602052604081208054606092919061043b90611fad565b80601f016020809104026020016040519081016040528092919081815260200182805461046790611fad565b80156104b45780601f10610489576101008083540402835291602001916104b4565b820191906000526020600020905b81548152906001019060200180831161049757829003601f168201915b5050505050905060008151116104d2576104cd83610d09565b6104f6565b6003816040516020016104e6929190612000565b6040516020818303038152906040525b9392505050565b73ffffffffffffffffffffffffffffffffffffffff851633148061052657506105268533610213565b6105985760405162461bcd60e51b815260206004820152602e60248201527f455243313135353a2063616c6c6572206973206e6f7420746f6b656e206f776e60448201527f6572206f7220617070726f76656400000000000000000000000000000000000060648201526084016102fb565b6105a58585858585610d9d565b5050505050565b6008546040517f401853b70000000000000000000000000000000000000000000000000000000081526004810188905260009173ffffffffffffffffffffffffffffffffffffffff169063401853b790602401602060405180830381865afa15801561061c573d6000803e3d6000fd5b505050506040513d601f19601f8201168201806040525081019061064091906120a5565b90506001811515146106945760405162461bcd60e51b815260206004820152601860248201527f70726f706f73616c206973206e6f74206163636570746564000000000000000060448201526064016102fb565b600061069f60055490565b6040805160c0810182526007548152602081018381529181018a8152606082018a905273ffffffffffffffffffffffffffffffffffffffff8816608083015260a0820187905260098054600181018255600091909152825160069091027f6e1540171b6c0c960b71a7020d9f60077f6af931a8bbf590da0223dacf75c7af810191825593517f6e1540171b6c0c960b71a7020d9f60077f6af931a8bbf590da0223dacf75c7b08501559051939450909290917f6e1540171b6c0c960b71a7020d9f60077f6af931a8bbf590da0223dacf75c7b1019061077e9082612108565b506060820151600382015560808201516004820180547fffffffffffffffffffffffff00000000000000000000000000000000000000001673ffffffffffffffffffffffffffffffffffffffff90921691909117905560a082015160058201906107e89082612108565b50505061080633828760405180602001604052806000815250611089565b610814600580546001019055565b6008546040517f845c776d000000000000000000000000000000000000000000000000000000008152600481018a905273ffffffffffffffffffffffffffffffffffffffff9091169063845c776d90602401600060405180830381600087803b15801561088057600080fd5b505af1158015610894573d6000803e3d6000fd5b505050505050505050505050565b6060815183511461091b5760405162461bcd60e51b815260206004820152602960248201527f455243313135353a206163636f756e747320616e6420696473206c656e67746860448201527f206d69736d61746368000000000000000000000000000000000000000000000060648201526084016102fb565b6000835167ffffffffffffffff81111561093757610937611a7b565b604051908082528060200260200182016040528015610960578160200160208202803683370190505b50905060005b84518110156109d8576109ab85828151811061098457610984612204565b602002602001015185838151811061099e5761099e612204565b6020026020010151610274565b8282815181106109bd576109bd612204565b60209081029190910101526109d181612262565b9050610966565b509392505050565b6109eb3383836111e0565b5050565b600981815481106109ff57600080fd5b9060005260206000209060060201600091509050806000015490806001015490806002018054610a2e90611fad565b80601f0160208091040260200160405190810160405280929190818152602001828054610a5a90611fad565b8015610aa75780601f10610a7c57610100808354040283529160200191610aa7565b820191906000526020600020905b815481529060010190602001808311610a8a57829003601f168201915b50505050600383015460048401546005850180549495929473ffffffffffffffffffffffffffffffffffffffff909216935090610ae390611fad565b80601f0160208091040260200160405190810160405280929190818152602001828054610b0f90611fad565b8015610b5c5780601f10610b3157610100808354040283529160200191610b5c565b820191906000526020600020905b815481529060010190602001808311610b3f57829003601f168201915b5050505050905086565b60068054610b7390611fad565b80601f0160208091040260200160405190810160405280929190818152602001828054610b9f90611fad565b8015610bec5780601f10610bc157610100808354040283529160200191610bec565b820191906000526020600020905b815481529060010190602001808311610bcf57829003601f168201915b505050505081565b73ffffffffffffffffffffffffffffffffffffffff8516331480610c1d5750610c1d8533610213565b610c8f5760405162461bcd60e51b815260206004820152602e60248201527f455243313135353a2063616c6c6572206973206e6f7420746f6b656e206f776e60448201527f6572206f7220617070726f76656400000000000000000000000000000000000060648201526084016102fb565b6105a58585858585611319565b6000610ca83384610274565b905060008111610cfa5760405162461bcd60e51b815260206004820152600d60248201527f6e6f7420746865206f776e65720000000000000000000000000000000000000060448201526064016102fb565b610d048383611523565b505050565b606060028054610d1890611fad565b80601f0160208091040260200160405190810160405280929190818152602001828054610d4490611fad565b8015610d915780601f10610d6657610100808354040283529160200191610d91565b820191906000526020600020905b815481529060010190602001808311610d7457829003601f168201915b50505050509050919050565b8151835114610e145760405162461bcd60e51b815260206004820152602860248201527f455243313135353a2069647320616e6420616d6f756e7473206c656e6774682060448201527f6d69736d6174636800000000000000000000000000000000000000000000000060648201526084016102fb565b73ffffffffffffffffffffffffffffffffffffffff8416610e9d5760405162461bcd60e51b815260206004820152602560248201527f455243313135353a207472616e7366657220746f20746865207a65726f20616460448201527f647265737300000000000000000000000000000000000000000000000000000060648201526084016102fb565b3360005b8451811015610ff4576000858281518110610ebe57610ebe612204565b602002602001015190506000858381518110610edc57610edc612204565b6020908102919091018101516000848152808352604080822073ffffffffffffffffffffffffffffffffffffffff8e168352909352919091205490915081811015610f8f5760405162461bcd60e51b815260206004820152602a60248201527f455243313135353a20696e73756666696369656e742062616c616e636520666f60448201527f72207472616e736665720000000000000000000000000000000000000000000060648201526084016102fb565b60008381526020818152604080832073ffffffffffffffffffffffffffffffffffffffff8e8116855292528083208585039055908b16825281208054849290610fd990849061229a565b9250508190555050505080610fed90612262565b9050610ea1565b508473ffffffffffffffffffffffffffffffffffffffff168673ffffffffffffffffffffffffffffffffffffffff168273ffffffffffffffffffffffffffffffffffffffff167f4a39dc06d4c0dbc64b70af90fd698a233a518aa5d07e595d983b8c0526c8f7fb878760405161106b9291906122ad565b60405180910390a4611081818787878787611580565b505050505050565b73ffffffffffffffffffffffffffffffffffffffff84166111125760405162461bcd60e51b815260206004820152602160248201527f455243313135353a206d696e7420746f20746865207a65726f2061646472657360448201527f730000000000000000000000000000000000000000000000000000000000000060648201526084016102fb565b33600061111e8561179e565b9050600061112b8561179e565b905060008681526020818152604080832073ffffffffffffffffffffffffffffffffffffffff8b1684529091528120805487929061116a90849061229a565b9091555050604080518781526020810187905273ffffffffffffffffffffffffffffffffffffffff808a1692600092918716917fc3d58168c5ae7397731d063d5bbf3d657854427343f4c083240f7aacaa2d0f62910160405180910390a46111d7836000898989896117e9565b50505050505050565b8173ffffffffffffffffffffffffffffffffffffffff168373ffffffffffffffffffffffffffffffffffffffff16036112815760405162461bcd60e51b815260206004820152602960248201527f455243313135353a2073657474696e6720617070726f76616c2073746174757360448201527f20666f722073656c66000000000000000000000000000000000000000000000060648201526084016102fb565b73ffffffffffffffffffffffffffffffffffffffff83811660008181526001602090815260408083209487168084529482529182902080547fffffffffffffffffffffffffffffffffffffffffffffffffffffffffffffff001686151590811790915591519182527f17307eab39ab6107e8899845ad3d59bd9653f200f220920489ca2b5937696c31910160405180910390a3505050565b73ffffffffffffffffffffffffffffffffffffffff84166113a25760405162461bcd60e51b815260206004820152602560248201527f455243313135353a207472616e7366657220746f20746865207a65726f20616460448201527f647265737300000000000000000000000000000000000000000000000000000060648201526084016102fb565b3360006113ae8561179e565b905060006113bb8561179e565b905060008681526020818152604080832073ffffffffffffffffffffffffffffffffffffffff8c168452909152902054858110156114615760405162461bcd60e51b815260206004820152602a60248201527f455243313135353a20696e73756666696369656e742062616c616e636520666f60448201527f72207472616e736665720000000000000000000000000000000000000000000060648201526084016102fb565b60008781526020818152604080832073ffffffffffffffffffffffffffffffffffffffff8d8116855292528083208985039055908a168252812080548892906114ab90849061229a565b9091555050604080518881526020810188905273ffffffffffffffffffffffffffffffffffffffff808b16928c821692918816917fc3d58168c5ae7397731d063d5bbf3d657854427343f4c083240f7aacaa2d0f62910160405180910390a4611518848a8a8a8a8a6117e9565b505050505050505050565b600082815260046020526040902061153b8282612108565b50817f6bb7ff708619ba0610cba295a58592e0451dee2622938c8755667688daf3529b6115678461041d565b6040516115749190611a68565b60405180910390a25050565b73ffffffffffffffffffffffffffffffffffffffff84163b15611081576040517fbc197c8100000000000000000000000000000000000000000000000000000000815273ffffffffffffffffffffffffffffffffffffffff85169063bc197c81906115f790899089908890889088906004016122db565b6020604051808303816000875af1925050508015611632575060408051601f3d908101601f1916820190925261162f91810190612346565b60015b6116e75761163e612363565b806308c379a003611677575061165261237f565b8061165d5750611679565b8060405162461bcd60e51b81526004016102fb9190611a68565b505b60405162461bcd60e51b815260206004820152603460248201527f455243313135353a207472616e7366657220746f206e6f6e2d4552433131353560448201527f526563656976657220696d706c656d656e74657200000000000000000000000060648201526084016102fb565b7fffffffff0000000000000000000000000000000000000000000000000000000081167fbc197c8100000000000000000000000000000000000000000000000000000000146111d75760405162461bcd60e51b815260206004820152602860248201527f455243313135353a204552433131353552656365697665722072656a6563746560448201527f6420746f6b656e7300000000000000000000000000000000000000000000000060648201526084016102fb565b604080516001808252818301909252606091600091906020808301908036833701905050905082816000815181106117d8576117d8612204565b602090810291909101015292915050565b73ffffffffffffffffffffffffffffffffffffffff84163b15611081576040517ff23a6e6100000000000000000000000000000000000000000000000000000000815273ffffffffffffffffffffffffffffffffffffffff85169063f23a6e61906118609089908990889088908890600401612427565b6020604051808303816000875af192505050801561189b575060408051601f3d908101601f1916820190925261189891810190612346565b60015b6118a75761163e612363565b7fffffffff0000000000000000000000000000000000000000000000000000000081167ff23a6e6100000000000000000000000000000000000000000000000000000000146111d75760405162461bcd60e51b815260206004820152602860248201527f455243313135353a204552433131353552656365697665722072656a6563746560448201527f6420746f6b656e7300000000000000000000000000000000000000000000000060648201526084016102fb565b803573ffffffffffffffffffffffffffffffffffffffff8116811461198257600080fd5b919050565b6000806040838503121561199a57600080fd5b6119a38361195e565b946020939093013593505050565b7fffffffff00000000000000000000000000000000000000000000000000000000811681146119df57600080fd5b50565b6000602082840312156119f457600080fd5b81356104f6816119b1565b600060208284031215611a1157600080fd5b5035919050565b60005b83811015611a33578181015183820152602001611a1b565b50506000910152565b60008151808452611a54816020860160208601611a18565b601f01601f19169290920160200192915050565b6020815260006104f66020830184611a3c565b7f4e487b7100000000000000000000000000000000000000000000000000000000600052604160045260246000fd5b601f19601f830116810181811067ffffffffffffffff82111715611ad057611ad0611a7b565b6040525050565b600067ffffffffffffffff821115611af157611af1611a7b565b5060051b60200190565b600082601f830112611b0c57600080fd5b81356020611b1982611ad7565b604051611b268282611aaa565b83815260059390931b8501820192828101915086841115611b4657600080fd5b8286015b84811015611b615780358352918301918301611b4a565b509695505050505050565b600082601f830112611b7d57600080fd5b813567ffffffffffffffff811115611b9757611b97611a7b565b604051611bae6020601f19601f8501160182611aaa565b818152846020838601011115611bc357600080fd5b816020850160208301376000918101602001919091529392505050565b600080600080600060a08688031215611bf857600080fd5b611c018661195e565b9450611c0f6020870161195e565b9350604086013567ffffffffffffffff80821115611c2c57600080fd5b611c3889838a01611afb565b94506060880135915080821115611c4e57600080fd5b611c5a89838a01611afb565b93506080880135915080821115611c7057600080fd5b50611c7d88828901611b6c565b9150509295509295909350565b60008060008060008060c08789031215611ca357600080fd5b86359550602087013567ffffffffffffffff80821115611cc257600080fd5b611cce8a838b01611b6c565b96506040890135955060608901359450611cea60808a0161195e565b935060a0890135915080821115611d0057600080fd5b50611d0d89828a01611b6c565b9150509295509295509295565b60008060408385031215611d2d57600080fd5b823567ffffffffffffffff80821115611d4557600080fd5b818501915085601f830112611d5957600080fd5b81356020611d6682611ad7565b604051611d738282611aaa565b83815260059390931b8501820192828101915089841115611d9357600080fd5b948201945b83861015611db857611da98661195e565b82529482019490820190611d98565b96505086013592505080821115611dce57600080fd5b50611ddb85828601611afb565b9150509250929050565b600081518084526020808501945080840160005b83811015611e1557815187529582019590820190600101611df9565b509495945050505050565b6020815260006104f66020830184611de5565b80151581146119df57600080fd5b60008060408385031215611e5457600080fd5b611e5d8361195e565b91506020830135611e6d81611e33565b809150509250929050565b86815285602082015260c060408201526000611e9760c0830187611a3c565b85606084015273ffffffffffffffffffffffffffffffffffffffff8516608084015282810360a0840152611ecb8185611a3c565b9998505050505050505050565b60008060408385031215611eeb57600080fd5b611ef48361195e565b9150611f026020840161195e565b90509250929050565b600080600080600060a08688031215611f2357600080fd5b611f2c8661195e565b9450611f3a6020870161195e565b93506040860135925060608601359150608086013567ffffffffffffffff811115611f6457600080fd5b611c7d88828901611b6c565b60008060408385031215611f8357600080fd5b82359150602083013567ffffffffffffffff811115611fa157600080fd5b611ddb85828601611b6c565b600181811c90821680611fc157607f821691505b602082108103611ffa577f4e487b7100000000000000000000000000000000000000000000000000000000600052602260045260246000fd5b50919050565b600080845461200e81611fad565b60018281168015612026576001811461205957612088565b7fffffffffffffffffffffffffffffffffffffffffffffffffffffffffffffff0084168752821515830287019450612088565b8860005260208060002060005b8581101561207f5781548a820152908401908201612066565b50505082870194505b50505050835161209c818360208801611a18565b01949350505050565b6000602082840312156120b757600080fd5b81516104f681611e33565b601f821115610d0457600081815260208120601f850160051c810160208610156120e95750805b601f850160051c820191505b81811015611081578281556001016120f5565b815167ffffffffffffffff81111561212257612122611a7b565b612136816121308454611fad565b846120c2565b602080601f83116001811461218957600084156121535750858301515b7fffffffffffffffffffffffffffffffffffffffffffffffffffffffffffffffff600386901b1c1916600185901b178555611081565b600085815260208120601f198616915b828110156121b857888601518255948401946001909101908401612199565b50858210156121f457878501517fffffffffffffffffffffffffffffffffffffffffffffffffffffffffffffffff600388901b60f8161c191681555b5050505050600190811b01905550565b7f4e487b7100000000000000000000000000000000000000000000000000000000600052603260045260246000fd5b7f4e487b7100000000000000000000000000000000000000000000000000000000600052601160045260246000fd5b60007fffffffffffffffffffffffffffffffffffffffffffffffffffffffffffffffff820361229357612293612233565b5060010190565b8082018082111561033457610334612233565b6040815260006122c06040830185611de5565b82810360208401526122d28185611de5565b95945050505050565b600073ffffffffffffffffffffffffffffffffffffffff808816835280871660208401525060a0604083015261231460a0830186611de5565b82810360608401526123268186611de5565b9050828103608084015261233a8185611a3c565b98975050505050505050565b60006020828403121561235857600080fd5b81516104f6816119b1565b600060033d111561237c5760046000803e5060005160e01c5b90565b600060443d101561238d5790565b6040517ffffffffffffffffffffffffffffffffffffffffffffffffffffffffffffffffc803d016004833e81513d67ffffffffffffffff81602484011181841117156123db57505050505090565b82850191508151818111156123f35750505050505090565b843d870101602082850101111561240d5750505050505090565b61241c60208286010187611aaa565b509095945050505050565b600073ffffffffffffffffffffffffffffffffffffffff808816835280871660208401525084604083015283606083015260a0608083015261246c60a0830184611a3c565b97965050505050505056fea2646970667358221220fc9b6df4963298f6fb8abdefd2f2f59c84c3baa2417f616b9f15735a2b5d8f5d64736f6c6343000811003360806040523480156200001157600080fd5b506040516200257538038062002575833981016040819052620000349162000148565b828260006200004483826200026d565b5060016200005382826200026d565b505050600a939093555050600b80546001600160a01b0319166001600160a01b0390921691909117905562000339565b634e487b7160e01b600052604160045260246000fd5b600082601f830112620000ab57600080fd5b81516001600160401b0380821115620000c857620000c862000083565b604051601f8301601f19908116603f01168101908282118183101715620000f357620000f362000083565b816040528381526020925086838588010111156200011057600080fd5b600091505b8382101562000134578582018301518183018401529082019062000115565b600093810190920192909252949350505050565b600080600080608085870312156200015f57600080fd5b845160208601519094506001600160401b03808211156200017f57600080fd5b6200018d8883890162000099565b94506040870151915080821115620001a457600080fd5b50620001b38782880162000099565b606087015190935090506001600160a01b0381168114620001d357600080fd5b939692955090935050565b600181811c90821680620001f357607f821691505b6020821081036200021457634e487b7160e01b600052602260045260246000fd5b50919050565b601f8211156200026857600081815260208120601f850160051c81016020861015620002435750805b601f850160051c820191505b8181101562000264578281556001016200024f565b5050505b505050565b81516001600160401b0381111562000289576200028962000083565b620002a1816200029a8454620001de565b846200021a565b602080601f831160018114620002d95760008415620002c05750858301515b600019600386901b1c1916600185901b17855562000264565b600085815260208120601f198616915b828110156200030a57888601518255948401946001909101908401620002e9565b5085821015620003295787850151600019600388901b60f8161c191681555b5050505050600190811b01905550565b61222c80620003496000396000f3fe608060405234801561001057600080fd5b50600436106101005760003560e01c80636352211e11610097578063a22cb46511610066578063a22cb46514610231578063b88d4fde14610244578063c87b56dd14610257578063e985e9c51461026a57600080fd5b80636352211e146101e057806370a08231146101f3578063777f09e21461020657806395d89b411461022957600080fd5b8063095ea7b3116100d3578063095ea7b31461019257806323b872dd146101a75780633ab6ad61146101ba57806342842e0e146101cd57600080fd5b806301ffc9a714610105578063051802371461012d57806306fdde0314610145578063081812fc1461015a575b600080fd5b610118610113366004611afa565b6102b3565b60405190151581526020015b60405180910390f35b6007546101379081565b604051908152602001610124565b61014d610398565b6040516101249190611b85565b61016d610168366004611b98565b61042a565b60405173ffffffffffffffffffffffffffffffffffffffff9091168152602001610124565b6101a56101a0366004611bda565b61045e565b005b6101a56101b5366004611c04565b6105e6565b6101a56101c8366004611d23565b61066d565b6101a56101db366004611c04565b610919565b61016d6101ee366004611b98565b610934565b610137610201366004611de9565b6109a6565b610219610214366004611b98565b610a5a565b6040516101249493929190611e04565b61014d610baa565b6101a561023f366004611e4e565b610bb9565b6101a5610252366004611e85565b610bc8565b61014d610265366004611b98565b610c56565b610118610278366004611f01565b73ffffffffffffffffffffffffffffffffffffffff918216600090815260056020908152604080832093909416825291909152205460ff1690565b60007fffffffff0000000000000000000000000000000000000000000000000000000082167f80ac58cd00000000000000000000000000000000000000000000000000000000148061034657507fffffffff0000000000000000000000000000000000000000000000000000000082167f5b5e139f00000000000000000000000000000000000000000000000000000000145b8061039257507f01ffc9a7000000000000000000000000000000000000000000000000000000007fffffffff000000000000000000000000000000000000000000000000000000008316145b92915050565b6060600080546103a790611f34565b80601f01602080910402602001604051908101604052809291908181526020018280546103d390611f34565b80156104205780601f106103f557610100808354040283529160200191610420565b820191906000526020600020905b81548152906001019060200180831161040357829003601f168201915b5050505050905090565b600061043582610d66565b5060009081526004602052604090205473ffffffffffffffffffffffffffffffffffffffff1690565b600061046982610934565b90508073ffffffffffffffffffffffffffffffffffffffff168373ffffffffffffffffffffffffffffffffffffffff16036105115760405162461bcd60e51b815260206004820152602160248201527f4552433732313a20617070726f76616c20746f2063757272656e74206f776e6560448201527f720000000000000000000000000000000000000000000000000000000000000060648201526084015b60405180910390fd5b3373ffffffffffffffffffffffffffffffffffffffff82161480610565575073ffffffffffffffffffffffffffffffffffffffff8116600090815260056020908152604080832033845290915290205460ff165b6105d75760405162461bcd60e51b815260206004820152603d60248201527f4552433732313a20617070726f76652063616c6c6572206973206e6f7420746f60448201527f6b656e206f776e6572206f7220617070726f76656420666f7220616c6c0000006064820152608401610508565b6105e18383610dda565b505050565b6105f03382610e7a565b6106625760405162461bcd60e51b815260206004820152602d60248201527f4552433732313a2063616c6c6572206973206e6f7420746f6b656e206f776e6560448201527f72206f7220617070726f766564000000000000000000000000000000000000006064820152608401610508565b6105e1838383610f39565b600b546040517f401853b70000000000000000000000000000000000000000000000000000000081526004810187905260009173ffffffffffffffffffffffffffffffffffffffff169063401853b790602401602060405180830381865afa1580156106dd573d6000803e3d6000fd5b505050506040513d601f19601f820116820180604052508101906107019190611f87565b90506001811515146107555760405162461bcd60e51b815260206004820152601860248201527f70726f706f73616c206973206e6f7420616363657074656400000000000000006044820152606401610508565b600061076060075490565b60408051608081018252600a5481526020810183815291810189815260608201879052600c8054600181018255600091909152825160049091027fdf6966c971051c3d54ec59162606531493a51404a002842f56009d7e5cf4a8c7810191825593517fdf6966c971051c3d54ec59162606531493a51404a002842f56009d7e5cf4a8c88501559051939450909290917fdf6966c971051c3d54ec59162606531493a51404a002842f56009d7e5cf4a8c9019061081c9082611ff2565b50606082015160038201906108319082611ff2565b50505061083e33826111f3565b61087e8186868080601f0160208091040260200160405190810160405280939291908181526020018383808284376000920191909152506113d892505050565b61088c600780546001019055565b600b546040517f259a44660000000000000000000000000000000000000000000000000000000081526004810189905273ffffffffffffffffffffffffffffffffffffffff9091169063259a446690602401600060405180830381600087803b1580156108f857600080fd5b505af115801561090c573d6000803e3d6000fd5b5050505050505050505050565b6105e183838360405180602001604052806000815250610bc8565b60008181526002602052604081205473ffffffffffffffffffffffffffffffffffffffff16806103925760405162461bcd60e51b815260206004820152601860248201527f4552433732313a20696e76616c696420746f6b656e20494400000000000000006044820152606401610508565b600073ffffffffffffffffffffffffffffffffffffffff8216610a315760405162461bcd60e51b815260206004820152602960248201527f4552433732313a2061646472657373207a65726f206973206e6f74206120766160448201527f6c6964206f776e657200000000000000000000000000000000000000000000006064820152608401610508565b5073ffffffffffffffffffffffffffffffffffffffff1660009081526003602052604090205490565b600c8181548110610a6a57600080fd5b9060005260206000209060040201600091509050806000015490806001015490806002018054610a9990611f34565b80601f0160208091040260200160405190810160405280929190818152602001828054610ac590611f34565b8015610b125780601f10610ae757610100808354040283529160200191610b12565b820191906000526020600020905b815481529060010190602001808311610af557829003601f168201915b505050505090806003018054610b2790611f34565b80601f0160208091040260200160405190810160405280929190818152602001828054610b5390611f34565b8015610ba05780601f10610b7557610100808354040283529160200191610ba0565b820191906000526020600020905b815481529060010190602001808311610b8357829003601f168201915b5050505050905084565b6060600180546103a790611f34565b610bc4338383611487565b5050565b610bd23383610e7a565b610c445760405162461bcd60e51b815260206004820152602d60248201527f4552433732313a2063616c6c6572206973206e6f7420746f6b656e206f776e6560448201527f72206f7220617070726f766564000000000000000000000000000000000000006064820152608401610508565b610c508484848461159a565b50505050565b6060610c6182610d66565b60008281526006602052604081208054610c7a90611f34565b80601f0160208091040260200160405190810160405280929190818152602001828054610ca690611f34565b8015610cf35780601f10610cc857610100808354040283529160200191610cf3565b820191906000526020600020905b815481529060010190602001808311610cd657829003601f168201915b505050505090506000610d1160408051602081019091526000815290565b90508051600003610d23575092915050565b815115610d55578082604051602001610d3d92919061210c565b60405160208183030381529060405292505050919050565b610d5e84611623565b949350505050565b60008181526002602052604090205473ffffffffffffffffffffffffffffffffffffffff16610dd75760405162461bcd60e51b815260206004820152601860248201527f4552433732313a20696e76616c696420746f6b656e20494400000000000000006044820152606401610508565b50565b600081815260046020526040902080547fffffffffffffffffffffffff00000000000000000000000000000000000000001673ffffffffffffffffffffffffffffffffffffffff84169081179091558190610e3482610934565b73ffffffffffffffffffffffffffffffffffffffff167f8c5be1e5ebec7d5bd14f71427d1e84f3dd0314c0f7b2291e5b200ac8c7c3b92560405160405180910390a45050565b600080610e8683610934565b90508073ffffffffffffffffffffffffffffffffffffffff168473ffffffffffffffffffffffffffffffffffffffff161480610ef4575073ffffffffffffffffffffffffffffffffffffffff80821660009081526005602090815260408083209388168352929052205460ff165b80610d5e57508373ffffffffffffffffffffffffffffffffffffffff16610f1a8461042a565b73ffffffffffffffffffffffffffffffffffffffff1614949350505050565b8273ffffffffffffffffffffffffffffffffffffffff16610f5982610934565b73ffffffffffffffffffffffffffffffffffffffff1614610fe25760405162461bcd60e51b815260206004820152602560248201527f4552433732313a207472616e736665722066726f6d20696e636f72726563742060448201527f6f776e65720000000000000000000000000000000000000000000000000000006064820152608401610508565b73ffffffffffffffffffffffffffffffffffffffff821661106a5760405162461bcd60e51b8152602060048201526024808201527f4552433732313a207472616e7366657220746f20746865207a65726f2061646460448201527f72657373000000000000000000000000000000000000000000000000000000006064820152608401610508565b6110778383836001611697565b8273ffffffffffffffffffffffffffffffffffffffff1661109782610934565b73ffffffffffffffffffffffffffffffffffffffff16146111205760405162461bcd60e51b815260206004820152602560248201527f4552433732313a207472616e736665722066726f6d20696e636f72726563742060448201527f6f776e65720000000000000000000000000000000000000000000000000000006064820152608401610508565b600081815260046020908152604080832080547fffffffffffffffffffffffff000000000000000000000000000000000000000090811690915573ffffffffffffffffffffffffffffffffffffffff8781168086526003855283862080547fffffffffffffffffffffffffffffffffffffffffffffffffffffffffffffffff01905590871680865283862080546001019055868652600290945282852080549092168417909155905184937fddf252ad1be2c89b69c2b068fc378daa952ba7f163c4a11628f55a4df523b3ef91a4505050565b73ffffffffffffffffffffffffffffffffffffffff82166112565760405162461bcd60e51b815260206004820181905260248201527f4552433732313a206d696e7420746f20746865207a65726f20616464726573736044820152606401610508565b60008181526002602052604090205473ffffffffffffffffffffffffffffffffffffffff16156112c85760405162461bcd60e51b815260206004820152601c60248201527f4552433732313a20746f6b656e20616c7265616479206d696e746564000000006044820152606401610508565b6112d6600083836001611697565b60008181526002602052604090205473ffffffffffffffffffffffffffffffffffffffff16156113485760405162461bcd60e51b815260206004820152601c60248201527f4552433732313a20746f6b656e20616c7265616479206d696e746564000000006044820152606401610508565b73ffffffffffffffffffffffffffffffffffffffff8216600081815260036020908152604080832080546001019055848352600290915280822080547fffffffffffffffffffffffff0000000000000000000000000000000000000000168417905551839291907fddf252ad1be2c89b69c2b068fc378daa952ba7f163c4a11628f55a4df523b3ef908290a45050565b60008281526002602052604090205473ffffffffffffffffffffffffffffffffffffffff1661146f5760405162461bcd60e51b815260206004820152602e60248201527f45524337323155524953746f726167653a2055524920736574206f66206e6f6e60448201527f6578697374656e7420746f6b656e0000000000000000000000000000000000006064820152608401610508565b60008281526006602052604090206105e18282611ff2565b8173ffffffffffffffffffffffffffffffffffffffff168373ffffffffffffffffffffffffffffffffffffffff16036115025760405162461bcd60e51b815260206004820152601960248201527f4552433732313a20617070726f766520746f2063616c6c6572000000000000006044820152606401610508565b73ffffffffffffffffffffffffffffffffffffffff83811660008181526005602090815260408083209487168084529482529182902080547fffffffffffffffffffffffffffffffffffffffffffffffffffffffffffffff001686151590811790915591519182527f17307eab39ab6107e8899845ad3d59bd9653f200f220920489ca2b5937696c31910160405180910390a3505050565b6115a5848484610f39565b6115b184848484611753565b610c505760405162461bcd60e51b815260206004820152603260248201527f4552433732313a207472616e7366657220746f206e6f6e20455243373231526560448201527f63656976657220696d706c656d656e74657200000000000000000000000000006064820152608401610508565b606061162e82610d66565b600061164560408051602081019091526000815290565b905060008151116116655760405180602001604052806000815250611690565b8061166f8461192c565b60405160200161168092919061210c565b6040516020818303038152906040525b9392505050565b6001811115610c505773ffffffffffffffffffffffffffffffffffffffff8416156116f75773ffffffffffffffffffffffffffffffffffffffff8416600090815260036020526040812080548392906116f190849061216a565b90915550505b73ffffffffffffffffffffffffffffffffffffffff831615610c505773ffffffffffffffffffffffffffffffffffffffff83166000908152600360205260408120805483929061174890849061217d565b909155505050505050565b600073ffffffffffffffffffffffffffffffffffffffff84163b15611921576040517f150b7a0200000000000000000000000000000000000000000000000000000000815273ffffffffffffffffffffffffffffffffffffffff85169063150b7a02906117ca903390899088908890600401612190565b6020604051808303816000875af1925050508015611823575060408051601f3d9081017fffffffffffffffffffffffffffffffffffffffffffffffffffffffffffffffe0168201909252611820918101906121d9565b60015b6118d6573d808015611851576040519150601f19603f3d011682016040523d82523d6000602084013e611856565b606091505b5080516000036118ce5760405162461bcd60e51b815260206004820152603260248201527f4552433732313a207472616e7366657220746f206e6f6e20455243373231526560448201527f63656976657220696d706c656d656e74657200000000000000000000000000006064820152608401610508565b805181602001fd5b7fffffffff00000000000000000000000000000000000000000000000000000000167f150b7a0200000000000000000000000000000000000000000000000000000000149050610d5e565b506001949350505050565b60606000611939836119ea565b600101905060008167ffffffffffffffff81111561195957611959611c40565b6040519080825280601f01601f191660200182016040528015611983576020820181803683370190505b5090508181016020015b7fffffffffffffffffffffffffffffffffffffffffffffffffffffffffffffffff017f3031323334353637383961626364656600000000000000000000000000000000600a86061a8153600a850494508461198d57509392505050565b6000807a184f03e93ff9f4daa797ed6e38ed64bf6a1f0100000000000000008310611a33577a184f03e93ff9f4daa797ed6e38ed64bf6a1f010000000000000000830492506040015b6d04ee2d6d415b85acef81000000008310611a5f576d04ee2d6d415b85acef8100000000830492506020015b662386f26fc100008310611a7d57662386f26fc10000830492506010015b6305f5e1008310611a95576305f5e100830492506008015b6127108310611aa957612710830492506004015b60648310611abb576064830492506002015b600a83106103925760010192915050565b7fffffffff0000000000000000000000000000000000000000000000000000000081168114610dd757600080fd5b600060208284031215611b0c57600080fd5b813561169081611acc565b60005b83811015611b32578181015183820152602001611b1a565b50506000910152565b60008151808452611b53816020860160208601611b17565b601f017fffffffffffffffffffffffffffffffffffffffffffffffffffffffffffffffe0169290920160200192915050565b6020815260006116906020830184611b3b565b600060208284031215611baa57600080fd5b5035919050565b803573ffffffffffffffffffffffffffffffffffffffff81168114611bd557600080fd5b919050565b60008060408385031215611bed57600080fd5b611bf683611bb1565b946020939093013593505050565b600080600060608486031215611c1957600080fd5b611c2284611bb1565b9250611c3060208501611bb1565b9150604084013590509250925092565b7f4e487b7100000000000000000000000000000000000000000000000000000000600052604160045260246000fd5b600067ffffffffffffffff80841115611c8a57611c8a611c40565b604051601f85017fffffffffffffffffffffffffffffffffffffffffffffffffffffffffffffffe0908116603f01168101908282118183101715611cd057611cd0611c40565b81604052809350858152868686011115611ce957600080fd5b858560208301376000602087830101525050509392505050565b600082601f830112611d1457600080fd5b61169083833560208501611c6f565b600080600080600060808688031215611d3b57600080fd5b85359450602086013567ffffffffffffffff80821115611d5a57600080fd5b611d6689838a01611d03565b95506040880135915080821115611d7c57600080fd5b818801915088601f830112611d9057600080fd5b813581811115611d9f57600080fd5b896020828501011115611db157600080fd5b602083019550809450506060880135915080821115611dcf57600080fd5b50611ddc88828901611d03565b9150509295509295909350565b600060208284031215611dfb57600080fd5b61169082611bb1565b848152836020820152608060408201526000611e236080830185611b3b565b8281036060840152611e358185611b3b565b979650505050505050565b8015158114610dd757600080fd5b60008060408385031215611e6157600080fd5b611e6a83611bb1565b91506020830135611e7a81611e40565b809150509250929050565b60008060008060808587031215611e9b57600080fd5b611ea485611bb1565b9350611eb260208601611bb1565b925060408501359150606085013567ffffffffffffffff811115611ed557600080fd5b8501601f81018713611ee657600080fd5b611ef587823560208401611c6f565b91505092959194509250565b60008060408385031215611f1457600080fd5b611f1d83611bb1565b9150611f2b60208401611bb1565b90509250929050565b600181811c90821680611f4857607f821691505b602082108103611f81577f4e487b7100000000000000000000000000000000000000000000000000000000600052602260045260246000fd5b50919050565b600060208284031215611f9957600080fd5b815161169081611e40565b601f8211156105e157600081815260208120601f850160051c81016020861015611fcb5750805b601f850160051c820191505b81811015611fea57828155600101611fd7565b505050505050565b815167ffffffffffffffff81111561200c5761200c611c40565b6120208161201a8454611f34565b84611fa4565b602080601f831160018114612073576000841561203d5750858301515b7fffffffffffffffffffffffffffffffffffffffffffffffffffffffffffffffff600386901b1c1916600185901b178555611fea565b6000858152602081207fffffffffffffffffffffffffffffffffffffffffffffffffffffffffffffffe08616915b828110156120c0578886015182559484019460019091019084016120a1565b50858210156120fc57878501517fffffffffffffffffffffffffffffffffffffffffffffffffffffffffffffffff600388901b60f8161c191681555b5050505050600190811b01905550565b6000835161211e818460208801611b17565b835190830190612132818360208801611b17565b01949350505050565b7f4e487b7100000000000000000000000000000000000000000000000000000000600052601160045260246000fd5b818103818111156103925761039261213b565b808201808211156103925761039261213b565b600073ffffffffffffffffffffffffffffffffffffffff8087168352808616602084015250836040830152608060608301526121cf6080830184611b3b565b9695505050505050565b6000602082840312156121eb57600080fd5b815161169081611acc56fea2646970667358221220ebfcc02a9cadf9cfc9e1502ef79a83350fc3302e43f4fe9b9df7baa4d913b0b864736f6c63430008110033a264697066735822122013c95c2f9d44dac780784c00b8d4ea56bafa8211df989e6593c80b32d42dbb0f64736f6c63430008110033",
  "immutableReferences": {},
  "source": "// SPDX-License-Identifier: GPL-3.0\npragma solidity 0.8.17;\n\nimport \"../node_modules/@openzeppelin/contracts/utils/Counters.sol\";\nimport \"../node_modules/@openzeppelin/contracts/access/Ownable.sol\";\nimport \"./NftProperty.sol\";\nimport \"./NftDigital.sol\";\n\ninterface ICollectorsDAO {\n    function createDAO(string memory _name) external;\n}\n\n/// @notice This contract manage the creation of new type of object collection on collectorChain\n/// @notice each collection creation will create : 1 sub dao, 1 ERC1155collection (propertt nft), 1 ERC721 collection(digital nft)\n/// @dev subDao, 1155 and 721 collection will be linked by a unique id for each colllction\ncontract Factory is Ownable {\n    using Counters for Counters.Counter;\n    Counters.Counter public _id;\n\n    event collectionCreated(\n        uint256 collectionId,\n        string collectionName,\n        address propertyCollectionAddress,\n        address digitalCollectionAddress\n    );\n\n    /// @dev main information stored for each collections\n    struct Collection {\n        uint256 _collectionId;\n        string _name;\n        address _propertyCollectionAddress;\n        address _digitalCollectionAddress;\n    }\n\n    Collection[] public collections;\n\n    /// @dev used to avoid twice collection in createCollection require\n    mapping(string => bool) collectionName;\n\n    ICollectorsDAO collectorsDAO;\n\n    address daoContractAddress;\n\n    /// @dev get the dao contract address to be able to create subDao\n    constructor(address daoAddress_) {\n        daoContractAddress = daoAddress_;\n        collectorsDAO = ICollectorsDAO(daoAddress_);\n    }\n\n    /// @notice function that create the subDao, 1155 and 721 collection\n    /// @notice only owner of the contract can do it\n    /// @param _collectionName Type of object\n    /// @param _collectionURI URI for 1155 collection\n    /// @param _collectionSymbol symbol of the token for the collection. Should be the same for all the collections\n    function createCollection(\n        string memory _collectionName,\n        string memory _collectionURI,\n        string memory _collectionSymbol\n    )\n        external\n        onlyOwner\n        returns (address nftPropertyAddr, address nftDigitalAddr)\n    {\n        require(\n            bytes(_collectionName).length > 0,\n            \"collection name should not be null\"\n        );\n        require(\n            bytes(_collectionURI).length > 0,\n            \"collection URI should not be null\"\n        );\n        require(\n            collectionName[_collectionName] == false,\n            \"collection already created\"\n        );\n\n        NftProperty nftProperty = new NftProperty(\n            _id.current(),\n            _collectionURI,\n            daoContractAddress\n        );\n        NftDigital nftDigital = new NftDigital(\n            _id.current(),\n            _collectionName,\n            _collectionSymbol,\n            daoContractAddress\n        );\n\n        Collection memory newCollection;\n        newCollection._collectionId = _id.current();\n        newCollection._name = _collectionName;\n        newCollection._propertyCollectionAddress = address(nftProperty);\n        newCollection._digitalCollectionAddress = address(nftDigital);\n        collections.push(newCollection);\n\n        collectorsDAO.createDAO(_collectionName);\n\n        collectionName[_collectionName] = true;\n\n        emit collectionCreated(\n            _id.current(),\n            _collectionName,\n            address(nftProperty),\n            address(nftDigital)\n        );\n\n        _id.increment();\n\n        return (address(nftProperty), address(nftDigital));\n    }\n}\n",
  "sourcePath": "/Users/jeromejulien/Documents/vscode/FormationAlyra/02_Projets/CollectorChain_TokenizedCollectibles/truffle/contracts/Factory.sol",
  "compiler": {
    "name": "solc",
    "version": "0.8.17+commit.8df45f5f.Emscripten.clang"
  },
  "schemaVersion": "3.4.10",
  "updatedAt": "2022-12-11T16:59:50.826Z",
  "networkType": "ethereum",
  "devdoc": {
    "details": "subDao, 1155 and 721 collection will be linked by a unique id for each colllction",
    "kind": "dev",
    "methods": {
      "constructor": {
        "details": "get the dao contract address to be able to create subDao"
      },
      "createCollection(string,string,string)": {
        "params": {
          "_collectionName": "Type of object",
          "_collectionSymbol": "symbol of the token for the collection. Should be the same for all the collections",
          "_collectionURI": "URI for 1155 collection"
        }
      },
      "owner()": {
        "details": "Returns the address of the current owner."
      },
      "renounceOwnership()": {
        "details": "Leaves the contract without owner. It will not be possible to call `onlyOwner` functions anymore. Can only be called by the current owner. NOTE: Renouncing ownership will leave the contract without an owner, thereby removing any functionality that is only available to the owner."
      },
      "transferOwnership(address)": {
        "details": "Transfers ownership of the contract to a new account (`newOwner`). Can only be called by the current owner."
      }
    },
    "stateVariables": {
      "collectionName": {
        "details": "used to avoid twice collection in createCollection require"
      }
    },
    "version": 1
  },
  "userdoc": {
    "kind": "user",
    "methods": {
      "createCollection(string,string,string)": {
        "notice": "function that create the subDao, 1155 and 721 collectiononly owner of the contract can do it"
      }
    },
    "notice": "This contract manage the creation of new type of object collection on collectorChaineach collection creation will create : 1 sub dao, 1 ERC1155collection (propertt nft), 1 ERC721 collection(digital nft)",
    "version": 1
  }
}