{
  "contractName": "MarketPlace",
  "abi": [
    {
      "anonymous": false,
      "inputs": [
        {
          "indexed": true,
          "internalType": "address",
          "name": "previousOwner",
          "type": "address"
        },
        {
          "indexed": true,
          "internalType": "address",
          "name": "newOwner",
          "type": "address"
        }
      ],
      "name": "OwnershipTransferred",
      "type": "event"
    },
    {
      "anonymous": false,
      "inputs": [
        {
          "indexed": false,
          "internalType": "uint256",
          "name": "valueReceived",
          "type": "uint256"
        }
      ],
      "name": "etherReceived",
      "type": "event"
    },
    {
      "inputs": [
        {
          "internalType": "address",
          "name": "",
          "type": "address"
        },
        {
          "internalType": "uint256",
          "name": "",
          "type": "uint256"
        },
        {
          "internalType": "address",
          "name": "",
          "type": "address"
        }
      ],
      "name": "itemToSellByIdByAddress",
      "outputs": [
        {
          "internalType": "uint256",
          "name": "",
          "type": "uint256"
        }
      ],
      "stateMutability": "view",
      "type": "function",
      "constant": true
    },
    {
      "inputs": [],
      "name": "owner",
      "outputs": [
        {
          "internalType": "address",
          "name": "",
          "type": "address"
        }
      ],
      "stateMutability": "view",
      "type": "function",
      "constant": true
    },
    {
      "inputs": [],
      "name": "platformFee",
      "outputs": [
        {
          "internalType": "uint256",
          "name": "",
          "type": "uint256"
        }
      ],
      "stateMutability": "view",
      "type": "function",
      "constant": true
    },
    {
      "inputs": [],
      "name": "renounceOwnership",
      "outputs": [],
      "stateMutability": "nonpayable",
      "type": "function"
    },
    {
      "inputs": [
        {
          "internalType": "address",
          "name": "",
          "type": "address"
        },
        {
          "internalType": "uint256",
          "name": "",
          "type": "uint256"
        },
        {
          "internalType": "address",
          "name": "",
          "type": "address"
        }
      ],
      "name": "sellingPriceByIdByAddress",
      "outputs": [
        {
          "internalType": "uint256",
          "name": "",
          "type": "uint256"
        }
      ],
      "stateMutability": "view",
      "type": "function",
      "constant": true
    },
    {
      "inputs": [
        {
          "internalType": "address",
          "name": "newOwner",
          "type": "address"
        }
      ],
      "name": "transferOwnership",
      "outputs": [],
      "stateMutability": "nonpayable",
      "type": "function"
    },
    {
      "stateMutability": "payable",
      "type": "receive",
      "payable": true
    },
    {
      "inputs": [
        {
          "internalType": "address",
          "name": "_collectionAddress",
          "type": "address"
        },
        {
          "internalType": "uint256",
          "name": "_itemId",
          "type": "uint256"
        },
        {
          "internalType": "uint256",
          "name": "_sellingPrice",
          "type": "uint256"
        },
        {
          "internalType": "uint256",
          "name": "_quantityToSell",
          "type": "uint256"
        }
      ],
      "name": "putPropertyForSell",
      "outputs": [],
      "stateMutability": "nonpayable",
      "type": "function"
    },
    {
      "inputs": [
        {
          "internalType": "address",
          "name": "_collectionAddress",
          "type": "address"
        },
        {
          "internalType": "uint256",
          "name": "_itemId",
          "type": "uint256"
        },
        {
          "internalType": "uint256",
          "name": "_quantityToBuy",
          "type": "uint256"
        },
        {
          "internalType": "address",
          "name": "_seller",
          "type": "address"
        }
      ],
      "name": "buyPropertyItem",
      "outputs": [],
      "stateMutability": "payable",
      "type": "function",
      "payable": true
    },
    {
      "inputs": [],
      "name": "getContractBalance",
      "outputs": [
        {
          "internalType": "uint256",
          "name": "contractBalance",
          "type": "uint256"
        }
      ],
      "stateMutability": "view",
      "type": "function",
      "constant": true
    }
  ],
  "bytecode": "0x6080604052601960015534801561001557600080fd5b5061001f33610024565b610074565b600080546001600160a01b038381166001600160a01b0319831681178455604051919092169283917f8be0079c531659141344cd1fd0a4f28419497f9722a3daafe3b4186f6b6457e09190a35050565b610a48806100836000396000f3fe60806040526004361061008a5760003560e01c80632a3f5b79116100595780632a3f5b79146101905780636f9fb98a146101a3578063715018a6146101b65780638da5cb5b146101cb578063f2fde38b146101f357600080fd5b806314b403ea146100c957806316919622146100eb578063246dec0e1461013c57806326232a2e1461017a57600080fd5b366100c4576040513481527f699e21c8b7091f6cb2dc2f2653d170e400fa469381b6b0441201d78664cbf34e9060200160405180910390a1005b600080fd5b3480156100d557600080fd5b506100e96100e43660046108a1565b610213565b005b3480156100f757600080fd5b506101296101063660046108da565b600260209081526000938452604080852082529284528284209052825290205481565b6040519081526020015b60405180910390f35b34801561014857600080fd5b506101296101573660046108da565b600360209081526000938452604080852082529284528284209052825290205481565b34801561018657600080fd5b5061012960015481565b6100e961019e366004610916565b6103ba565b3480156101af57600080fd5b5047610129565b3480156101c257600080fd5b506100e961074e565b3480156101d757600080fd5b506000546040516001600160a01b039091168152602001610133565b3480156101ff57600080fd5b506100e961020e36600461095c565b610762565b604051627eeac760e11b815233600482015260248101849052849082906001600160a01b0383169062fdd58e90604401602060405180830381865afa158015610260573d6000803e3d6000fd5b505050506040513d601f19601f82011682018060405250810190610284919061097e565b116102d65760405162461bcd60e51b815260206004820152601760248201527f6e6f7420656e6f756768206974656d20746f2073656c6c00000000000000000060448201526064015b60405180910390fd5b6001600160a01b03851660009081526002602090815260408083208784528252808320338452909152812080548492906103119084906109ad565b90915550610329905083670de0b6b3a76400006109c6565b6001600160a01b03868116600090815260036020908152604080832089845282528083203384529091529081902092909255905163a22cb46560e01b8152306004820152600160248201529082169063a22cb46590604401600060405180830381600087803b15801561039b57600080fd5b505af11580156103af573d6000803e3d6000fd5b505050505050505050565b6001600160a01b03808516600090815260026020908152604080832087845282528083209385168352929052205482106104425760405162461bcd60e51b8152602060048201526024808201527f73656c6c657220646f65736e2774206861766520656e6f75676874207175616e6044820152637469747960e01b60648201526084016102cd565b6001600160a01b038085166000908152600360209081526040808320878452825280832093851683529290529081205461047c90846109c6565b90508034146104d75760405162461bcd60e51b815260206004820152602160248201527f796f75206861766520746f2073656e642074686520657861637420616d6f756e6044820152601d60fa1b60648201526084016102cd565b60006103e86001546103e86104ec91906109dd565b6104f690346109c6565b61050091906109f0565b905060006103e86001543461051591906109c6565b61051f91906109f0565b90506000846001600160a01b03168360405160006040518083038185875af1925050503d806000811461056e576040519150601f19603f3d011682016040523d82523d6000602084013e610573565b606091505b50509050806105d45760405162461bcd60e51b815260206004820152602760248201527f6661696c656420746f2070617920746865207472616e73616374696f6e20746f6044820152661039b2b63632b960c91b60648201526084016102cd565b604051600090309084908381818185875af1925050503d8060008114610616576040519150601f19603f3d011682016040523d82523d6000602084013e61061b565b606091505b505090508061067e5760405162461bcd60e51b815260206004820152602960248201527f6661696c656420746f2070617920746865207472616e73616374696f6e20746f6044820152680818dbdb9d1c9858dd60ba1b60648201526084016102cd565b604051637921219560e11b81526001600160a01b038781166004830152336024830152604482018a90526064820189905260a06084830152600060a48301528a919082169063f242432a9060c401600060405180830381600087803b1580156106e657600080fd5b505af11580156106fa573d6000803e3d6000fd5b505050506001600160a01b038a811660009081526002602090815260408083208d84528252808320938b16835292905290812080548a929061073d9084906109dd565b909155505050505050505050505050565b6107566107db565b6107606000610835565b565b61076a6107db565b6001600160a01b0381166107cf5760405162461bcd60e51b815260206004820152602660248201527f4f776e61626c653a206e6577206f776e657220697320746865207a65726f206160448201526564647265737360d01b60648201526084016102cd565b6107d881610835565b50565b6000546001600160a01b031633146107605760405162461bcd60e51b815260206004820181905260248201527f4f776e61626c653a2063616c6c6572206973206e6f7420746865206f776e657260448201526064016102cd565b600080546001600160a01b038381166001600160a01b0319831681178455604051919092169283917f8be0079c531659141344cd1fd0a4f28419497f9722a3daafe3b4186f6b6457e09190a35050565b80356001600160a01b038116811461089c57600080fd5b919050565b600080600080608085870312156108b757600080fd5b6108c085610885565b966020860135965060408601359560600135945092505050565b6000806000606084860312156108ef57600080fd5b6108f884610885565b92506020840135915061090d60408501610885565b90509250925092565b6000806000806080858703121561092c57600080fd5b61093585610885565b9350602085013592506040850135915061095160608601610885565b905092959194509250565b60006020828403121561096e57600080fd5b61097782610885565b9392505050565b60006020828403121561099057600080fd5b5051919050565b634e487b7160e01b600052601160045260246000fd5b808201808211156109c0576109c0610997565b92915050565b80820281158282048414176109c0576109c0610997565b818103818111156109c0576109c0610997565b600082610a0d57634e487b7160e01b600052601260045260246000fd5b50049056fea2646970667358221220551e0d69d6bdef21ad8229eb8f3bfbef4b056b56e67a468265d9b504698b8ae464736f6c63430008110033",
  "immutableReferences": {},
  "source": "// SPDX-License-Identifier: GPL-3.0\npragma solidity 0.8.17;\n\n// import \"@openzeppelin/contracts/token/ERC1155/utils/ERC1155Holder.sol\";\nimport \"../node_modules/@openzeppelin/contracts/access/Ownable.sol\";\n\ninterface NftProperty {\n    function safeTransferFrom(\n        address from,\n        address to,\n        uint256 id,\n        uint256 amount,\n        bytes calldata data\n    ) external;\n\n    function balanceOf(address account, uint256 id)\n        external\n        view\n        returns (uint256);\n\n    function setApprovalForAll(address operator, bool approved) external;\n}\n\ncontract MarketPlace is Ownable {\n    /// @notice fees collected by the platform on each sale. To be devided by 1000 to get the percentage\n    uint256 public platformFee = 25;\n\n    /// @notice give the amount of item to sell by 'id' and by owner 'address'\n    /// @dev collectionAddress => tokenId => userAddress => quantity to sell\n    mapping(address => mapping(uint256 => mapping(address => uint256)))\n        public itemToSellByIdByAddress;\n    /// @notice give the price of item to sell by 'id' and by owner 'address'\n    /// @dev collectionAddress => tokenId => userAddress => selling price\n    mapping(address => mapping(uint256 => mapping(address => uint256)))\n        public sellingPriceByIdByAddress;\n\n    event etherReceived(uint256 valueReceived);\n\n    /// @notice : set a quantity of type 'itemId' of token in selling at a '_sellingPrice'\n    /// @notice : The function call method from the concerned collection by instantiating the good contract with the deployement address\n    /// @dev require 1 ==> check if msg.sender is the owner\n    /// @dev require 2 ==> check if user balance is enough\n    /// @dev set an approval for the contract\n    function putPropertyForSell(\n        address _collectionAddress,\n        uint256 _itemId,\n        uint256 _sellingPrice,\n        uint256 _quantityToSell\n    ) public {\n        NftProperty nftProperty;\n        nftProperty = NftProperty(_collectionAddress);\n        require(\n            nftProperty.balanceOf(msg.sender, _itemId) > _quantityToSell,\n            \"not enough item to sell\"\n        );\n        itemToSellByIdByAddress[_collectionAddress][_itemId][\n            msg.sender\n        ] += _quantityToSell;\n        sellingPriceByIdByAddress[_collectionAddress][_itemId][msg.sender] =\n            _sellingPrice *\n            10**18;\n        nftProperty.setApprovalForAll(address(this), true);\n        // nftProperty.safeTransferFrom(msg.sender, address(this), _itemId, _quantityToSell,\"\");\n    }\n\n    /// @notice : but a 'quantity' of item of type 'itemId' to the 'seller'\n    /// @dev require 1 ==> check if seller has enought item to sell\n    /// @dev require 2 ==> check if buyer send the good amount of eth\n    /// @dev require 3 ==> check the eth transfer to 'seller'\n    function buyPropertyItem(\n        address _collectionAddress,\n        uint256 _itemId,\n        uint256 _quantityToBuy,\n        address _seller\n    ) public payable {\n        require(\n            _quantityToBuy <\n                itemToSellByIdByAddress[_collectionAddress][_itemId][_seller],\n            \"seller doesn't have enought quantity\"\n        );\n        uint256 totalBuyingAmount = _quantityToBuy *\n            sellingPriceByIdByAddress[_collectionAddress][_itemId][_seller];\n        require(\n            msg.value == totalBuyingAmount,\n            \"you have to send the exact amount\"\n        );\n        // transfer of ETH\n        uint256 amountToSeller = (msg.value * (1000 - (platformFee))) / 1000;\n        uint256 amountToPlatform = (msg.value * (platformFee)) / 1000;\n        (bool sentToSeller, ) = payable(_seller).call{value: amountToSeller}(\n            \"\"\n        );\n        require(sentToSeller, \"failed to pay the transaction to seller\");\n        (bool sentToPlatform, ) = payable(address(this)).call{\n            value: amountToPlatform\n        }(\"\");\n        require(sentToPlatform, \"failed to pay the transaction to contract\");\n        // Tranfer of ERC1155\n        NftProperty nftProperty;\n        nftProperty = NftProperty(_collectionAddress);\n        nftProperty.safeTransferFrom(\n            _seller,\n            msg.sender,\n            _itemId,\n            _quantityToBuy,\n            \"\"\n        );\n        // update of seller balance\n        itemToSellByIdByAddress[_collectionAddress][_itemId][\n            _seller\n        ] -= _quantityToBuy;\n    }\n\n    function getContractBalance()\n        public\n        view\n        returns (uint256 contractBalance)\n    {\n        return address(this).balance;\n    }\n\n    receive() external payable {\n        emit etherReceived(msg.value);\n    }\n}\n",
  "sourcePath": "/Users/jeromejulien/Documents/vscode/FormationAlyra/02_Projets/CollectorChain_TokenizedCollectibles/truffle/contracts/MarketPlace.sol",
  "compiler": {
    "name": "solc",
    "version": "0.8.17+commit.8df45f5f.Emscripten.clang"
  },
  "schemaVersion": "3.4.10",
  "updatedAt": "2022-12-06T20:41:18.708Z",
  "networkType": "ethereum",
  "devdoc": {
    "kind": "dev",
    "methods": {
      "buyPropertyItem(address,uint256,uint256,address)": {
        "details": "require 1 ==> check if seller has enought item to sellrequire 2 ==> check if buyer send the good amount of ethrequire 3 ==> check the eth transfer to 'seller'"
      },
      "owner()": {
        "details": "Returns the address of the current owner."
      },
      "putPropertyForSell(address,uint256,uint256,uint256)": {
        "details": "require 1 ==> check if msg.sender is the ownerrequire 2 ==> check if user balance is enoughset an approval for the contract"
      },
      "renounceOwnership()": {
        "details": "Leaves the contract without owner. It will not be possible to call `onlyOwner` functions anymore. Can only be called by the current owner. NOTE: Renouncing ownership will leave the contract without an owner, thereby removing any functionality that is only available to the owner."
      },
      "transferOwnership(address)": {
        "details": "Transfers ownership of the contract to a new account (`newOwner`). Can only be called by the current owner."
      }
    },
    "stateVariables": {
      "itemToSellByIdByAddress": {
        "details": "collectionAddress => tokenId => userAddress => quantity to sell"
      },
      "sellingPriceByIdByAddress": {
        "details": "collectionAddress => tokenId => userAddress => selling price"
      }
    },
    "version": 1
  },
  "userdoc": {
    "kind": "user",
    "methods": {
      "buyPropertyItem(address,uint256,uint256,address)": {
        "notice": ": but a 'quantity' of item of type 'itemId' to the 'seller'"
      },
      "itemToSellByIdByAddress(address,uint256,address)": {
        "notice": "give the amount of item to sell by 'id' and by owner 'address'"
      },
      "platformFee()": {
        "notice": "fees collected by the platform on each sale. To be devided by 1000 to get the percentage"
      },
      "putPropertyForSell(address,uint256,uint256,uint256)": {
        "notice": ": set a quantity of type 'itemId' of token in selling at a '_sellingPrice': The function call method from the concerned collection by instantiating the good contract with the deployement address"
      },
      "sellingPriceByIdByAddress(address,uint256,address)": {
        "notice": "give the price of item to sell by 'id' and by owner 'address'"
      }
    },
    "version": 1
  }
}