{
  "contractName": "MarketPlace",
  "abi": [
    {
      "anonymous": false,
      "inputs": [
        {
          "indexed": true,
          "internalType": "address",
          "name": "previousOwner",
          "type": "address"
        },
        {
          "indexed": true,
          "internalType": "address",
          "name": "newOwner",
          "type": "address"
        }
      ],
      "name": "OwnershipTransferred",
      "type": "event"
    },
    {
      "anonymous": false,
      "inputs": [
        {
          "indexed": false,
          "internalType": "uint256",
          "name": "valueReceived",
          "type": "uint256"
        }
      ],
      "name": "etherReceived",
      "type": "event"
    },
    {
      "anonymous": false,
      "inputs": [
        {
          "indexed": false,
          "internalType": "uint256",
          "name": "collectionId",
          "type": "uint256"
        },
        {
          "indexed": false,
          "internalType": "uint256",
          "name": "nftId",
          "type": "uint256"
        },
        {
          "indexed": false,
          "internalType": "string",
          "name": "name",
          "type": "string"
        },
        {
          "indexed": false,
          "internalType": "address",
          "name": "seller",
          "type": "address"
        },
        {
          "indexed": false,
          "internalType": "uint256",
          "name": "quantityOnSell",
          "type": "uint256"
        },
        {
          "indexed": false,
          "internalType": "uint256",
          "name": "price",
          "type": "uint256"
        },
        {
          "indexed": false,
          "internalType": "string",
          "name": "image",
          "type": "string"
        }
      ],
      "name": "propertyPutOnSell",
      "type": "event"
    },
    {
      "anonymous": false,
      "inputs": [
        {
          "indexed": false,
          "internalType": "uint256",
          "name": "collectionId",
          "type": "uint256"
        },
        {
          "indexed": false,
          "internalType": "uint256",
          "name": "nftId",
          "type": "uint256"
        },
        {
          "indexed": false,
          "internalType": "address",
          "name": "seller",
          "type": "address"
        },
        {
          "indexed": false,
          "internalType": "uint256",
          "name": "quantity",
          "type": "uint256"
        }
      ],
      "name": "propertySold",
      "type": "event"
    },
    {
      "inputs": [
        {
          "internalType": "address",
          "name": "",
          "type": "address"
        },
        {
          "internalType": "uint256",
          "name": "",
          "type": "uint256"
        },
        {
          "internalType": "address",
          "name": "",
          "type": "address"
        }
      ],
      "name": "itemToSellByIdByAddress",
      "outputs": [
        {
          "internalType": "uint256",
          "name": "",
          "type": "uint256"
        }
      ],
      "stateMutability": "view",
      "type": "function",
      "constant": true
    },
    {
      "inputs": [],
      "name": "owner",
      "outputs": [
        {
          "internalType": "address",
          "name": "",
          "type": "address"
        }
      ],
      "stateMutability": "view",
      "type": "function",
      "constant": true
    },
    {
      "inputs": [],
      "name": "platformFee",
      "outputs": [
        {
          "internalType": "uint256",
          "name": "",
          "type": "uint256"
        }
      ],
      "stateMutability": "view",
      "type": "function",
      "constant": true
    },
    {
      "inputs": [],
      "name": "renounceOwnership",
      "outputs": [],
      "stateMutability": "nonpayable",
      "type": "function"
    },
    {
      "inputs": [
        {
          "internalType": "address",
          "name": "",
          "type": "address"
        },
        {
          "internalType": "uint256",
          "name": "",
          "type": "uint256"
        },
        {
          "internalType": "address",
          "name": "",
          "type": "address"
        }
      ],
      "name": "sellingPriceByIdByAddress",
      "outputs": [
        {
          "internalType": "uint256",
          "name": "",
          "type": "uint256"
        }
      ],
      "stateMutability": "view",
      "type": "function",
      "constant": true
    },
    {
      "inputs": [
        {
          "internalType": "address",
          "name": "newOwner",
          "type": "address"
        }
      ],
      "name": "transferOwnership",
      "outputs": [],
      "stateMutability": "nonpayable",
      "type": "function"
    },
    {
      "stateMutability": "payable",
      "type": "receive",
      "payable": true
    },
    {
      "inputs": [
        {
          "internalType": "address",
          "name": "_collectionAddress",
          "type": "address"
        }
      ],
      "name": "approvePropertyForSell",
      "outputs": [],
      "stateMutability": "nonpayable",
      "type": "function"
    },
    {
      "inputs": [
        {
          "internalType": "address",
          "name": "_collectionAddress",
          "type": "address"
        },
        {
          "internalType": "uint256",
          "name": "_itemId",
          "type": "uint256"
        },
        {
          "internalType": "string",
          "name": "_name",
          "type": "string"
        },
        {
          "internalType": "uint256",
          "name": "_sellingPrice",
          "type": "uint256"
        },
        {
          "internalType": "uint256",
          "name": "_quantityToSell",
          "type": "uint256"
        },
        {
          "internalType": "string",
          "name": "_image",
          "type": "string"
        }
      ],
      "name": "putPropertyForSell",
      "outputs": [],
      "stateMutability": "nonpayable",
      "type": "function"
    },
    {
      "inputs": [
        {
          "internalType": "address",
          "name": "_collectionAddress",
          "type": "address"
        },
        {
          "internalType": "uint256",
          "name": "_itemId",
          "type": "uint256"
        },
        {
          "internalType": "uint256",
          "name": "_quantityToBuy",
          "type": "uint256"
        },
        {
          "internalType": "address",
          "name": "_seller",
          "type": "address"
        }
      ],
      "name": "buyPropertyItem",
      "outputs": [],
      "stateMutability": "payable",
      "type": "function",
      "payable": true
    },
    {
      "inputs": [],
      "name": "getContractBalance",
      "outputs": [
        {
          "internalType": "uint256",
          "name": "contractBalance",
          "type": "uint256"
        }
      ],
      "stateMutability": "view",
      "type": "function",
      "constant": true
    }
  ],
  "bytecode": "0x6080604052605b60015534801561001557600080fd5b5061001f33610024565b610074565b600080546001600160a01b038381166001600160a01b0319831681178455604051919092169283917f8be0079c531659141344cd1fd0a4f28419497f9722a3daafe3b4186f6b6457e09190a35050565b61106c806100836000396000f3fe6080604052600436106100b55760003560e01c8063715018a6116100695780639d25198d1161004e5780639d25198d1461020b578063c97879451461022b578063f2fde38b1461024b57600080fd5b8063715018a6146101c15780638da5cb5b146101d657600080fd5b806326232a2e1161009a57806326232a2e146101835780632a3f5b79146101995780636f9fb98a146101ae57600080fd5b806316919622146100f4578063246dec0e1461014557600080fd5b366100ef576040513481527f699e21c8b7091f6cb2dc2f2653d170e400fa469381b6b0441201d78664cbf34e9060200160405180910390a1005b600080fd5b34801561010057600080fd5b5061013261010f366004610c97565b600260209081526000938452604080852082529284528284209052825290205481565b6040519081526020015b60405180910390f35b34801561015157600080fd5b50610132610160366004610c97565b600360209081526000938452604080852082529284528284209052825290205481565b34801561018f57600080fd5b5061013260015481565b6101ac6101a7366004610cd3565b61026b565b005b3480156101ba57600080fd5b5047610132565b3480156101cd57600080fd5b506101ac6107d2565b3480156101e257600080fd5b5060005460405173ffffffffffffffffffffffffffffffffffffffff909116815260200161013c565b34801561021757600080fd5b506101ac610226366004610d19565b6107e6565b34801561023757600080fd5b506101ac610246366004610e15565b610872565b34801561025757600080fd5b506101ac610266366004610d19565b610ac1565b73ffffffffffffffffffffffffffffffffffffffff80851660009081526002602090815260408083208784528252808320938516835292905220548210610338576040517f08c379a0000000000000000000000000000000000000000000000000000000008152602060048201526024808201527f73656c6c657220646f65736e2774206861766520656e6f75676874207175616e60448201527f746974790000000000000000000000000000000000000000000000000000000060648201526084015b60405180910390fd5b73ffffffffffffffffffffffffffffffffffffffff8085166000908152600360209081526040808320878452825280832093851683529290529081205461037f9084610ed4565b90508034116103ea576040517f08c379a000000000000000000000000000000000000000000000000000000000815260206004820152601b60248201527f796f75206861766520746f2073656e6420656e6f756768206574680000000000604482015260640161032f565b60006103e86001546103e86103ff9190610ef1565b6104099034610ed4565b6104139190610f04565b905060006103e8600154346104289190610ed4565b6104329190610f04565b905060008473ffffffffffffffffffffffffffffffffffffffff168360405160006040518083038185875af1925050503d806000811461048e576040519150601f19603f3d011682016040523d82523d6000602084013e610493565b606091505b5050905080610524576040517f08c379a000000000000000000000000000000000000000000000000000000000815260206004820152602760248201527f6661696c656420746f2070617920746865207472616e73616374696f6e20746f60448201527f2073656c6c657200000000000000000000000000000000000000000000000000606482015260840161032f565b604051600090309084908381818185875af1925050503d8060008114610566576040519150601f19603f3d011682016040523d82523d6000602084013e61056b565b606091505b50509050806105fc576040517f08c379a000000000000000000000000000000000000000000000000000000000815260206004820152602960248201527f6661696c656420746f2070617920746865207472616e73616374696f6e20746f60448201527f20636f6e74726163740000000000000000000000000000000000000000000000606482015260840161032f565b6040517ff242432a00000000000000000000000000000000000000000000000000000000815273ffffffffffffffffffffffffffffffffffffffff8781166004830152336024830152604482018a90526064820189905260a06084830152600060a48301528a919082169063f242432a9060c401600060405180830381600087803b15801561068a57600080fd5b505af115801561069e573d6000803e3d6000fd5b5050505060008173ffffffffffffffffffffffffffffffffffffffff16637c8e7bfe6040518163ffffffff1660e01b8152600401602060405180830381865afa1580156106ef573d6000803e3d6000fd5b505050506040513d601f19601f820116820180604052508101906107139190610f3f565b73ffffffffffffffffffffffffffffffffffffffff808d1660009081526002602090815260408083208f84528252808320938d16835292905290812080549293508b92909190610764908490610ef1565b909155505060408051828152602081018c905273ffffffffffffffffffffffffffffffffffffffff8a1681830152606081018b905290517f9eff7eafba3af09ade0ff8971cd51ce8ab3273ae77ec90370be519db3a02ccd99181900360800190a15050505050505050505050565b6107da610b78565b6107e46000610bf9565b565b6040517fa22cb46500000000000000000000000000000000000000000000000000000000815230600482015260016024820152819073ffffffffffffffffffffffffffffffffffffffff82169063a22cb46590604401600060405180830381600087803b15801561085657600080fd5b505af115801561086a573d6000803e3d6000fd5b505050505050565b6040517efdd58e000000000000000000000000000000000000000000000000000000008152336004820152602481018690528690839073ffffffffffffffffffffffffffffffffffffffff83169062fdd58e90604401602060405180830381865afa1580156108e5573d6000803e3d6000fd5b505050506040513d601f19601f820116820180604052508101906109099190610f3f565b1015610971576040517f08c379a000000000000000000000000000000000000000000000000000000000815260206004820152601760248201527f6e6f7420656e6f756768206974656d20746f2073656c6c000000000000000000604482015260640161032f565b73ffffffffffffffffffffffffffffffffffffffff871660009081526002602090815260408083208984528252808320338452909152812080548592906109b9908490610f58565b909155505073ffffffffffffffffffffffffffffffffffffffff80881660009081526003602090815260408083208a84528252808320338452825280832088905580517f7c8e7bfe00000000000000000000000000000000000000000000000000000000815290519293851692637c8e7bfe926004808401939192918290030181865afa158015610a4e573d6000803e3d6000fd5b505050506040513d601f19601f82011682018060405250810190610a729190610f3f565b90507f6e8750b86182d9ec65203a9bf479c6545c5649f7fefaa06b7dccab8e8640ea0081888833888a89604051610aaf9796959493929190610fcf565b60405180910390a15050505050505050565b610ac9610b78565b73ffffffffffffffffffffffffffffffffffffffff8116610b6c576040517f08c379a000000000000000000000000000000000000000000000000000000000815260206004820152602660248201527f4f776e61626c653a206e6577206f776e657220697320746865207a65726f206160448201527f6464726573730000000000000000000000000000000000000000000000000000606482015260840161032f565b610b7581610bf9565b50565b60005473ffffffffffffffffffffffffffffffffffffffff1633146107e4576040517f08c379a000000000000000000000000000000000000000000000000000000000815260206004820181905260248201527f4f776e61626c653a2063616c6c6572206973206e6f7420746865206f776e6572604482015260640161032f565b6000805473ffffffffffffffffffffffffffffffffffffffff8381167fffffffffffffffffffffffff0000000000000000000000000000000000000000831681178455604051919092169283917f8be0079c531659141344cd1fd0a4f28419497f9722a3daafe3b4186f6b6457e09190a35050565b803573ffffffffffffffffffffffffffffffffffffffff81168114610c9257600080fd5b919050565b600080600060608486031215610cac57600080fd5b610cb584610c6e565b925060208401359150610cca60408501610c6e565b90509250925092565b60008060008060808587031215610ce957600080fd5b610cf285610c6e565b93506020850135925060408501359150610d0e60608601610c6e565b905092959194509250565b600060208284031215610d2b57600080fd5b610d3482610c6e565b9392505050565b7f4e487b7100000000000000000000000000000000000000000000000000000000600052604160045260246000fd5b600082601f830112610d7b57600080fd5b813567ffffffffffffffff80821115610d9657610d96610d3b565b604051601f83017fffffffffffffffffffffffffffffffffffffffffffffffffffffffffffffffe0908116603f01168101908282118183101715610ddc57610ddc610d3b565b81604052838152866020858801011115610df557600080fd5b836020870160208301376000602085830101528094505050505092915050565b60008060008060008060c08789031215610e2e57600080fd5b610e3787610c6e565b955060208701359450604087013567ffffffffffffffff80821115610e5b57600080fd5b610e678a838b01610d6a565b9550606089013594506080890135935060a0890135915080821115610e8b57600080fd5b50610e9889828a01610d6a565b9150509295509295509295565b7f4e487b7100000000000000000000000000000000000000000000000000000000600052601160045260246000fd5b8082028115828204841417610eeb57610eeb610ea5565b92915050565b81810381811115610eeb57610eeb610ea5565b600082610f3a577f4e487b7100000000000000000000000000000000000000000000000000000000600052601260045260246000fd5b500490565b600060208284031215610f5157600080fd5b5051919050565b80820180821115610eeb57610eeb610ea5565b6000815180845260005b81811015610f9157602081850181015186830182015201610f75565b5060006020828601015260207fffffffffffffffffffffffffffffffffffffffffffffffffffffffffffffffe0601f83011685010191505092915050565b87815286602082015260e060408201526000610fee60e0830188610f6b565b73ffffffffffffffffffffffffffffffffffffffff871660608401528560808401528460a084015282810360c08401526110288185610f6b565b9a995050505050505050505056fea26469706673582212200208619e4e76be4c51842e3f0cbaee5603aa9fc31a94db61ee1a754aab25662664736f6c63430008110033",
  "immutableReferences": {},
  "source": "// SPDX-License-Identifier: GPL-3.0\npragma solidity 0.8.17;\n\n// import \"@openzeppelin/contracts/token/ERC1155/utils/ERC1155Holder.sol\";\nimport \"../node_modules/@openzeppelin/contracts/access/Ownable.sol\";\n\ninterface NftProperty {\n    function safeTransferFrom(\n        address from,\n        address to,\n        uint256 id,\n        uint256 amount,\n        bytes calldata data\n    ) external;\n\n    function balanceOf(address account, uint256 id)\n        external\n        view\n        returns (uint256);\n\n    function setApprovalForAll(address operator, bool approved) external;\n\n    function getCollectionId() external view returns (uint256);\n}\n\n/// @notice contract in charge of manage buying and selling action from the users\n/// @notice (for jury) only 1155 buy & sell is managed. 721 still to do\ncontract MarketPlace is Ownable {\n    /// @notice fees collected by the platform on each sale\n    /// @notice targeted fee in 10% for the buyer\n    /// @dev this % will be applied on selling price+10%. It will give the equivalent to 10% on selling price\n    uint256 public platformFee = 91;\n\n    /// @notice give the amount of item to sell by 'id' and by owner 'address'\n    /// @dev collectionAddress => tokenId => userAddress => quantity to sell\n    mapping(address => mapping(uint256 => mapping(address => uint256)))\n        public itemToSellByIdByAddress;\n    /// @notice give the price of item to sell by 'id' and by owner 'address'\n    /// @dev collectionAddress => tokenId => userAddress => selling price\n    mapping(address => mapping(uint256 => mapping(address => uint256)))\n        public sellingPriceByIdByAddress;\n\n    event etherReceived(uint256 valueReceived);\n\n    event propertyPutOnSell(\n        uint256 collectionId,\n        uint256 nftId,\n        string name,\n        address seller,\n        uint256 quantityOnSell,\n        uint256 price,\n        string image\n    );\n\n    event propertySold(\n        uint256 collectionId,\n        uint256 nftId,\n        address seller,\n        uint256 quantity\n    );\n\n    /// @notice action require before put in sell a property nft\n    /// @dev send an approval to the good 1155 contract\n    function approvePropertyForSell(address _collectionAddress) external {\n        NftProperty nftProperty;\n        nftProperty = NftProperty(_collectionAddress);\n\n        nftProperty.setApprovalForAll(address(this), true);\n    }\n\n    /// @notice : set a quantity of type 'itemId' of token in selling at a '_sellingPrice'\n    /// @notice : The function call method from the concerned collection by instantiating the good contract with the deployement address\n    /// @dev require 1 ==> check if msg.sender is the owner\n    /// @dev require 2 ==> check if user balance is enough\n    /// @dev set an approval for the contract\n    function putPropertyForSell(\n        address _collectionAddress,\n        uint256 _itemId,\n        string memory _name,\n        uint256 _sellingPrice,\n        uint256 _quantityToSell,\n        string memory _image\n    ) external {\n        NftProperty nftProperty;\n        nftProperty = NftProperty(_collectionAddress);\n        require(\n            nftProperty.balanceOf(msg.sender, _itemId) >= _quantityToSell,\n            \"not enough item to sell\"\n        );\n        itemToSellByIdByAddress[_collectionAddress][_itemId][\n            msg.sender\n        ] += _quantityToSell;\n        sellingPriceByIdByAddress[_collectionAddress][_itemId][\n            msg.sender\n        ] = _sellingPrice;\n\n        uint256 collectionId = nftProperty.getCollectionId();\n\n        emit propertyPutOnSell(\n            collectionId,\n            _itemId,\n            _name,\n            msg.sender,\n            _quantityToSell,\n            _sellingPrice,\n            _image\n        );\n    }\n\n    /// @notice : but a 'quantity' of item of type 'itemId' to the 'seller'\n    /// @dev require 1 ==> check if seller has enought item to sell\n    /// @dev require 2 ==> check if buyer send enough eth (exact amount is calculated on front end)\n    /// @dev require 3 ==> check the eth transfer to 'seller'\n    function buyPropertyItem(\n        address _collectionAddress,\n        uint256 _itemId,\n        uint256 _quantityToBuy,\n        address _seller\n    ) external payable {\n        require(\n            _quantityToBuy <\n                itemToSellByIdByAddress[_collectionAddress][_itemId][_seller],\n            \"seller doesn't have enought quantity\"\n        );\n        uint256 totalBuyingAmount = _quantityToBuy *\n            sellingPriceByIdByAddress[_collectionAddress][_itemId][_seller];\n        require(msg.value > totalBuyingAmount, \"you have to send enough eth\");\n        // transfer of ETH\n        uint256 amountToSeller = (msg.value * (1000 - (platformFee))) / 1000;\n        uint256 amountToPlatform = (msg.value * (platformFee)) / 1000;\n        (bool sentToSeller, ) = payable(_seller).call{value: amountToSeller}(\n            \"\"\n        );\n        require(sentToSeller, \"failed to pay the transaction to seller\");\n        (bool sentToPlatform, ) = payable(address(this)).call{\n            value: amountToPlatform\n        }(\"\");\n        require(sentToPlatform, \"failed to pay the transaction to contract\");\n        // Tranfer of ERC1155\n        NftProperty nftProperty;\n        nftProperty = NftProperty(_collectionAddress);\n        nftProperty.safeTransferFrom(\n            _seller,\n            msg.sender,\n            _itemId,\n            _quantityToBuy,\n            \"\"\n        );\n        uint256 _collectionId = nftProperty.getCollectionId();\n        // update of seller balance\n        itemToSellByIdByAddress[_collectionAddress][_itemId][\n            _seller\n        ] -= _quantityToBuy;\n\n        emit propertySold(_collectionId, _itemId, _seller, _quantityToBuy);\n    }\n\n    function getContractBalance()\n        external\n        view\n        returns (uint256 contractBalance)\n    {\n        return address(this).balance;\n    }\n\n    receive() external payable {\n        emit etherReceived(msg.value);\n    }\n}\n",
  "sourcePath": "/Users/jeromejulien/Documents/vscode/FormationAlyra/02_Projets/CollectorChain_TokenizedCollectibles/truffle/contracts/MarketPlace.sol",
  "compiler": {
    "name": "solc",
    "version": "0.8.17+commit.8df45f5f.Emscripten.clang"
  },
  "schemaVersion": "3.4.10",
  "updatedAt": "2022-12-11T16:20:34.812Z",
  "networkType": "ethereum",
  "devdoc": {
    "kind": "dev",
    "methods": {
      "approvePropertyForSell(address)": {
        "details": "send an approval to the good 1155 contract"
      },
      "buyPropertyItem(address,uint256,uint256,address)": {
        "details": "require 1 ==> check if seller has enought item to sellrequire 2 ==> check if buyer send enough eth (exact amount is calculated on front end)require 3 ==> check the eth transfer to 'seller'"
      },
      "owner()": {
        "details": "Returns the address of the current owner."
      },
      "putPropertyForSell(address,uint256,string,uint256,uint256,string)": {
        "details": "require 1 ==> check if msg.sender is the ownerrequire 2 ==> check if user balance is enoughset an approval for the contract"
      },
      "renounceOwnership()": {
        "details": "Leaves the contract without owner. It will not be possible to call `onlyOwner` functions anymore. Can only be called by the current owner. NOTE: Renouncing ownership will leave the contract without an owner, thereby removing any functionality that is only available to the owner."
      },
      "transferOwnership(address)": {
        "details": "Transfers ownership of the contract to a new account (`newOwner`). Can only be called by the current owner."
      }
    },
    "stateVariables": {
      "itemToSellByIdByAddress": {
        "details": "collectionAddress => tokenId => userAddress => quantity to sell"
      },
      "platformFee": {
        "details": "this % will be applied on selling price+10%. It will give the equivalent to 10% on selling price"
      },
      "sellingPriceByIdByAddress": {
        "details": "collectionAddress => tokenId => userAddress => selling price"
      }
    },
    "version": 1
  },
  "userdoc": {
    "kind": "user",
    "methods": {
      "approvePropertyForSell(address)": {
        "notice": "action require before put in sell a property nft"
      },
      "buyPropertyItem(address,uint256,uint256,address)": {
        "notice": ": but a 'quantity' of item of type 'itemId' to the 'seller'"
      },
      "itemToSellByIdByAddress(address,uint256,address)": {
        "notice": "give the amount of item to sell by 'id' and by owner 'address'"
      },
      "platformFee()": {
        "notice": "fees collected by the platform on each saletargeted fee in 10% for the buyer"
      },
      "putPropertyForSell(address,uint256,string,uint256,uint256,string)": {
        "notice": ": set a quantity of type 'itemId' of token in selling at a '_sellingPrice': The function call method from the concerned collection by instantiating the good contract with the deployement address"
      },
      "sellingPriceByIdByAddress(address,uint256,address)": {
        "notice": "give the price of item to sell by 'id' and by owner 'address'"
      }
    },
    "notice": "contract in charge of manage buying and selling action from the users(for jury) only 1155 buy & sell is managed. 721 still to do",
    "version": 1
  }
}