{
  "contractName": "MarketPlace",
  "abi": [
    {
      "anonymous": false,
      "inputs": [
        {
          "indexed": false,
          "internalType": "uint256",
          "name": "valueReceived",
          "type": "uint256"
        }
      ],
      "name": "etherReceived",
      "type": "event"
    },
    {
      "inputs": [
        {
          "internalType": "address",
          "name": "",
          "type": "address"
        },
        {
          "internalType": "uint256",
          "name": "",
          "type": "uint256"
        },
        {
          "internalType": "address",
          "name": "",
          "type": "address"
        }
      ],
      "name": "itemToSellByIdByAddress",
      "outputs": [
        {
          "internalType": "uint256",
          "name": "",
          "type": "uint256"
        }
      ],
      "stateMutability": "view",
      "type": "function",
      "constant": true
    },
    {
      "inputs": [],
      "name": "platformFee",
      "outputs": [
        {
          "internalType": "uint256",
          "name": "",
          "type": "uint256"
        }
      ],
      "stateMutability": "view",
      "type": "function",
      "constant": true
    },
    {
      "inputs": [
        {
          "internalType": "address",
          "name": "",
          "type": "address"
        },
        {
          "internalType": "uint256",
          "name": "",
          "type": "uint256"
        },
        {
          "internalType": "address",
          "name": "",
          "type": "address"
        }
      ],
      "name": "sellingPriceByIdByAddress",
      "outputs": [
        {
          "internalType": "uint256",
          "name": "",
          "type": "uint256"
        }
      ],
      "stateMutability": "view",
      "type": "function",
      "constant": true
    },
    {
      "stateMutability": "payable",
      "type": "receive",
      "payable": true
    },
    {
      "inputs": [
        {
          "internalType": "address",
          "name": "_collectionAddress",
          "type": "address"
        },
        {
          "internalType": "uint256",
          "name": "_itemId",
          "type": "uint256"
        },
        {
          "internalType": "uint256",
          "name": "_sellingPrice",
          "type": "uint256"
        },
        {
          "internalType": "uint256",
          "name": "_quantityToSell",
          "type": "uint256"
        }
      ],
      "name": "putItemForSell",
      "outputs": [],
      "stateMutability": "nonpayable",
      "type": "function"
    },
    {
      "inputs": [
        {
          "internalType": "address",
          "name": "_collectionAddress",
          "type": "address"
        },
        {
          "internalType": "uint256",
          "name": "_itemId",
          "type": "uint256"
        },
        {
          "internalType": "uint256",
          "name": "_quantityToBuy",
          "type": "uint256"
        },
        {
          "internalType": "address",
          "name": "_seller",
          "type": "address"
        }
      ],
      "name": "buyItem",
      "outputs": [],
      "stateMutability": "payable",
      "type": "function",
      "payable": true
    },
    {
      "inputs": [],
      "name": "getContractBalance",
      "outputs": [
        {
          "internalType": "uint256",
          "name": "contractBalance",
          "type": "uint256"
        }
      ],
      "stateMutability": "view",
      "type": "function",
      "constant": true
    }
  ],
  "bytecode": "0x6080604052601960005534801561001557600080fd5b50610806806100256000396000f3fe6080604052600436106100595760003560e01c80631691962214610098578063246dec0e146100e857806326232a2e1461012657806362ebadb91461013c5780636f9fb98a1461015e578063a92e06a51461017157600080fd5b36610093576040513481527f699e21c8b7091f6cb2dc2f2653d170e400fa469381b6b0441201d78664cbf34e9060200160405180910390a1005b600080fd5b3480156100a457600080fd5b506100d66100b3366004610681565b600160209081526000938452604080852082529284528284209052825290205481565b60405190815260200160405180910390f35b3480156100f457600080fd5b506100d6610103366004610681565b600260209081526000938452604080852082529284528284209052825290205481565b34801561013257600080fd5b506100d660005481565b34801561014857600080fd5b5061015c6101573660046106bd565b610184565b005b34801561016a57600080fd5b50476100d6565b61015c61017f3660046106f6565b6102d1565b604051627eeac760e11b815233600482015260248101849052849082906001600160a01b0383169062fdd58e90604401602060405180830381865afa1580156101d1573d6000803e3d6000fd5b505050506040513d601f19601f820116820180604052508101906101f5919061073c565b116102475760405162461bcd60e51b815260206004820152601760248201527f6e6f7420656e6f756768206974656d20746f2073656c6c00000000000000000060448201526064015b60405180910390fd5b6001600160a01b038516600090815260016020908152604080832087845282528083203384529091528120805484929061028290849061076b565b9091555061029a905083670de0b6b3a7640000610784565b6001600160a01b03909516600090815260026020908152604080832096835295815285822033835290529390932093909355505050565b6001600160a01b03808516600090815260016020908152604080832087845282528083209385168352929052205482106103595760405162461bcd60e51b8152602060048201526024808201527f73656c6c657220646f65736e2774206861766520656e6f75676874207175616e6044820152637469747960e01b606482015260840161023e565b6001600160a01b03808516600090815260026020908152604080832087845282528083209385168352929052908120546103939084610784565b90508034146103ee5760405162461bcd60e51b815260206004820152602160248201527f796f75206861766520746f2073656e642074686520657861637420616d6f756e6044820152601d60fa1b606482015260840161023e565b60006103e86000546103e8610403919061079b565b61040d9034610784565b61041791906107ae565b905060006103e86000543461042c9190610784565b61043691906107ae565b90506000846001600160a01b03168360405160006040518083038185875af1925050503d8060008114610485576040519150601f19603f3d011682016040523d82523d6000602084013e61048a565b606091505b50509050806104eb5760405162461bcd60e51b815260206004820152602760248201527f6661696c656420746f2070617920746865207472616e73616374696f6e20746f6044820152661039b2b63632b960c91b606482015260840161023e565b604051600090309084908381818185875af1925050503d806000811461052d576040519150601f19603f3d011682016040523d82523d6000602084013e610532565b606091505b50509050806105955760405162461bcd60e51b815260206004820152602960248201527f6661696c656420746f2070617920746865207472616e73616374696f6e20746f6044820152680818dbdb9d1c9858dd60ba1b606482015260840161023e565b604051637921219560e11b81526001600160a01b038781166004830152336024830152604482018a90526064820189905260a06084830152600060a48301528a919082169063f242432a9060c401600060405180830381600087803b1580156105fd57600080fd5b505af1158015610611573d6000803e3d6000fd5b505050506001600160a01b038a811660009081526001602090815260408083208d84528252808320938b16835292905290812080548a929061065490849061079b565b909155505050505050505050505050565b80356001600160a01b038116811461067c57600080fd5b919050565b60008060006060848603121561069657600080fd5b61069f84610665565b9250602084013591506106b460408501610665565b90509250925092565b600080600080608085870312156106d357600080fd5b6106dc85610665565b966020860135965060408601359560600135945092505050565b6000806000806080858703121561070c57600080fd5b61071585610665565b9350602085013592506040850135915061073160608601610665565b905092959194509250565b60006020828403121561074e57600080fd5b5051919050565b634e487b7160e01b600052601160045260246000fd5b8082018082111561077e5761077e610755565b92915050565b808202811582820484141761077e5761077e610755565b8181038181111561077e5761077e610755565b6000826107cb57634e487b7160e01b600052601260045260246000fd5b50049056fea2646970667358221220cc12ba73e91032185585bc8e917e774202e5fcfd21e58c5b2f950484737afa5664736f6c63430008110033",
  "immutableReferences": {},
  "source": "// SPDX-License-Identifier: GPL-3.0\npragma solidity 0.8.17;\n\n// import \"@openzeppelin/contracts/token/ERC1155/utils/ERC1155Holder.sol\";\n\ninterface NftProperty {\n    function safeTransferFrom(\n        address from,\n        address to,\n        uint256 id,\n        uint256 amount,\n        bytes calldata data\n    ) external;\n\n    function balanceOf(address account, uint256 id)\n        external\n        view\n        returns (uint256);\n\n    function setApprovalForAll(address operator, bool approved) external;\n}\n\ncontract MarketPlace {\n    /// @notice fees collected by the platform on each sale. To be devided by 1000 to get the percentage\n    uint256 public platformFee = 25;\n\n    /// @notice give the amount of item to sell by 'id' and by owner 'address'\n    /// @dev collectionAddress => tokenId => userAddress => quantity to sell\n    mapping(address => mapping(uint256 => mapping(address => uint256)))\n        public itemToSellByIdByAddress;\n    /// @notice give the price of item to sell by 'id' and by owner 'address'\n    /// @dev collectionAddress => tokenId => userAddress => selling price\n    mapping(address => mapping(uint256 => mapping(address => uint256)))\n        public sellingPriceByIdByAddress;\n\n    event etherReceived(uint256 valueReceived);\n\n    /// @notice : set a quantity of type 'itemId' of token in selling at a '_sellingPrice'\n    /// @notice : The function call method from the concerned collection by instantiating the good contract with the deployement address\n    /// @dev require 1 ==> check if msg.sender is the owner\n    /// @dev require 2 ==> check if user balance is enough\n    function putItemForSell(\n        address _collectionAddress,\n        uint256 _itemId,\n        uint256 _sellingPrice,\n        uint256 _quantityToSell\n    ) public {\n        NftProperty nftProperty;\n        nftProperty = NftProperty(_collectionAddress);\n        require(\n            nftProperty.balanceOf(msg.sender, _itemId) > _quantityToSell,\n            \"not enough item to sell\"\n        );\n        itemToSellByIdByAddress[_collectionAddress][_itemId][\n            msg.sender\n        ] += _quantityToSell;\n        sellingPriceByIdByAddress[_collectionAddress][_itemId][msg.sender] =\n            _sellingPrice *\n            10**18;\n        // nftProperty.setApprovalForAll(address(this), true);\n        // nftProperty.safeTransferFrom(msg.sender, address(this), _itemId, _quantityToSell,\"\");\n    }\n\n    /// @notice : but a 'quantity' of item of type 'itemId' to the 'seller'\n    /// @dev require 1 ==> check if seller has enought item to sell\n    /// @dev require 2 ==> check if buyer send the good amount of eth\n    /// @dev require 3 ==> check the eth transfer to 'seller'\n    function buyItem(\n        address _collectionAddress,\n        uint256 _itemId,\n        uint256 _quantityToBuy,\n        address _seller\n    ) public payable {\n        require(\n            _quantityToBuy <\n                itemToSellByIdByAddress[_collectionAddress][_itemId][_seller],\n            \"seller doesn't have enought quantity\"\n        );\n        uint256 totalBuyingAmount = _quantityToBuy *\n            sellingPriceByIdByAddress[_collectionAddress][_itemId][_seller];\n        require(\n            msg.value == totalBuyingAmount,\n            \"you have to send the exact amount\"\n        );\n        // transfer of ETH\n        uint256 amountToSeller = (msg.value * (1000 - (platformFee))) / 1000;\n        uint256 amountToPlatform = (msg.value * (platformFee)) / 1000;\n        (bool sentToSeller, ) = payable(_seller).call{value: amountToSeller}(\n            \"\"\n        );\n        require(sentToSeller, \"failed to pay the transaction to seller\");\n        (bool sentToPlatform, ) = payable(address(this)).call{\n            value: amountToPlatform\n        }(\"\");\n        require(sentToPlatform, \"failed to pay the transaction to contract\");\n        // Tranfer of ERC1155\n        NftProperty nftProperty;\n        nftProperty = NftProperty(_collectionAddress);\n        nftProperty.safeTransferFrom(\n            _seller,\n            msg.sender,\n            _itemId,\n            _quantityToBuy,\n            \"\"\n        );\n        // update of seller balance\n        itemToSellByIdByAddress[_collectionAddress][_itemId][\n            _seller\n        ] -= _quantityToBuy;\n    }\n\n    function getContractBalance()\n        public\n        view\n        returns (uint256 contractBalance)\n    {\n        return address(this).balance;\n    }\n\n    receive() external payable {\n        emit etherReceived(msg.value);\n    }\n}\n",
  "sourcePath": "/Users/jeromejulien/Documents/vscode/FormationAlyra/02_Projets/CollectorChain_TokenizedCollectibles/truffle/contracts/MarketPlace.sol",
  "compiler": {
    "name": "solc",
    "version": "0.8.17+commit.8df45f5f.Emscripten.clang"
  },
  "schemaVersion": "3.4.10",
  "updatedAt": "2022-12-02T12:46:59.515Z",
  "networkType": "ethereum",
  "devdoc": {
    "kind": "dev",
    "methods": {
      "buyItem(address,uint256,uint256,address)": {
        "details": "require 1 ==> check if seller has enought item to sellrequire 2 ==> check if buyer send the good amount of ethrequire 3 ==> check the eth transfer to 'seller'"
      },
      "putItemForSell(address,uint256,uint256,uint256)": {
        "details": "require 1 ==> check if msg.sender is the ownerrequire 2 ==> check if user balance is enough"
      }
    },
    "stateVariables": {
      "itemToSellByIdByAddress": {
        "details": "collectionAddress => tokenId => userAddress => quantity to sell"
      },
      "sellingPriceByIdByAddress": {
        "details": "collectionAddress => tokenId => userAddress => selling price"
      }
    },
    "version": 1
  },
  "userdoc": {
    "kind": "user",
    "methods": {
      "buyItem(address,uint256,uint256,address)": {
        "notice": ": but a 'quantity' of item of type 'itemId' to the 'seller'"
      },
      "itemToSellByIdByAddress(address,uint256,address)": {
        "notice": "give the amount of item to sell by 'id' and by owner 'address'"
      },
      "platformFee()": {
        "notice": "fees collected by the platform on each sale. To be devided by 1000 to get the percentage"
      },
      "putItemForSell(address,uint256,uint256,uint256)": {
        "notice": ": set a quantity of type 'itemId' of token in selling at a '_sellingPrice': The function call method from the concerned collection by instantiating the good contract with the deployement address"
      },
      "sellingPriceByIdByAddress(address,uint256,address)": {
        "notice": "give the price of item to sell by 'id' and by owner 'address'"
      }
    },
    "version": 1
  }
}