{
  "contractName": "MarketPlace",
  "abi": [
    {
      "anonymous": false,
      "inputs": [
        {
          "indexed": true,
          "internalType": "address",
          "name": "previousOwner",
          "type": "address"
        },
        {
          "indexed": true,
          "internalType": "address",
          "name": "newOwner",
          "type": "address"
        }
      ],
      "name": "OwnershipTransferred",
      "type": "event"
    },
    {
      "anonymous": false,
      "inputs": [
        {
          "indexed": false,
          "internalType": "uint256",
          "name": "valueReceived",
          "type": "uint256"
        }
      ],
      "name": "etherReceived",
      "type": "event"
    },
    {
      "anonymous": false,
      "inputs": [
        {
          "indexed": false,
          "internalType": "uint256",
          "name": "collectionId",
          "type": "uint256"
        },
        {
          "indexed": false,
          "internalType": "uint256",
          "name": "nftId",
          "type": "uint256"
        },
        {
          "indexed": false,
          "internalType": "string",
          "name": "name",
          "type": "string"
        },
        {
          "indexed": false,
          "internalType": "address",
          "name": "seller",
          "type": "address"
        },
        {
          "indexed": false,
          "internalType": "uint256",
          "name": "quantityOnSell",
          "type": "uint256"
        },
        {
          "indexed": false,
          "internalType": "uint256",
          "name": "price",
          "type": "uint256"
        }
      ],
      "name": "propertyPutOnSell",
      "type": "event"
    },
    {
      "inputs": [
        {
          "internalType": "address",
          "name": "",
          "type": "address"
        },
        {
          "internalType": "uint256",
          "name": "",
          "type": "uint256"
        },
        {
          "internalType": "address",
          "name": "",
          "type": "address"
        }
      ],
      "name": "itemToSellByIdByAddress",
      "outputs": [
        {
          "internalType": "uint256",
          "name": "",
          "type": "uint256"
        }
      ],
      "stateMutability": "view",
      "type": "function",
      "constant": true
    },
    {
      "inputs": [],
      "name": "owner",
      "outputs": [
        {
          "internalType": "address",
          "name": "",
          "type": "address"
        }
      ],
      "stateMutability": "view",
      "type": "function",
      "constant": true
    },
    {
      "inputs": [],
      "name": "platformFee",
      "outputs": [
        {
          "internalType": "uint256",
          "name": "",
          "type": "uint256"
        }
      ],
      "stateMutability": "view",
      "type": "function",
      "constant": true
    },
    {
      "inputs": [],
      "name": "renounceOwnership",
      "outputs": [],
      "stateMutability": "nonpayable",
      "type": "function"
    },
    {
      "inputs": [
        {
          "internalType": "address",
          "name": "",
          "type": "address"
        },
        {
          "internalType": "uint256",
          "name": "",
          "type": "uint256"
        },
        {
          "internalType": "address",
          "name": "",
          "type": "address"
        }
      ],
      "name": "sellingPriceByIdByAddress",
      "outputs": [
        {
          "internalType": "uint256",
          "name": "",
          "type": "uint256"
        }
      ],
      "stateMutability": "view",
      "type": "function",
      "constant": true
    },
    {
      "inputs": [
        {
          "internalType": "address",
          "name": "newOwner",
          "type": "address"
        }
      ],
      "name": "transferOwnership",
      "outputs": [],
      "stateMutability": "nonpayable",
      "type": "function"
    },
    {
      "stateMutability": "payable",
      "type": "receive",
      "payable": true
    },
    {
      "inputs": [
        {
          "internalType": "address",
          "name": "_collectionAddress",
          "type": "address"
        }
      ],
      "name": "approvePropertyForSell",
      "outputs": [],
      "stateMutability": "nonpayable",
      "type": "function"
    },
    {
      "inputs": [
        {
          "internalType": "address",
          "name": "_collectionAddress",
          "type": "address"
        },
        {
          "internalType": "uint256",
          "name": "_itemId",
          "type": "uint256"
        },
        {
          "internalType": "string",
          "name": "_name",
          "type": "string"
        },
        {
          "internalType": "uint256",
          "name": "_sellingPrice",
          "type": "uint256"
        },
        {
          "internalType": "uint256",
          "name": "_quantityToSell",
          "type": "uint256"
        }
      ],
      "name": "putPropertyForSell",
      "outputs": [],
      "stateMutability": "nonpayable",
      "type": "function"
    },
    {
      "inputs": [
        {
          "internalType": "address",
          "name": "_collectionAddress",
          "type": "address"
        },
        {
          "internalType": "uint256",
          "name": "_itemId",
          "type": "uint256"
        },
        {
          "internalType": "uint256",
          "name": "_quantityToBuy",
          "type": "uint256"
        },
        {
          "internalType": "address",
          "name": "_seller",
          "type": "address"
        }
      ],
      "name": "buyPropertyItem",
      "outputs": [],
      "stateMutability": "payable",
      "type": "function",
      "payable": true
    },
    {
      "inputs": [],
      "name": "getContractBalance",
      "outputs": [
        {
          "internalType": "uint256",
          "name": "contractBalance",
          "type": "uint256"
        }
      ],
      "stateMutability": "view",
      "type": "function",
      "constant": true
    }
  ],
  "bytecode": "0x6080604052606460015534801561001557600080fd5b5061001f33610024565b610074565b600080546001600160a01b038381166001600160a01b0319831681178455604051919092169283917f8be0079c531659141344cd1fd0a4f28419497f9722a3daafe3b4186f6b6457e09190a35050565b610c5a806100836000396000f3fe6080604052600436106100955760003560e01c8063715018a611610059578063715018a6146101a15780638da5cb5b146101b65780639d25198d146101de578063d3611687146101fe578063f2fde38b1461021e57600080fd5b806316919622146100d4578063246dec0e1461012557806326232a2e146101635780632a3f5b79146101795780636f9fb98a1461018e57600080fd5b366100cf576040513481527f699e21c8b7091f6cb2dc2f2653d170e400fa469381b6b0441201d78664cbf34e9060200160405180910390a1005b600080fd5b3480156100e057600080fd5b506101126100ef36600461097b565b600260209081526000938452604080852082529284528284209052825290205481565b6040519081526020015b60405180910390f35b34801561013157600080fd5b5061011261014036600461097b565b600360209081526000938452604080852082529284528284209052825290205481565b34801561016f57600080fd5b5061011260015481565b61018c6101873660046109b7565b61023e565b005b34801561019a57600080fd5b5047610112565b3480156101ad57600080fd5b5061018c6105d7565b3480156101c257600080fd5b506000546040516001600160a01b03909116815260200161011c565b3480156101ea57600080fd5b5061018c6101f93660046109fd565b6105eb565b34801561020a57600080fd5b5061018c610219366004610a35565b610651565b34801561022a57600080fd5b5061018c6102393660046109fd565b61083c565b6001600160a01b03808516600090815260026020908152604080832087845282528083209385168352929052205482106102cb5760405162461bcd60e51b8152602060048201526024808201527f73656c6c657220646f65736e2774206861766520656e6f75676874207175616e6044820152637469747960e01b60648201526084015b60405180910390fd5b6001600160a01b03808516600090815260036020908152604080832087845282528083209385168352929052908120546103059084610b28565b90508034146103605760405162461bcd60e51b815260206004820152602160248201527f796f75206861766520746f2073656e642074686520657861637420616d6f756e6044820152601d60fa1b60648201526084016102c2565b60006103e86001546103e86103759190610b45565b61037f9034610b28565b6103899190610b58565b905060006103e86001543461039e9190610b28565b6103a89190610b58565b90506000846001600160a01b03168360405160006040518083038185875af1925050503d80600081146103f7576040519150601f19603f3d011682016040523d82523d6000602084013e6103fc565b606091505b505090508061045d5760405162461bcd60e51b815260206004820152602760248201527f6661696c656420746f2070617920746865207472616e73616374696f6e20746f6044820152661039b2b63632b960c91b60648201526084016102c2565b604051600090309084908381818185875af1925050503d806000811461049f576040519150601f19603f3d011682016040523d82523d6000602084013e6104a4565b606091505b50509050806105075760405162461bcd60e51b815260206004820152602960248201527f6661696c656420746f2070617920746865207472616e73616374696f6e20746f6044820152680818dbdb9d1c9858dd60ba1b60648201526084016102c2565b604051637921219560e11b81526001600160a01b038781166004830152336024830152604482018a90526064820189905260a06084830152600060a48301528a919082169063f242432a9060c401600060405180830381600087803b15801561056f57600080fd5b505af1158015610583573d6000803e3d6000fd5b505050506001600160a01b038a811660009081526002602090815260408083208d84528252808320938b16835292905290812080548a92906105c6908490610b45565b909155505050505050505050505050565b6105df6108b5565b6105e9600061090f565b565b60405163a22cb46560e01b81523060048201526001602482015281906001600160a01b0382169063a22cb46590604401600060405180830381600087803b15801561063557600080fd5b505af1158015610649573d6000803e3d6000fd5b505050505050565b604051627eeac760e11b815233600482015260248101859052859082906001600160a01b0383169062fdd58e90604401602060405180830381865afa15801561069e573d6000803e3d6000fd5b505050506040513d601f19601f820116820180604052508101906106c29190610b7a565b1161070f5760405162461bcd60e51b815260206004820152601760248201527f6e6f7420656e6f756768206974656d20746f2073656c6c00000000000000000060448201526064016102c2565b6001600160a01b038616600090815260026020908152604080832088845282528083203384529091528120805484929061074a908490610b93565b90915550610762905083670de0b6b3a7640000610b28565b6001600160a01b0380881660009081526003602090815260408083208a845282528083203384528252808320949094558351633e473dff60e11b81529351919392851692637c8e7bfe92600480830193928290030181865afa1580156107cc573d6000803e3d6000fd5b505050506040513d601f19601f820116820180604052508101906107f09190610b7a565b90507f1d4b9c2b7367e9eb702fbb8871b5e5a191432435184858f1b62bd90f5298bfbf81878733878960405161082b96959493929190610ba6565b60405180910390a150505050505050565b6108446108b5565b6001600160a01b0381166108a95760405162461bcd60e51b815260206004820152602660248201527f4f776e61626c653a206e6577206f776e657220697320746865207a65726f206160448201526564647265737360d01b60648201526084016102c2565b6108b28161090f565b50565b6000546001600160a01b031633146105e95760405162461bcd60e51b815260206004820181905260248201527f4f776e61626c653a2063616c6c6572206973206e6f7420746865206f776e657260448201526064016102c2565b600080546001600160a01b038381166001600160a01b0319831681178455604051919092169283917f8be0079c531659141344cd1fd0a4f28419497f9722a3daafe3b4186f6b6457e09190a35050565b80356001600160a01b038116811461097657600080fd5b919050565b60008060006060848603121561099057600080fd5b6109998461095f565b9250602084013591506109ae6040850161095f565b90509250925092565b600080600080608085870312156109cd57600080fd5b6109d68561095f565b935060208501359250604085013591506109f26060860161095f565b905092959194509250565b600060208284031215610a0f57600080fd5b610a188261095f565b9392505050565b634e487b7160e01b600052604160045260246000fd5b600080600080600060a08688031215610a4d57600080fd5b610a568661095f565b945060208601359350604086013567ffffffffffffffff80821115610a7a57600080fd5b818801915088601f830112610a8e57600080fd5b813581811115610aa057610aa0610a1f565b604051601f8201601f19908116603f01168101908382118183101715610ac857610ac8610a1f565b816040528281528b6020848701011115610ae157600080fd5b8260208601602083013760009281016020019290925250969995985095966060810135965060800135949350505050565b634e487b7160e01b600052601160045260246000fd5b8082028115828204841417610b3f57610b3f610b12565b92915050565b81810381811115610b3f57610b3f610b12565b600082610b7557634e487b7160e01b600052601260045260246000fd5b500490565b600060208284031215610b8c57600080fd5b5051919050565b80820180821115610b3f57610b3f610b12565b86815260006020878184015260c0604084015286518060c085015260005b81811015610be05788810183015185820160e001528201610bc4565b50600060e0828601015260e0601f19601f83011685010192505050610c1060608301866001600160a01b03169052565b608082019390935260a0015294935050505056fea2646970667358221220b14a7f1d9b7c81b9f531c9291caa7d16bb05fbf185056adf06e3f8d83690be0764736f6c63430008110033",
  "immutableReferences": {},
  "source": "// SPDX-License-Identifier: GPL-3.0\npragma solidity 0.8.17;\n\n// import \"@openzeppelin/contracts/token/ERC1155/utils/ERC1155Holder.sol\";\nimport \"../node_modules/@openzeppelin/contracts/access/Ownable.sol\";\n\ninterface NftProperty {\n    function safeTransferFrom(\n        address from,\n        address to,\n        uint256 id,\n        uint256 amount,\n        bytes calldata data\n    ) external;\n\n    function balanceOf(address account, uint256 id)\n        external\n        view\n        returns (uint256);\n\n    function setApprovalForAll(address operator, bool approved) external;\n\n    function getCollectionId() external view returns (uint256);\n}\n\ncontract MarketPlace is Ownable {\n    /// @notice fees collected by the platform on each sale. To be devided by 1000 to get the percentage\n    uint256 public platformFee = 100;\n\n    /// @notice give the amount of item to sell by 'id' and by owner 'address'\n    /// @dev collectionAddress => tokenId => userAddress => quantity to sell\n    mapping(address => mapping(uint256 => mapping(address => uint256)))\n        public itemToSellByIdByAddress;\n    /// @notice give the price of item to sell by 'id' and by owner 'address'\n    /// @dev collectionAddress => tokenId => userAddress => selling price\n    mapping(address => mapping(uint256 => mapping(address => uint256)))\n        public sellingPriceByIdByAddress;\n\n    event etherReceived(uint256 valueReceived);\n\n    event propertyPutOnSell(\n        uint256 collectionId,\n        uint256 nftId,\n        string name,\n        address seller,\n        uint256 quantityOnSell,\n        uint256 price\n    );\n\n    function approvePropertyForSell(address _collectionAddress) external {\n        NftProperty nftProperty;\n        nftProperty = NftProperty(_collectionAddress);\n\n        nftProperty.setApprovalForAll(address(this), true);\n    }\n\n    /// @notice : set a quantity of type 'itemId' of token in selling at a '_sellingPrice'\n    /// @notice : The function call method from the concerned collection by instantiating the good contract with the deployement address\n    /// @dev require 1 ==> check if msg.sender is the owner\n    /// @dev require 2 ==> check if user balance is enough\n    /// @dev set an approval for the contract\n    function putPropertyForSell(\n        address _collectionAddress,\n        uint256 _itemId,\n        string memory _name,\n        uint256 _sellingPrice,\n        uint256 _quantityToSell\n    ) public {\n        NftProperty nftProperty;\n        nftProperty = NftProperty(_collectionAddress);\n        require(\n            nftProperty.balanceOf(msg.sender, _itemId) > _quantityToSell,\n            \"not enough item to sell\"\n        );\n        itemToSellByIdByAddress[_collectionAddress][_itemId][\n            msg.sender\n        ] += _quantityToSell;\n        sellingPriceByIdByAddress[_collectionAddress][_itemId][msg.sender] =\n            _sellingPrice *\n            10**18;\n\n        uint256 collectionId = nftProperty.getCollectionId();\n\n        emit propertyPutOnSell(\n            collectionId,\n            _itemId,\n            _name,\n            msg.sender,\n            _quantityToSell,\n            _sellingPrice\n        );\n    }\n\n    /// @notice : but a 'quantity' of item of type 'itemId' to the 'seller'\n    /// @dev require 1 ==> check if seller has enought item to sell\n    /// @dev require 2 ==> check if buyer send the good amount of eth\n    /// @dev require 3 ==> check the eth transfer to 'seller'\n    function buyPropertyItem(\n        address _collectionAddress,\n        uint256 _itemId,\n        uint256 _quantityToBuy,\n        address _seller\n    ) public payable {\n        require(\n            _quantityToBuy <\n                itemToSellByIdByAddress[_collectionAddress][_itemId][_seller],\n            \"seller doesn't have enought quantity\"\n        );\n        uint256 totalBuyingAmount = _quantityToBuy *\n            sellingPriceByIdByAddress[_collectionAddress][_itemId][_seller];\n        require(\n            msg.value == totalBuyingAmount,\n            \"you have to send the exact amount\"\n        );\n        // transfer of ETH\n        uint256 amountToSeller = (msg.value * (1000 - (platformFee))) / 1000;\n        uint256 amountToPlatform = (msg.value * (platformFee)) / 1000;\n        (bool sentToSeller, ) = payable(_seller).call{value: amountToSeller}(\n            \"\"\n        );\n        require(sentToSeller, \"failed to pay the transaction to seller\");\n        (bool sentToPlatform, ) = payable(address(this)).call{\n            value: amountToPlatform\n        }(\"\");\n        require(sentToPlatform, \"failed to pay the transaction to contract\");\n        // Tranfer of ERC1155\n        NftProperty nftProperty;\n        nftProperty = NftProperty(_collectionAddress);\n        nftProperty.safeTransferFrom(\n            _seller,\n            msg.sender,\n            _itemId,\n            _quantityToBuy,\n            \"\"\n        );\n        // update of seller balance\n        itemToSellByIdByAddress[_collectionAddress][_itemId][\n            _seller\n        ] -= _quantityToBuy;\n    }\n\n    function getContractBalance()\n        public\n        view\n        returns (uint256 contractBalance)\n    {\n        return address(this).balance;\n    }\n\n    receive() external payable {\n        emit etherReceived(msg.value);\n    }\n}\n",
  "sourcePath": "/Users/jeromejulien/Documents/vscode/FormationAlyra/02_Projets/CollectorChain_TokenizedCollectibles/truffle/contracts/MarketPlace.sol",
  "compiler": {
    "name": "solc",
    "version": "0.8.17+commit.8df45f5f.Emscripten.clang"
  },
  "schemaVersion": "3.4.10",
  "updatedAt": "2022-12-07T17:06:25.553Z",
  "networkType": "ethereum",
  "devdoc": {
    "kind": "dev",
    "methods": {
      "buyPropertyItem(address,uint256,uint256,address)": {
        "details": "require 1 ==> check if seller has enought item to sellrequire 2 ==> check if buyer send the good amount of ethrequire 3 ==> check the eth transfer to 'seller'"
      },
      "owner()": {
        "details": "Returns the address of the current owner."
      },
      "putPropertyForSell(address,uint256,string,uint256,uint256)": {
        "details": "require 1 ==> check if msg.sender is the ownerrequire 2 ==> check if user balance is enoughset an approval for the contract"
      },
      "renounceOwnership()": {
        "details": "Leaves the contract without owner. It will not be possible to call `onlyOwner` functions anymore. Can only be called by the current owner. NOTE: Renouncing ownership will leave the contract without an owner, thereby removing any functionality that is only available to the owner."
      },
      "transferOwnership(address)": {
        "details": "Transfers ownership of the contract to a new account (`newOwner`). Can only be called by the current owner."
      }
    },
    "stateVariables": {
      "itemToSellByIdByAddress": {
        "details": "collectionAddress => tokenId => userAddress => quantity to sell"
      },
      "sellingPriceByIdByAddress": {
        "details": "collectionAddress => tokenId => userAddress => selling price"
      }
    },
    "version": 1
  },
  "userdoc": {
    "kind": "user",
    "methods": {
      "buyPropertyItem(address,uint256,uint256,address)": {
        "notice": ": but a 'quantity' of item of type 'itemId' to the 'seller'"
      },
      "itemToSellByIdByAddress(address,uint256,address)": {
        "notice": "give the amount of item to sell by 'id' and by owner 'address'"
      },
      "platformFee()": {
        "notice": "fees collected by the platform on each sale. To be devided by 1000 to get the percentage"
      },
      "putPropertyForSell(address,uint256,string,uint256,uint256)": {
        "notice": ": set a quantity of type 'itemId' of token in selling at a '_sellingPrice': The function call method from the concerned collection by instantiating the good contract with the deployement address"
      },
      "sellingPriceByIdByAddress(address,uint256,address)": {
        "notice": "give the price of item to sell by 'id' and by owner 'address'"
      }
    },
    "version": 1
  }
}