{
  "contractName": "NftDigital",
  "abi": [
    {
      "inputs": [
        {
          "internalType": "uint256",
          "name": "collectionId_",
          "type": "uint256"
        },
        {
          "internalType": "string",
          "name": "collectionName_",
          "type": "string"
        },
        {
          "internalType": "string",
          "name": "collectionSymbol_",
          "type": "string"
        },
        {
          "internalType": "address",
          "name": "daoContractAddress_",
          "type": "address"
        }
      ],
      "stateMutability": "nonpayable",
      "type": "constructor"
    },
    {
      "anonymous": false,
      "inputs": [
        {
          "indexed": true,
          "internalType": "address",
          "name": "owner",
          "type": "address"
        },
        {
          "indexed": true,
          "internalType": "address",
          "name": "approved",
          "type": "address"
        },
        {
          "indexed": true,
          "internalType": "uint256",
          "name": "tokenId",
          "type": "uint256"
        }
      ],
      "name": "Approval",
      "type": "event"
    },
    {
      "anonymous": false,
      "inputs": [
        {
          "indexed": true,
          "internalType": "address",
          "name": "owner",
          "type": "address"
        },
        {
          "indexed": true,
          "internalType": "address",
          "name": "operator",
          "type": "address"
        },
        {
          "indexed": false,
          "internalType": "bool",
          "name": "approved",
          "type": "bool"
        }
      ],
      "name": "ApprovalForAll",
      "type": "event"
    },
    {
      "anonymous": false,
      "inputs": [
        {
          "indexed": true,
          "internalType": "address",
          "name": "from",
          "type": "address"
        },
        {
          "indexed": true,
          "internalType": "address",
          "name": "to",
          "type": "address"
        },
        {
          "indexed": true,
          "internalType": "uint256",
          "name": "tokenId",
          "type": "uint256"
        }
      ],
      "name": "Transfer",
      "type": "event"
    },
    {
      "inputs": [],
      "name": "_id",
      "outputs": [
        {
          "internalType": "uint256",
          "name": "_value",
          "type": "uint256"
        }
      ],
      "stateMutability": "view",
      "type": "function"
    },
    {
      "inputs": [
        {
          "internalType": "address",
          "name": "to",
          "type": "address"
        },
        {
          "internalType": "uint256",
          "name": "tokenId",
          "type": "uint256"
        }
      ],
      "name": "approve",
      "outputs": [],
      "stateMutability": "nonpayable",
      "type": "function"
    },
    {
      "inputs": [
        {
          "internalType": "address",
          "name": "owner",
          "type": "address"
        }
      ],
      "name": "balanceOf",
      "outputs": [
        {
          "internalType": "uint256",
          "name": "",
          "type": "uint256"
        }
      ],
      "stateMutability": "view",
      "type": "function"
    },
    {
      "inputs": [
        {
          "internalType": "uint256",
          "name": "",
          "type": "uint256"
        }
      ],
      "name": "digitalNfts",
      "outputs": [
        {
          "internalType": "uint256",
          "name": "collectionId",
          "type": "uint256"
        },
        {
          "internalType": "uint256",
          "name": "nftId",
          "type": "uint256"
        },
        {
          "internalType": "string",
          "name": "nftName",
          "type": "string"
        },
        {
          "internalType": "string",
          "name": "image",
          "type": "string"
        }
      ],
      "stateMutability": "view",
      "type": "function"
    },
    {
      "inputs": [
        {
          "internalType": "uint256",
          "name": "tokenId",
          "type": "uint256"
        }
      ],
      "name": "getApproved",
      "outputs": [
        {
          "internalType": "address",
          "name": "",
          "type": "address"
        }
      ],
      "stateMutability": "view",
      "type": "function"
    },
    {
      "inputs": [
        {
          "internalType": "address",
          "name": "owner",
          "type": "address"
        },
        {
          "internalType": "address",
          "name": "operator",
          "type": "address"
        }
      ],
      "name": "isApprovedForAll",
      "outputs": [
        {
          "internalType": "bool",
          "name": "",
          "type": "bool"
        }
      ],
      "stateMutability": "view",
      "type": "function"
    },
    {
      "inputs": [],
      "name": "name",
      "outputs": [
        {
          "internalType": "string",
          "name": "",
          "type": "string"
        }
      ],
      "stateMutability": "view",
      "type": "function"
    },
    {
      "inputs": [
        {
          "internalType": "uint256",
          "name": "tokenId",
          "type": "uint256"
        }
      ],
      "name": "ownerOf",
      "outputs": [
        {
          "internalType": "address",
          "name": "",
          "type": "address"
        }
      ],
      "stateMutability": "view",
      "type": "function"
    },
    {
      "inputs": [
        {
          "internalType": "address",
          "name": "from",
          "type": "address"
        },
        {
          "internalType": "address",
          "name": "to",
          "type": "address"
        },
        {
          "internalType": "uint256",
          "name": "tokenId",
          "type": "uint256"
        }
      ],
      "name": "safeTransferFrom",
      "outputs": [],
      "stateMutability": "nonpayable",
      "type": "function"
    },
    {
      "inputs": [
        {
          "internalType": "address",
          "name": "from",
          "type": "address"
        },
        {
          "internalType": "address",
          "name": "to",
          "type": "address"
        },
        {
          "internalType": "uint256",
          "name": "tokenId",
          "type": "uint256"
        },
        {
          "internalType": "bytes",
          "name": "data",
          "type": "bytes"
        }
      ],
      "name": "safeTransferFrom",
      "outputs": [],
      "stateMutability": "nonpayable",
      "type": "function"
    },
    {
      "inputs": [
        {
          "internalType": "address",
          "name": "operator",
          "type": "address"
        },
        {
          "internalType": "bool",
          "name": "approved",
          "type": "bool"
        }
      ],
      "name": "setApprovalForAll",
      "outputs": [],
      "stateMutability": "nonpayable",
      "type": "function"
    },
    {
      "inputs": [
        {
          "internalType": "bytes4",
          "name": "interfaceId",
          "type": "bytes4"
        }
      ],
      "name": "supportsInterface",
      "outputs": [
        {
          "internalType": "bool",
          "name": "",
          "type": "bool"
        }
      ],
      "stateMutability": "view",
      "type": "function"
    },
    {
      "inputs": [],
      "name": "symbol",
      "outputs": [
        {
          "internalType": "string",
          "name": "",
          "type": "string"
        }
      ],
      "stateMutability": "view",
      "type": "function"
    },
    {
      "inputs": [
        {
          "internalType": "uint256",
          "name": "tokenId",
          "type": "uint256"
        }
      ],
      "name": "tokenURI",
      "outputs": [
        {
          "internalType": "string",
          "name": "",
          "type": "string"
        }
      ],
      "stateMutability": "view",
      "type": "function"
    },
    {
      "inputs": [
        {
          "internalType": "address",
          "name": "from",
          "type": "address"
        },
        {
          "internalType": "address",
          "name": "to",
          "type": "address"
        },
        {
          "internalType": "uint256",
          "name": "tokenId",
          "type": "uint256"
        }
      ],
      "name": "transferFrom",
      "outputs": [],
      "stateMutability": "nonpayable",
      "type": "function"
    },
    {
      "inputs": [
        {
          "internalType": "uint256",
          "name": "_proposalId",
          "type": "uint256"
        },
        {
          "internalType": "string",
          "name": "_name",
          "type": "string"
        },
        {
          "internalType": "string",
          "name": "_nftURI",
          "type": "string"
        },
        {
          "internalType": "string",
          "name": "_image",
          "type": "string"
        }
      ],
      "name": "mintDigitalNft",
      "outputs": [],
      "stateMutability": "nonpayable",
      "type": "function"
    }
  ],
  "bytecode": "0x60806040523480156200001157600080fd5b506040516200257538038062002575833981016040819052620000349162000148565b828260006200004483826200026d565b5060016200005382826200026d565b505050600a939093555050600b80546001600160a01b0319166001600160a01b0390921691909117905562000339565b634e487b7160e01b600052604160045260246000fd5b600082601f830112620000ab57600080fd5b81516001600160401b0380821115620000c857620000c862000083565b604051601f8301601f19908116603f01168101908282118183101715620000f357620000f362000083565b816040528381526020925086838588010111156200011057600080fd5b600091505b8382101562000134578582018301518183018401529082019062000115565b600093810190920192909252949350505050565b600080600080608085870312156200015f57600080fd5b845160208601519094506001600160401b03808211156200017f57600080fd5b6200018d8883890162000099565b94506040870151915080821115620001a457600080fd5b50620001b38782880162000099565b606087015190935090506001600160a01b0381168114620001d357600080fd5b939692955090935050565b600181811c90821680620001f357607f821691505b6020821081036200021457634e487b7160e01b600052602260045260246000fd5b50919050565b601f8211156200026857600081815260208120601f850160051c81016020861015620002435750805b601f850160051c820191505b8181101562000264578281556001016200024f565b5050505b505050565b81516001600160401b0381111562000289576200028962000083565b620002a1816200029a8454620001de565b846200021a565b602080601f831160018114620002d95760008415620002c05750858301515b600019600386901b1c1916600185901b17855562000264565b600085815260208120601f198616915b828110156200030a57888601518255948401946001909101908401620002e9565b5085821015620003295787850151600019600388901b60f8161c191681555b5050505050600190811b01905550565b61222c80620003496000396000f3fe608060405234801561001057600080fd5b50600436106101005760003560e01c80636352211e11610097578063a22cb46511610066578063a22cb46514610231578063b88d4fde14610244578063c87b56dd14610257578063e985e9c51461026a57600080fd5b80636352211e146101e057806370a08231146101f3578063777f09e21461020657806395d89b411461022957600080fd5b8063095ea7b3116100d3578063095ea7b31461019257806323b872dd146101a75780633ab6ad61146101ba57806342842e0e146101cd57600080fd5b806301ffc9a714610105578063051802371461012d57806306fdde0314610145578063081812fc1461015a575b600080fd5b610118610113366004611afa565b6102b3565b60405190151581526020015b60405180910390f35b6007546101379081565b604051908152602001610124565b61014d610398565b6040516101249190611b85565b61016d610168366004611b98565b61042a565b60405173ffffffffffffffffffffffffffffffffffffffff9091168152602001610124565b6101a56101a0366004611bda565b61045e565b005b6101a56101b5366004611c04565b6105e6565b6101a56101c8366004611d23565b61066d565b6101a56101db366004611c04565b610919565b61016d6101ee366004611b98565b610934565b610137610201366004611de9565b6109a6565b610219610214366004611b98565b610a5a565b6040516101249493929190611e04565b61014d610baa565b6101a561023f366004611e4e565b610bb9565b6101a5610252366004611e85565b610bc8565b61014d610265366004611b98565b610c56565b610118610278366004611f01565b73ffffffffffffffffffffffffffffffffffffffff918216600090815260056020908152604080832093909416825291909152205460ff1690565b60007fffffffff0000000000000000000000000000000000000000000000000000000082167f80ac58cd00000000000000000000000000000000000000000000000000000000148061034657507fffffffff0000000000000000000000000000000000000000000000000000000082167f5b5e139f00000000000000000000000000000000000000000000000000000000145b8061039257507f01ffc9a7000000000000000000000000000000000000000000000000000000007fffffffff000000000000000000000000000000000000000000000000000000008316145b92915050565b6060600080546103a790611f34565b80601f01602080910402602001604051908101604052809291908181526020018280546103d390611f34565b80156104205780601f106103f557610100808354040283529160200191610420565b820191906000526020600020905b81548152906001019060200180831161040357829003601f168201915b5050505050905090565b600061043582610d66565b5060009081526004602052604090205473ffffffffffffffffffffffffffffffffffffffff1690565b600061046982610934565b90508073ffffffffffffffffffffffffffffffffffffffff168373ffffffffffffffffffffffffffffffffffffffff16036105115760405162461bcd60e51b815260206004820152602160248201527f4552433732313a20617070726f76616c20746f2063757272656e74206f776e6560448201527f720000000000000000000000000000000000000000000000000000000000000060648201526084015b60405180910390fd5b3373ffffffffffffffffffffffffffffffffffffffff82161480610565575073ffffffffffffffffffffffffffffffffffffffff8116600090815260056020908152604080832033845290915290205460ff165b6105d75760405162461bcd60e51b815260206004820152603d60248201527f4552433732313a20617070726f76652063616c6c6572206973206e6f7420746f60448201527f6b656e206f776e6572206f7220617070726f76656420666f7220616c6c0000006064820152608401610508565b6105e18383610dda565b505050565b6105f03382610e7a565b6106625760405162461bcd60e51b815260206004820152602d60248201527f4552433732313a2063616c6c6572206973206e6f7420746f6b656e206f776e6560448201527f72206f7220617070726f766564000000000000000000000000000000000000006064820152608401610508565b6105e1838383610f39565b600b546040517f401853b70000000000000000000000000000000000000000000000000000000081526004810187905260009173ffffffffffffffffffffffffffffffffffffffff169063401853b790602401602060405180830381865afa1580156106dd573d6000803e3d6000fd5b505050506040513d601f19601f820116820180604052508101906107019190611f87565b90506001811515146107555760405162461bcd60e51b815260206004820152601860248201527f70726f706f73616c206973206e6f7420616363657074656400000000000000006044820152606401610508565b600061076060075490565b60408051608081018252600a5481526020810183815291810189815260608201879052600c8054600181018255600091909152825160049091027fdf6966c971051c3d54ec59162606531493a51404a002842f56009d7e5cf4a8c7810191825593517fdf6966c971051c3d54ec59162606531493a51404a002842f56009d7e5cf4a8c88501559051939450909290917fdf6966c971051c3d54ec59162606531493a51404a002842f56009d7e5cf4a8c9019061081c9082611ff2565b50606082015160038201906108319082611ff2565b50505061083e33826111f3565b61087e8186868080601f0160208091040260200160405190810160405280939291908181526020018383808284376000920191909152506113d892505050565b61088c600780546001019055565b600b546040517f259a44660000000000000000000000000000000000000000000000000000000081526004810189905273ffffffffffffffffffffffffffffffffffffffff9091169063259a446690602401600060405180830381600087803b1580156108f857600080fd5b505af115801561090c573d6000803e3d6000fd5b5050505050505050505050565b6105e183838360405180602001604052806000815250610bc8565b60008181526002602052604081205473ffffffffffffffffffffffffffffffffffffffff16806103925760405162461bcd60e51b815260206004820152601860248201527f4552433732313a20696e76616c696420746f6b656e20494400000000000000006044820152606401610508565b600073ffffffffffffffffffffffffffffffffffffffff8216610a315760405162461bcd60e51b815260206004820152602960248201527f4552433732313a2061646472657373207a65726f206973206e6f74206120766160448201527f6c6964206f776e657200000000000000000000000000000000000000000000006064820152608401610508565b5073ffffffffffffffffffffffffffffffffffffffff1660009081526003602052604090205490565b600c8181548110610a6a57600080fd5b9060005260206000209060040201600091509050806000015490806001015490806002018054610a9990611f34565b80601f0160208091040260200160405190810160405280929190818152602001828054610ac590611f34565b8015610b125780601f10610ae757610100808354040283529160200191610b12565b820191906000526020600020905b815481529060010190602001808311610af557829003601f168201915b505050505090806003018054610b2790611f34565b80601f0160208091040260200160405190810160405280929190818152602001828054610b5390611f34565b8015610ba05780601f10610b7557610100808354040283529160200191610ba0565b820191906000526020600020905b815481529060010190602001808311610b8357829003601f168201915b5050505050905084565b6060600180546103a790611f34565b610bc4338383611487565b5050565b610bd23383610e7a565b610c445760405162461bcd60e51b815260206004820152602d60248201527f4552433732313a2063616c6c6572206973206e6f7420746f6b656e206f776e6560448201527f72206f7220617070726f766564000000000000000000000000000000000000006064820152608401610508565b610c508484848461159a565b50505050565b6060610c6182610d66565b60008281526006602052604081208054610c7a90611f34565b80601f0160208091040260200160405190810160405280929190818152602001828054610ca690611f34565b8015610cf35780601f10610cc857610100808354040283529160200191610cf3565b820191906000526020600020905b815481529060010190602001808311610cd657829003601f168201915b505050505090506000610d1160408051602081019091526000815290565b90508051600003610d23575092915050565b815115610d55578082604051602001610d3d92919061210c565b60405160208183030381529060405292505050919050565b610d5e84611623565b949350505050565b60008181526002602052604090205473ffffffffffffffffffffffffffffffffffffffff16610dd75760405162461bcd60e51b815260206004820152601860248201527f4552433732313a20696e76616c696420746f6b656e20494400000000000000006044820152606401610508565b50565b600081815260046020526040902080547fffffffffffffffffffffffff00000000000000000000000000000000000000001673ffffffffffffffffffffffffffffffffffffffff84169081179091558190610e3482610934565b73ffffffffffffffffffffffffffffffffffffffff167f8c5be1e5ebec7d5bd14f71427d1e84f3dd0314c0f7b2291e5b200ac8c7c3b92560405160405180910390a45050565b600080610e8683610934565b90508073ffffffffffffffffffffffffffffffffffffffff168473ffffffffffffffffffffffffffffffffffffffff161480610ef4575073ffffffffffffffffffffffffffffffffffffffff80821660009081526005602090815260408083209388168352929052205460ff165b80610d5e57508373ffffffffffffffffffffffffffffffffffffffff16610f1a8461042a565b73ffffffffffffffffffffffffffffffffffffffff1614949350505050565b8273ffffffffffffffffffffffffffffffffffffffff16610f5982610934565b73ffffffffffffffffffffffffffffffffffffffff1614610fe25760405162461bcd60e51b815260206004820152602560248201527f4552433732313a207472616e736665722066726f6d20696e636f72726563742060448201527f6f776e65720000000000000000000000000000000000000000000000000000006064820152608401610508565b73ffffffffffffffffffffffffffffffffffffffff821661106a5760405162461bcd60e51b8152602060048201526024808201527f4552433732313a207472616e7366657220746f20746865207a65726f2061646460448201527f72657373000000000000000000000000000000000000000000000000000000006064820152608401610508565b6110778383836001611697565b8273ffffffffffffffffffffffffffffffffffffffff1661109782610934565b73ffffffffffffffffffffffffffffffffffffffff16146111205760405162461bcd60e51b815260206004820152602560248201527f4552433732313a207472616e736665722066726f6d20696e636f72726563742060448201527f6f776e65720000000000000000000000000000000000000000000000000000006064820152608401610508565b600081815260046020908152604080832080547fffffffffffffffffffffffff000000000000000000000000000000000000000090811690915573ffffffffffffffffffffffffffffffffffffffff8781168086526003855283862080547fffffffffffffffffffffffffffffffffffffffffffffffffffffffffffffffff01905590871680865283862080546001019055868652600290945282852080549092168417909155905184937fddf252ad1be2c89b69c2b068fc378daa952ba7f163c4a11628f55a4df523b3ef91a4505050565b73ffffffffffffffffffffffffffffffffffffffff82166112565760405162461bcd60e51b815260206004820181905260248201527f4552433732313a206d696e7420746f20746865207a65726f20616464726573736044820152606401610508565b60008181526002602052604090205473ffffffffffffffffffffffffffffffffffffffff16156112c85760405162461bcd60e51b815260206004820152601c60248201527f4552433732313a20746f6b656e20616c7265616479206d696e746564000000006044820152606401610508565b6112d6600083836001611697565b60008181526002602052604090205473ffffffffffffffffffffffffffffffffffffffff16156113485760405162461bcd60e51b815260206004820152601c60248201527f4552433732313a20746f6b656e20616c7265616479206d696e746564000000006044820152606401610508565b73ffffffffffffffffffffffffffffffffffffffff8216600081815260036020908152604080832080546001019055848352600290915280822080547fffffffffffffffffffffffff0000000000000000000000000000000000000000168417905551839291907fddf252ad1be2c89b69c2b068fc378daa952ba7f163c4a11628f55a4df523b3ef908290a45050565b60008281526002602052604090205473ffffffffffffffffffffffffffffffffffffffff1661146f5760405162461bcd60e51b815260206004820152602e60248201527f45524337323155524953746f726167653a2055524920736574206f66206e6f6e60448201527f6578697374656e7420746f6b656e0000000000000000000000000000000000006064820152608401610508565b60008281526006602052604090206105e18282611ff2565b8173ffffffffffffffffffffffffffffffffffffffff168373ffffffffffffffffffffffffffffffffffffffff16036115025760405162461bcd60e51b815260206004820152601960248201527f4552433732313a20617070726f766520746f2063616c6c6572000000000000006044820152606401610508565b73ffffffffffffffffffffffffffffffffffffffff83811660008181526005602090815260408083209487168084529482529182902080547fffffffffffffffffffffffffffffffffffffffffffffffffffffffffffffff001686151590811790915591519182527f17307eab39ab6107e8899845ad3d59bd9653f200f220920489ca2b5937696c31910160405180910390a3505050565b6115a5848484610f39565b6115b184848484611753565b610c505760405162461bcd60e51b815260206004820152603260248201527f4552433732313a207472616e7366657220746f206e6f6e20455243373231526560448201527f63656976657220696d706c656d656e74657200000000000000000000000000006064820152608401610508565b606061162e82610d66565b600061164560408051602081019091526000815290565b905060008151116116655760405180602001604052806000815250611690565b8061166f8461192c565b60405160200161168092919061210c565b6040516020818303038152906040525b9392505050565b6001811115610c505773ffffffffffffffffffffffffffffffffffffffff8416156116f75773ffffffffffffffffffffffffffffffffffffffff8416600090815260036020526040812080548392906116f190849061216a565b90915550505b73ffffffffffffffffffffffffffffffffffffffff831615610c505773ffffffffffffffffffffffffffffffffffffffff83166000908152600360205260408120805483929061174890849061217d565b909155505050505050565b600073ffffffffffffffffffffffffffffffffffffffff84163b15611921576040517f150b7a0200000000000000000000000000000000000000000000000000000000815273ffffffffffffffffffffffffffffffffffffffff85169063150b7a02906117ca903390899088908890600401612190565b6020604051808303816000875af1925050508015611823575060408051601f3d9081017fffffffffffffffffffffffffffffffffffffffffffffffffffffffffffffffe0168201909252611820918101906121d9565b60015b6118d6573d808015611851576040519150601f19603f3d011682016040523d82523d6000602084013e611856565b606091505b5080516000036118ce5760405162461bcd60e51b815260206004820152603260248201527f4552433732313a207472616e7366657220746f206e6f6e20455243373231526560448201527f63656976657220696d706c656d656e74657200000000000000000000000000006064820152608401610508565b805181602001fd5b7fffffffff00000000000000000000000000000000000000000000000000000000167f150b7a0200000000000000000000000000000000000000000000000000000000149050610d5e565b506001949350505050565b60606000611939836119ea565b600101905060008167ffffffffffffffff81111561195957611959611c40565b6040519080825280601f01601f191660200182016040528015611983576020820181803683370190505b5090508181016020015b7fffffffffffffffffffffffffffffffffffffffffffffffffffffffffffffffff017f3031323334353637383961626364656600000000000000000000000000000000600a86061a8153600a850494508461198d57509392505050565b6000807a184f03e93ff9f4daa797ed6e38ed64bf6a1f0100000000000000008310611a33577a184f03e93ff9f4daa797ed6e38ed64bf6a1f010000000000000000830492506040015b6d04ee2d6d415b85acef81000000008310611a5f576d04ee2d6d415b85acef8100000000830492506020015b662386f26fc100008310611a7d57662386f26fc10000830492506010015b6305f5e1008310611a95576305f5e100830492506008015b6127108310611aa957612710830492506004015b60648310611abb576064830492506002015b600a83106103925760010192915050565b7fffffffff0000000000000000000000000000000000000000000000000000000081168114610dd757600080fd5b600060208284031215611b0c57600080fd5b813561169081611acc565b60005b83811015611b32578181015183820152602001611b1a565b50506000910152565b60008151808452611b53816020860160208601611b17565b601f017fffffffffffffffffffffffffffffffffffffffffffffffffffffffffffffffe0169290920160200192915050565b6020815260006116906020830184611b3b565b600060208284031215611baa57600080fd5b5035919050565b803573ffffffffffffffffffffffffffffffffffffffff81168114611bd557600080fd5b919050565b60008060408385031215611bed57600080fd5b611bf683611bb1565b946020939093013593505050565b600080600060608486031215611c1957600080fd5b611c2284611bb1565b9250611c3060208501611bb1565b9150604084013590509250925092565b7f4e487b7100000000000000000000000000000000000000000000000000000000600052604160045260246000fd5b600067ffffffffffffffff80841115611c8a57611c8a611c40565b604051601f85017fffffffffffffffffffffffffffffffffffffffffffffffffffffffffffffffe0908116603f01168101908282118183101715611cd057611cd0611c40565b81604052809350858152868686011115611ce957600080fd5b858560208301376000602087830101525050509392505050565b600082601f830112611d1457600080fd5b61169083833560208501611c6f565b600080600080600060808688031215611d3b57600080fd5b85359450602086013567ffffffffffffffff80821115611d5a57600080fd5b611d6689838a01611d03565b95506040880135915080821115611d7c57600080fd5b818801915088601f830112611d9057600080fd5b813581811115611d9f57600080fd5b896020828501011115611db157600080fd5b602083019550809450506060880135915080821115611dcf57600080fd5b50611ddc88828901611d03565b9150509295509295909350565b600060208284031215611dfb57600080fd5b61169082611bb1565b848152836020820152608060408201526000611e236080830185611b3b565b8281036060840152611e358185611b3b565b979650505050505050565b8015158114610dd757600080fd5b60008060408385031215611e6157600080fd5b611e6a83611bb1565b91506020830135611e7a81611e40565b809150509250929050565b60008060008060808587031215611e9b57600080fd5b611ea485611bb1565b9350611eb260208601611bb1565b925060408501359150606085013567ffffffffffffffff811115611ed557600080fd5b8501601f81018713611ee657600080fd5b611ef587823560208401611c6f565b91505092959194509250565b60008060408385031215611f1457600080fd5b611f1d83611bb1565b9150611f2b60208401611bb1565b90509250929050565b600181811c90821680611f4857607f821691505b602082108103611f81577f4e487b7100000000000000000000000000000000000000000000000000000000600052602260045260246000fd5b50919050565b600060208284031215611f9957600080fd5b815161169081611e40565b601f8211156105e157600081815260208120601f850160051c81016020861015611fcb5750805b601f850160051c820191505b81811015611fea57828155600101611fd7565b505050505050565b815167ffffffffffffffff81111561200c5761200c611c40565b6120208161201a8454611f34565b84611fa4565b602080601f831160018114612073576000841561203d5750858301515b7fffffffffffffffffffffffffffffffffffffffffffffffffffffffffffffffff600386901b1c1916600185901b178555611fea565b6000858152602081207fffffffffffffffffffffffffffffffffffffffffffffffffffffffffffffffe08616915b828110156120c0578886015182559484019460019091019084016120a1565b50858210156120fc57878501517fffffffffffffffffffffffffffffffffffffffffffffffffffffffffffffffff600388901b60f8161c191681555b5050505050600190811b01905550565b6000835161211e818460208801611b17565b835190830190612132818360208801611b17565b01949350505050565b7f4e487b7100000000000000000000000000000000000000000000000000000000600052601160045260246000fd5b818103818111156103925761039261213b565b808201808211156103925761039261213b565b600073ffffffffffffffffffffffffffffffffffffffff8087168352808616602084015250836040830152608060608301526121cf6080830184611b3b565b9695505050505050565b6000602082840312156121eb57600080fd5b815161169081611acc56fea2646970667358221220ebfcc02a9cadf9cfc9e1502ef79a83350fc3302e43f4fe9b9df7baa4d913b0b864736f6c63430008110033",
  "immutableReferences": {},
  "source": "// SPDX-License-Identifier: GPL-3.0\npragma solidity 0.8.17;\n\nimport \"../node_modules/@openzeppelin/contracts/token/ERC721/ERC721.sol\";\nimport \"../node_modules/@openzeppelin/contracts/token/ERC721/extensions/ERC721URIStorage.sol\";\nimport \"../node_modules/@openzeppelin/contracts/utils/Counters.sol\";\n\ninterface IICollectorsDAO {\n    function getProposalStatus(uint256 _proposalId)\n        external\n        view\n        returns (bool proposalStatus);\n\n    function updateDigitalMintStatus(uint256 _proposalId) external;\n}\n\n/// @notice this contract manage the ERC721 collection of each collector chain collections\n/// @notice (for Jury) IPFS upload not managed yet\ncontract NftDigital is ERC721URIStorage {\n    using Counters for Counters.Counter;\n    Counters.Counter public _id;\n\n    string collectionName;\n    string collectionSymbol;\n    uint256 _collectionId;\n\n    struct DigitalNft {\n        uint256 collectionId;\n        uint256 nftId;\n        string nftName;\n        string image;\n    }\n\n    IICollectorsDAO collectorsDAO;\n\n    DigitalNft[] public digitalNfts;\n\n    constructor(\n        uint256 collectionId_,\n        string memory collectionName_,\n        string memory collectionSymbol_,\n        address daoContractAddress_\n    ) ERC721(collectionName_, collectionSymbol_) {\n        _collectionId = collectionId_;\n        collectorsDAO = IICollectorsDAO(daoContractAddress_);\n    }\n\n    function mintDigitalNft(\n        uint256 _proposalId,\n        string memory _name,\n        string calldata _nftURI,\n        string memory _image\n    ) external {\n        // get the proposal status to allow the mint\n        bool proposalStatus = collectorsDAO.getProposalStatus(_proposalId);\n        require(proposalStatus == true, \"proposal is not accepted\");\n\n        uint256 newDigitalNftId = _id.current();\n        digitalNfts.push(\n            DigitalNft(_collectionId, newDigitalNftId, _name, _image)\n        );\n        _mint(msg.sender, newDigitalNftId);\n        _setTokenURI(newDigitalNftId, _nftURI);\n        _id.increment();\n        collectorsDAO.updateDigitalMintStatus(_proposalId);\n    }\n}\n",
  "sourcePath": "/Users/jeromejulien/Documents/vscode/FormationAlyra/02_Projets/CollectorChain_TokenizedCollectibles/truffle/contracts/NftDigital.sol",
  "compiler": {
    "name": "solc",
    "version": "0.8.17+commit.8df45f5f.Emscripten.clang"
  },
  "schemaVersion": "3.4.10",
  "updatedAt": "2022-12-08T14:10:03.893Z",
  "devdoc": {
    "kind": "dev",
    "methods": {
      "approve(address,uint256)": {
        "details": "See {IERC721-approve}."
      },
      "balanceOf(address)": {
        "details": "See {IERC721-balanceOf}."
      },
      "getApproved(uint256)": {
        "details": "See {IERC721-getApproved}."
      },
      "isApprovedForAll(address,address)": {
        "details": "See {IERC721-isApprovedForAll}."
      },
      "name()": {
        "details": "See {IERC721Metadata-name}."
      },
      "ownerOf(uint256)": {
        "details": "See {IERC721-ownerOf}."
      },
      "safeTransferFrom(address,address,uint256)": {
        "details": "See {IERC721-safeTransferFrom}."
      },
      "safeTransferFrom(address,address,uint256,bytes)": {
        "details": "See {IERC721-safeTransferFrom}."
      },
      "setApprovalForAll(address,bool)": {
        "details": "See {IERC721-setApprovalForAll}."
      },
      "supportsInterface(bytes4)": {
        "details": "See {IERC165-supportsInterface}."
      },
      "symbol()": {
        "details": "See {IERC721Metadata-symbol}."
      },
      "tokenURI(uint256)": {
        "details": "See {IERC721Metadata-tokenURI}."
      },
      "transferFrom(address,address,uint256)": {
        "details": "See {IERC721-transferFrom}."
      }
    },
    "version": 1
  },
  "userdoc": {
    "kind": "user",
    "methods": {},
    "notice": "this contract manage the ERC721 collection of each collector chain collections(for Jury) IPFS upload not managed yet",
    "version": 1
  }
}