{
  "contractName": "NftDigital",
  "abi": [
    {
      "inputs": [
        {
          "internalType": "uint256",
          "name": "collectionId_",
          "type": "uint256"
        },
        {
          "internalType": "string",
          "name": "collectionName_",
          "type": "string"
        },
        {
          "internalType": "string",
          "name": "collectionSymbol_",
          "type": "string"
        },
        {
          "internalType": "address",
          "name": "daoContractAddress_",
          "type": "address"
        }
      ],
      "stateMutability": "nonpayable",
      "type": "constructor"
    },
    {
      "anonymous": false,
      "inputs": [
        {
          "indexed": true,
          "internalType": "address",
          "name": "owner",
          "type": "address"
        },
        {
          "indexed": true,
          "internalType": "address",
          "name": "approved",
          "type": "address"
        },
        {
          "indexed": true,
          "internalType": "uint256",
          "name": "tokenId",
          "type": "uint256"
        }
      ],
      "name": "Approval",
      "type": "event"
    },
    {
      "anonymous": false,
      "inputs": [
        {
          "indexed": true,
          "internalType": "address",
          "name": "owner",
          "type": "address"
        },
        {
          "indexed": true,
          "internalType": "address",
          "name": "operator",
          "type": "address"
        },
        {
          "indexed": false,
          "internalType": "bool",
          "name": "approved",
          "type": "bool"
        }
      ],
      "name": "ApprovalForAll",
      "type": "event"
    },
    {
      "anonymous": false,
      "inputs": [
        {
          "indexed": true,
          "internalType": "address",
          "name": "from",
          "type": "address"
        },
        {
          "indexed": true,
          "internalType": "address",
          "name": "to",
          "type": "address"
        },
        {
          "indexed": true,
          "internalType": "uint256",
          "name": "tokenId",
          "type": "uint256"
        }
      ],
      "name": "Transfer",
      "type": "event"
    },
    {
      "inputs": [],
      "name": "_id",
      "outputs": [
        {
          "internalType": "uint256",
          "name": "_value",
          "type": "uint256"
        }
      ],
      "stateMutability": "view",
      "type": "function"
    },
    {
      "inputs": [
        {
          "internalType": "address",
          "name": "to",
          "type": "address"
        },
        {
          "internalType": "uint256",
          "name": "tokenId",
          "type": "uint256"
        }
      ],
      "name": "approve",
      "outputs": [],
      "stateMutability": "nonpayable",
      "type": "function"
    },
    {
      "inputs": [
        {
          "internalType": "address",
          "name": "owner",
          "type": "address"
        }
      ],
      "name": "balanceOf",
      "outputs": [
        {
          "internalType": "uint256",
          "name": "",
          "type": "uint256"
        }
      ],
      "stateMutability": "view",
      "type": "function"
    },
    {
      "inputs": [
        {
          "internalType": "uint256",
          "name": "",
          "type": "uint256"
        }
      ],
      "name": "digitalNfts",
      "outputs": [
        {
          "internalType": "uint256",
          "name": "nftId",
          "type": "uint256"
        },
        {
          "internalType": "string",
          "name": "nftName",
          "type": "string"
        }
      ],
      "stateMutability": "view",
      "type": "function"
    },
    {
      "inputs": [
        {
          "internalType": "uint256",
          "name": "tokenId",
          "type": "uint256"
        }
      ],
      "name": "getApproved",
      "outputs": [
        {
          "internalType": "address",
          "name": "",
          "type": "address"
        }
      ],
      "stateMutability": "view",
      "type": "function"
    },
    {
      "inputs": [
        {
          "internalType": "address",
          "name": "owner",
          "type": "address"
        },
        {
          "internalType": "address",
          "name": "operator",
          "type": "address"
        }
      ],
      "name": "isApprovedForAll",
      "outputs": [
        {
          "internalType": "bool",
          "name": "",
          "type": "bool"
        }
      ],
      "stateMutability": "view",
      "type": "function"
    },
    {
      "inputs": [],
      "name": "name",
      "outputs": [
        {
          "internalType": "string",
          "name": "",
          "type": "string"
        }
      ],
      "stateMutability": "view",
      "type": "function"
    },
    {
      "inputs": [
        {
          "internalType": "uint256",
          "name": "tokenId",
          "type": "uint256"
        }
      ],
      "name": "ownerOf",
      "outputs": [
        {
          "internalType": "address",
          "name": "",
          "type": "address"
        }
      ],
      "stateMutability": "view",
      "type": "function"
    },
    {
      "inputs": [
        {
          "internalType": "address",
          "name": "from",
          "type": "address"
        },
        {
          "internalType": "address",
          "name": "to",
          "type": "address"
        },
        {
          "internalType": "uint256",
          "name": "tokenId",
          "type": "uint256"
        }
      ],
      "name": "safeTransferFrom",
      "outputs": [],
      "stateMutability": "nonpayable",
      "type": "function"
    },
    {
      "inputs": [
        {
          "internalType": "address",
          "name": "from",
          "type": "address"
        },
        {
          "internalType": "address",
          "name": "to",
          "type": "address"
        },
        {
          "internalType": "uint256",
          "name": "tokenId",
          "type": "uint256"
        },
        {
          "internalType": "bytes",
          "name": "data",
          "type": "bytes"
        }
      ],
      "name": "safeTransferFrom",
      "outputs": [],
      "stateMutability": "nonpayable",
      "type": "function"
    },
    {
      "inputs": [
        {
          "internalType": "address",
          "name": "operator",
          "type": "address"
        },
        {
          "internalType": "bool",
          "name": "approved",
          "type": "bool"
        }
      ],
      "name": "setApprovalForAll",
      "outputs": [],
      "stateMutability": "nonpayable",
      "type": "function"
    },
    {
      "inputs": [
        {
          "internalType": "bytes4",
          "name": "interfaceId",
          "type": "bytes4"
        }
      ],
      "name": "supportsInterface",
      "outputs": [
        {
          "internalType": "bool",
          "name": "",
          "type": "bool"
        }
      ],
      "stateMutability": "view",
      "type": "function"
    },
    {
      "inputs": [],
      "name": "symbol",
      "outputs": [
        {
          "internalType": "string",
          "name": "",
          "type": "string"
        }
      ],
      "stateMutability": "view",
      "type": "function"
    },
    {
      "inputs": [
        {
          "internalType": "uint256",
          "name": "tokenId",
          "type": "uint256"
        }
      ],
      "name": "tokenURI",
      "outputs": [
        {
          "internalType": "string",
          "name": "",
          "type": "string"
        }
      ],
      "stateMutability": "view",
      "type": "function"
    },
    {
      "inputs": [
        {
          "internalType": "address",
          "name": "from",
          "type": "address"
        },
        {
          "internalType": "address",
          "name": "to",
          "type": "address"
        },
        {
          "internalType": "uint256",
          "name": "tokenId",
          "type": "uint256"
        }
      ],
      "name": "transferFrom",
      "outputs": [],
      "stateMutability": "nonpayable",
      "type": "function"
    },
    {
      "inputs": [
        {
          "internalType": "uint256",
          "name": "_proposalId",
          "type": "uint256"
        },
        {
          "internalType": "string",
          "name": "_name",
          "type": "string"
        },
        {
          "internalType": "string",
          "name": "_nftURI",
          "type": "string"
        }
      ],
      "name": "mintDigitalNft",
      "outputs": [],
      "stateMutability": "nonpayable",
      "type": "function"
    }
  ],
  "bytecode": "0x60806040523480156200001157600080fd5b5060405162001d7e38038062001d7e833981016040819052620000349162000148565b828260006200004483826200026d565b5060016200005382826200026d565b505050600a939093555050600b80546001600160a01b0319166001600160a01b0390921691909117905562000339565b634e487b7160e01b600052604160045260246000fd5b600082601f830112620000ab57600080fd5b81516001600160401b0380821115620000c857620000c862000083565b604051601f8301601f19908116603f01168101908282118183101715620000f357620000f362000083565b816040528381526020925086838588010111156200011057600080fd5b600091505b8382101562000134578582018301518183018401529082019062000115565b600093810190920192909252949350505050565b600080600080608085870312156200015f57600080fd5b845160208601519094506001600160401b03808211156200017f57600080fd5b6200018d8883890162000099565b94506040870151915080821115620001a457600080fd5b50620001b38782880162000099565b606087015190935090506001600160a01b0381168114620001d357600080fd5b939692955090935050565b600181811c90821680620001f357607f821691505b6020821081036200021457634e487b7160e01b600052602260045260246000fd5b50919050565b601f8211156200026857600081815260208120601f850160051c81016020861015620002435750805b601f850160051c820191505b8181101562000264578281556001016200024f565b5050505b505050565b81516001600160401b0381111562000289576200028962000083565b620002a1816200029a8454620001de565b846200021a565b602080601f831160018114620002d95760008415620002c05750858301515b600019600386901b1c1916600185901b17855562000264565b600085815260208120601f198616915b828110156200030a57888601518255948401946001909101908401620002e9565b5085821015620003295787850151600019600388901b60f8161c191681555b5050505050600190811b01905550565b611a3580620003496000396000f3fe608060405234801561001057600080fd5b50600436106101005760003560e01c80636352211e11610097578063a22cb46511610066578063a22cb46514610222578063b88d4fde14610235578063c87b56dd14610248578063e985e9c51461025b57600080fd5b80636352211e146101d357806370a08231146101e6578063777f09e2146101f957806395d89b411461021a57600080fd5b8063095ea7b3116100d3578063095ea7b31461018557806323b872dd1461019a5780633259cf6f146101ad57806342842e0e146101c057600080fd5b806301ffc9a714610105578063051802371461012d57806306fdde0314610145578063081812fc1461015a575b600080fd5b610118610113366004611370565b61026e565b60405190151581526020015b60405180910390f35b6007546101379081565b604051908152602001610124565b61014d6102c0565b60405161012491906113dd565b61016d6101683660046113f0565b610352565b6040516001600160a01b039091168152602001610124565b610198610193366004611425565b610379565b005b6101986101a836600461144f565b610493565b6101986101bb366004611517565b6104c4565b6101986101ce36600461144f565b6106d9565b61016d6101e13660046113f0565b6106f4565b6101376101f43660046115c9565b610754565b61020c6102073660046113f0565b6107da565b6040516101249291906115e4565b61014d610892565b61019861023036600461160b565b6108a1565b610198610243366004611642565b6108b0565b61014d6102563660046113f0565b6108e8565b6101186102693660046116be565b6109f8565b60006001600160e01b031982166380ac58cd60e01b148061029f57506001600160e01b03198216635b5e139f60e01b145b806102ba57506301ffc9a760e01b6001600160e01b03198316145b92915050565b6060600080546102cf906116f1565b80601f01602080910402602001604051908101604052809291908181526020018280546102fb906116f1565b80156103485780601f1061031d57610100808354040283529160200191610348565b820191906000526020600020905b81548152906001019060200180831161032b57829003601f168201915b5050505050905090565b600061035d82610a26565b506000908152600460205260409020546001600160a01b031690565b6000610384826106f4565b9050806001600160a01b0316836001600160a01b0316036103f65760405162461bcd60e51b815260206004820152602160248201527f4552433732313a20617070726f76616c20746f2063757272656e74206f776e656044820152603960f91b60648201526084015b60405180910390fd5b336001600160a01b0382161480610412575061041281336109f8565b6104845760405162461bcd60e51b815260206004820152603d60248201527f4552433732313a20617070726f76652063616c6c6572206973206e6f7420746f60448201527f6b656e206f776e6572206f7220617070726f76656420666f7220616c6c00000060648201526084016103ed565b61048e8383610a88565b505050565b61049d3382610af6565b6104b95760405162461bcd60e51b81526004016103ed9061172b565b61048e838383610b54565b600b5460405163401853b760e01b8152600481018690526000916001600160a01b03169063401853b790602401602060405180830381865afa15801561050e573d6000803e3d6000fd5b505050506040513d601f19601f820116820180604052508101906105329190611778565b90506001811515146105865760405162461bcd60e51b815260206004820152601860248201527f70726f706f73616c206973206e6f74206163636570746564000000000000000060448201526064016103ed565b600061059160075490565b6040805180820190915281815260208101878152600c8054600181018255600091909152825160029091027fdf6966c971051c3d54ec59162606531493a51404a002842f56009d7e5cf4a8c78101918255915193945091927fdf6966c971051c3d54ec59162606531493a51404a002842f56009d7e5cf4a8c89091019061061890826117e3565b5050506106253382610cc5565b6106658185858080601f016020809104026020016040519081016040528093929190818152602001838380828437600092019190915250610e5e92505050565b610673600780546001019055565b600b546040516312cd223360e11b8152600481018890526001600160a01b039091169063259a446690602401600060405180830381600087803b1580156106b957600080fd5b505af11580156106cd573d6000803e3d6000fd5b50505050505050505050565b61048e838383604051806020016040528060008152506108b0565b6000818152600260205260408120546001600160a01b0316806102ba5760405162461bcd60e51b8152602060048201526018602482015277115490cdcc8c4e881a5b9d985b1a59081d1bdad95b88125160421b60448201526064016103ed565b60006001600160a01b0382166107be5760405162461bcd60e51b815260206004820152602960248201527f4552433732313a2061646472657373207a65726f206973206e6f7420612076616044820152683634b21037bbb732b960b91b60648201526084016103ed565b506001600160a01b031660009081526003602052604090205490565b600c81815481106107ea57600080fd5b6000918252602090912060029091020180546001820180549193509061080f906116f1565b80601f016020809104026020016040519081016040528092919081815260200182805461083b906116f1565b80156108885780601f1061085d57610100808354040283529160200191610888565b820191906000526020600020905b81548152906001019060200180831161086b57829003601f168201915b5050505050905082565b6060600180546102cf906116f1565b6108ac338383610ef1565b5050565b6108ba3383610af6565b6108d65760405162461bcd60e51b81526004016103ed9061172b565b6108e284848484610fbf565b50505050565b60606108f382610a26565b6000828152600660205260408120805461090c906116f1565b80601f0160208091040260200160405190810160405280929190818152602001828054610938906116f1565b80156109855780601f1061095a57610100808354040283529160200191610985565b820191906000526020600020905b81548152906001019060200180831161096857829003601f168201915b5050505050905060006109a360408051602081019091526000815290565b905080516000036109b5575092915050565b8151156109e75780826040516020016109cf9291906118a3565b60405160208183030381529060405292505050919050565b6109f084610ff2565b949350505050565b6001600160a01b03918216600090815260056020908152604080832093909416825291909152205460ff1690565b6000818152600260205260409020546001600160a01b0316610a855760405162461bcd60e51b8152602060048201526018602482015277115490cdcc8c4e881a5b9d985b1a59081d1bdad95b88125160421b60448201526064016103ed565b50565b600081815260046020526040902080546001600160a01b0319166001600160a01b0384169081179091558190610abd826106f4565b6001600160a01b03167f8c5be1e5ebec7d5bd14f71427d1e84f3dd0314c0f7b2291e5b200ac8c7c3b92560405160405180910390a45050565b600080610b02836106f4565b9050806001600160a01b0316846001600160a01b03161480610b295750610b2981856109f8565b806109f05750836001600160a01b0316610b4284610352565b6001600160a01b031614949350505050565b826001600160a01b0316610b67826106f4565b6001600160a01b031614610b8d5760405162461bcd60e51b81526004016103ed906118d2565b6001600160a01b038216610bef5760405162461bcd60e51b8152602060048201526024808201527f4552433732313a207472616e7366657220746f20746865207a65726f206164646044820152637265737360e01b60648201526084016103ed565b610bfc8383836001611066565b826001600160a01b0316610c0f826106f4565b6001600160a01b031614610c355760405162461bcd60e51b81526004016103ed906118d2565b600081815260046020908152604080832080546001600160a01b03199081169091556001600160a01b0387811680865260038552838620805460001901905590871680865283862080546001019055868652600290945282852080549092168417909155905184937fddf252ad1be2c89b69c2b068fc378daa952ba7f163c4a11628f55a4df523b3ef91a4505050565b6001600160a01b038216610d1b5760405162461bcd60e51b815260206004820181905260248201527f4552433732313a206d696e7420746f20746865207a65726f206164647265737360448201526064016103ed565b6000818152600260205260409020546001600160a01b031615610d805760405162461bcd60e51b815260206004820152601c60248201527f4552433732313a20746f6b656e20616c7265616479206d696e7465640000000060448201526064016103ed565b610d8e600083836001611066565b6000818152600260205260409020546001600160a01b031615610df35760405162461bcd60e51b815260206004820152601c60248201527f4552433732313a20746f6b656e20616c7265616479206d696e7465640000000060448201526064016103ed565b6001600160a01b038216600081815260036020908152604080832080546001019055848352600290915280822080546001600160a01b0319168417905551839291907fddf252ad1be2c89b69c2b068fc378daa952ba7f163c4a11628f55a4df523b3ef908290a45050565b6000828152600260205260409020546001600160a01b0316610ed95760405162461bcd60e51b815260206004820152602e60248201527f45524337323155524953746f726167653a2055524920736574206f66206e6f6e60448201526d32bc34b9ba32b73a103a37b5b2b760911b60648201526084016103ed565b600082815260066020526040902061048e82826117e3565b816001600160a01b0316836001600160a01b031603610f525760405162461bcd60e51b815260206004820152601960248201527f4552433732313a20617070726f766520746f2063616c6c65720000000000000060448201526064016103ed565b6001600160a01b03838116600081815260056020908152604080832094871680845294825291829020805460ff191686151590811790915591519182527f17307eab39ab6107e8899845ad3d59bd9653f200f220920489ca2b5937696c31910160405180910390a3505050565b610fca848484610b54565b610fd6848484846110ee565b6108e25760405162461bcd60e51b81526004016103ed90611917565b6060610ffd82610a26565b600061101460408051602081019091526000815290565b90506000815111611034576040518060200160405280600081525061105f565b8061103e846111ef565b60405160200161104f9291906118a3565b6040516020818303038152906040525b9392505050565b60018111156108e2576001600160a01b038416156110ac576001600160a01b038416600090815260036020526040812080548392906110a690849061197f565b90915550505b6001600160a01b038316156108e2576001600160a01b038316600090815260036020526040812080548392906110e3908490611992565b909155505050505050565b60006001600160a01b0384163b156111e457604051630a85bd0160e11b81526001600160a01b0385169063150b7a02906111329033908990889088906004016119a5565b6020604051808303816000875af192505050801561116d575060408051601f3d908101601f1916820190925261116a918101906119e2565b60015b6111ca573d80801561119b576040519150601f19603f3d011682016040523d82523d6000602084013e6111a0565b606091505b5080516000036111c25760405162461bcd60e51b81526004016103ed90611917565b805181602001fd5b6001600160e01b031916630a85bd0160e11b1490506109f0565b506001949350505050565b606060006111fc83611282565b600101905060008167ffffffffffffffff81111561121c5761121c61148b565b6040519080825280601f01601f191660200182016040528015611246576020820181803683370190505b5090508181016020015b600019016f181899199a1a9b1b9c1cb0b131b232b360811b600a86061a8153600a850494508461125057509392505050565b60008072184f03e93ff9f4daa797ed6e38ed64bf6a1f0160401b83106112c15772184f03e93ff9f4daa797ed6e38ed64bf6a1f0160401b830492506040015b6d04ee2d6d415b85acef810000000083106112ed576d04ee2d6d415b85acef8100000000830492506020015b662386f26fc10000831061130b57662386f26fc10000830492506010015b6305f5e1008310611323576305f5e100830492506008015b612710831061133757612710830492506004015b60648310611349576064830492506002015b600a83106102ba5760010192915050565b6001600160e01b031981168114610a8557600080fd5b60006020828403121561138257600080fd5b813561105f8161135a565b60005b838110156113a8578181015183820152602001611390565b50506000910152565b600081518084526113c981602086016020860161138d565b601f01601f19169290920160200192915050565b60208152600061105f60208301846113b1565b60006020828403121561140257600080fd5b5035919050565b80356001600160a01b038116811461142057600080fd5b919050565b6000806040838503121561143857600080fd5b61144183611409565b946020939093013593505050565b60008060006060848603121561146457600080fd5b61146d84611409565b925061147b60208501611409565b9150604084013590509250925092565b634e487b7160e01b600052604160045260246000fd5b600067ffffffffffffffff808411156114bc576114bc61148b565b604051601f8501601f19908116603f011681019082821181831017156114e4576114e461148b565b816040528093508581528686860111156114fd57600080fd5b858560208301376000602087830101525050509392505050565b6000806000806060858703121561152d57600080fd5b84359350602085013567ffffffffffffffff8082111561154c57600080fd5b818701915087601f83011261156057600080fd5b61156f888335602085016114a1565b9450604087013591508082111561158557600080fd5b818701915087601f83011261159957600080fd5b8135818111156115a857600080fd5b8860208285010111156115ba57600080fd5b95989497505060200194505050565b6000602082840312156115db57600080fd5b61105f82611409565b8281526040602082015260006109f060408301846113b1565b8015158114610a8557600080fd5b6000806040838503121561161e57600080fd5b61162783611409565b91506020830135611637816115fd565b809150509250929050565b6000806000806080858703121561165857600080fd5b61166185611409565b935061166f60208601611409565b925060408501359150606085013567ffffffffffffffff81111561169257600080fd5b8501601f810187136116a357600080fd5b6116b2878235602084016114a1565b91505092959194509250565b600080604083850312156116d157600080fd5b6116da83611409565b91506116e860208401611409565b90509250929050565b600181811c9082168061170557607f821691505b60208210810361172557634e487b7160e01b600052602260045260246000fd5b50919050565b6020808252602d908201527f4552433732313a2063616c6c6572206973206e6f7420746f6b656e206f776e6560408201526c1c881bdc88185c1c1c9bdd9959609a1b606082015260800190565b60006020828403121561178a57600080fd5b815161105f816115fd565b601f82111561048e57600081815260208120601f850160051c810160208610156117bc5750805b601f850160051c820191505b818110156117db578281556001016117c8565b505050505050565b815167ffffffffffffffff8111156117fd576117fd61148b565b6118118161180b84546116f1565b84611795565b602080601f831160018114611846576000841561182e5750858301515b600019600386901b1c1916600185901b1785556117db565b600085815260208120601f198616915b8281101561187557888601518255948401946001909101908401611856565b50858210156118935787850151600019600388901b60f8161c191681555b5050505050600190811b01905550565b600083516118b581846020880161138d565b8351908301906118c981836020880161138d565b01949350505050565b60208082526025908201527f4552433732313a207472616e736665722066726f6d20696e636f72726563742060408201526437bbb732b960d91b606082015260800190565b60208082526032908201527f4552433732313a207472616e7366657220746f206e6f6e20455243373231526560408201527131b2b4bb32b91034b6b83632b6b2b73a32b960711b606082015260800190565b634e487b7160e01b600052601160045260246000fd5b818103818111156102ba576102ba611969565b808201808211156102ba576102ba611969565b6001600160a01b03858116825284166020820152604081018390526080606082018190526000906119d8908301846113b1565b9695505050505050565b6000602082840312156119f457600080fd5b815161105f8161135a56fea26469706673582212201182a8ef5e0fbcd1380ad2d4d10ed10174f897ae4d30f4b54b52a64a32295c5264736f6c63430008110033",
  "immutableReferences": {},
  "source": "// SPDX-License-Identifier: GPL-3.0\npragma solidity 0.8.17;\n\nimport \"../node_modules/@openzeppelin/contracts/token/ERC721/ERC721.sol\";\nimport \"../node_modules/@openzeppelin/contracts/token/ERC721/extensions/ERC721URIStorage.sol\";\nimport \"../node_modules/@openzeppelin/contracts/utils/Counters.sol\";\n\ninterface IICollectorsDAO {\n    function getProposalStatus(uint256 _proposalId)\n        external\n        view\n        returns (bool proposalStatus);\n\n    function updateDigitalMintStatus(uint256 _proposalId) external;\n}\n\ncontract NftDigital is ERC721URIStorage {\n    using Counters for Counters.Counter;\n    Counters.Counter public _id;\n\n    string collectionName;\n    string collectionSymbol;\n    uint256 collectionId;\n\n    struct DigitalNft {\n        uint256 nftId;\n        string nftName;\n    }\n\n    IICollectorsDAO collectorsDAO;\n\n    DigitalNft[] public digitalNfts;\n\n    constructor(\n        uint256 collectionId_,\n        string memory collectionName_,\n        string memory collectionSymbol_,\n        address daoContractAddress_\n    ) ERC721(collectionName_, collectionSymbol_) {\n        collectionId = collectionId_;\n        collectorsDAO = IICollectorsDAO(daoContractAddress_);\n    }\n\n    function mintDigitalNft(\n        uint256 _proposalId,\n        string memory _name,\n        string calldata _nftURI\n    ) public {\n        // get the proposal status to allow the mint\n        bool proposalStatus = collectorsDAO.getProposalStatus(_proposalId);\n        require(proposalStatus == true, \"proposal is not accepted\");\n\n        uint256 newDigitalNftId = _id.current();\n        digitalNfts.push(DigitalNft(newDigitalNftId, _name));\n        _mint(msg.sender, newDigitalNftId);\n        _setTokenURI(newDigitalNftId, _nftURI);\n        _id.increment();\n        collectorsDAO.updateDigitalMintStatus(_proposalId);\n    }\n}\n",
  "sourcePath": "/Users/jeromejulien/Documents/vscode/FormationAlyra/02_Projets/CollectorChain_TokenizedCollectibles/truffle/contracts/NftDigital.sol",
  "compiler": {
    "name": "solc",
    "version": "0.8.17+commit.8df45f5f.Emscripten.clang"
  },
  "schemaVersion": "3.4.10",
  "updatedAt": "2022-12-06T12:25:42.298Z",
  "devdoc": {
    "kind": "dev",
    "methods": {
      "approve(address,uint256)": {
        "details": "See {IERC721-approve}."
      },
      "balanceOf(address)": {
        "details": "See {IERC721-balanceOf}."
      },
      "getApproved(uint256)": {
        "details": "See {IERC721-getApproved}."
      },
      "isApprovedForAll(address,address)": {
        "details": "See {IERC721-isApprovedForAll}."
      },
      "name()": {
        "details": "See {IERC721Metadata-name}."
      },
      "ownerOf(uint256)": {
        "details": "See {IERC721-ownerOf}."
      },
      "safeTransferFrom(address,address,uint256)": {
        "details": "See {IERC721-safeTransferFrom}."
      },
      "safeTransferFrom(address,address,uint256,bytes)": {
        "details": "See {IERC721-safeTransferFrom}."
      },
      "setApprovalForAll(address,bool)": {
        "details": "See {IERC721-setApprovalForAll}."
      },
      "supportsInterface(bytes4)": {
        "details": "See {IERC165-supportsInterface}."
      },
      "symbol()": {
        "details": "See {IERC721Metadata-symbol}."
      },
      "tokenURI(uint256)": {
        "details": "See {IERC721Metadata-tokenURI}."
      },
      "transferFrom(address,address,uint256)": {
        "details": "See {IERC721-transferFrom}."
      }
    },
    "version": 1
  },
  "userdoc": {
    "kind": "user",
    "methods": {},
    "version": 1
  }
}