{
  "contractName": "NftDigital",
  "abi": [
    {
      "inputs": [
        {
          "internalType": "uint256",
          "name": "collectionId_",
          "type": "uint256"
        },
        {
          "internalType": "string",
          "name": "collectionName_",
          "type": "string"
        },
        {
          "internalType": "string",
          "name": "collectionSymbol_",
          "type": "string"
        },
        {
          "internalType": "address",
          "name": "daoContractAddress_",
          "type": "address"
        }
      ],
      "stateMutability": "nonpayable",
      "type": "constructor"
    },
    {
      "anonymous": false,
      "inputs": [
        {
          "indexed": true,
          "internalType": "address",
          "name": "owner",
          "type": "address"
        },
        {
          "indexed": true,
          "internalType": "address",
          "name": "approved",
          "type": "address"
        },
        {
          "indexed": true,
          "internalType": "uint256",
          "name": "tokenId",
          "type": "uint256"
        }
      ],
      "name": "Approval",
      "type": "event"
    },
    {
      "anonymous": false,
      "inputs": [
        {
          "indexed": true,
          "internalType": "address",
          "name": "owner",
          "type": "address"
        },
        {
          "indexed": true,
          "internalType": "address",
          "name": "operator",
          "type": "address"
        },
        {
          "indexed": false,
          "internalType": "bool",
          "name": "approved",
          "type": "bool"
        }
      ],
      "name": "ApprovalForAll",
      "type": "event"
    },
    {
      "anonymous": false,
      "inputs": [
        {
          "indexed": true,
          "internalType": "address",
          "name": "from",
          "type": "address"
        },
        {
          "indexed": true,
          "internalType": "address",
          "name": "to",
          "type": "address"
        },
        {
          "indexed": true,
          "internalType": "uint256",
          "name": "tokenId",
          "type": "uint256"
        }
      ],
      "name": "Transfer",
      "type": "event"
    },
    {
      "inputs": [],
      "name": "_id",
      "outputs": [
        {
          "internalType": "uint256",
          "name": "_value",
          "type": "uint256"
        }
      ],
      "stateMutability": "view",
      "type": "function"
    },
    {
      "inputs": [
        {
          "internalType": "address",
          "name": "to",
          "type": "address"
        },
        {
          "internalType": "uint256",
          "name": "tokenId",
          "type": "uint256"
        }
      ],
      "name": "approve",
      "outputs": [],
      "stateMutability": "nonpayable",
      "type": "function"
    },
    {
      "inputs": [
        {
          "internalType": "address",
          "name": "owner",
          "type": "address"
        }
      ],
      "name": "balanceOf",
      "outputs": [
        {
          "internalType": "uint256",
          "name": "",
          "type": "uint256"
        }
      ],
      "stateMutability": "view",
      "type": "function"
    },
    {
      "inputs": [
        {
          "internalType": "uint256",
          "name": "tokenId",
          "type": "uint256"
        }
      ],
      "name": "getApproved",
      "outputs": [
        {
          "internalType": "address",
          "name": "",
          "type": "address"
        }
      ],
      "stateMutability": "view",
      "type": "function"
    },
    {
      "inputs": [
        {
          "internalType": "address",
          "name": "owner",
          "type": "address"
        },
        {
          "internalType": "address",
          "name": "operator",
          "type": "address"
        }
      ],
      "name": "isApprovedForAll",
      "outputs": [
        {
          "internalType": "bool",
          "name": "",
          "type": "bool"
        }
      ],
      "stateMutability": "view",
      "type": "function"
    },
    {
      "inputs": [],
      "name": "name",
      "outputs": [
        {
          "internalType": "string",
          "name": "",
          "type": "string"
        }
      ],
      "stateMutability": "view",
      "type": "function"
    },
    {
      "inputs": [
        {
          "internalType": "uint256",
          "name": "tokenId",
          "type": "uint256"
        }
      ],
      "name": "ownerOf",
      "outputs": [
        {
          "internalType": "address",
          "name": "",
          "type": "address"
        }
      ],
      "stateMutability": "view",
      "type": "function"
    },
    {
      "inputs": [
        {
          "internalType": "address",
          "name": "from",
          "type": "address"
        },
        {
          "internalType": "address",
          "name": "to",
          "type": "address"
        },
        {
          "internalType": "uint256",
          "name": "tokenId",
          "type": "uint256"
        }
      ],
      "name": "safeTransferFrom",
      "outputs": [],
      "stateMutability": "nonpayable",
      "type": "function"
    },
    {
      "inputs": [
        {
          "internalType": "address",
          "name": "from",
          "type": "address"
        },
        {
          "internalType": "address",
          "name": "to",
          "type": "address"
        },
        {
          "internalType": "uint256",
          "name": "tokenId",
          "type": "uint256"
        },
        {
          "internalType": "bytes",
          "name": "data",
          "type": "bytes"
        }
      ],
      "name": "safeTransferFrom",
      "outputs": [],
      "stateMutability": "nonpayable",
      "type": "function"
    },
    {
      "inputs": [
        {
          "internalType": "address",
          "name": "operator",
          "type": "address"
        },
        {
          "internalType": "bool",
          "name": "approved",
          "type": "bool"
        }
      ],
      "name": "setApprovalForAll",
      "outputs": [],
      "stateMutability": "nonpayable",
      "type": "function"
    },
    {
      "inputs": [
        {
          "internalType": "bytes4",
          "name": "interfaceId",
          "type": "bytes4"
        }
      ],
      "name": "supportsInterface",
      "outputs": [
        {
          "internalType": "bool",
          "name": "",
          "type": "bool"
        }
      ],
      "stateMutability": "view",
      "type": "function"
    },
    {
      "inputs": [],
      "name": "symbol",
      "outputs": [
        {
          "internalType": "string",
          "name": "",
          "type": "string"
        }
      ],
      "stateMutability": "view",
      "type": "function"
    },
    {
      "inputs": [
        {
          "internalType": "uint256",
          "name": "tokenId",
          "type": "uint256"
        }
      ],
      "name": "tokenURI",
      "outputs": [
        {
          "internalType": "string",
          "name": "",
          "type": "string"
        }
      ],
      "stateMutability": "view",
      "type": "function"
    },
    {
      "inputs": [
        {
          "internalType": "address",
          "name": "from",
          "type": "address"
        },
        {
          "internalType": "address",
          "name": "to",
          "type": "address"
        },
        {
          "internalType": "uint256",
          "name": "tokenId",
          "type": "uint256"
        }
      ],
      "name": "transferFrom",
      "outputs": [],
      "stateMutability": "nonpayable",
      "type": "function"
    },
    {
      "inputs": [
        {
          "internalType": "uint256",
          "name": "_proposalId",
          "type": "uint256"
        },
        {
          "internalType": "string",
          "name": "_name",
          "type": "string"
        },
        {
          "internalType": "string",
          "name": "_nftURI",
          "type": "string"
        }
      ],
      "name": "mintDigitalNft",
      "outputs": [],
      "stateMutability": "nonpayable",
      "type": "function"
    }
  ],
  "bytecode": "0x60806040523480156200001157600080fd5b5060405162001c8138038062001c81833981016040819052620000349162000148565b828260006200004483826200026d565b5060016200005382826200026d565b505050600a939093555050600b80546001600160a01b0319166001600160a01b0390921691909117905562000339565b634e487b7160e01b600052604160045260246000fd5b600082601f830112620000ab57600080fd5b81516001600160401b0380821115620000c857620000c862000083565b604051601f8301601f19908116603f01168101908282118183101715620000f357620000f362000083565b816040528381526020925086838588010111156200011057600080fd5b600091505b8382101562000134578582018301518183018401529082019062000115565b600093810190920192909252949350505050565b600080600080608085870312156200015f57600080fd5b845160208601519094506001600160401b03808211156200017f57600080fd5b6200018d8883890162000099565b94506040870151915080821115620001a457600080fd5b50620001b38782880162000099565b606087015190935090506001600160a01b0381168114620001d357600080fd5b939692955090935050565b600181811c90821680620001f357607f821691505b6020821081036200021457634e487b7160e01b600052602260045260246000fd5b50919050565b601f8211156200026857600081815260208120601f850160051c81016020861015620002435750805b601f850160051c820191505b8181101562000264578281556001016200024f565b5050505b505050565b81516001600160401b0381111562000289576200028962000083565b620002a1816200029a8454620001de565b846200021a565b602080601f831160018114620002d95760008415620002c05750858301515b600019600386901b1c1916600185901b17855562000264565b600085815260208120601f198616915b828110156200030a57888601518255948401946001909101908401620002e9565b5085821015620003295787850151600019600388901b60f8161c191681555b5050505050600190811b01905550565b61193880620003496000396000f3fe608060405234801561001057600080fd5b50600436106100f55760003560e01c806342842e0e11610097578063a22cb46511610066578063a22cb465146101f6578063b88d4fde14610209578063c87b56dd1461021c578063e985e9c51461022f57600080fd5b806342842e0e146101b55780636352211e146101c857806370a08231146101db57806395d89b41146101ee57600080fd5b8063081812fc116100d3578063081812fc1461014f578063095ea7b31461017a57806323b872dd1461018f5780633259cf6f146101a257600080fd5b806301ffc9a7146100fa578063051802371461012257806306fdde031461013a575b600080fd5b61010d61010836600461128c565b610242565b60405190151581526020015b60405180910390f35b60075461012c9081565b604051908152602001610119565b610142610294565b60405161011991906112f9565b61016261015d36600461130c565b610326565b6040516001600160a01b039091168152602001610119565b61018d610188366004611341565b61034d565b005b61018d61019d36600461136b565b610467565b61018d6101b0366004611433565b610498565b61018d6101c336600461136b565b6106ad565b6101626101d636600461130c565b6106c8565b61012c6101e93660046114e5565b610728565b6101426107ae565b61018d61020436600461150e565b6107bd565b61018d610217366004611545565b6107cc565b61014261022a36600461130c565b610804565b61010d61023d3660046115c1565b610914565b60006001600160e01b031982166380ac58cd60e01b148061027357506001600160e01b03198216635b5e139f60e01b145b8061028e57506301ffc9a760e01b6001600160e01b03198316145b92915050565b6060600080546102a3906115f4565b80601f01602080910402602001604051908101604052809291908181526020018280546102cf906115f4565b801561031c5780601f106102f15761010080835404028352916020019161031c565b820191906000526020600020905b8154815290600101906020018083116102ff57829003601f168201915b5050505050905090565b600061033182610942565b506000908152600460205260409020546001600160a01b031690565b6000610358826106c8565b9050806001600160a01b0316836001600160a01b0316036103ca5760405162461bcd60e51b815260206004820152602160248201527f4552433732313a20617070726f76616c20746f2063757272656e74206f776e656044820152603960f91b60648201526084015b60405180910390fd5b336001600160a01b03821614806103e657506103e68133610914565b6104585760405162461bcd60e51b815260206004820152603d60248201527f4552433732313a20617070726f76652063616c6c6572206973206e6f7420746f60448201527f6b656e206f776e6572206f7220617070726f76656420666f7220616c6c00000060648201526084016103c1565b61046283836109a4565b505050565b6104713382610a12565b61048d5760405162461bcd60e51b81526004016103c19061162e565b610462838383610a70565b600b5460405163401853b760e01b8152600481018690526000916001600160a01b03169063401853b790602401602060405180830381865afa1580156104e2573d6000803e3d6000fd5b505050506040513d601f19601f82011682018060405250810190610506919061167b565b905060018115151461055a5760405162461bcd60e51b815260206004820152601860248201527f70726f706f73616c206973206e6f74206163636570746564000000000000000060448201526064016103c1565b600061056560075490565b6040805180820190915281815260208101878152600c8054600181018255600091909152825160029091027fdf6966c971051c3d54ec59162606531493a51404a002842f56009d7e5cf4a8c78101918255915193945091927fdf6966c971051c3d54ec59162606531493a51404a002842f56009d7e5cf4a8c8909101906105ec90826116e6565b5050506105f93382610be1565b6106398185858080601f016020809104026020016040519081016040528093929190818152602001838380828437600092019190915250610d7a92505050565b610647600780546001019055565b600b546040516312cd223360e11b8152600481018890526001600160a01b039091169063259a446690602401600060405180830381600087803b15801561068d57600080fd5b505af11580156106a1573d6000803e3d6000fd5b50505050505050505050565b610462838383604051806020016040528060008152506107cc565b6000818152600260205260408120546001600160a01b03168061028e5760405162461bcd60e51b8152602060048201526018602482015277115490cdcc8c4e881a5b9d985b1a59081d1bdad95b88125160421b60448201526064016103c1565b60006001600160a01b0382166107925760405162461bcd60e51b815260206004820152602960248201527f4552433732313a2061646472657373207a65726f206973206e6f7420612076616044820152683634b21037bbb732b960b91b60648201526084016103c1565b506001600160a01b031660009081526003602052604090205490565b6060600180546102a3906115f4565b6107c8338383610e0d565b5050565b6107d63383610a12565b6107f25760405162461bcd60e51b81526004016103c19061162e565b6107fe84848484610edb565b50505050565b606061080f82610942565b60008281526006602052604081208054610828906115f4565b80601f0160208091040260200160405190810160405280929190818152602001828054610854906115f4565b80156108a15780601f10610876576101008083540402835291602001916108a1565b820191906000526020600020905b81548152906001019060200180831161088457829003601f168201915b5050505050905060006108bf60408051602081019091526000815290565b905080516000036108d1575092915050565b8151156109035780826040516020016108eb9291906117a6565b60405160208183030381529060405292505050919050565b61090c84610f0e565b949350505050565b6001600160a01b03918216600090815260056020908152604080832093909416825291909152205460ff1690565b6000818152600260205260409020546001600160a01b03166109a15760405162461bcd60e51b8152602060048201526018602482015277115490cdcc8c4e881a5b9d985b1a59081d1bdad95b88125160421b60448201526064016103c1565b50565b600081815260046020526040902080546001600160a01b0319166001600160a01b03841690811790915581906109d9826106c8565b6001600160a01b03167f8c5be1e5ebec7d5bd14f71427d1e84f3dd0314c0f7b2291e5b200ac8c7c3b92560405160405180910390a45050565b600080610a1e836106c8565b9050806001600160a01b0316846001600160a01b03161480610a455750610a458185610914565b8061090c5750836001600160a01b0316610a5e84610326565b6001600160a01b031614949350505050565b826001600160a01b0316610a83826106c8565b6001600160a01b031614610aa95760405162461bcd60e51b81526004016103c1906117d5565b6001600160a01b038216610b0b5760405162461bcd60e51b8152602060048201526024808201527f4552433732313a207472616e7366657220746f20746865207a65726f206164646044820152637265737360e01b60648201526084016103c1565b610b188383836001610f82565b826001600160a01b0316610b2b826106c8565b6001600160a01b031614610b515760405162461bcd60e51b81526004016103c1906117d5565b600081815260046020908152604080832080546001600160a01b03199081169091556001600160a01b0387811680865260038552838620805460001901905590871680865283862080546001019055868652600290945282852080549092168417909155905184937fddf252ad1be2c89b69c2b068fc378daa952ba7f163c4a11628f55a4df523b3ef91a4505050565b6001600160a01b038216610c375760405162461bcd60e51b815260206004820181905260248201527f4552433732313a206d696e7420746f20746865207a65726f206164647265737360448201526064016103c1565b6000818152600260205260409020546001600160a01b031615610c9c5760405162461bcd60e51b815260206004820152601c60248201527f4552433732313a20746f6b656e20616c7265616479206d696e7465640000000060448201526064016103c1565b610caa600083836001610f82565b6000818152600260205260409020546001600160a01b031615610d0f5760405162461bcd60e51b815260206004820152601c60248201527f4552433732313a20746f6b656e20616c7265616479206d696e7465640000000060448201526064016103c1565b6001600160a01b038216600081815260036020908152604080832080546001019055848352600290915280822080546001600160a01b0319168417905551839291907fddf252ad1be2c89b69c2b068fc378daa952ba7f163c4a11628f55a4df523b3ef908290a45050565b6000828152600260205260409020546001600160a01b0316610df55760405162461bcd60e51b815260206004820152602e60248201527f45524337323155524953746f726167653a2055524920736574206f66206e6f6e60448201526d32bc34b9ba32b73a103a37b5b2b760911b60648201526084016103c1565b600082815260066020526040902061046282826116e6565b816001600160a01b0316836001600160a01b031603610e6e5760405162461bcd60e51b815260206004820152601960248201527f4552433732313a20617070726f766520746f2063616c6c65720000000000000060448201526064016103c1565b6001600160a01b03838116600081815260056020908152604080832094871680845294825291829020805460ff191686151590811790915591519182527f17307eab39ab6107e8899845ad3d59bd9653f200f220920489ca2b5937696c31910160405180910390a3505050565b610ee6848484610a70565b610ef28484848461100a565b6107fe5760405162461bcd60e51b81526004016103c19061181a565b6060610f1982610942565b6000610f3060408051602081019091526000815290565b90506000815111610f505760405180602001604052806000815250610f7b565b80610f5a8461110b565b604051602001610f6b9291906117a6565b6040516020818303038152906040525b9392505050565b60018111156107fe576001600160a01b03841615610fc8576001600160a01b03841660009081526003602052604081208054839290610fc2908490611882565b90915550505b6001600160a01b038316156107fe576001600160a01b03831660009081526003602052604081208054839290610fff908490611895565b909155505050505050565b60006001600160a01b0384163b1561110057604051630a85bd0160e11b81526001600160a01b0385169063150b7a029061104e9033908990889088906004016118a8565b6020604051808303816000875af1925050508015611089575060408051601f3d908101601f19168201909252611086918101906118e5565b60015b6110e6573d8080156110b7576040519150601f19603f3d011682016040523d82523d6000602084013e6110bc565b606091505b5080516000036110de5760405162461bcd60e51b81526004016103c19061181a565b805181602001fd5b6001600160e01b031916630a85bd0160e11b14905061090c565b506001949350505050565b606060006111188361119e565b600101905060008167ffffffffffffffff811115611138576111386113a7565b6040519080825280601f01601f191660200182016040528015611162576020820181803683370190505b5090508181016020015b600019016f181899199a1a9b1b9c1cb0b131b232b360811b600a86061a8153600a850494508461116c57509392505050565b60008072184f03e93ff9f4daa797ed6e38ed64bf6a1f0160401b83106111dd5772184f03e93ff9f4daa797ed6e38ed64bf6a1f0160401b830492506040015b6d04ee2d6d415b85acef81000000008310611209576d04ee2d6d415b85acef8100000000830492506020015b662386f26fc10000831061122757662386f26fc10000830492506010015b6305f5e100831061123f576305f5e100830492506008015b612710831061125357612710830492506004015b60648310611265576064830492506002015b600a831061028e5760010192915050565b6001600160e01b0319811681146109a157600080fd5b60006020828403121561129e57600080fd5b8135610f7b81611276565b60005b838110156112c45781810151838201526020016112ac565b50506000910152565b600081518084526112e58160208601602086016112a9565b601f01601f19169290920160200192915050565b602081526000610f7b60208301846112cd565b60006020828403121561131e57600080fd5b5035919050565b80356001600160a01b038116811461133c57600080fd5b919050565b6000806040838503121561135457600080fd5b61135d83611325565b946020939093013593505050565b60008060006060848603121561138057600080fd5b61138984611325565b925061139760208501611325565b9150604084013590509250925092565b634e487b7160e01b600052604160045260246000fd5b600067ffffffffffffffff808411156113d8576113d86113a7565b604051601f8501601f19908116603f01168101908282118183101715611400576114006113a7565b8160405280935085815286868601111561141957600080fd5b858560208301376000602087830101525050509392505050565b6000806000806060858703121561144957600080fd5b84359350602085013567ffffffffffffffff8082111561146857600080fd5b818701915087601f83011261147c57600080fd5b61148b888335602085016113bd565b945060408701359150808211156114a157600080fd5b818701915087601f8301126114b557600080fd5b8135818111156114c457600080fd5b8860208285010111156114d657600080fd5b95989497505060200194505050565b6000602082840312156114f757600080fd5b610f7b82611325565b80151581146109a157600080fd5b6000806040838503121561152157600080fd5b61152a83611325565b9150602083013561153a81611500565b809150509250929050565b6000806000806080858703121561155b57600080fd5b61156485611325565b935061157260208601611325565b925060408501359150606085013567ffffffffffffffff81111561159557600080fd5b8501601f810187136115a657600080fd5b6115b5878235602084016113bd565b91505092959194509250565b600080604083850312156115d457600080fd5b6115dd83611325565b91506115eb60208401611325565b90509250929050565b600181811c9082168061160857607f821691505b60208210810361162857634e487b7160e01b600052602260045260246000fd5b50919050565b6020808252602d908201527f4552433732313a2063616c6c6572206973206e6f7420746f6b656e206f776e6560408201526c1c881bdc88185c1c1c9bdd9959609a1b606082015260800190565b60006020828403121561168d57600080fd5b8151610f7b81611500565b601f82111561046257600081815260208120601f850160051c810160208610156116bf5750805b601f850160051c820191505b818110156116de578281556001016116cb565b505050505050565b815167ffffffffffffffff811115611700576117006113a7565b6117148161170e84546115f4565b84611698565b602080601f83116001811461174957600084156117315750858301515b600019600386901b1c1916600185901b1785556116de565b600085815260208120601f198616915b8281101561177857888601518255948401946001909101908401611759565b50858210156117965787850151600019600388901b60f8161c191681555b5050505050600190811b01905550565b600083516117b88184602088016112a9565b8351908301906117cc8183602088016112a9565b01949350505050565b60208082526025908201527f4552433732313a207472616e736665722066726f6d20696e636f72726563742060408201526437bbb732b960d91b606082015260800190565b60208082526032908201527f4552433732313a207472616e7366657220746f206e6f6e20455243373231526560408201527131b2b4bb32b91034b6b83632b6b2b73a32b960711b606082015260800190565b634e487b7160e01b600052601160045260246000fd5b8181038181111561028e5761028e61186c565b8082018082111561028e5761028e61186c565b6001600160a01b03858116825284166020820152604081018390526080606082018190526000906118db908301846112cd565b9695505050505050565b6000602082840312156118f757600080fd5b8151610f7b8161127656fea264697066735822122090389082801ba7256dca0ca6b3c38dacb7b7b51d19d78178d3054cfb394ad43864736f6c63430008110033",
  "immutableReferences": {},
  "source": "// SPDX-License-Identifier: GPL-3.0\npragma solidity 0.8.17;\n\nimport \"../node_modules/@openzeppelin/contracts/token/ERC721/ERC721.sol\";\nimport \"../node_modules/@openzeppelin/contracts/token/ERC721/extensions/ERC721URIStorage.sol\";\nimport \"../node_modules/@openzeppelin/contracts/utils/Counters.sol\";\n\ninterface IICollectorsDAO {\n    function getProposalStatus(uint256 _proposalId)\n        external\n        view\n        returns (bool proposalStatus);\n\n    function updateDigitalMintStatus(uint256 _proposalId) external;\n}\n\ncontract NftDigital is ERC721URIStorage {\n    using Counters for Counters.Counter;\n    Counters.Counter public _id;\n\n    string collectionName;\n    string collectionSymbol;\n    uint256 collectionId;\n\n    struct DigitalNft {\n        uint256 nftId;\n        string nftName;\n    }\n\n    IICollectorsDAO collectorsDAO;\n\n    DigitalNft[] digitalNfts;\n\n    constructor(\n        uint256 collectionId_,\n        string memory collectionName_,\n        string memory collectionSymbol_,\n        address daoContractAddress_\n    ) ERC721(collectionName_, collectionSymbol_) {\n        collectionId = collectionId_;\n        collectorsDAO = IICollectorsDAO(daoContractAddress_);\n    }\n\n    function mintDigitalNft(\n        uint256 _proposalId,\n        string memory _name,\n        string calldata _nftURI\n    ) public {\n        // get the proposal status to allow the mint\n        bool proposalStatus = collectorsDAO.getProposalStatus(_proposalId);\n        require(proposalStatus == true, \"proposal is not accepted\");\n\n        uint256 newDigitalNftId = _id.current();\n        digitalNfts.push(DigitalNft(newDigitalNftId, _name));\n        _mint(msg.sender, newDigitalNftId);\n        _setTokenURI(newDigitalNftId, _nftURI);\n        _id.increment();\n        collectorsDAO.updateDigitalMintStatus(_proposalId);\n    }\n}\n",
  "sourcePath": "/Users/jeromejulien/Documents/vscode/FormationAlyra/02_Projets/CollectorChain_TokenizedCollectibles/truffle/contracts/NftDigital.sol",
  "compiler": {
    "name": "solc",
    "version": "0.8.17+commit.8df45f5f.Emscripten.clang"
  },
  "schemaVersion": "3.4.10",
  "updatedAt": "2022-12-06T09:46:48.023Z",
  "devdoc": {
    "kind": "dev",
    "methods": {
      "approve(address,uint256)": {
        "details": "See {IERC721-approve}."
      },
      "balanceOf(address)": {
        "details": "See {IERC721-balanceOf}."
      },
      "getApproved(uint256)": {
        "details": "See {IERC721-getApproved}."
      },
      "isApprovedForAll(address,address)": {
        "details": "See {IERC721-isApprovedForAll}."
      },
      "name()": {
        "details": "See {IERC721Metadata-name}."
      },
      "ownerOf(uint256)": {
        "details": "See {IERC721-ownerOf}."
      },
      "safeTransferFrom(address,address,uint256)": {
        "details": "See {IERC721-safeTransferFrom}."
      },
      "safeTransferFrom(address,address,uint256,bytes)": {
        "details": "See {IERC721-safeTransferFrom}."
      },
      "setApprovalForAll(address,bool)": {
        "details": "See {IERC721-setApprovalForAll}."
      },
      "supportsInterface(bytes4)": {
        "details": "See {IERC165-supportsInterface}."
      },
      "symbol()": {
        "details": "See {IERC721Metadata-symbol}."
      },
      "tokenURI(uint256)": {
        "details": "See {IERC721Metadata-tokenURI}."
      },
      "transferFrom(address,address,uint256)": {
        "details": "See {IERC721-transferFrom}."
      }
    },
    "version": 1
  },
  "userdoc": {
    "kind": "user",
    "methods": {},
    "version": 1
  }
}