{
  "contractName": "NftDigital",
  "abi": [
    {
      "inputs": [
        {
          "internalType": "uint256",
          "name": "collectionId_",
          "type": "uint256"
        },
        {
          "internalType": "string",
          "name": "collectionName_",
          "type": "string"
        },
        {
          "internalType": "string",
          "name": "collectionSymbol_",
          "type": "string"
        },
        {
          "internalType": "address",
          "name": "daoContractAddress_",
          "type": "address"
        }
      ],
      "stateMutability": "nonpayable",
      "type": "constructor"
    },
    {
      "anonymous": false,
      "inputs": [
        {
          "indexed": true,
          "internalType": "address",
          "name": "owner",
          "type": "address"
        },
        {
          "indexed": true,
          "internalType": "address",
          "name": "approved",
          "type": "address"
        },
        {
          "indexed": true,
          "internalType": "uint256",
          "name": "tokenId",
          "type": "uint256"
        }
      ],
      "name": "Approval",
      "type": "event"
    },
    {
      "anonymous": false,
      "inputs": [
        {
          "indexed": true,
          "internalType": "address",
          "name": "owner",
          "type": "address"
        },
        {
          "indexed": true,
          "internalType": "address",
          "name": "operator",
          "type": "address"
        },
        {
          "indexed": false,
          "internalType": "bool",
          "name": "approved",
          "type": "bool"
        }
      ],
      "name": "ApprovalForAll",
      "type": "event"
    },
    {
      "anonymous": false,
      "inputs": [
        {
          "indexed": true,
          "internalType": "address",
          "name": "from",
          "type": "address"
        },
        {
          "indexed": true,
          "internalType": "address",
          "name": "to",
          "type": "address"
        },
        {
          "indexed": true,
          "internalType": "uint256",
          "name": "tokenId",
          "type": "uint256"
        }
      ],
      "name": "Transfer",
      "type": "event"
    },
    {
      "inputs": [],
      "name": "_id",
      "outputs": [
        {
          "internalType": "uint256",
          "name": "_value",
          "type": "uint256"
        }
      ],
      "stateMutability": "view",
      "type": "function"
    },
    {
      "inputs": [
        {
          "internalType": "address",
          "name": "to",
          "type": "address"
        },
        {
          "internalType": "uint256",
          "name": "tokenId",
          "type": "uint256"
        }
      ],
      "name": "approve",
      "outputs": [],
      "stateMutability": "nonpayable",
      "type": "function"
    },
    {
      "inputs": [
        {
          "internalType": "address",
          "name": "owner",
          "type": "address"
        }
      ],
      "name": "balanceOf",
      "outputs": [
        {
          "internalType": "uint256",
          "name": "",
          "type": "uint256"
        }
      ],
      "stateMutability": "view",
      "type": "function"
    },
    {
      "inputs": [
        {
          "internalType": "uint256",
          "name": "",
          "type": "uint256"
        }
      ],
      "name": "digitalNfts",
      "outputs": [
        {
          "internalType": "uint256",
          "name": "collectionId",
          "type": "uint256"
        },
        {
          "internalType": "uint256",
          "name": "nftId",
          "type": "uint256"
        },
        {
          "internalType": "string",
          "name": "nftName",
          "type": "string"
        }
      ],
      "stateMutability": "view",
      "type": "function"
    },
    {
      "inputs": [
        {
          "internalType": "uint256",
          "name": "tokenId",
          "type": "uint256"
        }
      ],
      "name": "getApproved",
      "outputs": [
        {
          "internalType": "address",
          "name": "",
          "type": "address"
        }
      ],
      "stateMutability": "view",
      "type": "function"
    },
    {
      "inputs": [
        {
          "internalType": "address",
          "name": "owner",
          "type": "address"
        },
        {
          "internalType": "address",
          "name": "operator",
          "type": "address"
        }
      ],
      "name": "isApprovedForAll",
      "outputs": [
        {
          "internalType": "bool",
          "name": "",
          "type": "bool"
        }
      ],
      "stateMutability": "view",
      "type": "function"
    },
    {
      "inputs": [],
      "name": "name",
      "outputs": [
        {
          "internalType": "string",
          "name": "",
          "type": "string"
        }
      ],
      "stateMutability": "view",
      "type": "function"
    },
    {
      "inputs": [
        {
          "internalType": "uint256",
          "name": "tokenId",
          "type": "uint256"
        }
      ],
      "name": "ownerOf",
      "outputs": [
        {
          "internalType": "address",
          "name": "",
          "type": "address"
        }
      ],
      "stateMutability": "view",
      "type": "function"
    },
    {
      "inputs": [
        {
          "internalType": "address",
          "name": "from",
          "type": "address"
        },
        {
          "internalType": "address",
          "name": "to",
          "type": "address"
        },
        {
          "internalType": "uint256",
          "name": "tokenId",
          "type": "uint256"
        }
      ],
      "name": "safeTransferFrom",
      "outputs": [],
      "stateMutability": "nonpayable",
      "type": "function"
    },
    {
      "inputs": [
        {
          "internalType": "address",
          "name": "from",
          "type": "address"
        },
        {
          "internalType": "address",
          "name": "to",
          "type": "address"
        },
        {
          "internalType": "uint256",
          "name": "tokenId",
          "type": "uint256"
        },
        {
          "internalType": "bytes",
          "name": "data",
          "type": "bytes"
        }
      ],
      "name": "safeTransferFrom",
      "outputs": [],
      "stateMutability": "nonpayable",
      "type": "function"
    },
    {
      "inputs": [
        {
          "internalType": "address",
          "name": "operator",
          "type": "address"
        },
        {
          "internalType": "bool",
          "name": "approved",
          "type": "bool"
        }
      ],
      "name": "setApprovalForAll",
      "outputs": [],
      "stateMutability": "nonpayable",
      "type": "function"
    },
    {
      "inputs": [
        {
          "internalType": "bytes4",
          "name": "interfaceId",
          "type": "bytes4"
        }
      ],
      "name": "supportsInterface",
      "outputs": [
        {
          "internalType": "bool",
          "name": "",
          "type": "bool"
        }
      ],
      "stateMutability": "view",
      "type": "function"
    },
    {
      "inputs": [],
      "name": "symbol",
      "outputs": [
        {
          "internalType": "string",
          "name": "",
          "type": "string"
        }
      ],
      "stateMutability": "view",
      "type": "function"
    },
    {
      "inputs": [
        {
          "internalType": "uint256",
          "name": "tokenId",
          "type": "uint256"
        }
      ],
      "name": "tokenURI",
      "outputs": [
        {
          "internalType": "string",
          "name": "",
          "type": "string"
        }
      ],
      "stateMutability": "view",
      "type": "function"
    },
    {
      "inputs": [
        {
          "internalType": "address",
          "name": "from",
          "type": "address"
        },
        {
          "internalType": "address",
          "name": "to",
          "type": "address"
        },
        {
          "internalType": "uint256",
          "name": "tokenId",
          "type": "uint256"
        }
      ],
      "name": "transferFrom",
      "outputs": [],
      "stateMutability": "nonpayable",
      "type": "function"
    },
    {
      "inputs": [
        {
          "internalType": "uint256",
          "name": "_proposalId",
          "type": "uint256"
        },
        {
          "internalType": "string",
          "name": "_name",
          "type": "string"
        },
        {
          "internalType": "string",
          "name": "_nftURI",
          "type": "string"
        }
      ],
      "name": "mintDigitalNft",
      "outputs": [],
      "stateMutability": "nonpayable",
      "type": "function"
    }
  ],
  "bytecode": "0x60806040523480156200001157600080fd5b5060405162001dc638038062001dc6833981016040819052620000349162000148565b828260006200004483826200026d565b5060016200005382826200026d565b505050600a939093555050600b80546001600160a01b0319166001600160a01b0390921691909117905562000339565b634e487b7160e01b600052604160045260246000fd5b600082601f830112620000ab57600080fd5b81516001600160401b0380821115620000c857620000c862000083565b604051601f8301601f19908116603f01168101908282118183101715620000f357620000f362000083565b816040528381526020925086838588010111156200011057600080fd5b600091505b8382101562000134578582018301518183018401529082019062000115565b600093810190920192909252949350505050565b600080600080608085870312156200015f57600080fd5b845160208601519094506001600160401b03808211156200017f57600080fd5b6200018d8883890162000099565b94506040870151915080821115620001a457600080fd5b50620001b38782880162000099565b606087015190935090506001600160a01b0381168114620001d357600080fd5b939692955090935050565b600181811c90821680620001f357607f821691505b6020821081036200021457634e487b7160e01b600052602260045260246000fd5b50919050565b601f8211156200026857600081815260208120601f850160051c81016020861015620002435750805b601f850160051c820191505b8181101562000264578281556001016200024f565b5050505b505050565b81516001600160401b0381111562000289576200028962000083565b620002a1816200029a8454620001de565b846200021a565b602080601f831160018114620002d95760008415620002c05750858301515b600019600386901b1c1916600185901b17855562000264565b600085815260208120601f198616915b828110156200030a57888601518255948401946001909101908401620002e9565b5085821015620003295787850151600019600388901b60f8161c191681555b5050505050600190811b01905550565b611a7d80620003496000396000f3fe608060405234801561001057600080fd5b50600436106101005760003560e01c80636352211e11610097578063a22cb46511610066578063a22cb46514610223578063b88d4fde14610236578063c87b56dd14610249578063e985e9c51461025c57600080fd5b80636352211e146101d357806370a08231146101e6578063777f09e2146101f957806395d89b411461021b57600080fd5b8063095ea7b3116100d3578063095ea7b31461018557806323b872dd1461019a5780633259cf6f146101ad57806342842e0e146101c057600080fd5b806301ffc9a714610105578063051802371461012d57806306fdde0314610145578063081812fc1461015a575b600080fd5b6101186101133660046113a9565b61026f565b60405190151581526020015b60405180910390f35b6007546101379081565b604051908152602001610124565b61014d6102c1565b6040516101249190611416565b61016d610168366004611429565b610353565b6040516001600160a01b039091168152602001610124565b61019861019336600461145e565b61037a565b005b6101986101a8366004611488565b610494565b6101986101bb366004611550565b6104c5565b6101986101ce366004611488565b610708565b61016d6101e1366004611429565b610723565b6101376101f4366004611602565b610783565b61020c610207366004611429565b610809565b6040516101249392919061161d565b61014d6108cb565b610198610231366004611653565b6108da565b61019861024436600461168a565b6108e9565b61014d610257366004611429565b610921565b61011861026a366004611706565b610a31565b60006001600160e01b031982166380ac58cd60e01b14806102a057506001600160e01b03198216635b5e139f60e01b145b806102bb57506301ffc9a760e01b6001600160e01b03198316145b92915050565b6060600080546102d090611739565b80601f01602080910402602001604051908101604052809291908181526020018280546102fc90611739565b80156103495780601f1061031e57610100808354040283529160200191610349565b820191906000526020600020905b81548152906001019060200180831161032c57829003601f168201915b5050505050905090565b600061035e82610a5f565b506000908152600460205260409020546001600160a01b031690565b600061038582610723565b9050806001600160a01b0316836001600160a01b0316036103f75760405162461bcd60e51b815260206004820152602160248201527f4552433732313a20617070726f76616c20746f2063757272656e74206f776e656044820152603960f91b60648201526084015b60405180910390fd5b336001600160a01b038216148061041357506104138133610a31565b6104855760405162461bcd60e51b815260206004820152603d60248201527f4552433732313a20617070726f76652063616c6c6572206973206e6f7420746f60448201527f6b656e206f776e6572206f7220617070726f76656420666f7220616c6c00000060648201526084016103ee565b61048f8383610ac1565b505050565b61049e3382610b2f565b6104ba5760405162461bcd60e51b81526004016103ee90611773565b61048f838383610b8d565b600b5460405163401853b760e01b8152600481018690526000916001600160a01b03169063401853b790602401602060405180830381865afa15801561050f573d6000803e3d6000fd5b505050506040513d601f19601f8201168201806040525081019061053391906117c0565b90506001811515146105875760405162461bcd60e51b815260206004820152601860248201527f70726f706f73616c206973206e6f74206163636570746564000000000000000060448201526064016103ee565b600061059260075490565b60408051606081018252600a54815260208101838152918101888152600c8054600181018255600091909152825160039091027fdf6966c971051c3d54ec59162606531493a51404a002842f56009d7e5cf4a8c7810191825593517fdf6966c971051c3d54ec59162606531493a51404a002842f56009d7e5cf4a8c88501559051939450909290917fdf6966c971051c3d54ec59162606531493a51404a002842f56009d7e5cf4a8c90190610647908261182b565b5050506106543382610cfe565b6106948185858080601f016020809104026020016040519081016040528093929190818152602001838380828437600092019190915250610e9792505050565b6106a2600780546001019055565b600b546040516312cd223360e11b8152600481018890526001600160a01b039091169063259a446690602401600060405180830381600087803b1580156106e857600080fd5b505af11580156106fc573d6000803e3d6000fd5b50505050505050505050565b61048f838383604051806020016040528060008152506108e9565b6000818152600260205260408120546001600160a01b0316806102bb5760405162461bcd60e51b8152602060048201526018602482015277115490cdcc8c4e881a5b9d985b1a59081d1bdad95b88125160421b60448201526064016103ee565b60006001600160a01b0382166107ed5760405162461bcd60e51b815260206004820152602960248201527f4552433732313a2061646472657373207a65726f206973206e6f7420612076616044820152683634b21037bbb732b960b91b60648201526084016103ee565b506001600160a01b031660009081526003602052604090205490565b600c818154811061081957600080fd5b906000526020600020906003020160009150905080600001549080600101549080600201805461084890611739565b80601f016020809104026020016040519081016040528092919081815260200182805461087490611739565b80156108c15780601f10610896576101008083540402835291602001916108c1565b820191906000526020600020905b8154815290600101906020018083116108a457829003601f168201915b5050505050905083565b6060600180546102d090611739565b6108e5338383610f2a565b5050565b6108f33383610b2f565b61090f5760405162461bcd60e51b81526004016103ee90611773565b61091b84848484610ff8565b50505050565b606061092c82610a5f565b6000828152600660205260408120805461094590611739565b80601f016020809104026020016040519081016040528092919081815260200182805461097190611739565b80156109be5780601f10610993576101008083540402835291602001916109be565b820191906000526020600020905b8154815290600101906020018083116109a157829003601f168201915b5050505050905060006109dc60408051602081019091526000815290565b905080516000036109ee575092915050565b815115610a20578082604051602001610a089291906118eb565b60405160208183030381529060405292505050919050565b610a298461102b565b949350505050565b6001600160a01b03918216600090815260056020908152604080832093909416825291909152205460ff1690565b6000818152600260205260409020546001600160a01b0316610abe5760405162461bcd60e51b8152602060048201526018602482015277115490cdcc8c4e881a5b9d985b1a59081d1bdad95b88125160421b60448201526064016103ee565b50565b600081815260046020526040902080546001600160a01b0319166001600160a01b0384169081179091558190610af682610723565b6001600160a01b03167f8c5be1e5ebec7d5bd14f71427d1e84f3dd0314c0f7b2291e5b200ac8c7c3b92560405160405180910390a45050565b600080610b3b83610723565b9050806001600160a01b0316846001600160a01b03161480610b625750610b628185610a31565b80610a295750836001600160a01b0316610b7b84610353565b6001600160a01b031614949350505050565b826001600160a01b0316610ba082610723565b6001600160a01b031614610bc65760405162461bcd60e51b81526004016103ee9061191a565b6001600160a01b038216610c285760405162461bcd60e51b8152602060048201526024808201527f4552433732313a207472616e7366657220746f20746865207a65726f206164646044820152637265737360e01b60648201526084016103ee565b610c35838383600161109f565b826001600160a01b0316610c4882610723565b6001600160a01b031614610c6e5760405162461bcd60e51b81526004016103ee9061191a565b600081815260046020908152604080832080546001600160a01b03199081169091556001600160a01b0387811680865260038552838620805460001901905590871680865283862080546001019055868652600290945282852080549092168417909155905184937fddf252ad1be2c89b69c2b068fc378daa952ba7f163c4a11628f55a4df523b3ef91a4505050565b6001600160a01b038216610d545760405162461bcd60e51b815260206004820181905260248201527f4552433732313a206d696e7420746f20746865207a65726f206164647265737360448201526064016103ee565b6000818152600260205260409020546001600160a01b031615610db95760405162461bcd60e51b815260206004820152601c60248201527f4552433732313a20746f6b656e20616c7265616479206d696e7465640000000060448201526064016103ee565b610dc760008383600161109f565b6000818152600260205260409020546001600160a01b031615610e2c5760405162461bcd60e51b815260206004820152601c60248201527f4552433732313a20746f6b656e20616c7265616479206d696e7465640000000060448201526064016103ee565b6001600160a01b038216600081815260036020908152604080832080546001019055848352600290915280822080546001600160a01b0319168417905551839291907fddf252ad1be2c89b69c2b068fc378daa952ba7f163c4a11628f55a4df523b3ef908290a45050565b6000828152600260205260409020546001600160a01b0316610f125760405162461bcd60e51b815260206004820152602e60248201527f45524337323155524953746f726167653a2055524920736574206f66206e6f6e60448201526d32bc34b9ba32b73a103a37b5b2b760911b60648201526084016103ee565b600082815260066020526040902061048f828261182b565b816001600160a01b0316836001600160a01b031603610f8b5760405162461bcd60e51b815260206004820152601960248201527f4552433732313a20617070726f766520746f2063616c6c65720000000000000060448201526064016103ee565b6001600160a01b03838116600081815260056020908152604080832094871680845294825291829020805460ff191686151590811790915591519182527f17307eab39ab6107e8899845ad3d59bd9653f200f220920489ca2b5937696c31910160405180910390a3505050565b611003848484610b8d565b61100f84848484611127565b61091b5760405162461bcd60e51b81526004016103ee9061195f565b606061103682610a5f565b600061104d60408051602081019091526000815290565b9050600081511161106d5760405180602001604052806000815250611098565b8061107784611228565b6040516020016110889291906118eb565b6040516020818303038152906040525b9392505050565b600181111561091b576001600160a01b038416156110e5576001600160a01b038416600090815260036020526040812080548392906110df9084906119c7565b90915550505b6001600160a01b0383161561091b576001600160a01b0383166000908152600360205260408120805483929061111c9084906119da565b909155505050505050565b60006001600160a01b0384163b1561121d57604051630a85bd0160e11b81526001600160a01b0385169063150b7a029061116b9033908990889088906004016119ed565b6020604051808303816000875af19250505080156111a6575060408051601f3d908101601f191682019092526111a391810190611a2a565b60015b611203573d8080156111d4576040519150601f19603f3d011682016040523d82523d6000602084013e6111d9565b606091505b5080516000036111fb5760405162461bcd60e51b81526004016103ee9061195f565b805181602001fd5b6001600160e01b031916630a85bd0160e11b149050610a29565b506001949350505050565b60606000611235836112bb565b600101905060008167ffffffffffffffff811115611255576112556114c4565b6040519080825280601f01601f19166020018201604052801561127f576020820181803683370190505b5090508181016020015b600019016f181899199a1a9b1b9c1cb0b131b232b360811b600a86061a8153600a850494508461128957509392505050565b60008072184f03e93ff9f4daa797ed6e38ed64bf6a1f0160401b83106112fa5772184f03e93ff9f4daa797ed6e38ed64bf6a1f0160401b830492506040015b6d04ee2d6d415b85acef81000000008310611326576d04ee2d6d415b85acef8100000000830492506020015b662386f26fc10000831061134457662386f26fc10000830492506010015b6305f5e100831061135c576305f5e100830492506008015b612710831061137057612710830492506004015b60648310611382576064830492506002015b600a83106102bb5760010192915050565b6001600160e01b031981168114610abe57600080fd5b6000602082840312156113bb57600080fd5b813561109881611393565b60005b838110156113e15781810151838201526020016113c9565b50506000910152565b600081518084526114028160208601602086016113c6565b601f01601f19169290920160200192915050565b60208152600061109860208301846113ea565b60006020828403121561143b57600080fd5b5035919050565b80356001600160a01b038116811461145957600080fd5b919050565b6000806040838503121561147157600080fd5b61147a83611442565b946020939093013593505050565b60008060006060848603121561149d57600080fd5b6114a684611442565b92506114b460208501611442565b9150604084013590509250925092565b634e487b7160e01b600052604160045260246000fd5b600067ffffffffffffffff808411156114f5576114f56114c4565b604051601f8501601f19908116603f0116810190828211818310171561151d5761151d6114c4565b8160405280935085815286868601111561153657600080fd5b858560208301376000602087830101525050509392505050565b6000806000806060858703121561156657600080fd5b84359350602085013567ffffffffffffffff8082111561158557600080fd5b818701915087601f83011261159957600080fd5b6115a8888335602085016114da565b945060408701359150808211156115be57600080fd5b818701915087601f8301126115d257600080fd5b8135818111156115e157600080fd5b8860208285010111156115f357600080fd5b95989497505060200194505050565b60006020828403121561161457600080fd5b61109882611442565b83815282602082015260606040820152600061163c60608301846113ea565b95945050505050565b8015158114610abe57600080fd5b6000806040838503121561166657600080fd5b61166f83611442565b9150602083013561167f81611645565b809150509250929050565b600080600080608085870312156116a057600080fd5b6116a985611442565b93506116b760208601611442565b925060408501359150606085013567ffffffffffffffff8111156116da57600080fd5b8501601f810187136116eb57600080fd5b6116fa878235602084016114da565b91505092959194509250565b6000806040838503121561171957600080fd5b61172283611442565b915061173060208401611442565b90509250929050565b600181811c9082168061174d57607f821691505b60208210810361176d57634e487b7160e01b600052602260045260246000fd5b50919050565b6020808252602d908201527f4552433732313a2063616c6c6572206973206e6f7420746f6b656e206f776e6560408201526c1c881bdc88185c1c1c9bdd9959609a1b606082015260800190565b6000602082840312156117d257600080fd5b815161109881611645565b601f82111561048f57600081815260208120601f850160051c810160208610156118045750805b601f850160051c820191505b8181101561182357828155600101611810565b505050505050565b815167ffffffffffffffff811115611845576118456114c4565b611859816118538454611739565b846117dd565b602080601f83116001811461188e57600084156118765750858301515b600019600386901b1c1916600185901b178555611823565b600085815260208120601f198616915b828110156118bd5788860151825594840194600190910190840161189e565b50858210156118db5787850151600019600388901b60f8161c191681555b5050505050600190811b01905550565b600083516118fd8184602088016113c6565b8351908301906119118183602088016113c6565b01949350505050565b60208082526025908201527f4552433732313a207472616e736665722066726f6d20696e636f72726563742060408201526437bbb732b960d91b606082015260800190565b60208082526032908201527f4552433732313a207472616e7366657220746f206e6f6e20455243373231526560408201527131b2b4bb32b91034b6b83632b6b2b73a32b960711b606082015260800190565b634e487b7160e01b600052601160045260246000fd5b818103818111156102bb576102bb6119b1565b808201808211156102bb576102bb6119b1565b6001600160a01b0385811682528416602082015260408101839052608060608201819052600090611a20908301846113ea565b9695505050505050565b600060208284031215611a3c57600080fd5b81516110988161139356fea26469706673582212207ad0807464e2a90704e2115fe5a2d4597e1afb057a5fbc79356ac5a65e47d6f564736f6c63430008110033",
  "immutableReferences": {},
  "source": "// SPDX-License-Identifier: GPL-3.0\npragma solidity 0.8.17;\n\nimport \"../node_modules/@openzeppelin/contracts/token/ERC721/ERC721.sol\";\nimport \"../node_modules/@openzeppelin/contracts/token/ERC721/extensions/ERC721URIStorage.sol\";\nimport \"../node_modules/@openzeppelin/contracts/utils/Counters.sol\";\n\ninterface IICollectorsDAO {\n    function getProposalStatus(uint256 _proposalId)\n        external\n        view\n        returns (bool proposalStatus);\n\n    function updateDigitalMintStatus(uint256 _proposalId) external;\n}\n\ncontract NftDigital is ERC721URIStorage {\n    using Counters for Counters.Counter;\n    Counters.Counter public _id;\n\n    string collectionName;\n    string collectionSymbol;\n    uint256 _collectionId;\n\n    struct DigitalNft {\n        uint256 collectionId;\n        uint256 nftId;\n        string nftName;\n    }\n\n    IICollectorsDAO collectorsDAO;\n\n    DigitalNft[] public digitalNfts;\n\n    constructor(\n        uint256 collectionId_,\n        string memory collectionName_,\n        string memory collectionSymbol_,\n        address daoContractAddress_\n    ) ERC721(collectionName_, collectionSymbol_) {\n        _collectionId = collectionId_;\n        collectorsDAO = IICollectorsDAO(daoContractAddress_);\n    }\n\n    function mintDigitalNft(\n        uint256 _proposalId,\n        string memory _name,\n        string calldata _nftURI\n    ) public {\n        // get the proposal status to allow the mint\n        bool proposalStatus = collectorsDAO.getProposalStatus(_proposalId);\n        require(proposalStatus == true, \"proposal is not accepted\");\n\n        uint256 newDigitalNftId = _id.current();\n        digitalNfts.push(DigitalNft(_collectionId, newDigitalNftId, _name));\n        _mint(msg.sender, newDigitalNftId);\n        _setTokenURI(newDigitalNftId, _nftURI);\n        _id.increment();\n        collectorsDAO.updateDigitalMintStatus(_proposalId);\n    }\n}\n",
  "sourcePath": "/Users/jeromejulien/Documents/vscode/FormationAlyra/02_Projets/CollectorChain_TokenizedCollectibles/truffle/contracts/NftDigital.sol",
  "compiler": {
    "name": "solc",
    "version": "0.8.17+commit.8df45f5f.Emscripten.clang"
  },
  "schemaVersion": "3.4.10",
  "updatedAt": "2022-12-06T17:33:09.590Z",
  "devdoc": {
    "kind": "dev",
    "methods": {
      "approve(address,uint256)": {
        "details": "See {IERC721-approve}."
      },
      "balanceOf(address)": {
        "details": "See {IERC721-balanceOf}."
      },
      "getApproved(uint256)": {
        "details": "See {IERC721-getApproved}."
      },
      "isApprovedForAll(address,address)": {
        "details": "See {IERC721-isApprovedForAll}."
      },
      "name()": {
        "details": "See {IERC721Metadata-name}."
      },
      "ownerOf(uint256)": {
        "details": "See {IERC721-ownerOf}."
      },
      "safeTransferFrom(address,address,uint256)": {
        "details": "See {IERC721-safeTransferFrom}."
      },
      "safeTransferFrom(address,address,uint256,bytes)": {
        "details": "See {IERC721-safeTransferFrom}."
      },
      "setApprovalForAll(address,bool)": {
        "details": "See {IERC721-setApprovalForAll}."
      },
      "supportsInterface(bytes4)": {
        "details": "See {IERC165-supportsInterface}."
      },
      "symbol()": {
        "details": "See {IERC721Metadata-symbol}."
      },
      "tokenURI(uint256)": {
        "details": "See {IERC721Metadata-tokenURI}."
      },
      "transferFrom(address,address,uint256)": {
        "details": "See {IERC721-transferFrom}."
      }
    },
    "version": 1
  },
  "userdoc": {
    "kind": "user",
    "methods": {},
    "version": 1
  }
}