{
  "contractName": "NftDigital",
  "abi": [
    {
      "inputs": [
        {
          "internalType": "uint256",
          "name": "collectionId_",
          "type": "uint256"
        },
        {
          "internalType": "string",
          "name": "collectionName_",
          "type": "string"
        },
        {
          "internalType": "string",
          "name": "collectionSymbol_",
          "type": "string"
        }
      ],
      "stateMutability": "nonpayable",
      "type": "constructor"
    },
    {
      "anonymous": false,
      "inputs": [
        {
          "indexed": true,
          "internalType": "address",
          "name": "owner",
          "type": "address"
        },
        {
          "indexed": true,
          "internalType": "address",
          "name": "approved",
          "type": "address"
        },
        {
          "indexed": true,
          "internalType": "uint256",
          "name": "tokenId",
          "type": "uint256"
        }
      ],
      "name": "Approval",
      "type": "event"
    },
    {
      "anonymous": false,
      "inputs": [
        {
          "indexed": true,
          "internalType": "address",
          "name": "owner",
          "type": "address"
        },
        {
          "indexed": true,
          "internalType": "address",
          "name": "operator",
          "type": "address"
        },
        {
          "indexed": false,
          "internalType": "bool",
          "name": "approved",
          "type": "bool"
        }
      ],
      "name": "ApprovalForAll",
      "type": "event"
    },
    {
      "anonymous": false,
      "inputs": [
        {
          "indexed": true,
          "internalType": "address",
          "name": "from",
          "type": "address"
        },
        {
          "indexed": true,
          "internalType": "address",
          "name": "to",
          "type": "address"
        },
        {
          "indexed": true,
          "internalType": "uint256",
          "name": "tokenId",
          "type": "uint256"
        }
      ],
      "name": "Transfer",
      "type": "event"
    },
    {
      "inputs": [],
      "name": "_id",
      "outputs": [
        {
          "internalType": "uint256",
          "name": "_value",
          "type": "uint256"
        }
      ],
      "stateMutability": "view",
      "type": "function"
    },
    {
      "inputs": [
        {
          "internalType": "address",
          "name": "to",
          "type": "address"
        },
        {
          "internalType": "uint256",
          "name": "tokenId",
          "type": "uint256"
        }
      ],
      "name": "approve",
      "outputs": [],
      "stateMutability": "nonpayable",
      "type": "function"
    },
    {
      "inputs": [
        {
          "internalType": "address",
          "name": "owner",
          "type": "address"
        }
      ],
      "name": "balanceOf",
      "outputs": [
        {
          "internalType": "uint256",
          "name": "",
          "type": "uint256"
        }
      ],
      "stateMutability": "view",
      "type": "function"
    },
    {
      "inputs": [
        {
          "internalType": "uint256",
          "name": "tokenId",
          "type": "uint256"
        }
      ],
      "name": "getApproved",
      "outputs": [
        {
          "internalType": "address",
          "name": "",
          "type": "address"
        }
      ],
      "stateMutability": "view",
      "type": "function"
    },
    {
      "inputs": [
        {
          "internalType": "address",
          "name": "owner",
          "type": "address"
        },
        {
          "internalType": "address",
          "name": "operator",
          "type": "address"
        }
      ],
      "name": "isApprovedForAll",
      "outputs": [
        {
          "internalType": "bool",
          "name": "",
          "type": "bool"
        }
      ],
      "stateMutability": "view",
      "type": "function"
    },
    {
      "inputs": [],
      "name": "name",
      "outputs": [
        {
          "internalType": "string",
          "name": "",
          "type": "string"
        }
      ],
      "stateMutability": "view",
      "type": "function"
    },
    {
      "inputs": [
        {
          "internalType": "uint256",
          "name": "tokenId",
          "type": "uint256"
        }
      ],
      "name": "ownerOf",
      "outputs": [
        {
          "internalType": "address",
          "name": "",
          "type": "address"
        }
      ],
      "stateMutability": "view",
      "type": "function"
    },
    {
      "inputs": [
        {
          "internalType": "address",
          "name": "from",
          "type": "address"
        },
        {
          "internalType": "address",
          "name": "to",
          "type": "address"
        },
        {
          "internalType": "uint256",
          "name": "tokenId",
          "type": "uint256"
        }
      ],
      "name": "safeTransferFrom",
      "outputs": [],
      "stateMutability": "nonpayable",
      "type": "function"
    },
    {
      "inputs": [
        {
          "internalType": "address",
          "name": "from",
          "type": "address"
        },
        {
          "internalType": "address",
          "name": "to",
          "type": "address"
        },
        {
          "internalType": "uint256",
          "name": "tokenId",
          "type": "uint256"
        },
        {
          "internalType": "bytes",
          "name": "data",
          "type": "bytes"
        }
      ],
      "name": "safeTransferFrom",
      "outputs": [],
      "stateMutability": "nonpayable",
      "type": "function"
    },
    {
      "inputs": [
        {
          "internalType": "address",
          "name": "operator",
          "type": "address"
        },
        {
          "internalType": "bool",
          "name": "approved",
          "type": "bool"
        }
      ],
      "name": "setApprovalForAll",
      "outputs": [],
      "stateMutability": "nonpayable",
      "type": "function"
    },
    {
      "inputs": [
        {
          "internalType": "bytes4",
          "name": "interfaceId",
          "type": "bytes4"
        }
      ],
      "name": "supportsInterface",
      "outputs": [
        {
          "internalType": "bool",
          "name": "",
          "type": "bool"
        }
      ],
      "stateMutability": "view",
      "type": "function"
    },
    {
      "inputs": [],
      "name": "symbol",
      "outputs": [
        {
          "internalType": "string",
          "name": "",
          "type": "string"
        }
      ],
      "stateMutability": "view",
      "type": "function"
    },
    {
      "inputs": [
        {
          "internalType": "uint256",
          "name": "tokenId",
          "type": "uint256"
        }
      ],
      "name": "tokenURI",
      "outputs": [
        {
          "internalType": "string",
          "name": "",
          "type": "string"
        }
      ],
      "stateMutability": "view",
      "type": "function"
    },
    {
      "inputs": [
        {
          "internalType": "address",
          "name": "from",
          "type": "address"
        },
        {
          "internalType": "address",
          "name": "to",
          "type": "address"
        },
        {
          "internalType": "uint256",
          "name": "tokenId",
          "type": "uint256"
        }
      ],
      "name": "transferFrom",
      "outputs": [],
      "stateMutability": "nonpayable",
      "type": "function"
    },
    {
      "inputs": [
        {
          "internalType": "address",
          "name": "_address",
          "type": "address"
        }
      ],
      "name": "setCollectorsDAO",
      "outputs": [],
      "stateMutability": "nonpayable",
      "type": "function"
    },
    {
      "inputs": [
        {
          "internalType": "uint256",
          "name": "_proposalId",
          "type": "uint256"
        },
        {
          "internalType": "string",
          "name": "_name",
          "type": "string"
        },
        {
          "internalType": "string",
          "name": "_nftURI",
          "type": "string"
        }
      ],
      "name": "mintDigitalNft",
      "outputs": [],
      "stateMutability": "nonpayable",
      "type": "function"
    }
  ],
  "bytecode": "0x60806040523480156200001157600080fd5b5060405162001c2138038062001c2183398101604081905262000034916200012a565b818160006200004483826200022d565b5060016200005382826200022d565b505050600a9290925550620002f99050565b634e487b7160e01b600052604160045260246000fd5b600082601f8301126200008d57600080fd5b81516001600160401b0380821115620000aa57620000aa62000065565b604051601f8301601f19908116603f01168101908282118183101715620000d557620000d562000065565b81604052838152602092508683858801011115620000f257600080fd5b600091505b83821015620001165785820183015181830184015290820190620000f7565b600093810190920192909252949350505050565b6000806000606084860312156200014057600080fd5b835160208501519093506001600160401b03808211156200016057600080fd5b6200016e878388016200007b565b935060408601519150808211156200018557600080fd5b5062000194868287016200007b565b9150509250925092565b600181811c90821680620001b357607f821691505b602082108103620001d457634e487b7160e01b600052602260045260246000fd5b50919050565b601f8211156200022857600081815260208120601f850160051c81016020861015620002035750805b601f850160051c820191505b8181101562000224578281556001016200020f565b5050505b505050565b81516001600160401b0381111562000249576200024962000065565b62000261816200025a84546200019e565b84620001da565b602080601f831160018114620002995760008415620002805750858301515b600019600386901b1c1916600185901b17855562000224565b600085815260208120601f198616915b82811015620002ca57888601518255948401946001909101908401620002a9565b5085821015620002e95787850151600019600388901b60f8161c191681555b5050505050600190811b01905550565b61191880620003096000396000f3fe608060405234801561001057600080fd5b50600436106101005760003560e01c80636352211e11610097578063a22cb46511610066578063a22cb46514610231578063b88d4fde14610244578063c87b56dd14610257578063e985e9c51461026a57600080fd5b80636352211e146101d357806370a08231146101e65780637fa9136d146101f957806395d89b411461022957600080fd5b8063095ea7b3116100d3578063095ea7b31461018557806323b872dd1461019a5780633259cf6f146101ad57806342842e0e146101c057600080fd5b806301ffc9a714610105578063051802371461012d57806306fdde0314610145578063081812fc1461015a575b600080fd5b610118610113366004611274565b61027d565b60405190151581526020015b60405180910390f35b6007546101379081565b604051908152602001610124565b61014d6102cf565b60405161012491906112e1565b61016d6101683660046112f4565b610361565b6040516001600160a01b039091168152602001610124565b610198610193366004611329565b610388565b005b6101986101a8366004611353565b6104a2565b6101986101bb36600461141b565b6104d3565b6101986101ce366004611353565b610695565b61016d6101e13660046112f4565b6106b0565b6101376101f43660046114cd565b610710565b6101986102073660046114cd565b600b80546001600160a01b0319166001600160a01b0392909216919091179055565b61014d610796565b61019861023f3660046114f6565b6107a5565b61019861025236600461152d565b6107b4565b61014d6102653660046112f4565b6107ec565b6101186102783660046115a9565b6108fc565b60006001600160e01b031982166380ac58cd60e01b14806102ae57506001600160e01b03198216635b5e139f60e01b145b806102c957506301ffc9a760e01b6001600160e01b03198316145b92915050565b6060600080546102de906115dc565b80601f016020809104026020016040519081016040528092919081815260200182805461030a906115dc565b80156103575780601f1061032c57610100808354040283529160200191610357565b820191906000526020600020905b81548152906001019060200180831161033a57829003601f168201915b5050505050905090565b600061036c8261092a565b506000908152600460205260409020546001600160a01b031690565b6000610393826106b0565b9050806001600160a01b0316836001600160a01b0316036104055760405162461bcd60e51b815260206004820152602160248201527f4552433732313a20617070726f76616c20746f2063757272656e74206f776e656044820152603960f91b60648201526084015b60405180910390fd5b336001600160a01b0382161480610421575061042181336108fc565b6104935760405162461bcd60e51b815260206004820152603d60248201527f4552433732313a20617070726f76652063616c6c6572206973206e6f7420746f60448201527f6b656e206f776e6572206f7220617070726f76656420666f7220616c6c00000060648201526084016103fc565b61049d838361098c565b505050565b6104ac33826109fa565b6104c85760405162461bcd60e51b81526004016103fc90611616565b61049d838383610a58565b600b54600a546040516370379bcd60e11b81526004810191909152602481018690526000916001600160a01b03169063e06f379a90604401602060405180830381865afa158015610528573d6000803e3d6000fd5b505050506040513d601f19601f8201168201806040525081019061054c9190611663565b90506001811515146105a05760405162461bcd60e51b815260206004820152601860248201527f70726f706f73616c206973206e6f74206163636570746564000000000000000060448201526064016103fc565b60006105ab60075490565b6040805180820190915281815260208101878152600c8054600181018255600091909152825160029091027fdf6966c971051c3d54ec59162606531493a51404a002842f56009d7e5cf4a8c78101918255915193945091927fdf6966c971051c3d54ec59162606531493a51404a002842f56009d7e5cf4a8c89091019061063290826116c6565b50505061063f3382610bc9565b61067f8185858080601f016020809104026020016040519081016040528093929190818152602001838380828437600092019190915250610d6292505050565b61068d600780546001019055565b505050505050565b61049d838383604051806020016040528060008152506107b4565b6000818152600260205260408120546001600160a01b0316806102c95760405162461bcd60e51b8152602060048201526018602482015277115490cdcc8c4e881a5b9d985b1a59081d1bdad95b88125160421b60448201526064016103fc565b60006001600160a01b03821661077a5760405162461bcd60e51b815260206004820152602960248201527f4552433732313a2061646472657373207a65726f206973206e6f7420612076616044820152683634b21037bbb732b960b91b60648201526084016103fc565b506001600160a01b031660009081526003602052604090205490565b6060600180546102de906115dc565b6107b0338383610df5565b5050565b6107be33836109fa565b6107da5760405162461bcd60e51b81526004016103fc90611616565b6107e684848484610ec3565b50505050565b60606107f78261092a565b60008281526006602052604081208054610810906115dc565b80601f016020809104026020016040519081016040528092919081815260200182805461083c906115dc565b80156108895780601f1061085e57610100808354040283529160200191610889565b820191906000526020600020905b81548152906001019060200180831161086c57829003601f168201915b5050505050905060006108a760408051602081019091526000815290565b905080516000036108b9575092915050565b8151156108eb5780826040516020016108d3929190611786565b60405160208183030381529060405292505050919050565b6108f484610ef6565b949350505050565b6001600160a01b03918216600090815260056020908152604080832093909416825291909152205460ff1690565b6000818152600260205260409020546001600160a01b03166109895760405162461bcd60e51b8152602060048201526018602482015277115490cdcc8c4e881a5b9d985b1a59081d1bdad95b88125160421b60448201526064016103fc565b50565b600081815260046020526040902080546001600160a01b0319166001600160a01b03841690811790915581906109c1826106b0565b6001600160a01b03167f8c5be1e5ebec7d5bd14f71427d1e84f3dd0314c0f7b2291e5b200ac8c7c3b92560405160405180910390a45050565b600080610a06836106b0565b9050806001600160a01b0316846001600160a01b03161480610a2d5750610a2d81856108fc565b806108f45750836001600160a01b0316610a4684610361565b6001600160a01b031614949350505050565b826001600160a01b0316610a6b826106b0565b6001600160a01b031614610a915760405162461bcd60e51b81526004016103fc906117b5565b6001600160a01b038216610af35760405162461bcd60e51b8152602060048201526024808201527f4552433732313a207472616e7366657220746f20746865207a65726f206164646044820152637265737360e01b60648201526084016103fc565b610b008383836001610f6a565b826001600160a01b0316610b13826106b0565b6001600160a01b031614610b395760405162461bcd60e51b81526004016103fc906117b5565b600081815260046020908152604080832080546001600160a01b03199081169091556001600160a01b0387811680865260038552838620805460001901905590871680865283862080546001019055868652600290945282852080549092168417909155905184937fddf252ad1be2c89b69c2b068fc378daa952ba7f163c4a11628f55a4df523b3ef91a4505050565b6001600160a01b038216610c1f5760405162461bcd60e51b815260206004820181905260248201527f4552433732313a206d696e7420746f20746865207a65726f206164647265737360448201526064016103fc565b6000818152600260205260409020546001600160a01b031615610c845760405162461bcd60e51b815260206004820152601c60248201527f4552433732313a20746f6b656e20616c7265616479206d696e7465640000000060448201526064016103fc565b610c92600083836001610f6a565b6000818152600260205260409020546001600160a01b031615610cf75760405162461bcd60e51b815260206004820152601c60248201527f4552433732313a20746f6b656e20616c7265616479206d696e7465640000000060448201526064016103fc565b6001600160a01b038216600081815260036020908152604080832080546001019055848352600290915280822080546001600160a01b0319168417905551839291907fddf252ad1be2c89b69c2b068fc378daa952ba7f163c4a11628f55a4df523b3ef908290a45050565b6000828152600260205260409020546001600160a01b0316610ddd5760405162461bcd60e51b815260206004820152602e60248201527f45524337323155524953746f726167653a2055524920736574206f66206e6f6e60448201526d32bc34b9ba32b73a103a37b5b2b760911b60648201526084016103fc565b600082815260066020526040902061049d82826116c6565b816001600160a01b0316836001600160a01b031603610e565760405162461bcd60e51b815260206004820152601960248201527f4552433732313a20617070726f766520746f2063616c6c65720000000000000060448201526064016103fc565b6001600160a01b03838116600081815260056020908152604080832094871680845294825291829020805460ff191686151590811790915591519182527f17307eab39ab6107e8899845ad3d59bd9653f200f220920489ca2b5937696c31910160405180910390a3505050565b610ece848484610a58565b610eda84848484610ff2565b6107e65760405162461bcd60e51b81526004016103fc906117fa565b6060610f018261092a565b6000610f1860408051602081019091526000815290565b90506000815111610f385760405180602001604052806000815250610f63565b80610f42846110f3565b604051602001610f53929190611786565b6040516020818303038152906040525b9392505050565b60018111156107e6576001600160a01b03841615610fb0576001600160a01b03841660009081526003602052604081208054839290610faa908490611862565b90915550505b6001600160a01b038316156107e6576001600160a01b03831660009081526003602052604081208054839290610fe7908490611875565b909155505050505050565b60006001600160a01b0384163b156110e857604051630a85bd0160e11b81526001600160a01b0385169063150b7a0290611036903390899088908890600401611888565b6020604051808303816000875af1925050508015611071575060408051601f3d908101601f1916820190925261106e918101906118c5565b60015b6110ce573d80801561109f576040519150601f19603f3d011682016040523d82523d6000602084013e6110a4565b606091505b5080516000036110c65760405162461bcd60e51b81526004016103fc906117fa565b805181602001fd5b6001600160e01b031916630a85bd0160e11b1490506108f4565b506001949350505050565b6060600061110083611186565b600101905060008167ffffffffffffffff8111156111205761112061138f565b6040519080825280601f01601f19166020018201604052801561114a576020820181803683370190505b5090508181016020015b600019016f181899199a1a9b1b9c1cb0b131b232b360811b600a86061a8153600a850494508461115457509392505050565b60008072184f03e93ff9f4daa797ed6e38ed64bf6a1f0160401b83106111c55772184f03e93ff9f4daa797ed6e38ed64bf6a1f0160401b830492506040015b6d04ee2d6d415b85acef810000000083106111f1576d04ee2d6d415b85acef8100000000830492506020015b662386f26fc10000831061120f57662386f26fc10000830492506010015b6305f5e1008310611227576305f5e100830492506008015b612710831061123b57612710830492506004015b6064831061124d576064830492506002015b600a83106102c95760010192915050565b6001600160e01b03198116811461098957600080fd5b60006020828403121561128657600080fd5b8135610f638161125e565b60005b838110156112ac578181015183820152602001611294565b50506000910152565b600081518084526112cd816020860160208601611291565b601f01601f19169290920160200192915050565b602081526000610f6360208301846112b5565b60006020828403121561130657600080fd5b5035919050565b80356001600160a01b038116811461132457600080fd5b919050565b6000806040838503121561133c57600080fd5b6113458361130d565b946020939093013593505050565b60008060006060848603121561136857600080fd5b6113718461130d565b925061137f6020850161130d565b9150604084013590509250925092565b634e487b7160e01b600052604160045260246000fd5b600067ffffffffffffffff808411156113c0576113c061138f565b604051601f8501601f19908116603f011681019082821181831017156113e8576113e861138f565b8160405280935085815286868601111561140157600080fd5b858560208301376000602087830101525050509392505050565b6000806000806060858703121561143157600080fd5b84359350602085013567ffffffffffffffff8082111561145057600080fd5b818701915087601f83011261146457600080fd5b611473888335602085016113a5565b9450604087013591508082111561148957600080fd5b818701915087601f83011261149d57600080fd5b8135818111156114ac57600080fd5b8860208285010111156114be57600080fd5b95989497505060200194505050565b6000602082840312156114df57600080fd5b610f638261130d565b801515811461098957600080fd5b6000806040838503121561150957600080fd5b6115128361130d565b91506020830135611522816114e8565b809150509250929050565b6000806000806080858703121561154357600080fd5b61154c8561130d565b935061155a6020860161130d565b925060408501359150606085013567ffffffffffffffff81111561157d57600080fd5b8501601f8101871361158e57600080fd5b61159d878235602084016113a5565b91505092959194509250565b600080604083850312156115bc57600080fd5b6115c58361130d565b91506115d36020840161130d565b90509250929050565b600181811c908216806115f057607f821691505b60208210810361161057634e487b7160e01b600052602260045260246000fd5b50919050565b6020808252602d908201527f4552433732313a2063616c6c6572206973206e6f7420746f6b656e206f776e6560408201526c1c881bdc88185c1c1c9bdd9959609a1b606082015260800190565b60006020828403121561167557600080fd5b8151610f63816114e8565b601f82111561049d57600081815260208120601f850160051c810160208610156116a75750805b601f850160051c820191505b8181101561068d578281556001016116b3565b815167ffffffffffffffff8111156116e0576116e061138f565b6116f4816116ee84546115dc565b84611680565b602080601f83116001811461172957600084156117115750858301515b600019600386901b1c1916600185901b17855561068d565b600085815260208120601f198616915b8281101561175857888601518255948401946001909101908401611739565b50858210156117765787850151600019600388901b60f8161c191681555b5050505050600190811b01905550565b60008351611798818460208801611291565b8351908301906117ac818360208801611291565b01949350505050565b60208082526025908201527f4552433732313a207472616e736665722066726f6d20696e636f72726563742060408201526437bbb732b960d91b606082015260800190565b60208082526032908201527f4552433732313a207472616e7366657220746f206e6f6e20455243373231526560408201527131b2b4bb32b91034b6b83632b6b2b73a32b960711b606082015260800190565b634e487b7160e01b600052601160045260246000fd5b818103818111156102c9576102c961184c565b808201808211156102c9576102c961184c565b6001600160a01b03858116825284166020820152604081018390526080606082018190526000906118bb908301846112b5565b9695505050505050565b6000602082840312156118d757600080fd5b8151610f638161125e56fea2646970667358221220d006463d95bbec34ac1385fb08f12808649e861132c864152acd169d04d26e8a64736f6c63430008110033",
  "immutableReferences": {},
  "source": "// SPDX-License-Identifier: GPL-3.0\npragma solidity 0.8.17;\n\nimport \"../node_modules/@openzeppelin/contracts/token/ERC721/ERC721.sol\";\nimport \"../node_modules/@openzeppelin/contracts/token/ERC721/extensions/ERC721URIStorage.sol\";\nimport \"../node_modules/@openzeppelin/contracts/utils/Counters.sol\";\n\ninterface IICollectorsDAO {\n    function getProposalStatus(uint256 _daoId, uint256 _proposalId)\n        external\n        view\n        returns (bool proposalStatus);\n}\n\ncontract NftDigital is ERC721URIStorage {\n    using Counters for Counters.Counter;\n    Counters.Counter public _id;\n\n    string collectionName;\n    string collectionSymbol;\n    uint256 collectionId;\n\n    struct DigitalNft {\n        uint256 nftId;\n        string nftName;\n    }\n\n    IICollectorsDAO collectorsDAO;\n\n    DigitalNft[] digitalNfts;\n\n    constructor(\n        uint256 collectionId_,\n        string memory collectionName_,\n        string memory collectionSymbol_\n    ) ERC721(collectionName_, collectionSymbol_) {\n        collectionId = collectionId_;\n    }\n\n    function setCollectorsDAO(address _address) external {\n        collectorsDAO = IICollectorsDAO(_address);\n    }\n\n    function mintDigitalNft(\n        uint256 _proposalId,\n        string memory _name,\n        string calldata _nftURI\n    ) public {\n        // get the proposal status to allow the mint\n        bool proposalStatus = collectorsDAO.getProposalStatus(\n            collectionId,\n            _proposalId\n        );\n        require(proposalStatus == true, \"proposal is not accepted\");\n\n        uint256 newDigitalNftId = _id.current();\n        digitalNfts.push(DigitalNft(newDigitalNftId, _name));\n        _mint(msg.sender, newDigitalNftId);\n        _setTokenURI(newDigitalNftId, _nftURI);\n        _id.increment();\n    }\n}\n",
  "sourcePath": "/Users/jeromejulien/Documents/vscode/FormationAlyra/02_Projets/CollectorChain_TokenizedCollectibles/truffle/contracts/NftDigital.sol",
  "compiler": {
    "name": "solc",
    "version": "0.8.17+commit.8df45f5f.Emscripten.clang"
  },
  "schemaVersion": "3.4.10",
  "updatedAt": "2022-12-02T09:51:26.686Z",
  "devdoc": {
    "kind": "dev",
    "methods": {
      "approve(address,uint256)": {
        "details": "See {IERC721-approve}."
      },
      "balanceOf(address)": {
        "details": "See {IERC721-balanceOf}."
      },
      "getApproved(uint256)": {
        "details": "See {IERC721-getApproved}."
      },
      "isApprovedForAll(address,address)": {
        "details": "See {IERC721-isApprovedForAll}."
      },
      "name()": {
        "details": "See {IERC721Metadata-name}."
      },
      "ownerOf(uint256)": {
        "details": "See {IERC721-ownerOf}."
      },
      "safeTransferFrom(address,address,uint256)": {
        "details": "See {IERC721-safeTransferFrom}."
      },
      "safeTransferFrom(address,address,uint256,bytes)": {
        "details": "See {IERC721-safeTransferFrom}."
      },
      "setApprovalForAll(address,bool)": {
        "details": "See {IERC721-setApprovalForAll}."
      },
      "supportsInterface(bytes4)": {
        "details": "See {IERC165-supportsInterface}."
      },
      "symbol()": {
        "details": "See {IERC721Metadata-symbol}."
      },
      "tokenURI(uint256)": {
        "details": "See {IERC721Metadata-tokenURI}."
      },
      "transferFrom(address,address,uint256)": {
        "details": "See {IERC721-transferFrom}."
      }
    },
    "version": 1
  },
  "userdoc": {
    "kind": "user",
    "methods": {},
    "version": 1
  }
}