{
  "contractName": "NftProperty",
  "abi": [
    {
      "inputs": [
        {
          "internalType": "uint256",
          "name": "collectionId_",
          "type": "uint256"
        },
        {
          "internalType": "string",
          "name": "collectionURI_",
          "type": "string"
        },
        {
          "internalType": "address",
          "name": "daoContractAddress_",
          "type": "address"
        }
      ],
      "stateMutability": "nonpayable",
      "type": "constructor"
    },
    {
      "anonymous": false,
      "inputs": [
        {
          "indexed": true,
          "internalType": "address",
          "name": "account",
          "type": "address"
        },
        {
          "indexed": true,
          "internalType": "address",
          "name": "operator",
          "type": "address"
        },
        {
          "indexed": false,
          "internalType": "bool",
          "name": "approved",
          "type": "bool"
        }
      ],
      "name": "ApprovalForAll",
      "type": "event"
    },
    {
      "anonymous": false,
      "inputs": [
        {
          "indexed": true,
          "internalType": "address",
          "name": "operator",
          "type": "address"
        },
        {
          "indexed": true,
          "internalType": "address",
          "name": "from",
          "type": "address"
        },
        {
          "indexed": true,
          "internalType": "address",
          "name": "to",
          "type": "address"
        },
        {
          "indexed": false,
          "internalType": "uint256[]",
          "name": "ids",
          "type": "uint256[]"
        },
        {
          "indexed": false,
          "internalType": "uint256[]",
          "name": "values",
          "type": "uint256[]"
        }
      ],
      "name": "TransferBatch",
      "type": "event"
    },
    {
      "anonymous": false,
      "inputs": [
        {
          "indexed": true,
          "internalType": "address",
          "name": "operator",
          "type": "address"
        },
        {
          "indexed": true,
          "internalType": "address",
          "name": "from",
          "type": "address"
        },
        {
          "indexed": true,
          "internalType": "address",
          "name": "to",
          "type": "address"
        },
        {
          "indexed": false,
          "internalType": "uint256",
          "name": "id",
          "type": "uint256"
        },
        {
          "indexed": false,
          "internalType": "uint256",
          "name": "value",
          "type": "uint256"
        }
      ],
      "name": "TransferSingle",
      "type": "event"
    },
    {
      "anonymous": false,
      "inputs": [
        {
          "indexed": false,
          "internalType": "string",
          "name": "value",
          "type": "string"
        },
        {
          "indexed": true,
          "internalType": "uint256",
          "name": "id",
          "type": "uint256"
        }
      ],
      "name": "URI",
      "type": "event"
    },
    {
      "inputs": [],
      "name": "_collectionId",
      "outputs": [
        {
          "internalType": "uint256",
          "name": "",
          "type": "uint256"
        }
      ],
      "stateMutability": "view",
      "type": "function"
    },
    {
      "inputs": [],
      "name": "_id",
      "outputs": [
        {
          "internalType": "uint256",
          "name": "_value",
          "type": "uint256"
        }
      ],
      "stateMutability": "view",
      "type": "function"
    },
    {
      "inputs": [
        {
          "internalType": "address",
          "name": "account",
          "type": "address"
        },
        {
          "internalType": "uint256",
          "name": "id",
          "type": "uint256"
        }
      ],
      "name": "balanceOf",
      "outputs": [
        {
          "internalType": "uint256",
          "name": "",
          "type": "uint256"
        }
      ],
      "stateMutability": "view",
      "type": "function"
    },
    {
      "inputs": [
        {
          "internalType": "address[]",
          "name": "accounts",
          "type": "address[]"
        },
        {
          "internalType": "uint256[]",
          "name": "ids",
          "type": "uint256[]"
        }
      ],
      "name": "balanceOfBatch",
      "outputs": [
        {
          "internalType": "uint256[]",
          "name": "",
          "type": "uint256[]"
        }
      ],
      "stateMutability": "view",
      "type": "function"
    },
    {
      "inputs": [],
      "name": "collectionName",
      "outputs": [
        {
          "internalType": "string",
          "name": "",
          "type": "string"
        }
      ],
      "stateMutability": "view",
      "type": "function"
    },
    {
      "inputs": [
        {
          "internalType": "address",
          "name": "account",
          "type": "address"
        },
        {
          "internalType": "address",
          "name": "operator",
          "type": "address"
        }
      ],
      "name": "isApprovedForAll",
      "outputs": [
        {
          "internalType": "bool",
          "name": "",
          "type": "bool"
        }
      ],
      "stateMutability": "view",
      "type": "function"
    },
    {
      "inputs": [
        {
          "internalType": "uint256",
          "name": "",
          "type": "uint256"
        }
      ],
      "name": "propertyNfts",
      "outputs": [
        {
          "internalType": "uint256",
          "name": "collectionId",
          "type": "uint256"
        },
        {
          "internalType": "uint256",
          "name": "nftId",
          "type": "uint256"
        },
        {
          "internalType": "string",
          "name": "name",
          "type": "string"
        },
        {
          "internalType": "uint256",
          "name": "value",
          "type": "uint256"
        },
        {
          "internalType": "address",
          "name": "minter",
          "type": "address"
        }
      ],
      "stateMutability": "view",
      "type": "function"
    },
    {
      "inputs": [
        {
          "internalType": "address",
          "name": "from",
          "type": "address"
        },
        {
          "internalType": "address",
          "name": "to",
          "type": "address"
        },
        {
          "internalType": "uint256[]",
          "name": "ids",
          "type": "uint256[]"
        },
        {
          "internalType": "uint256[]",
          "name": "amounts",
          "type": "uint256[]"
        },
        {
          "internalType": "bytes",
          "name": "data",
          "type": "bytes"
        }
      ],
      "name": "safeBatchTransferFrom",
      "outputs": [],
      "stateMutability": "nonpayable",
      "type": "function"
    },
    {
      "inputs": [
        {
          "internalType": "address",
          "name": "from",
          "type": "address"
        },
        {
          "internalType": "address",
          "name": "to",
          "type": "address"
        },
        {
          "internalType": "uint256",
          "name": "id",
          "type": "uint256"
        },
        {
          "internalType": "uint256",
          "name": "amount",
          "type": "uint256"
        },
        {
          "internalType": "bytes",
          "name": "data",
          "type": "bytes"
        }
      ],
      "name": "safeTransferFrom",
      "outputs": [],
      "stateMutability": "nonpayable",
      "type": "function"
    },
    {
      "inputs": [
        {
          "internalType": "address",
          "name": "operator",
          "type": "address"
        },
        {
          "internalType": "bool",
          "name": "approved",
          "type": "bool"
        }
      ],
      "name": "setApprovalForAll",
      "outputs": [],
      "stateMutability": "nonpayable",
      "type": "function"
    },
    {
      "inputs": [
        {
          "internalType": "bytes4",
          "name": "interfaceId",
          "type": "bytes4"
        }
      ],
      "name": "supportsInterface",
      "outputs": [
        {
          "internalType": "bool",
          "name": "",
          "type": "bool"
        }
      ],
      "stateMutability": "view",
      "type": "function"
    },
    {
      "inputs": [
        {
          "internalType": "uint256",
          "name": "",
          "type": "uint256"
        }
      ],
      "name": "uri",
      "outputs": [
        {
          "internalType": "string",
          "name": "",
          "type": "string"
        }
      ],
      "stateMutability": "view",
      "type": "function"
    },
    {
      "inputs": [
        {
          "internalType": "uint256",
          "name": "_proposalId",
          "type": "uint256"
        },
        {
          "internalType": "string",
          "name": "_name",
          "type": "string"
        },
        {
          "internalType": "uint256",
          "name": "_value",
          "type": "uint256"
        },
        {
          "internalType": "uint256",
          "name": "_numberOfItem",
          "type": "uint256"
        },
        {
          "internalType": "address",
          "name": "_minter",
          "type": "address"
        }
      ],
      "name": "mintPropertyNft",
      "outputs": [],
      "stateMutability": "nonpayable",
      "type": "function"
    },
    {
      "inputs": [],
      "name": "getCollectionId",
      "outputs": [
        {
          "internalType": "uint256",
          "name": "",
          "type": "uint256"
        }
      ],
      "stateMutability": "view",
      "type": "function"
    }
  ],
  "bytecode": "0x60806040523480156200001157600080fd5b5060405162001e1338038062001e138339810160408190526200003491620000b2565b8162000040816200006d565b5060059290925550600680546001600160a01b0319166001600160a01b03909216919091179055620002ff565b60026200007b828262000233565b5050565b634e487b7160e01b600052604160045260246000fd5b80516001600160a01b0381168114620000ad57600080fd5b919050565b600080600060608486031215620000c857600080fd5b8351602080860151919450906001600160401b0380821115620000ea57600080fd5b818701915087601f830112620000ff57600080fd5b8151818111156200011457620001146200007f565b604051601f8201601f19908116603f011681019083821181831017156200013f576200013f6200007f565b816040528281528a868487010111156200015857600080fd5b600093505b828410156200017c57848401860151818501870152928501926200015d565b60008684830101528097505050505050506200019b6040850162000095565b90509250925092565b600181811c90821680620001b957607f821691505b602082108103620001da57634e487b7160e01b600052602260045260246000fd5b50919050565b601f8211156200022e57600081815260208120601f850160051c81016020861015620002095750805b601f850160051c820191505b818110156200022a5782815560010162000215565b5050505b505050565b81516001600160401b038111156200024f576200024f6200007f565b6200026781620002608454620001a4565b84620001e0565b602080601f8311600181146200029f5760008415620002865750858301515b600019600386901b1c1916600185901b1785556200022a565b600085815260208120601f198616915b82811015620002d057888601518255948401946001909101908401620002af565b5085821015620002ef5787850151600019600388901b60f8161c191681555b5050505050600190811b01905550565b611b04806200030f6000396000f3fe608060405234801561001057600080fd5b50600436106100e95760003560e01c80637c8e7bfe1161008c578063bd26938011610066578063bd269380146101cd578063e5326ab1146101f1578063e985e9c5146101f9578063f242432a1461023557600080fd5b80637c8e7bfe146101a95780638296a2e8146101b1578063a22cb465146101ba57600080fd5b80630e89341c116100c85780630e89341c146101415780631a76d863146101615780632eb2c2d6146101765780634e1273f41461018957600080fd5b8062fdd58e146100ee57806301ffc9a7146101145780630518023714610137575b600080fd5b6101016100fc3660046110cc565b610248565b6040519081526020015b60405180910390f35b61012761012236600461110f565b6102e1565b604051901515815260200161010b565b6003546101019081565b61015461014f366004611133565b610331565b60405161010b9190611192565b61017461016f366004611246565b6103c5565b005b61017461018436600461137a565b610624565b61019c610197366004611424565b610670565b60405161010b919061152a565b600554610101565b61010160055481565b6101746101c836600461154b565b61079a565b6101e06101db366004611133565b6107a9565b60405161010b959493929190611582565b610154610881565b6101276102073660046115c3565b6001600160a01b03918216600090815260016020908152604080832093909416825291909152205460ff1690565b6101746102433660046115f6565b61090f565b60006001600160a01b0383166102b85760405162461bcd60e51b815260206004820152602a60248201527f455243313135353a2061646472657373207a65726f206973206e6f742061207660448201526930b634b21037bbb732b960b11b60648201526084015b60405180910390fd5b506000818152602081815260408083206001600160a01b03861684529091529020545b92915050565b60006001600160e01b03198216636cdb3d1360e11b148061031257506001600160e01b031982166303a24d0760e21b145b806102db57506301ffc9a760e01b6001600160e01b03198316146102db565b6060600280546103409061165b565b80601f016020809104026020016040519081016040528092919081815260200182805461036c9061165b565b80156103b95780601f1061038e576101008083540402835291602001916103b9565b820191906000526020600020905b81548152906001019060200180831161039c57829003601f168201915b50505050509050919050565b60065460405163401853b760e01b8152600481018790526000916001600160a01b03169063401853b790602401602060405180830381865afa15801561040f573d6000803e3d6000fd5b505050506040513d601f19601f820116820180604052508101906104339190611695565b90506001811515146104875760405162461bcd60e51b815260206004820152601860248201527f70726f706f73616c206973206e6f74206163636570746564000000000000000060448201526064016102af565b600061049260035490565b6040805160a081018252600580548252602082018481529282018a8152606083018a90526001600160a01b038816608084015260078054600181018255600091909152835192027fa66cc928b5edb82af9bd49922954155ab7b0942694bea4ce44661d9a8736c688810192835593517fa66cc928b5edb82af9bd49922954155ab7b0942694bea4ce44661d9a8736c68985015551939450909290917fa66cc928b5edb82af9bd49922954155ab7b0942694bea4ce44661d9a8736c68a019061055a90826116fd565b506060820151816003015560808201518160040160006101000a8154816001600160a01b0302191690836001600160a01b0316021790555050506105af33828660405180602001604052806000815250610954565b6105bd600380546001019055565b60065460405163845c776d60e01b8152600481018990526001600160a01b039091169063845c776d90602401600060405180830381600087803b15801561060357600080fd5b505af1158015610617573d6000803e3d6000fd5b5050505050505050505050565b6001600160a01b03851633148061064057506106408533610207565b61065c5760405162461bcd60e51b81526004016102af906117bd565b6106698585858585610a68565b5050505050565b606081518351146106d55760405162461bcd60e51b815260206004820152602960248201527f455243313135353a206163636f756e747320616e6420696473206c656e677468604482015268040dad2e6dac2e8c6d60bb1b60648201526084016102af565b6000835167ffffffffffffffff8111156106f1576106f16111a5565b60405190808252806020026020018201604052801561071a578160200160208202803683370190505b50905060005b84518110156107925761076585828151811061073e5761073e61180b565b60200260200101518583815181106107585761075861180b565b6020026020010151610248565b8282815181106107775761077761180b565b602090810291909101015261078b81611837565b9050610720565b509392505050565b6107a5338383610c45565b5050565b600781815481106107b957600080fd5b90600052602060002090600502016000915090508060000154908060010154908060020180546107e89061165b565b80601f01602080910402602001604051908101604052809291908181526020018280546108149061165b565b80156108615780601f1061083657610100808354040283529160200191610861565b820191906000526020600020905b81548152906001019060200180831161084457829003601f168201915b5050505060038301546004909301549192916001600160a01b0316905085565b6004805461088e9061165b565b80601f01602080910402602001604051908101604052809291908181526020018280546108ba9061165b565b80156109075780601f106108dc57610100808354040283529160200191610907565b820191906000526020600020905b8154815290600101906020018083116108ea57829003601f168201915b505050505081565b6001600160a01b03851633148061092b575061092b8533610207565b6109475760405162461bcd60e51b81526004016102af906117bd565b6106698585858585610d25565b6001600160a01b0384166109b45760405162461bcd60e51b815260206004820152602160248201527f455243313135353a206d696e7420746f20746865207a65726f206164647265736044820152607360f81b60648201526084016102af565b3360006109c085610e4f565b905060006109cd85610e4f565b90506000868152602081815260408083206001600160a01b038b168452909152812080548792906109ff908490611850565b909155505060408051878152602081018790526001600160a01b03808a1692600092918716917fc3d58168c5ae7397731d063d5bbf3d657854427343f4c083240f7aacaa2d0f62910160405180910390a4610a5f83600089898989610e9a565b50505050505050565b8151835114610aca5760405162461bcd60e51b815260206004820152602860248201527f455243313135353a2069647320616e6420616d6f756e7473206c656e677468206044820152670dad2e6dac2e8c6d60c31b60648201526084016102af565b6001600160a01b038416610af05760405162461bcd60e51b81526004016102af90611863565b3360005b8451811015610bd7576000858281518110610b1157610b1161180b565b602002602001015190506000858381518110610b2f57610b2f61180b565b602090810291909101810151600084815280835260408082206001600160a01b038e168352909352919091205490915081811015610b7f5760405162461bcd60e51b81526004016102af906118a8565b6000838152602081815260408083206001600160a01b038e8116855292528083208585039055908b16825281208054849290610bbc908490611850565b9250508190555050505080610bd090611837565b9050610af4565b50846001600160a01b0316866001600160a01b0316826001600160a01b03167f4a39dc06d4c0dbc64b70af90fd698a233a518aa5d07e595d983b8c0526c8f7fb8787604051610c279291906118f2565b60405180910390a4610c3d818787878787610ff5565b505050505050565b816001600160a01b0316836001600160a01b031603610cb85760405162461bcd60e51b815260206004820152602960248201527f455243313135353a2073657474696e6720617070726f76616c20737461747573604482015268103337b91039b2b63360b91b60648201526084016102af565b6001600160a01b03838116600081815260016020908152604080832094871680845294825291829020805460ff191686151590811790915591519182527f17307eab39ab6107e8899845ad3d59bd9653f200f220920489ca2b5937696c31910160405180910390a3505050565b6001600160a01b038416610d4b5760405162461bcd60e51b81526004016102af90611863565b336000610d5785610e4f565b90506000610d6485610e4f565b90506000868152602081815260408083206001600160a01b038c16845290915290205485811015610da75760405162461bcd60e51b81526004016102af906118a8565b6000878152602081815260408083206001600160a01b038d8116855292528083208985039055908a16825281208054889290610de4908490611850565b909155505060408051888152602081018890526001600160a01b03808b16928c821692918816917fc3d58168c5ae7397731d063d5bbf3d657854427343f4c083240f7aacaa2d0f62910160405180910390a4610e44848a8a8a8a8a610e9a565b505050505050505050565b60408051600180825281830190925260609160009190602080830190803683370190505090508281600081518110610e8957610e8961180b565b602090810291909101015292915050565b6001600160a01b0384163b15610c3d5760405163f23a6e6160e01b81526001600160a01b0385169063f23a6e6190610ede9089908990889088908890600401611920565b6020604051808303816000875af1925050508015610f19575060408051601f3d908101601f19168201909252610f1691810190611965565b60015b610fc557610f25611982565b806308c379a003610f5e5750610f3961199e565b80610f445750610f60565b8060405162461bcd60e51b81526004016102af9190611192565b505b60405162461bcd60e51b815260206004820152603460248201527f455243313135353a207472616e7366657220746f206e6f6e2d455243313135356044820152732932b1b2b4bb32b91034b6b83632b6b2b73a32b960611b60648201526084016102af565b6001600160e01b0319811663f23a6e6160e01b14610a5f5760405162461bcd60e51b81526004016102af90611a28565b6001600160a01b0384163b15610c3d5760405163bc197c8160e01b81526001600160a01b0385169063bc197c81906110399089908990889088908890600401611a70565b6020604051808303816000875af1925050508015611074575060408051601f3d908101601f1916820190925261107191810190611965565b60015b61108057610f25611982565b6001600160e01b0319811663bc197c8160e01b14610a5f5760405162461bcd60e51b81526004016102af90611a28565b80356001600160a01b03811681146110c757600080fd5b919050565b600080604083850312156110df57600080fd5b6110e8836110b0565b946020939093013593505050565b6001600160e01b03198116811461110c57600080fd5b50565b60006020828403121561112157600080fd5b813561112c816110f6565b9392505050565b60006020828403121561114557600080fd5b5035919050565b6000815180845260005b8181101561117257602081850181015186830182015201611156565b506000602082860101526020601f19601f83011685010191505092915050565b60208152600061112c602083018461114c565b634e487b7160e01b600052604160045260246000fd5b601f8201601f1916810167ffffffffffffffff811182821017156111e1576111e16111a5565b6040525050565b600067ffffffffffffffff831115611202576112026111a5565b604051611219601f8501601f1916602001826111bb565b80915083815284848401111561122e57600080fd5b83836020830137600060208583010152509392505050565b600080600080600060a0868803121561125e57600080fd5b85359450602086013567ffffffffffffffff81111561127c57600080fd5b8601601f8101881361128d57600080fd5b61129c888235602084016111e8565b94505060408601359250606086013591506112b9608087016110b0565b90509295509295909350565b600067ffffffffffffffff8211156112df576112df6111a5565b5060051b60200190565b600082601f8301126112fa57600080fd5b81356020611307826112c5565b60405161131482826111bb565b83815260059390931b850182019282810191508684111561133457600080fd5b8286015b8481101561134f5780358352918301918301611338565b509695505050505050565b600082601f83011261136b57600080fd5b61112c838335602085016111e8565b600080600080600060a0868803121561139257600080fd5b61139b866110b0565b94506113a9602087016110b0565b9350604086013567ffffffffffffffff808211156113c657600080fd5b6113d289838a016112e9565b945060608801359150808211156113e857600080fd5b6113f489838a016112e9565b9350608088013591508082111561140a57600080fd5b506114178882890161135a565b9150509295509295909350565b6000806040838503121561143757600080fd5b823567ffffffffffffffff8082111561144f57600080fd5b818501915085601f83011261146357600080fd5b81356020611470826112c5565b60405161147d82826111bb565b83815260059390931b850182019282810191508984111561149d57600080fd5b948201945b838610156114c2576114b3866110b0565b825294820194908201906114a2565b965050860135925050808211156114d857600080fd5b506114e5858286016112e9565b9150509250929050565b600081518084526020808501945080840160005b8381101561151f57815187529582019590820190600101611503565b509495945050505050565b60208152600061112c60208301846114ef565b801515811461110c57600080fd5b6000806040838503121561155e57600080fd5b611567836110b0565b915060208301356115778161153d565b809150509250929050565b85815284602082015260a0604082015260006115a160a083018661114c565b6060830194909452506001600160a01b03919091166080909101529392505050565b600080604083850312156115d657600080fd5b6115df836110b0565b91506115ed602084016110b0565b90509250929050565b600080600080600060a0868803121561160e57600080fd5b611617866110b0565b9450611625602087016110b0565b93506040860135925060608601359150608086013567ffffffffffffffff81111561164f57600080fd5b6114178882890161135a565b600181811c9082168061166f57607f821691505b60208210810361168f57634e487b7160e01b600052602260045260246000fd5b50919050565b6000602082840312156116a757600080fd5b815161112c8161153d565b601f8211156116f857600081815260208120601f850160051c810160208610156116d95750805b601f850160051c820191505b81811015610c3d578281556001016116e5565b505050565b815167ffffffffffffffff811115611717576117176111a5565b61172b81611725845461165b565b846116b2565b602080601f83116001811461176057600084156117485750858301515b600019600386901b1c1916600185901b178555610c3d565b600085815260208120601f198616915b8281101561178f57888601518255948401946001909101908401611770565b50858210156117ad5787850151600019600388901b60f8161c191681555b5050505050600190811b01905550565b6020808252602e908201527f455243313135353a2063616c6c6572206973206e6f7420746f6b656e206f776e60408201526d195c881bdc88185c1c1c9bdd995960921b606082015260800190565b634e487b7160e01b600052603260045260246000fd5b634e487b7160e01b600052601160045260246000fd5b60006001820161184957611849611821565b5060010190565b808201808211156102db576102db611821565b60208082526025908201527f455243313135353a207472616e7366657220746f20746865207a65726f206164604082015264647265737360d81b606082015260800190565b6020808252602a908201527f455243313135353a20696e73756666696369656e742062616c616e636520666f60408201526939103a3930b739b332b960b11b606082015260800190565b60408152600061190560408301856114ef565b828103602084015261191781856114ef565b95945050505050565b6001600160a01b03868116825285166020820152604081018490526060810183905260a06080820181905260009061195a9083018461114c565b979650505050505050565b60006020828403121561197757600080fd5b815161112c816110f6565b600060033d111561199b5760046000803e5060005160e01c5b90565b600060443d10156119ac5790565b6040516003193d81016004833e81513d67ffffffffffffffff81602484011181841117156119dc57505050505090565b82850191508151818111156119f45750505050505090565b843d8701016020828501011115611a0e5750505050505090565b611a1d602082860101876111bb565b509095945050505050565b60208082526028908201527f455243313135353a204552433131353552656365697665722072656a656374656040820152676420746f6b656e7360c01b606082015260800190565b6001600160a01b0386811682528516602082015260a060408201819052600090611a9c908301866114ef565b8281036060840152611aae81866114ef565b90508281036080840152611ac2818561114c565b9897505050505050505056fea26469706673582212206ae6ef50cd55d7f24d4558eea3c87c43a8fe121e05dc7b42b7f5cf70c33cbba464736f6c63430008110033",
  "immutableReferences": {},
  "source": "// SPDX-License-Identifier: GPL-3.0\npragma solidity 0.8.17;\n\nimport \"../node_modules/@openzeppelin/contracts/token/ERC1155/ERC1155.sol\";\nimport \"../node_modules/@openzeppelin/contracts/utils/Counters.sol\";\n\n// URI POUR TEST ==> \"https://gateway.pinata.cloud/ipfs/QmUegKTCJ8r6td4AfT22FjJHCVMJn4fKTVCK4MH7zNM7Mn/{id}.json\"\n\ninterface CollectorsDAO {\n    function getProposalStatus(uint256 _proposalId)\n        external\n        view\n        returns (bool proposalStatus);\n\n    function updatePropertyMintStatus(uint256 _proposalId) external;\n}\n\ncontract NftProperty is ERC1155 {\n    using Counters for Counters.Counter;\n    Counters.Counter public _id;\n\n    string public collectionName;\n    uint256 public _collectionId;\n\n    struct PropertyNft {\n        uint256 collectionId;\n        uint256 nftId;\n        string name;\n        uint256 value;\n        address minter;\n    }\n\n    CollectorsDAO collectorsDAO;\n\n    PropertyNft[] public propertyNfts;\n\n    /// @notice URI structure have to be managed from the from end in order to define custom attributes for each collection\n    constructor(\n        uint256 collectionId_,\n        string memory collectionURI_,\n        address daoContractAddress_\n    )\n        ERC1155(\n            /* URI de la collection*/\n            collectionURI_\n        )\n    {\n        _collectionId = collectionId_;\n        collectorsDAO = CollectorsDAO(daoContractAddress_);\n    }\n\n    /// @notice function mint() mint new NFT and send it to the owner of the object\n    function mintPropertyNft(\n        uint256 _proposalId,\n        string memory _name,\n        uint256 _value,\n        uint256 _numberOfItem,\n        address _minter\n    ) public {\n        // get the proposal status to allow the mint\n        bool proposalStatus = collectorsDAO.getProposalStatus(_proposalId);\n        require(proposalStatus == true, \"proposal is not accepted\");\n\n        uint256 newPropertyNftId = _id.current();\n        propertyNfts.push(\n            PropertyNft(_collectionId, newPropertyNftId, _name, _value, _minter)\n        );\n        _mint(msg.sender, newPropertyNftId, _numberOfItem, \"\");\n        _id.increment();\n        collectorsDAO.updatePropertyMintStatus(_proposalId);\n    }\n\n    function getCollectionId() external view returns (uint256) {\n        return _collectionId;\n    }\n}\n",
  "sourcePath": "/Users/jeromejulien/Documents/vscode/FormationAlyra/02_Projets/CollectorChain_TokenizedCollectibles/truffle/contracts/NftProperty.sol",
  "compiler": {
    "name": "solc",
    "version": "0.8.17+commit.8df45f5f.Emscripten.clang"
  },
  "schemaVersion": "3.4.10",
  "updatedAt": "2022-12-07T15:15:44.262Z",
  "devdoc": {
    "kind": "dev",
    "methods": {
      "balanceOf(address,uint256)": {
        "details": "See {IERC1155-balanceOf}. Requirements: - `account` cannot be the zero address."
      },
      "balanceOfBatch(address[],uint256[])": {
        "details": "See {IERC1155-balanceOfBatch}. Requirements: - `accounts` and `ids` must have the same length."
      },
      "isApprovedForAll(address,address)": {
        "details": "See {IERC1155-isApprovedForAll}."
      },
      "safeBatchTransferFrom(address,address,uint256[],uint256[],bytes)": {
        "details": "See {IERC1155-safeBatchTransferFrom}."
      },
      "safeTransferFrom(address,address,uint256,uint256,bytes)": {
        "details": "See {IERC1155-safeTransferFrom}."
      },
      "setApprovalForAll(address,bool)": {
        "details": "See {IERC1155-setApprovalForAll}."
      },
      "supportsInterface(bytes4)": {
        "details": "See {IERC165-supportsInterface}."
      },
      "uri(uint256)": {
        "details": "See {IERC1155MetadataURI-uri}. This implementation returns the same URI for *all* token types. It relies on the token type ID substitution mechanism https://eips.ethereum.org/EIPS/eip-1155#metadata[defined in the EIP]. Clients calling this function must replace the `\\{id\\}` substring with the actual token type ID."
      }
    },
    "version": 1
  },
  "userdoc": {
    "kind": "user",
    "methods": {
      "constructor": {
        "notice": "URI structure have to be managed from the from end in order to define custom attributes for each collection"
      },
      "mintPropertyNft(uint256,string,uint256,uint256,address)": {
        "notice": "function mint() mint new NFT and send it to the owner of the object"
      }
    },
    "version": 1
  }
}