{
  "contractName": "NftProperty",
  "abi": [
    {
      "inputs": [
        {
          "internalType": "uint256",
          "name": "collectionId_",
          "type": "uint256"
        },
        {
          "internalType": "string",
          "name": "collectionURI_",
          "type": "string"
        },
        {
          "internalType": "address",
          "name": "daoContractAddress_",
          "type": "address"
        }
      ],
      "stateMutability": "nonpayable",
      "type": "constructor"
    },
    {
      "anonymous": false,
      "inputs": [
        {
          "indexed": true,
          "internalType": "address",
          "name": "account",
          "type": "address"
        },
        {
          "indexed": true,
          "internalType": "address",
          "name": "operator",
          "type": "address"
        },
        {
          "indexed": false,
          "internalType": "bool",
          "name": "approved",
          "type": "bool"
        }
      ],
      "name": "ApprovalForAll",
      "type": "event"
    },
    {
      "anonymous": false,
      "inputs": [
        {
          "indexed": true,
          "internalType": "address",
          "name": "operator",
          "type": "address"
        },
        {
          "indexed": true,
          "internalType": "address",
          "name": "from",
          "type": "address"
        },
        {
          "indexed": true,
          "internalType": "address",
          "name": "to",
          "type": "address"
        },
        {
          "indexed": false,
          "internalType": "uint256[]",
          "name": "ids",
          "type": "uint256[]"
        },
        {
          "indexed": false,
          "internalType": "uint256[]",
          "name": "values",
          "type": "uint256[]"
        }
      ],
      "name": "TransferBatch",
      "type": "event"
    },
    {
      "anonymous": false,
      "inputs": [
        {
          "indexed": true,
          "internalType": "address",
          "name": "operator",
          "type": "address"
        },
        {
          "indexed": true,
          "internalType": "address",
          "name": "from",
          "type": "address"
        },
        {
          "indexed": true,
          "internalType": "address",
          "name": "to",
          "type": "address"
        },
        {
          "indexed": false,
          "internalType": "uint256",
          "name": "id",
          "type": "uint256"
        },
        {
          "indexed": false,
          "internalType": "uint256",
          "name": "value",
          "type": "uint256"
        }
      ],
      "name": "TransferSingle",
      "type": "event"
    },
    {
      "anonymous": false,
      "inputs": [
        {
          "indexed": false,
          "internalType": "string",
          "name": "value",
          "type": "string"
        },
        {
          "indexed": true,
          "internalType": "uint256",
          "name": "id",
          "type": "uint256"
        }
      ],
      "name": "URI",
      "type": "event"
    },
    {
      "inputs": [],
      "name": "_collectionId",
      "outputs": [
        {
          "internalType": "uint256",
          "name": "",
          "type": "uint256"
        }
      ],
      "stateMutability": "view",
      "type": "function"
    },
    {
      "inputs": [],
      "name": "_id",
      "outputs": [
        {
          "internalType": "uint256",
          "name": "_value",
          "type": "uint256"
        }
      ],
      "stateMutability": "view",
      "type": "function"
    },
    {
      "inputs": [
        {
          "internalType": "address",
          "name": "account",
          "type": "address"
        },
        {
          "internalType": "uint256",
          "name": "id",
          "type": "uint256"
        }
      ],
      "name": "balanceOf",
      "outputs": [
        {
          "internalType": "uint256",
          "name": "",
          "type": "uint256"
        }
      ],
      "stateMutability": "view",
      "type": "function"
    },
    {
      "inputs": [
        {
          "internalType": "address[]",
          "name": "accounts",
          "type": "address[]"
        },
        {
          "internalType": "uint256[]",
          "name": "ids",
          "type": "uint256[]"
        }
      ],
      "name": "balanceOfBatch",
      "outputs": [
        {
          "internalType": "uint256[]",
          "name": "",
          "type": "uint256[]"
        }
      ],
      "stateMutability": "view",
      "type": "function"
    },
    {
      "inputs": [],
      "name": "collectionName",
      "outputs": [
        {
          "internalType": "string",
          "name": "",
          "type": "string"
        }
      ],
      "stateMutability": "view",
      "type": "function"
    },
    {
      "inputs": [
        {
          "internalType": "address",
          "name": "account",
          "type": "address"
        },
        {
          "internalType": "address",
          "name": "operator",
          "type": "address"
        }
      ],
      "name": "isApprovedForAll",
      "outputs": [
        {
          "internalType": "bool",
          "name": "",
          "type": "bool"
        }
      ],
      "stateMutability": "view",
      "type": "function"
    },
    {
      "inputs": [
        {
          "internalType": "uint256",
          "name": "",
          "type": "uint256"
        }
      ],
      "name": "propertyNfts",
      "outputs": [
        {
          "internalType": "uint256",
          "name": "collectionId",
          "type": "uint256"
        },
        {
          "internalType": "uint256",
          "name": "nftId",
          "type": "uint256"
        },
        {
          "internalType": "string",
          "name": "name",
          "type": "string"
        },
        {
          "internalType": "uint256",
          "name": "value",
          "type": "uint256"
        },
        {
          "internalType": "address",
          "name": "minter",
          "type": "address"
        },
        {
          "internalType": "string",
          "name": "image",
          "type": "string"
        }
      ],
      "stateMutability": "view",
      "type": "function"
    },
    {
      "inputs": [
        {
          "internalType": "address",
          "name": "from",
          "type": "address"
        },
        {
          "internalType": "address",
          "name": "to",
          "type": "address"
        },
        {
          "internalType": "uint256[]",
          "name": "ids",
          "type": "uint256[]"
        },
        {
          "internalType": "uint256[]",
          "name": "amounts",
          "type": "uint256[]"
        },
        {
          "internalType": "bytes",
          "name": "data",
          "type": "bytes"
        }
      ],
      "name": "safeBatchTransferFrom",
      "outputs": [],
      "stateMutability": "nonpayable",
      "type": "function"
    },
    {
      "inputs": [
        {
          "internalType": "address",
          "name": "from",
          "type": "address"
        },
        {
          "internalType": "address",
          "name": "to",
          "type": "address"
        },
        {
          "internalType": "uint256",
          "name": "id",
          "type": "uint256"
        },
        {
          "internalType": "uint256",
          "name": "amount",
          "type": "uint256"
        },
        {
          "internalType": "bytes",
          "name": "data",
          "type": "bytes"
        }
      ],
      "name": "safeTransferFrom",
      "outputs": [],
      "stateMutability": "nonpayable",
      "type": "function"
    },
    {
      "inputs": [
        {
          "internalType": "address",
          "name": "operator",
          "type": "address"
        },
        {
          "internalType": "bool",
          "name": "approved",
          "type": "bool"
        }
      ],
      "name": "setApprovalForAll",
      "outputs": [],
      "stateMutability": "nonpayable",
      "type": "function"
    },
    {
      "inputs": [
        {
          "internalType": "bytes4",
          "name": "interfaceId",
          "type": "bytes4"
        }
      ],
      "name": "supportsInterface",
      "outputs": [
        {
          "internalType": "bool",
          "name": "",
          "type": "bool"
        }
      ],
      "stateMutability": "view",
      "type": "function"
    },
    {
      "inputs": [
        {
          "internalType": "uint256",
          "name": "tokenId",
          "type": "uint256"
        }
      ],
      "name": "uri",
      "outputs": [
        {
          "internalType": "string",
          "name": "",
          "type": "string"
        }
      ],
      "stateMutability": "view",
      "type": "function"
    },
    {
      "inputs": [
        {
          "internalType": "uint256",
          "name": "_proposalId",
          "type": "uint256"
        },
        {
          "internalType": "string",
          "name": "_name",
          "type": "string"
        },
        {
          "internalType": "uint256",
          "name": "_value",
          "type": "uint256"
        },
        {
          "internalType": "uint256",
          "name": "_numberOfItem",
          "type": "uint256"
        },
        {
          "internalType": "address",
          "name": "_minter",
          "type": "address"
        },
        {
          "internalType": "string",
          "name": "_image",
          "type": "string"
        }
      ],
      "name": "mintPropertyNft",
      "outputs": [],
      "stateMutability": "nonpayable",
      "type": "function"
    },
    {
      "inputs": [
        {
          "internalType": "uint256",
          "name": "_nftId",
          "type": "uint256"
        },
        {
          "internalType": "string",
          "name": "_nftUri",
          "type": "string"
        }
      ],
      "name": "launchSetURI",
      "outputs": [],
      "stateMutability": "nonpayable",
      "type": "function"
    },
    {
      "inputs": [],
      "name": "getCollectionId",
      "outputs": [
        {
          "internalType": "uint256",
          "name": "",
          "type": "uint256"
        }
      ],
      "stateMutability": "view",
      "type": "function"
    }
  ],
  "bytecode": "0x60a0604052600060809081526003906200001a90826200013b565b503480156200002857600080fd5b50604051620027d3380380620027d38339810160408190526200004b9162000224565b81620000578162000084565b5060079290925550600880546001600160a01b0319166001600160a01b0390921691909117905562000316565b60026200009282826200013b565b5050565b634e487b7160e01b600052604160045260246000fd5b600181811c90821680620000c157607f821691505b602082108103620000e257634e487b7160e01b600052602260045260246000fd5b50919050565b601f8211156200013657600081815260208120601f850160051c81016020861015620001115750805b601f850160051c820191505b8181101562000132578281556001016200011d565b5050505b505050565b81516001600160401b0381111562000157576200015762000096565b6200016f81620001688454620000ac565b84620000e8565b602080601f831160018114620001a757600084156200018e5750858301515b600019600386901b1c1916600185901b17855562000132565b600085815260208120601f198616915b82811015620001d857888601518255948401946001909101908401620001b7565b5085821015620001f75787850151600019600388901b60f8161c191681555b5050505050600190811b01905550565b80516001600160a01b03811681146200021f57600080fd5b919050565b6000806000606084860312156200023a57600080fd5b8351602080860151919450906001600160401b03808211156200025c57600080fd5b818701915087601f8301126200027157600080fd5b81518181111562000286576200028662000096565b604051601f8201601f19908116603f01168101908382118183101715620002b157620002b162000096565b816040528281528a86848701011115620002ca57600080fd5b600093505b82841015620002ee5784840186015181850187015292850192620002cf565b60008684830101528097505050505050506200030d6040850162000207565b90509250925092565b6124ad80620003266000396000f3fe608060405234801561001057600080fd5b50600436106100f45760003560e01c80637c8e7bfe11610097578063e5326ab111610066578063e5326ab1146101fd578063e985e9c514610205578063f242432a1461024e578063fc94041e1461026157600080fd5b80637c8e7bfe146101b45780638296a2e8146101bc578063a22cb465146101c5578063bd269380146101d857600080fd5b80630e89341c116100d35780630e89341c1461014c5780632eb2c2d61461016c5780633c6c13ab146101815780634e1273f41461019457600080fd5b8062fdd58e146100f957806301ffc9a71461011f5780630518023714610142575b600080fd5b61010c610107366004611987565b610274565b6040519081526020015b60405180910390f35b61013261012d3660046119e2565b61033a565b6040519015158152602001610116565b60055461010c9081565b61015f61015a3660046119ff565b61041d565b6040516101169190611a68565b61017f61017a366004611be0565b6104fd565b005b61017f61018f366004611c8a565b6105ac565b6101a76101a2366004611d1a565b6108a2565b6040516101169190611e20565b60075461010c565b61010c60075481565b61017f6101d3366004611e41565b6109e0565b6101eb6101e63660046119ff565b6109ef565b60405161011696959493929190611e78565b61015f610b66565b610132610213366004611ed8565b73ffffffffffffffffffffffffffffffffffffffff918216600090815260016020908152604080832093909416825291909152205460ff1690565b61017f61025c366004611f0b565b610bf4565b61017f61026f366004611f70565b610c9c565b600073ffffffffffffffffffffffffffffffffffffffff83166103045760405162461bcd60e51b815260206004820152602a60248201527f455243313135353a2061646472657373207a65726f206973206e6f742061207660448201527f616c6964206f776e65720000000000000000000000000000000000000000000060648201526084015b60405180910390fd5b5060008181526020818152604080832073ffffffffffffffffffffffffffffffffffffffff861684529091529020545b92915050565b60007fffffffff0000000000000000000000000000000000000000000000000000000082167fd9b67a260000000000000000000000000000000000000000000000000000000014806103cd57507fffffffff0000000000000000000000000000000000000000000000000000000082167f0e89341c00000000000000000000000000000000000000000000000000000000145b8061033457507f01ffc9a7000000000000000000000000000000000000000000000000000000007fffffffff00000000000000000000000000000000000000000000000000000000831614610334565b60008181526004602052604081208054606092919061043b90611fad565b80601f016020809104026020016040519081016040528092919081815260200182805461046790611fad565b80156104b45780601f10610489576101008083540402835291602001916104b4565b820191906000526020600020905b81548152906001019060200180831161049757829003601f168201915b5050505050905060008151116104d2576104cd83610d09565b6104f6565b6003816040516020016104e6929190612000565b6040516020818303038152906040525b9392505050565b73ffffffffffffffffffffffffffffffffffffffff851633148061052657506105268533610213565b6105985760405162461bcd60e51b815260206004820152602e60248201527f455243313135353a2063616c6c6572206973206e6f7420746f6b656e206f776e60448201527f6572206f7220617070726f76656400000000000000000000000000000000000060648201526084016102fb565b6105a58585858585610d9d565b5050505050565b6008546040517f401853b70000000000000000000000000000000000000000000000000000000081526004810188905260009173ffffffffffffffffffffffffffffffffffffffff169063401853b790602401602060405180830381865afa15801561061c573d6000803e3d6000fd5b505050506040513d601f19601f8201168201806040525081019061064091906120a5565b90506001811515146106945760405162461bcd60e51b815260206004820152601860248201527f70726f706f73616c206973206e6f74206163636570746564000000000000000060448201526064016102fb565b600061069f60055490565b6040805160c0810182526007548152602081018381529181018a8152606082018a905273ffffffffffffffffffffffffffffffffffffffff8816608083015260a0820187905260098054600181018255600091909152825160069091027f6e1540171b6c0c960b71a7020d9f60077f6af931a8bbf590da0223dacf75c7af810191825593517f6e1540171b6c0c960b71a7020d9f60077f6af931a8bbf590da0223dacf75c7b08501559051939450909290917f6e1540171b6c0c960b71a7020d9f60077f6af931a8bbf590da0223dacf75c7b1019061077e9082612108565b506060820151600382015560808201516004820180547fffffffffffffffffffffffff00000000000000000000000000000000000000001673ffffffffffffffffffffffffffffffffffffffff90921691909117905560a082015160058201906107e89082612108565b50505061080633828760405180602001604052806000815250611089565b610814600580546001019055565b6008546040517f845c776d000000000000000000000000000000000000000000000000000000008152600481018a905273ffffffffffffffffffffffffffffffffffffffff9091169063845c776d90602401600060405180830381600087803b15801561088057600080fd5b505af1158015610894573d6000803e3d6000fd5b505050505050505050505050565b6060815183511461091b5760405162461bcd60e51b815260206004820152602960248201527f455243313135353a206163636f756e747320616e6420696473206c656e67746860448201527f206d69736d61746368000000000000000000000000000000000000000000000060648201526084016102fb565b6000835167ffffffffffffffff81111561093757610937611a7b565b604051908082528060200260200182016040528015610960578160200160208202803683370190505b50905060005b84518110156109d8576109ab85828151811061098457610984612204565b602002602001015185838151811061099e5761099e612204565b6020026020010151610274565b8282815181106109bd576109bd612204565b60209081029190910101526109d181612262565b9050610966565b509392505050565b6109eb3383836111e0565b5050565b600981815481106109ff57600080fd5b9060005260206000209060060201600091509050806000015490806001015490806002018054610a2e90611fad565b80601f0160208091040260200160405190810160405280929190818152602001828054610a5a90611fad565b8015610aa75780601f10610a7c57610100808354040283529160200191610aa7565b820191906000526020600020905b815481529060010190602001808311610a8a57829003601f168201915b50505050600383015460048401546005850180549495929473ffffffffffffffffffffffffffffffffffffffff909216935090610ae390611fad565b80601f0160208091040260200160405190810160405280929190818152602001828054610b0f90611fad565b8015610b5c5780601f10610b3157610100808354040283529160200191610b5c565b820191906000526020600020905b815481529060010190602001808311610b3f57829003601f168201915b5050505050905086565b60068054610b7390611fad565b80601f0160208091040260200160405190810160405280929190818152602001828054610b9f90611fad565b8015610bec5780601f10610bc157610100808354040283529160200191610bec565b820191906000526020600020905b815481529060010190602001808311610bcf57829003601f168201915b505050505081565b73ffffffffffffffffffffffffffffffffffffffff8516331480610c1d5750610c1d8533610213565b610c8f5760405162461bcd60e51b815260206004820152602e60248201527f455243313135353a2063616c6c6572206973206e6f7420746f6b656e206f776e60448201527f6572206f7220617070726f76656400000000000000000000000000000000000060648201526084016102fb565b6105a58585858585611319565b6000610ca83384610274565b905060008111610cfa5760405162461bcd60e51b815260206004820152600d60248201527f6e6f7420746865206f776e65720000000000000000000000000000000000000060448201526064016102fb565b610d048383611523565b505050565b606060028054610d1890611fad565b80601f0160208091040260200160405190810160405280929190818152602001828054610d4490611fad565b8015610d915780601f10610d6657610100808354040283529160200191610d91565b820191906000526020600020905b815481529060010190602001808311610d7457829003601f168201915b50505050509050919050565b8151835114610e145760405162461bcd60e51b815260206004820152602860248201527f455243313135353a2069647320616e6420616d6f756e7473206c656e6774682060448201527f6d69736d6174636800000000000000000000000000000000000000000000000060648201526084016102fb565b73ffffffffffffffffffffffffffffffffffffffff8416610e9d5760405162461bcd60e51b815260206004820152602560248201527f455243313135353a207472616e7366657220746f20746865207a65726f20616460448201527f647265737300000000000000000000000000000000000000000000000000000060648201526084016102fb565b3360005b8451811015610ff4576000858281518110610ebe57610ebe612204565b602002602001015190506000858381518110610edc57610edc612204565b6020908102919091018101516000848152808352604080822073ffffffffffffffffffffffffffffffffffffffff8e168352909352919091205490915081811015610f8f5760405162461bcd60e51b815260206004820152602a60248201527f455243313135353a20696e73756666696369656e742062616c616e636520666f60448201527f72207472616e736665720000000000000000000000000000000000000000000060648201526084016102fb565b60008381526020818152604080832073ffffffffffffffffffffffffffffffffffffffff8e8116855292528083208585039055908b16825281208054849290610fd990849061229a565b9250508190555050505080610fed90612262565b9050610ea1565b508473ffffffffffffffffffffffffffffffffffffffff168673ffffffffffffffffffffffffffffffffffffffff168273ffffffffffffffffffffffffffffffffffffffff167f4a39dc06d4c0dbc64b70af90fd698a233a518aa5d07e595d983b8c0526c8f7fb878760405161106b9291906122ad565b60405180910390a4611081818787878787611580565b505050505050565b73ffffffffffffffffffffffffffffffffffffffff84166111125760405162461bcd60e51b815260206004820152602160248201527f455243313135353a206d696e7420746f20746865207a65726f2061646472657360448201527f730000000000000000000000000000000000000000000000000000000000000060648201526084016102fb565b33600061111e8561179e565b9050600061112b8561179e565b905060008681526020818152604080832073ffffffffffffffffffffffffffffffffffffffff8b1684529091528120805487929061116a90849061229a565b9091555050604080518781526020810187905273ffffffffffffffffffffffffffffffffffffffff808a1692600092918716917fc3d58168c5ae7397731d063d5bbf3d657854427343f4c083240f7aacaa2d0f62910160405180910390a46111d7836000898989896117e9565b50505050505050565b8173ffffffffffffffffffffffffffffffffffffffff168373ffffffffffffffffffffffffffffffffffffffff16036112815760405162461bcd60e51b815260206004820152602960248201527f455243313135353a2073657474696e6720617070726f76616c2073746174757360448201527f20666f722073656c66000000000000000000000000000000000000000000000060648201526084016102fb565b73ffffffffffffffffffffffffffffffffffffffff83811660008181526001602090815260408083209487168084529482529182902080547fffffffffffffffffffffffffffffffffffffffffffffffffffffffffffffff001686151590811790915591519182527f17307eab39ab6107e8899845ad3d59bd9653f200f220920489ca2b5937696c31910160405180910390a3505050565b73ffffffffffffffffffffffffffffffffffffffff84166113a25760405162461bcd60e51b815260206004820152602560248201527f455243313135353a207472616e7366657220746f20746865207a65726f20616460448201527f647265737300000000000000000000000000000000000000000000000000000060648201526084016102fb565b3360006113ae8561179e565b905060006113bb8561179e565b905060008681526020818152604080832073ffffffffffffffffffffffffffffffffffffffff8c168452909152902054858110156114615760405162461bcd60e51b815260206004820152602a60248201527f455243313135353a20696e73756666696369656e742062616c616e636520666f60448201527f72207472616e736665720000000000000000000000000000000000000000000060648201526084016102fb565b60008781526020818152604080832073ffffffffffffffffffffffffffffffffffffffff8d8116855292528083208985039055908a168252812080548892906114ab90849061229a565b9091555050604080518881526020810188905273ffffffffffffffffffffffffffffffffffffffff808b16928c821692918816917fc3d58168c5ae7397731d063d5bbf3d657854427343f4c083240f7aacaa2d0f62910160405180910390a4611518848a8a8a8a8a6117e9565b505050505050505050565b600082815260046020526040902061153b8282612108565b50817f6bb7ff708619ba0610cba295a58592e0451dee2622938c8755667688daf3529b6115678461041d565b6040516115749190611a68565b60405180910390a25050565b73ffffffffffffffffffffffffffffffffffffffff84163b15611081576040517fbc197c8100000000000000000000000000000000000000000000000000000000815273ffffffffffffffffffffffffffffffffffffffff85169063bc197c81906115f790899089908890889088906004016122db565b6020604051808303816000875af1925050508015611632575060408051601f3d908101601f1916820190925261162f91810190612346565b60015b6116e75761163e612363565b806308c379a003611677575061165261237f565b8061165d5750611679565b8060405162461bcd60e51b81526004016102fb9190611a68565b505b60405162461bcd60e51b815260206004820152603460248201527f455243313135353a207472616e7366657220746f206e6f6e2d4552433131353560448201527f526563656976657220696d706c656d656e74657200000000000000000000000060648201526084016102fb565b7fffffffff0000000000000000000000000000000000000000000000000000000081167fbc197c8100000000000000000000000000000000000000000000000000000000146111d75760405162461bcd60e51b815260206004820152602860248201527f455243313135353a204552433131353552656365697665722072656a6563746560448201527f6420746f6b656e7300000000000000000000000000000000000000000000000060648201526084016102fb565b604080516001808252818301909252606091600091906020808301908036833701905050905082816000815181106117d8576117d8612204565b602090810291909101015292915050565b73ffffffffffffffffffffffffffffffffffffffff84163b15611081576040517ff23a6e6100000000000000000000000000000000000000000000000000000000815273ffffffffffffffffffffffffffffffffffffffff85169063f23a6e61906118609089908990889088908890600401612427565b6020604051808303816000875af192505050801561189b575060408051601f3d908101601f1916820190925261189891810190612346565b60015b6118a75761163e612363565b7fffffffff0000000000000000000000000000000000000000000000000000000081167ff23a6e6100000000000000000000000000000000000000000000000000000000146111d75760405162461bcd60e51b815260206004820152602860248201527f455243313135353a204552433131353552656365697665722072656a6563746560448201527f6420746f6b656e7300000000000000000000000000000000000000000000000060648201526084016102fb565b803573ffffffffffffffffffffffffffffffffffffffff8116811461198257600080fd5b919050565b6000806040838503121561199a57600080fd5b6119a38361195e565b946020939093013593505050565b7fffffffff00000000000000000000000000000000000000000000000000000000811681146119df57600080fd5b50565b6000602082840312156119f457600080fd5b81356104f6816119b1565b600060208284031215611a1157600080fd5b5035919050565b60005b83811015611a33578181015183820152602001611a1b565b50506000910152565b60008151808452611a54816020860160208601611a18565b601f01601f19169290920160200192915050565b6020815260006104f66020830184611a3c565b7f4e487b7100000000000000000000000000000000000000000000000000000000600052604160045260246000fd5b601f19601f830116810181811067ffffffffffffffff82111715611ad057611ad0611a7b565b6040525050565b600067ffffffffffffffff821115611af157611af1611a7b565b5060051b60200190565b600082601f830112611b0c57600080fd5b81356020611b1982611ad7565b604051611b268282611aaa565b83815260059390931b8501820192828101915086841115611b4657600080fd5b8286015b84811015611b615780358352918301918301611b4a565b509695505050505050565b600082601f830112611b7d57600080fd5b813567ffffffffffffffff811115611b9757611b97611a7b565b604051611bae6020601f19601f8501160182611aaa565b818152846020838601011115611bc357600080fd5b816020850160208301376000918101602001919091529392505050565b600080600080600060a08688031215611bf857600080fd5b611c018661195e565b9450611c0f6020870161195e565b9350604086013567ffffffffffffffff80821115611c2c57600080fd5b611c3889838a01611afb565b94506060880135915080821115611c4e57600080fd5b611c5a89838a01611afb565b93506080880135915080821115611c7057600080fd5b50611c7d88828901611b6c565b9150509295509295909350565b60008060008060008060c08789031215611ca357600080fd5b86359550602087013567ffffffffffffffff80821115611cc257600080fd5b611cce8a838b01611b6c565b96506040890135955060608901359450611cea60808a0161195e565b935060a0890135915080821115611d0057600080fd5b50611d0d89828a01611b6c565b9150509295509295509295565b60008060408385031215611d2d57600080fd5b823567ffffffffffffffff80821115611d4557600080fd5b818501915085601f830112611d5957600080fd5b81356020611d6682611ad7565b604051611d738282611aaa565b83815260059390931b8501820192828101915089841115611d9357600080fd5b948201945b83861015611db857611da98661195e565b82529482019490820190611d98565b96505086013592505080821115611dce57600080fd5b50611ddb85828601611afb565b9150509250929050565b600081518084526020808501945080840160005b83811015611e1557815187529582019590820190600101611df9565b509495945050505050565b6020815260006104f66020830184611de5565b80151581146119df57600080fd5b60008060408385031215611e5457600080fd5b611e5d8361195e565b91506020830135611e6d81611e33565b809150509250929050565b86815285602082015260c060408201526000611e9760c0830187611a3c565b85606084015273ffffffffffffffffffffffffffffffffffffffff8516608084015282810360a0840152611ecb8185611a3c565b9998505050505050505050565b60008060408385031215611eeb57600080fd5b611ef48361195e565b9150611f026020840161195e565b90509250929050565b600080600080600060a08688031215611f2357600080fd5b611f2c8661195e565b9450611f3a6020870161195e565b93506040860135925060608601359150608086013567ffffffffffffffff811115611f6457600080fd5b611c7d88828901611b6c565b60008060408385031215611f8357600080fd5b82359150602083013567ffffffffffffffff811115611fa157600080fd5b611ddb85828601611b6c565b600181811c90821680611fc157607f821691505b602082108103611ffa577f4e487b7100000000000000000000000000000000000000000000000000000000600052602260045260246000fd5b50919050565b600080845461200e81611fad565b60018281168015612026576001811461205957612088565b7fffffffffffffffffffffffffffffffffffffffffffffffffffffffffffffff0084168752821515830287019450612088565b8860005260208060002060005b8581101561207f5781548a820152908401908201612066565b50505082870194505b50505050835161209c818360208801611a18565b01949350505050565b6000602082840312156120b757600080fd5b81516104f681611e33565b601f821115610d0457600081815260208120601f850160051c810160208610156120e95750805b601f850160051c820191505b81811015611081578281556001016120f5565b815167ffffffffffffffff81111561212257612122611a7b565b612136816121308454611fad565b846120c2565b602080601f83116001811461218957600084156121535750858301515b7fffffffffffffffffffffffffffffffffffffffffffffffffffffffffffffffff600386901b1c1916600185901b178555611081565b600085815260208120601f198616915b828110156121b857888601518255948401946001909101908401612199565b50858210156121f457878501517fffffffffffffffffffffffffffffffffffffffffffffffffffffffffffffffff600388901b60f8161c191681555b5050505050600190811b01905550565b7f4e487b7100000000000000000000000000000000000000000000000000000000600052603260045260246000fd5b7f4e487b7100000000000000000000000000000000000000000000000000000000600052601160045260246000fd5b60007fffffffffffffffffffffffffffffffffffffffffffffffffffffffffffffffff820361229357612293612233565b5060010190565b8082018082111561033457610334612233565b6040815260006122c06040830185611de5565b82810360208401526122d28185611de5565b95945050505050565b600073ffffffffffffffffffffffffffffffffffffffff808816835280871660208401525060a0604083015261231460a0830186611de5565b82810360608401526123268186611de5565b9050828103608084015261233a8185611a3c565b98975050505050505050565b60006020828403121561235857600080fd5b81516104f6816119b1565b600060033d111561237c5760046000803e5060005160e01c5b90565b600060443d101561238d5790565b6040517ffffffffffffffffffffffffffffffffffffffffffffffffffffffffffffffffc803d016004833e81513d67ffffffffffffffff81602484011181841117156123db57505050505090565b82850191508151818111156123f35750505050505090565b843d870101602082850101111561240d5750505050505090565b61241c60208286010187611aaa565b509095945050505050565b600073ffffffffffffffffffffffffffffffffffffffff808816835280871660208401525084604083015283606083015260a0608083015261246c60a0830184611a3c565b97965050505050505056fea2646970667358221220fc9b6df4963298f6fb8abdefd2f2f59c84c3baa2417f616b9f15735a2b5d8f5d64736f6c63430008110033",
  "immutableReferences": {},
  "source": "// SPDX-License-Identifier: GPL-3.0\npragma solidity 0.8.17;\n\nimport \"../node_modules/@openzeppelin/contracts/token/ERC1155/extensions/ERC1155URIStorage.sol\";\nimport \"../node_modules/@openzeppelin/contracts/utils/Counters.sol\";\n\n// URI POUR TEST ==> \"https://gateway.pinata.cloud/ipfs/QmUegKTCJ8r6td4AfT22FjJHCVMJn4fKTVCK4MH7zNM7Mn/{id}.json\"\n\ninterface IIICollectorsDAO {\n    function getProposalStatus(uint256 _proposalId)\n        external\n        view\n        returns (bool proposalStatus);\n\n    function updatePropertyMintStatus(uint256 _proposalId) external;\n}\n\n/// @notice this contract manage the ERC1155 collection of each collector chain collections\n/// @notice (for Jury) IPFS upload not managed yet\ncontract NftProperty is ERC1155URIStorage {\n    using Counters for Counters.Counter;\n    Counters.Counter public _id;\n\n    string public collectionName;\n    uint256 public _collectionId;\n\n    struct PropertyNft {\n        uint256 collectionId;\n        uint256 nftId;\n        string name;\n        uint256 value;\n        address minter;\n        string image;\n    }\n\n    IIICollectorsDAO collectorsDAO;\n\n    PropertyNft[] public propertyNfts;\n\n    /// @notice URI structure have to be managed from the front end in order to define custom attributes for each collection\n    constructor(\n        uint256 collectionId_,\n        string memory collectionURI_,\n        address daoContractAddress_\n    )\n        ERC1155(\n            /* URI de la collection*/\n            collectionURI_\n        )\n    {\n        _collectionId = collectionId_;\n        collectorsDAO = IIICollectorsDAO(daoContractAddress_);\n    }\n\n    /// @notice function mint() mint new NFT and send it to the owner of the object\n    /// @notice 100 NFTs will be mint each time (managed by front end)\n    function mintPropertyNft(\n        uint256 _proposalId,\n        string memory _name,\n        uint256 _value,\n        uint256 _numberOfItem,\n        address _minter,\n        string memory _image\n    ) external {\n        // get the proposal status to allow the mint\n        bool proposalStatus = collectorsDAO.getProposalStatus(_proposalId);\n        require(proposalStatus == true, \"proposal is not accepted\");\n\n        uint256 newPropertyNftId = _id.current();\n        propertyNfts.push(\n            PropertyNft(\n                _collectionId,\n                newPropertyNftId,\n                _name,\n                _value,\n                _minter,\n                _image\n            )\n        );\n        _mint(msg.sender, newPropertyNftId, _numberOfItem, \"\");\n        _id.increment();\n        collectorsDAO.updatePropertyMintStatus(_proposalId);\n    }\n\n    /// @dev function launch just after the minting by the minter, in the same frontEnd call\n    function launchSetURI(uint256 _nftId, string memory _nftUri) external {\n        uint256 balance = balanceOf(msg.sender, _nftId);\n        require(balance > 0, \"not the owner\");\n        _setURI(_nftId, _nftUri);\n    }\n\n    function getCollectionId() external view returns (uint256) {\n        return _collectionId;\n    }\n}\n",
  "sourcePath": "/Users/jeromejulien/Documents/vscode/FormationAlyra/02_Projets/CollectorChain_TokenizedCollectibles/truffle/contracts/NftProperty.sol",
  "compiler": {
    "name": "solc",
    "version": "0.8.17+commit.8df45f5f.Emscripten.clang"
  },
  "schemaVersion": "3.4.10",
  "updatedAt": "2022-12-10T08:43:01.176Z",
  "devdoc": {
    "kind": "dev",
    "methods": {
      "balanceOf(address,uint256)": {
        "details": "See {IERC1155-balanceOf}. Requirements: - `account` cannot be the zero address."
      },
      "balanceOfBatch(address[],uint256[])": {
        "details": "See {IERC1155-balanceOfBatch}. Requirements: - `accounts` and `ids` must have the same length."
      },
      "isApprovedForAll(address,address)": {
        "details": "See {IERC1155-isApprovedForAll}."
      },
      "launchSetURI(uint256,string)": {
        "details": "function launch just after the minting by the minter, in the same frontEnd call"
      },
      "safeBatchTransferFrom(address,address,uint256[],uint256[],bytes)": {
        "details": "See {IERC1155-safeBatchTransferFrom}."
      },
      "safeTransferFrom(address,address,uint256,uint256,bytes)": {
        "details": "See {IERC1155-safeTransferFrom}."
      },
      "setApprovalForAll(address,bool)": {
        "details": "See {IERC1155-setApprovalForAll}."
      },
      "supportsInterface(bytes4)": {
        "details": "See {IERC165-supportsInterface}."
      },
      "uri(uint256)": {
        "details": "See {IERC1155MetadataURI-uri}. This implementation returns the concatenation of the `_baseURI` and the token-specific uri if the latter is set This enables the following behaviors: - if `_tokenURIs[tokenId]` is set, then the result is the concatenation   of `_baseURI` and `_tokenURIs[tokenId]` (keep in mind that `_baseURI`   is empty per default); - if `_tokenURIs[tokenId]` is NOT set then we fallback to `super.uri()`   which in most cases will contain `ERC1155._uri`; - if `_tokenURIs[tokenId]` is NOT set, and if the parents do not have a   uri value set, then the result is empty."
      }
    },
    "version": 1
  },
  "userdoc": {
    "kind": "user",
    "methods": {
      "constructor": {
        "notice": "URI structure have to be managed from the front end in order to define custom attributes for each collection"
      },
      "mintPropertyNft(uint256,string,uint256,uint256,address,string)": {
        "notice": "function mint() mint new NFT and send it to the owner of the object100 NFTs will be mint each time (managed by front end)"
      }
    },
    "notice": "this contract manage the ERC1155 collection of each collector chain collections(for Jury) IPFS upload not managed yet",
    "version": 1
  }
}