{
  "contractName": "NftProperty",
  "abi": [
    {
      "inputs": [
        {
          "internalType": "uint256",
          "name": "collectionId_",
          "type": "uint256"
        },
        {
          "internalType": "string",
          "name": "collectionURI_",
          "type": "string"
        },
        {
          "internalType": "address",
          "name": "daoContractAddress_",
          "type": "address"
        }
      ],
      "stateMutability": "nonpayable",
      "type": "constructor"
    },
    {
      "anonymous": false,
      "inputs": [
        {
          "indexed": true,
          "internalType": "address",
          "name": "account",
          "type": "address"
        },
        {
          "indexed": true,
          "internalType": "address",
          "name": "operator",
          "type": "address"
        },
        {
          "indexed": false,
          "internalType": "bool",
          "name": "approved",
          "type": "bool"
        }
      ],
      "name": "ApprovalForAll",
      "type": "event"
    },
    {
      "anonymous": false,
      "inputs": [
        {
          "indexed": true,
          "internalType": "address",
          "name": "operator",
          "type": "address"
        },
        {
          "indexed": true,
          "internalType": "address",
          "name": "from",
          "type": "address"
        },
        {
          "indexed": true,
          "internalType": "address",
          "name": "to",
          "type": "address"
        },
        {
          "indexed": false,
          "internalType": "uint256[]",
          "name": "ids",
          "type": "uint256[]"
        },
        {
          "indexed": false,
          "internalType": "uint256[]",
          "name": "values",
          "type": "uint256[]"
        }
      ],
      "name": "TransferBatch",
      "type": "event"
    },
    {
      "anonymous": false,
      "inputs": [
        {
          "indexed": true,
          "internalType": "address",
          "name": "operator",
          "type": "address"
        },
        {
          "indexed": true,
          "internalType": "address",
          "name": "from",
          "type": "address"
        },
        {
          "indexed": true,
          "internalType": "address",
          "name": "to",
          "type": "address"
        },
        {
          "indexed": false,
          "internalType": "uint256",
          "name": "id",
          "type": "uint256"
        },
        {
          "indexed": false,
          "internalType": "uint256",
          "name": "value",
          "type": "uint256"
        }
      ],
      "name": "TransferSingle",
      "type": "event"
    },
    {
      "anonymous": false,
      "inputs": [
        {
          "indexed": false,
          "internalType": "string",
          "name": "value",
          "type": "string"
        },
        {
          "indexed": true,
          "internalType": "uint256",
          "name": "id",
          "type": "uint256"
        }
      ],
      "name": "URI",
      "type": "event"
    },
    {
      "inputs": [],
      "name": "_collectionId",
      "outputs": [
        {
          "internalType": "uint256",
          "name": "",
          "type": "uint256"
        }
      ],
      "stateMutability": "view",
      "type": "function"
    },
    {
      "inputs": [],
      "name": "_id",
      "outputs": [
        {
          "internalType": "uint256",
          "name": "_value",
          "type": "uint256"
        }
      ],
      "stateMutability": "view",
      "type": "function"
    },
    {
      "inputs": [
        {
          "internalType": "address",
          "name": "account",
          "type": "address"
        },
        {
          "internalType": "uint256",
          "name": "id",
          "type": "uint256"
        }
      ],
      "name": "balanceOf",
      "outputs": [
        {
          "internalType": "uint256",
          "name": "",
          "type": "uint256"
        }
      ],
      "stateMutability": "view",
      "type": "function"
    },
    {
      "inputs": [
        {
          "internalType": "address[]",
          "name": "accounts",
          "type": "address[]"
        },
        {
          "internalType": "uint256[]",
          "name": "ids",
          "type": "uint256[]"
        }
      ],
      "name": "balanceOfBatch",
      "outputs": [
        {
          "internalType": "uint256[]",
          "name": "",
          "type": "uint256[]"
        }
      ],
      "stateMutability": "view",
      "type": "function"
    },
    {
      "inputs": [],
      "name": "collectionName",
      "outputs": [
        {
          "internalType": "string",
          "name": "",
          "type": "string"
        }
      ],
      "stateMutability": "view",
      "type": "function"
    },
    {
      "inputs": [
        {
          "internalType": "address",
          "name": "account",
          "type": "address"
        },
        {
          "internalType": "address",
          "name": "operator",
          "type": "address"
        }
      ],
      "name": "isApprovedForAll",
      "outputs": [
        {
          "internalType": "bool",
          "name": "",
          "type": "bool"
        }
      ],
      "stateMutability": "view",
      "type": "function"
    },
    {
      "inputs": [
        {
          "internalType": "uint256",
          "name": "",
          "type": "uint256"
        }
      ],
      "name": "propertyNfts",
      "outputs": [
        {
          "internalType": "uint256",
          "name": "collectionId",
          "type": "uint256"
        },
        {
          "internalType": "uint256",
          "name": "nftId",
          "type": "uint256"
        },
        {
          "internalType": "string",
          "name": "name",
          "type": "string"
        },
        {
          "internalType": "uint256",
          "name": "value",
          "type": "uint256"
        }
      ],
      "stateMutability": "view",
      "type": "function"
    },
    {
      "inputs": [
        {
          "internalType": "address",
          "name": "from",
          "type": "address"
        },
        {
          "internalType": "address",
          "name": "to",
          "type": "address"
        },
        {
          "internalType": "uint256[]",
          "name": "ids",
          "type": "uint256[]"
        },
        {
          "internalType": "uint256[]",
          "name": "amounts",
          "type": "uint256[]"
        },
        {
          "internalType": "bytes",
          "name": "data",
          "type": "bytes"
        }
      ],
      "name": "safeBatchTransferFrom",
      "outputs": [],
      "stateMutability": "nonpayable",
      "type": "function"
    },
    {
      "inputs": [
        {
          "internalType": "address",
          "name": "from",
          "type": "address"
        },
        {
          "internalType": "address",
          "name": "to",
          "type": "address"
        },
        {
          "internalType": "uint256",
          "name": "id",
          "type": "uint256"
        },
        {
          "internalType": "uint256",
          "name": "amount",
          "type": "uint256"
        },
        {
          "internalType": "bytes",
          "name": "data",
          "type": "bytes"
        }
      ],
      "name": "safeTransferFrom",
      "outputs": [],
      "stateMutability": "nonpayable",
      "type": "function"
    },
    {
      "inputs": [
        {
          "internalType": "address",
          "name": "operator",
          "type": "address"
        },
        {
          "internalType": "bool",
          "name": "approved",
          "type": "bool"
        }
      ],
      "name": "setApprovalForAll",
      "outputs": [],
      "stateMutability": "nonpayable",
      "type": "function"
    },
    {
      "inputs": [
        {
          "internalType": "bytes4",
          "name": "interfaceId",
          "type": "bytes4"
        }
      ],
      "name": "supportsInterface",
      "outputs": [
        {
          "internalType": "bool",
          "name": "",
          "type": "bool"
        }
      ],
      "stateMutability": "view",
      "type": "function"
    },
    {
      "inputs": [
        {
          "internalType": "uint256",
          "name": "",
          "type": "uint256"
        }
      ],
      "name": "uri",
      "outputs": [
        {
          "internalType": "string",
          "name": "",
          "type": "string"
        }
      ],
      "stateMutability": "view",
      "type": "function"
    },
    {
      "inputs": [
        {
          "internalType": "uint256",
          "name": "_proposalId",
          "type": "uint256"
        },
        {
          "internalType": "string",
          "name": "_name",
          "type": "string"
        },
        {
          "internalType": "uint256",
          "name": "_value",
          "type": "uint256"
        },
        {
          "internalType": "uint256",
          "name": "_numberOfItem",
          "type": "uint256"
        }
      ],
      "name": "mintPropertyNft",
      "outputs": [],
      "stateMutability": "nonpayable",
      "type": "function"
    },
    {
      "inputs": [],
      "name": "getCollectionId",
      "outputs": [
        {
          "internalType": "uint256",
          "name": "",
          "type": "uint256"
        }
      ],
      "stateMutability": "view",
      "type": "function"
    }
  ],
  "bytecode": "0x60806040523480156200001157600080fd5b5060405162001da338038062001da38339810160408190526200003491620000b2565b8162000040816200006d565b5060059290925550600680546001600160a01b0319166001600160a01b03909216919091179055620002ff565b60026200007b828262000233565b5050565b634e487b7160e01b600052604160045260246000fd5b80516001600160a01b0381168114620000ad57600080fd5b919050565b600080600060608486031215620000c857600080fd5b8351602080860151919450906001600160401b0380821115620000ea57600080fd5b818701915087601f830112620000ff57600080fd5b8151818111156200011457620001146200007f565b604051601f8201601f19908116603f011681019083821181831017156200013f576200013f6200007f565b816040528281528a868487010111156200015857600080fd5b600093505b828410156200017c57848401860151818501870152928501926200015d565b60008684830101528097505050505050506200019b6040850162000095565b90509250925092565b600181811c90821680620001b957607f821691505b602082108103620001da57634e487b7160e01b600052602260045260246000fd5b50919050565b601f8211156200022e57600081815260208120601f850160051c81016020861015620002095750805b601f850160051c820191505b818110156200022a5782815560010162000215565b5050505b505050565b81516001600160401b038111156200024f576200024f6200007f565b6200026781620002608454620001a4565b84620001e0565b602080601f8311600181146200029f5760008415620002865750858301515b600019600386901b1c1916600185901b1785556200022a565b600085815260208120601f198616915b82811015620002d057888601518255948401946001909101908401620002af565b5085821015620002ef5787850151600019600388901b60f8161c191681555b5050505050600190811b01905550565b611a94806200030f6000396000f3fe608060405234801561001057600080fd5b50600436106100e95760003560e01c80637f60486a1161008c578063bd26938011610066578063bd269380146101cd578063e5326ab1146101f0578063e985e9c5146101f8578063f242432a1461023457600080fd5b80637f60486a1461019e5780638296a2e8146101b1578063a22cb465146101ba57600080fd5b80630e89341c116100c85780630e89341c146101415780632eb2c2d6146101615780634e1273f4146101765780637c8e7bfe1461019657600080fd5b8062fdd58e146100ee57806301ffc9a7146101145780630518023714610137575b600080fd5b6101016100fc366004611081565b610247565b6040519081526020015b60405180910390f35b6101276101223660046110c4565b6102e0565b604051901515815260200161010b565b6003546101019081565b61015461014f3660046110e8565b610330565b60405161010b9190611147565b61017461016f3660046112b0565b6103c4565b005b61018961018436600461135a565b610410565b60405161010b9190611460565b600554610101565b6101746101ac366004611473565b61053a565b61010160055481565b6101746101c83660046114ec565b61075f565b6101e06101db3660046110e8565b61076e565b60405161010b9493929190611523565b610154610836565b610127610206366004611553565b6001600160a01b03918216600090815260016020908152604080832093909416825291909152205460ff1690565b610174610242366004611586565b6108c4565b60006001600160a01b0383166102b75760405162461bcd60e51b815260206004820152602a60248201527f455243313135353a2061646472657373207a65726f206973206e6f742061207660448201526930b634b21037bbb732b960b11b60648201526084015b60405180910390fd5b506000818152602081815260408083206001600160a01b03861684529091529020545b92915050565b60006001600160e01b03198216636cdb3d1360e11b148061031157506001600160e01b031982166303a24d0760e21b145b806102da57506301ffc9a760e01b6001600160e01b03198316146102da565b60606002805461033f906115eb565b80601f016020809104026020016040519081016040528092919081815260200182805461036b906115eb565b80156103b85780601f1061038d576101008083540402835291602001916103b8565b820191906000526020600020905b81548152906001019060200180831161039b57829003601f168201915b50505050509050919050565b6001600160a01b0385163314806103e057506103e08533610206565b6103fc5760405162461bcd60e51b81526004016102ae90611625565b6104098585858585610909565b5050505050565b606081518351146104755760405162461bcd60e51b815260206004820152602960248201527f455243313135353a206163636f756e747320616e6420696473206c656e677468604482015268040dad2e6dac2e8c6d60bb1b60648201526084016102ae565b6000835167ffffffffffffffff8111156104915761049161115a565b6040519080825280602002602001820160405280156104ba578160200160208202803683370190505b50905060005b8451811015610532576105058582815181106104de576104de611673565b60200260200101518583815181106104f8576104f8611673565b6020026020010151610247565b82828151811061051757610517611673565b602090810291909101015261052b8161169f565b90506104c0565b509392505050565b60065460405163401853b760e01b8152600481018690526000916001600160a01b03169063401853b790602401602060405180830381865afa158015610584573d6000803e3d6000fd5b505050506040513d601f19601f820116820180604052508101906105a891906116b8565b90506001811515146105fc5760405162461bcd60e51b815260206004820152601860248201527f70726f706f73616c206973206e6f74206163636570746564000000000000000060448201526064016102ae565b600061060760035490565b604080516080810182526005548152602081018381529181018881526060820188905260078054600181018255600091909152825160049091027fa66cc928b5edb82af9bd49922954155ab7b0942694bea4ce44661d9a8736c688810191825593517fa66cc928b5edb82af9bd49922954155ab7b0942694bea4ce44661d9a8736c6898501559051939450909290917fa66cc928b5edb82af9bd49922954155ab7b0942694bea4ce44661d9a8736c68a01906106c39082611720565b506060820151816003015550506106eb33828560405180602001604052806000815250610ae6565b6106f9600380546001019055565b60065460405163845c776d60e01b8152600481018890526001600160a01b039091169063845c776d90602401600060405180830381600087803b15801561073f57600080fd5b505af1158015610753573d6000803e3d6000fd5b50505050505050505050565b61076a338383610bfa565b5050565b6007818154811061077e57600080fd5b90600052602060002090600402016000915090508060000154908060010154908060020180546107ad906115eb565b80601f01602080910402602001604051908101604052809291908181526020018280546107d9906115eb565b80156108265780601f106107fb57610100808354040283529160200191610826565b820191906000526020600020905b81548152906001019060200180831161080957829003601f168201915b5050505050908060030154905084565b60048054610843906115eb565b80601f016020809104026020016040519081016040528092919081815260200182805461086f906115eb565b80156108bc5780601f10610891576101008083540402835291602001916108bc565b820191906000526020600020905b81548152906001019060200180831161089f57829003601f168201915b505050505081565b6001600160a01b0385163314806108e057506108e08533610206565b6108fc5760405162461bcd60e51b81526004016102ae90611625565b6104098585858585610cda565b815183511461096b5760405162461bcd60e51b815260206004820152602860248201527f455243313135353a2069647320616e6420616d6f756e7473206c656e677468206044820152670dad2e6dac2e8c6d60c31b60648201526084016102ae565b6001600160a01b0384166109915760405162461bcd60e51b81526004016102ae906117e0565b3360005b8451811015610a785760008582815181106109b2576109b2611673565b6020026020010151905060008583815181106109d0576109d0611673565b602090810291909101810151600084815280835260408082206001600160a01b038e168352909352919091205490915081811015610a205760405162461bcd60e51b81526004016102ae90611825565b6000838152602081815260408083206001600160a01b038e8116855292528083208585039055908b16825281208054849290610a5d90849061186f565b9250508190555050505080610a719061169f565b9050610995565b50846001600160a01b0316866001600160a01b0316826001600160a01b03167f4a39dc06d4c0dbc64b70af90fd698a233a518aa5d07e595d983b8c0526c8f7fb8787604051610ac8929190611882565b60405180910390a4610ade818787878787610e04565b505050505050565b6001600160a01b038416610b465760405162461bcd60e51b815260206004820152602160248201527f455243313135353a206d696e7420746f20746865207a65726f206164647265736044820152607360f81b60648201526084016102ae565b336000610b5285610f5f565b90506000610b5f85610f5f565b90506000868152602081815260408083206001600160a01b038b16845290915281208054879290610b9190849061186f565b909155505060408051878152602081018790526001600160a01b03808a1692600092918716917fc3d58168c5ae7397731d063d5bbf3d657854427343f4c083240f7aacaa2d0f62910160405180910390a4610bf183600089898989610faa565b50505050505050565b816001600160a01b0316836001600160a01b031603610c6d5760405162461bcd60e51b815260206004820152602960248201527f455243313135353a2073657474696e6720617070726f76616c20737461747573604482015268103337b91039b2b63360b91b60648201526084016102ae565b6001600160a01b03838116600081815260016020908152604080832094871680845294825291829020805460ff191686151590811790915591519182527f17307eab39ab6107e8899845ad3d59bd9653f200f220920489ca2b5937696c31910160405180910390a3505050565b6001600160a01b038416610d005760405162461bcd60e51b81526004016102ae906117e0565b336000610d0c85610f5f565b90506000610d1985610f5f565b90506000868152602081815260408083206001600160a01b038c16845290915290205485811015610d5c5760405162461bcd60e51b81526004016102ae90611825565b6000878152602081815260408083206001600160a01b038d8116855292528083208985039055908a16825281208054889290610d9990849061186f565b909155505060408051888152602081018890526001600160a01b03808b16928c821692918816917fc3d58168c5ae7397731d063d5bbf3d657854427343f4c083240f7aacaa2d0f62910160405180910390a4610df9848a8a8a8a8a610faa565b505050505050505050565b6001600160a01b0384163b15610ade5760405163bc197c8160e01b81526001600160a01b0385169063bc197c8190610e4890899089908890889088906004016118b0565b6020604051808303816000875af1925050508015610e83575060408051601f3d908101601f19168201909252610e809181019061190e565b60015b610f2f57610e8f61192b565b806308c379a003610ec85750610ea3611947565b80610eae5750610eca565b8060405162461bcd60e51b81526004016102ae9190611147565b505b60405162461bcd60e51b815260206004820152603460248201527f455243313135353a207472616e7366657220746f206e6f6e2d455243313135356044820152732932b1b2b4bb32b91034b6b83632b6b2b73a32b960611b60648201526084016102ae565b6001600160e01b0319811663bc197c8160e01b14610bf15760405162461bcd60e51b81526004016102ae906119d1565b60408051600180825281830190925260609160009190602080830190803683370190505090508281600081518110610f9957610f99611673565b602090810291909101015292915050565b6001600160a01b0384163b15610ade5760405163f23a6e6160e01b81526001600160a01b0385169063f23a6e6190610fee9089908990889088908890600401611a19565b6020604051808303816000875af1925050508015611029575060408051601f3d908101601f191682019092526110269181019061190e565b60015b61103557610e8f61192b565b6001600160e01b0319811663f23a6e6160e01b14610bf15760405162461bcd60e51b81526004016102ae906119d1565b80356001600160a01b038116811461107c57600080fd5b919050565b6000806040838503121561109457600080fd5b61109d83611065565b946020939093013593505050565b6001600160e01b0319811681146110c157600080fd5b50565b6000602082840312156110d657600080fd5b81356110e1816110ab565b9392505050565b6000602082840312156110fa57600080fd5b5035919050565b6000815180845260005b818110156111275760208185018101518683018201520161110b565b506000602082860101526020601f19601f83011685010191505092915050565b6020815260006110e16020830184611101565b634e487b7160e01b600052604160045260246000fd5b601f8201601f1916810167ffffffffffffffff811182821017156111965761119661115a565b6040525050565b600067ffffffffffffffff8211156111b7576111b761115a565b5060051b60200190565b600082601f8301126111d257600080fd5b813560206111df8261119d565b6040516111ec8282611170565b83815260059390931b850182019282810191508684111561120c57600080fd5b8286015b848110156112275780358352918301918301611210565b509695505050505050565b600067ffffffffffffffff83111561124c5761124c61115a565b604051611263601f8501601f191660200182611170565b80915083815284848401111561127857600080fd5b83836020830137600060208583010152509392505050565b600082601f8301126112a157600080fd5b6110e183833560208501611232565b600080600080600060a086880312156112c857600080fd5b6112d186611065565b94506112df60208701611065565b9350604086013567ffffffffffffffff808211156112fc57600080fd5b61130889838a016111c1565b9450606088013591508082111561131e57600080fd5b61132a89838a016111c1565b9350608088013591508082111561134057600080fd5b5061134d88828901611290565b9150509295509295909350565b6000806040838503121561136d57600080fd5b823567ffffffffffffffff8082111561138557600080fd5b818501915085601f83011261139957600080fd5b813560206113a68261119d565b6040516113b38282611170565b83815260059390931b85018201928281019150898411156113d357600080fd5b948201945b838610156113f8576113e986611065565b825294820194908201906113d8565b9650508601359250508082111561140e57600080fd5b5061141b858286016111c1565b9150509250929050565b600081518084526020808501945080840160005b8381101561145557815187529582019590820190600101611439565b509495945050505050565b6020815260006110e16020830184611425565b6000806000806080858703121561148957600080fd5b84359350602085013567ffffffffffffffff8111156114a757600080fd5b8501601f810187136114b857600080fd5b6114c787823560208401611232565b949794965050505060408301359260600135919050565b80151581146110c157600080fd5b600080604083850312156114ff57600080fd5b61150883611065565b91506020830135611518816114de565b809150509250929050565b8481528360208201526080604082015260006115426080830185611101565b905082606083015295945050505050565b6000806040838503121561156657600080fd5b61156f83611065565b915061157d60208401611065565b90509250929050565b600080600080600060a0868803121561159e57600080fd5b6115a786611065565b94506115b560208701611065565b93506040860135925060608601359150608086013567ffffffffffffffff8111156115df57600080fd5b61134d88828901611290565b600181811c908216806115ff57607f821691505b60208210810361161f57634e487b7160e01b600052602260045260246000fd5b50919050565b6020808252602e908201527f455243313135353a2063616c6c6572206973206e6f7420746f6b656e206f776e60408201526d195c881bdc88185c1c1c9bdd995960921b606082015260800190565b634e487b7160e01b600052603260045260246000fd5b634e487b7160e01b600052601160045260246000fd5b6000600182016116b1576116b1611689565b5060010190565b6000602082840312156116ca57600080fd5b81516110e1816114de565b601f82111561171b57600081815260208120601f850160051c810160208610156116fc5750805b601f850160051c820191505b81811015610ade57828155600101611708565b505050565b815167ffffffffffffffff81111561173a5761173a61115a565b61174e8161174884546115eb565b846116d5565b602080601f831160018114611783576000841561176b5750858301515b600019600386901b1c1916600185901b178555610ade565b600085815260208120601f198616915b828110156117b257888601518255948401946001909101908401611793565b50858210156117d05787850151600019600388901b60f8161c191681555b5050505050600190811b01905550565b60208082526025908201527f455243313135353a207472616e7366657220746f20746865207a65726f206164604082015264647265737360d81b606082015260800190565b6020808252602a908201527f455243313135353a20696e73756666696369656e742062616c616e636520666f60408201526939103a3930b739b332b960b11b606082015260800190565b808201808211156102da576102da611689565b6040815260006118956040830185611425565b82810360208401526118a78185611425565b95945050505050565b6001600160a01b0386811682528516602082015260a0604082018190526000906118dc90830186611425565b82810360608401526118ee8186611425565b905082810360808401526119028185611101565b98975050505050505050565b60006020828403121561192057600080fd5b81516110e1816110ab565b600060033d11156119445760046000803e5060005160e01c5b90565b600060443d10156119555790565b6040516003193d81016004833e81513d67ffffffffffffffff816024840111818411171561198557505050505090565b828501915081518181111561199d5750505050505090565b843d87010160208285010111156119b75750505050505090565b6119c660208286010187611170565b509095945050505050565b60208082526028908201527f455243313135353a204552433131353552656365697665722072656a656374656040820152676420746f6b656e7360c01b606082015260800190565b6001600160a01b03868116825285166020820152604081018490526060810183905260a060808201819052600090611a5390830184611101565b97965050505050505056fea26469706673582212209a56f3d36b432625998a5250075338c38899b051143150c7ed459f5b71e8ad0464736f6c63430008110033",
  "immutableReferences": {},
  "source": "// SPDX-License-Identifier: GPL-3.0\npragma solidity 0.8.17;\n\nimport \"../node_modules/@openzeppelin/contracts/token/ERC1155/ERC1155.sol\";\nimport \"../node_modules/@openzeppelin/contracts/utils/Counters.sol\";\n\n// URI POUR TEST ==> \"https://gateway.pinata.cloud/ipfs/QmUegKTCJ8r6td4AfT22FjJHCVMJn4fKTVCK4MH7zNM7Mn/{id}.json\"\n\ninterface CollectorsDAO {\n    function getProposalStatus(uint256 _proposalId)\n        external\n        view\n        returns (bool proposalStatus);\n\n    function updatePropertyMintStatus(uint256 _proposalId) external;\n}\n\ncontract NftProperty is ERC1155 {\n    using Counters for Counters.Counter;\n    Counters.Counter public _id;\n\n    string public collectionName;\n    uint256 public _collectionId;\n\n    struct PropertyNft {\n        uint256 collectionId;\n        uint256 nftId;\n        string name;\n        uint256 value;\n    }\n\n    CollectorsDAO collectorsDAO;\n\n    PropertyNft[] public propertyNfts;\n\n    /// @notice URI structure have to be managed from the from end in order to define custom attributes for each collection\n    constructor(\n        uint256 collectionId_,\n        string memory collectionURI_,\n        address daoContractAddress_\n    )\n        ERC1155(\n            /* URI de la collection*/\n            collectionURI_\n        )\n    {\n        _collectionId = collectionId_;\n        collectorsDAO = CollectorsDAO(daoContractAddress_);\n    }\n\n    /// @notice function mint() mint new NFT and send it to the owner of the object\n    function mintPropertyNft(\n        uint256 _proposalId,\n        string memory _name,\n        uint256 _value,\n        uint256 _numberOfItem\n    ) public {\n        // get the proposal status to allow the mint\n        bool proposalStatus = collectorsDAO.getProposalStatus(_proposalId);\n        require(proposalStatus == true, \"proposal is not accepted\");\n\n        uint256 newPropertyNftId = _id.current();\n        propertyNfts.push(\n            PropertyNft(_collectionId, newPropertyNftId, _name, _value)\n        );\n        _mint(msg.sender, newPropertyNftId, _numberOfItem, \"\");\n        _id.increment();\n        collectorsDAO.updatePropertyMintStatus(_proposalId);\n    }\n\n    function getCollectionId() external view returns (uint256) {\n        return _collectionId;\n    }\n}\n",
  "sourcePath": "/Users/jeromejulien/Documents/vscode/FormationAlyra/02_Projets/CollectorChain_TokenizedCollectibles/truffle/contracts/NftProperty.sol",
  "compiler": {
    "name": "solc",
    "version": "0.8.17+commit.8df45f5f.Emscripten.clang"
  },
  "schemaVersion": "3.4.10",
  "updatedAt": "2022-12-07T12:36:18.884Z",
  "devdoc": {
    "kind": "dev",
    "methods": {
      "balanceOf(address,uint256)": {
        "details": "See {IERC1155-balanceOf}. Requirements: - `account` cannot be the zero address."
      },
      "balanceOfBatch(address[],uint256[])": {
        "details": "See {IERC1155-balanceOfBatch}. Requirements: - `accounts` and `ids` must have the same length."
      },
      "isApprovedForAll(address,address)": {
        "details": "See {IERC1155-isApprovedForAll}."
      },
      "safeBatchTransferFrom(address,address,uint256[],uint256[],bytes)": {
        "details": "See {IERC1155-safeBatchTransferFrom}."
      },
      "safeTransferFrom(address,address,uint256,uint256,bytes)": {
        "details": "See {IERC1155-safeTransferFrom}."
      },
      "setApprovalForAll(address,bool)": {
        "details": "See {IERC1155-setApprovalForAll}."
      },
      "supportsInterface(bytes4)": {
        "details": "See {IERC165-supportsInterface}."
      },
      "uri(uint256)": {
        "details": "See {IERC1155MetadataURI-uri}. This implementation returns the same URI for *all* token types. It relies on the token type ID substitution mechanism https://eips.ethereum.org/EIPS/eip-1155#metadata[defined in the EIP]. Clients calling this function must replace the `\\{id\\}` substring with the actual token type ID."
      }
    },
    "version": 1
  },
  "userdoc": {
    "kind": "user",
    "methods": {
      "constructor": {
        "notice": "URI structure have to be managed from the from end in order to define custom attributes for each collection"
      },
      "mintPropertyNft(uint256,string,uint256,uint256)": {
        "notice": "function mint() mint new NFT and send it to the owner of the object"
      }
    },
    "version": 1
  }
}