{
  "contractName": "NftProperty",
  "abi": [
    {
      "inputs": [
        {
          "internalType": "uint256",
          "name": "collectionId_",
          "type": "uint256"
        },
        {
          "internalType": "string",
          "name": "collectionURI_",
          "type": "string"
        },
        {
          "internalType": "address",
          "name": "daoContractAddress_",
          "type": "address"
        }
      ],
      "stateMutability": "nonpayable",
      "type": "constructor"
    },
    {
      "anonymous": false,
      "inputs": [
        {
          "indexed": true,
          "internalType": "address",
          "name": "account",
          "type": "address"
        },
        {
          "indexed": true,
          "internalType": "address",
          "name": "operator",
          "type": "address"
        },
        {
          "indexed": false,
          "internalType": "bool",
          "name": "approved",
          "type": "bool"
        }
      ],
      "name": "ApprovalForAll",
      "type": "event"
    },
    {
      "anonymous": false,
      "inputs": [
        {
          "indexed": true,
          "internalType": "address",
          "name": "operator",
          "type": "address"
        },
        {
          "indexed": true,
          "internalType": "address",
          "name": "from",
          "type": "address"
        },
        {
          "indexed": true,
          "internalType": "address",
          "name": "to",
          "type": "address"
        },
        {
          "indexed": false,
          "internalType": "uint256[]",
          "name": "ids",
          "type": "uint256[]"
        },
        {
          "indexed": false,
          "internalType": "uint256[]",
          "name": "values",
          "type": "uint256[]"
        }
      ],
      "name": "TransferBatch",
      "type": "event"
    },
    {
      "anonymous": false,
      "inputs": [
        {
          "indexed": true,
          "internalType": "address",
          "name": "operator",
          "type": "address"
        },
        {
          "indexed": true,
          "internalType": "address",
          "name": "from",
          "type": "address"
        },
        {
          "indexed": true,
          "internalType": "address",
          "name": "to",
          "type": "address"
        },
        {
          "indexed": false,
          "internalType": "uint256",
          "name": "id",
          "type": "uint256"
        },
        {
          "indexed": false,
          "internalType": "uint256",
          "name": "value",
          "type": "uint256"
        }
      ],
      "name": "TransferSingle",
      "type": "event"
    },
    {
      "anonymous": false,
      "inputs": [
        {
          "indexed": false,
          "internalType": "string",
          "name": "value",
          "type": "string"
        },
        {
          "indexed": true,
          "internalType": "uint256",
          "name": "id",
          "type": "uint256"
        }
      ],
      "name": "URI",
      "type": "event"
    },
    {
      "inputs": [],
      "name": "_id",
      "outputs": [
        {
          "internalType": "uint256",
          "name": "_value",
          "type": "uint256"
        }
      ],
      "stateMutability": "view",
      "type": "function"
    },
    {
      "inputs": [
        {
          "internalType": "address",
          "name": "account",
          "type": "address"
        },
        {
          "internalType": "uint256",
          "name": "id",
          "type": "uint256"
        }
      ],
      "name": "balanceOf",
      "outputs": [
        {
          "internalType": "uint256",
          "name": "",
          "type": "uint256"
        }
      ],
      "stateMutability": "view",
      "type": "function"
    },
    {
      "inputs": [
        {
          "internalType": "address[]",
          "name": "accounts",
          "type": "address[]"
        },
        {
          "internalType": "uint256[]",
          "name": "ids",
          "type": "uint256[]"
        }
      ],
      "name": "balanceOfBatch",
      "outputs": [
        {
          "internalType": "uint256[]",
          "name": "",
          "type": "uint256[]"
        }
      ],
      "stateMutability": "view",
      "type": "function"
    },
    {
      "inputs": [],
      "name": "collectionId",
      "outputs": [
        {
          "internalType": "uint256",
          "name": "",
          "type": "uint256"
        }
      ],
      "stateMutability": "view",
      "type": "function"
    },
    {
      "inputs": [],
      "name": "collectionName",
      "outputs": [
        {
          "internalType": "string",
          "name": "",
          "type": "string"
        }
      ],
      "stateMutability": "view",
      "type": "function"
    },
    {
      "inputs": [
        {
          "internalType": "address",
          "name": "account",
          "type": "address"
        },
        {
          "internalType": "address",
          "name": "operator",
          "type": "address"
        }
      ],
      "name": "isApprovedForAll",
      "outputs": [
        {
          "internalType": "bool",
          "name": "",
          "type": "bool"
        }
      ],
      "stateMutability": "view",
      "type": "function"
    },
    {
      "inputs": [
        {
          "internalType": "address",
          "name": "from",
          "type": "address"
        },
        {
          "internalType": "address",
          "name": "to",
          "type": "address"
        },
        {
          "internalType": "uint256[]",
          "name": "ids",
          "type": "uint256[]"
        },
        {
          "internalType": "uint256[]",
          "name": "amounts",
          "type": "uint256[]"
        },
        {
          "internalType": "bytes",
          "name": "data",
          "type": "bytes"
        }
      ],
      "name": "safeBatchTransferFrom",
      "outputs": [],
      "stateMutability": "nonpayable",
      "type": "function"
    },
    {
      "inputs": [
        {
          "internalType": "address",
          "name": "from",
          "type": "address"
        },
        {
          "internalType": "address",
          "name": "to",
          "type": "address"
        },
        {
          "internalType": "uint256",
          "name": "id",
          "type": "uint256"
        },
        {
          "internalType": "uint256",
          "name": "amount",
          "type": "uint256"
        },
        {
          "internalType": "bytes",
          "name": "data",
          "type": "bytes"
        }
      ],
      "name": "safeTransferFrom",
      "outputs": [],
      "stateMutability": "nonpayable",
      "type": "function"
    },
    {
      "inputs": [
        {
          "internalType": "address",
          "name": "operator",
          "type": "address"
        },
        {
          "internalType": "bool",
          "name": "approved",
          "type": "bool"
        }
      ],
      "name": "setApprovalForAll",
      "outputs": [],
      "stateMutability": "nonpayable",
      "type": "function"
    },
    {
      "inputs": [
        {
          "internalType": "bytes4",
          "name": "interfaceId",
          "type": "bytes4"
        }
      ],
      "name": "supportsInterface",
      "outputs": [
        {
          "internalType": "bool",
          "name": "",
          "type": "bool"
        }
      ],
      "stateMutability": "view",
      "type": "function"
    },
    {
      "inputs": [
        {
          "internalType": "uint256",
          "name": "",
          "type": "uint256"
        }
      ],
      "name": "uri",
      "outputs": [
        {
          "internalType": "string",
          "name": "",
          "type": "string"
        }
      ],
      "stateMutability": "view",
      "type": "function"
    },
    {
      "inputs": [
        {
          "internalType": "uint256",
          "name": "_proposalId",
          "type": "uint256"
        },
        {
          "internalType": "string",
          "name": "_name",
          "type": "string"
        },
        {
          "internalType": "uint256",
          "name": "_value",
          "type": "uint256"
        },
        {
          "internalType": "uint256",
          "name": "_numberOfItem",
          "type": "uint256"
        }
      ],
      "name": "mint",
      "outputs": [],
      "stateMutability": "nonpayable",
      "type": "function"
    }
  ],
  "bytecode": "0x60806040523480156200001157600080fd5b5060405162001bb538038062001bb58339810160408190526200003491620000b2565b8162000040816200006d565b5060059290925550600680546001600160a01b0319166001600160a01b03909216919091179055620002ff565b60026200007b828262000233565b5050565b634e487b7160e01b600052604160045260246000fd5b80516001600160a01b0381168114620000ad57600080fd5b919050565b600080600060608486031215620000c857600080fd5b8351602080860151919450906001600160401b0380821115620000ea57600080fd5b818701915087601f830112620000ff57600080fd5b8151818111156200011457620001146200007f565b604051601f8201601f19908116603f011681019083821181831017156200013f576200013f6200007f565b816040528281528a868487010111156200015857600080fd5b600093505b828410156200017c57848401860151818501870152928501926200015d565b60008684830101528097505050505050506200019b6040850162000095565b90509250925092565b600181811c90821680620001b957607f821691505b602082108103620001da57634e487b7160e01b600052602260045260246000fd5b50919050565b601f8211156200022e57600081815260208120601f850160051c81016020861015620002095750805b601f850160051c820191505b818110156200022a5782815560010162000215565b5050505b505050565b81516001600160401b038111156200024f576200024f6200007f565b6200026781620002608454620001a4565b84620001e0565b602080601f8311600181146200029f5760008415620002865750858301515b600019600386901b1c1916600185901b1785556200022a565b600085815260208120601f198616915b82811015620002d057888601518255948401946001909101908401620002af565b5085821015620002ef5787850151600019600388901b60f8161c191681555b5050505050600190811b01905550565b6118a6806200030f6000396000f3fe608060405234801561001057600080fd5b50600436106100b35760003560e01c80634e1273f4116100715780634e1273f414610149578063a22cb46514610169578063dd1ccc861461017c578063e5326ab11461018f578063e985e9c514610197578063f242432a146101d357600080fd5b8062fdd58e146100b857806301ffc9a7146100de57806305180237146101015780630e89341c1461010b5780632eb2c2d61461012b5780633d26bb6714610140575b600080fd5b6100cb6100c6366004610ec3565b6101e6565b6040519081526020015b60405180910390f35b6100f16100ec366004610f06565b61027f565b60405190151581526020016100d5565b6003546100cb9081565b61011e610119366004610f2a565b6102cf565b6040516100d59190610f89565b61013e6101393660046110f2565b610363565b005b6100cb60055481565b61015c61015736600461119c565b6103af565b6040516100d591906112a2565b61013e6101773660046112c3565b6104d9565b61013e61018a3660046112fa565b6104e8565b61011e610680565b6100f16101a5366004611365565b6001600160a01b03918216600090815260016020908152604080832093909416825291909152205460ff1690565b61013e6101e1366004611398565b61070e565b60006001600160a01b0383166102565760405162461bcd60e51b815260206004820152602a60248201527f455243313135353a2061646472657373207a65726f206973206e6f742061207660448201526930b634b21037bbb732b960b11b60648201526084015b60405180910390fd5b506000818152602081815260408083206001600160a01b03861684529091529020545b92915050565b60006001600160e01b03198216636cdb3d1360e11b14806102b057506001600160e01b031982166303a24d0760e21b145b8061027957506301ffc9a760e01b6001600160e01b0319831614610279565b6060600280546102de906113fd565b80601f016020809104026020016040519081016040528092919081815260200182805461030a906113fd565b80156103575780601f1061032c57610100808354040283529160200191610357565b820191906000526020600020905b81548152906001019060200180831161033a57829003601f168201915b50505050509050919050565b6001600160a01b03851633148061037f575061037f85336101a5565b61039b5760405162461bcd60e51b815260040161024d90611437565b6103a88585858585610753565b5050505050565b606081518351146104145760405162461bcd60e51b815260206004820152602960248201527f455243313135353a206163636f756e747320616e6420696473206c656e677468604482015268040dad2e6dac2e8c6d60bb1b606482015260840161024d565b6000835167ffffffffffffffff81111561043057610430610f9c565b604051908082528060200260200182016040528015610459578160200160208202803683370190505b50905060005b84518110156104d1576104a485828151811061047d5761047d611485565b602002602001015185838151811061049757610497611485565b60200260200101516101e6565b8282815181106104b6576104b6611485565b60209081029190910101526104ca816114b1565b905061045f565b509392505050565b6104e4338383610928565b5050565b60065460405163401853b760e01b8152600481018690526000916001600160a01b03169063401853b790602401602060405180830381865afa158015610532573d6000803e3d6000fd5b505050506040513d601f19601f8201168201806040525081019061055691906114ca565b90506001811515146105aa5760405162461bcd60e51b815260206004820152601860248201527f70726f706f73616c206973206e6f742061636365707465640000000000000000604482015260640161024d565b60006105b560035490565b604080516060810182528281526020810188815291810187905260078054600181018255600091909152815160039091027fa66cc928b5edb82af9bd49922954155ab7b0942694bea4ce44661d9a8736c68881019182559251939450909290917fa66cc928b5edb82af9bd49922954155ab7b0942694bea4ce44661d9a8736c68901906106429082611532565b5060408201518160020155505061066a33828560405180602001604052806000815250610a08565b610678600380546001019055565b505050505050565b6004805461068d906113fd565b80601f01602080910402602001604051908101604052809291908181526020018280546106b9906113fd565b80156107065780601f106106db57610100808354040283529160200191610706565b820191906000526020600020905b8154815290600101906020018083116106e957829003601f168201915b505050505081565b6001600160a01b03851633148061072a575061072a85336101a5565b6107465760405162461bcd60e51b815260040161024d90611437565b6103a88585858585610b1c565b81518351146107b55760405162461bcd60e51b815260206004820152602860248201527f455243313135353a2069647320616e6420616d6f756e7473206c656e677468206044820152670dad2e6dac2e8c6d60c31b606482015260840161024d565b6001600160a01b0384166107db5760405162461bcd60e51b815260040161024d906115f2565b3360005b84518110156108c25760008582815181106107fc576107fc611485565b60200260200101519050600085838151811061081a5761081a611485565b602090810291909101810151600084815280835260408082206001600160a01b038e16835290935291909120549091508181101561086a5760405162461bcd60e51b815260040161024d90611637565b6000838152602081815260408083206001600160a01b038e8116855292528083208585039055908b168252812080548492906108a7908490611681565b92505081905550505050806108bb906114b1565b90506107df565b50846001600160a01b0316866001600160a01b0316826001600160a01b03167f4a39dc06d4c0dbc64b70af90fd698a233a518aa5d07e595d983b8c0526c8f7fb8787604051610912929190611694565b60405180910390a4610678818787878787610c46565b816001600160a01b0316836001600160a01b03160361099b5760405162461bcd60e51b815260206004820152602960248201527f455243313135353a2073657474696e6720617070726f76616c20737461747573604482015268103337b91039b2b63360b91b606482015260840161024d565b6001600160a01b03838116600081815260016020908152604080832094871680845294825291829020805460ff191686151590811790915591519182527f17307eab39ab6107e8899845ad3d59bd9653f200f220920489ca2b5937696c31910160405180910390a3505050565b6001600160a01b038416610a685760405162461bcd60e51b815260206004820152602160248201527f455243313135353a206d696e7420746f20746865207a65726f206164647265736044820152607360f81b606482015260840161024d565b336000610a7485610da1565b90506000610a8185610da1565b90506000868152602081815260408083206001600160a01b038b16845290915281208054879290610ab3908490611681565b909155505060408051878152602081018790526001600160a01b03808a1692600092918716917fc3d58168c5ae7397731d063d5bbf3d657854427343f4c083240f7aacaa2d0f62910160405180910390a4610b1383600089898989610dec565b50505050505050565b6001600160a01b038416610b425760405162461bcd60e51b815260040161024d906115f2565b336000610b4e85610da1565b90506000610b5b85610da1565b90506000868152602081815260408083206001600160a01b038c16845290915290205485811015610b9e5760405162461bcd60e51b815260040161024d90611637565b6000878152602081815260408083206001600160a01b038d8116855292528083208985039055908a16825281208054889290610bdb908490611681565b909155505060408051888152602081018890526001600160a01b03808b16928c821692918816917fc3d58168c5ae7397731d063d5bbf3d657854427343f4c083240f7aacaa2d0f62910160405180910390a4610c3b848a8a8a8a8a610dec565b505050505050505050565b6001600160a01b0384163b156106785760405163bc197c8160e01b81526001600160a01b0385169063bc197c8190610c8a90899089908890889088906004016116c2565b6020604051808303816000875af1925050508015610cc5575060408051601f3d908101601f19168201909252610cc291810190611720565b60015b610d7157610cd161173d565b806308c379a003610d0a5750610ce5611759565b80610cf05750610d0c565b8060405162461bcd60e51b815260040161024d9190610f89565b505b60405162461bcd60e51b815260206004820152603460248201527f455243313135353a207472616e7366657220746f206e6f6e2d455243313135356044820152732932b1b2b4bb32b91034b6b83632b6b2b73a32b960611b606482015260840161024d565b6001600160e01b0319811663bc197c8160e01b14610b135760405162461bcd60e51b815260040161024d906117e3565b60408051600180825281830190925260609160009190602080830190803683370190505090508281600081518110610ddb57610ddb611485565b602090810291909101015292915050565b6001600160a01b0384163b156106785760405163f23a6e6160e01b81526001600160a01b0385169063f23a6e6190610e30908990899088908890889060040161182b565b6020604051808303816000875af1925050508015610e6b575060408051601f3d908101601f19168201909252610e6891810190611720565b60015b610e7757610cd161173d565b6001600160e01b0319811663f23a6e6160e01b14610b135760405162461bcd60e51b815260040161024d906117e3565b80356001600160a01b0381168114610ebe57600080fd5b919050565b60008060408385031215610ed657600080fd5b610edf83610ea7565b946020939093013593505050565b6001600160e01b031981168114610f0357600080fd5b50565b600060208284031215610f1857600080fd5b8135610f2381610eed565b9392505050565b600060208284031215610f3c57600080fd5b5035919050565b6000815180845260005b81811015610f6957602081850181015186830182015201610f4d565b506000602082860101526020601f19601f83011685010191505092915050565b602081526000610f236020830184610f43565b634e487b7160e01b600052604160045260246000fd5b601f8201601f1916810167ffffffffffffffff81118282101715610fd857610fd8610f9c565b6040525050565b600067ffffffffffffffff821115610ff957610ff9610f9c565b5060051b60200190565b600082601f83011261101457600080fd5b8135602061102182610fdf565b60405161102e8282610fb2565b83815260059390931b850182019282810191508684111561104e57600080fd5b8286015b848110156110695780358352918301918301611052565b509695505050505050565b600067ffffffffffffffff83111561108e5761108e610f9c565b6040516110a5601f8501601f191660200182610fb2565b8091508381528484840111156110ba57600080fd5b83836020830137600060208583010152509392505050565b600082601f8301126110e357600080fd5b610f2383833560208501611074565b600080600080600060a0868803121561110a57600080fd5b61111386610ea7565b945061112160208701610ea7565b9350604086013567ffffffffffffffff8082111561113e57600080fd5b61114a89838a01611003565b9450606088013591508082111561116057600080fd5b61116c89838a01611003565b9350608088013591508082111561118257600080fd5b5061118f888289016110d2565b9150509295509295909350565b600080604083850312156111af57600080fd5b823567ffffffffffffffff808211156111c757600080fd5b818501915085601f8301126111db57600080fd5b813560206111e882610fdf565b6040516111f58282610fb2565b83815260059390931b850182019282810191508984111561121557600080fd5b948201945b8386101561123a5761122b86610ea7565b8252948201949082019061121a565b9650508601359250508082111561125057600080fd5b5061125d85828601611003565b9150509250929050565b600081518084526020808501945080840160005b838110156112975781518752958201959082019060010161127b565b509495945050505050565b602081526000610f236020830184611267565b8015158114610f0357600080fd5b600080604083850312156112d657600080fd5b6112df83610ea7565b915060208301356112ef816112b5565b809150509250929050565b6000806000806080858703121561131057600080fd5b84359350602085013567ffffffffffffffff81111561132e57600080fd5b8501601f8101871361133f57600080fd5b61134e87823560208401611074565b949794965050505060408301359260600135919050565b6000806040838503121561137857600080fd5b61138183610ea7565b915061138f60208401610ea7565b90509250929050565b600080600080600060a086880312156113b057600080fd5b6113b986610ea7565b94506113c760208701610ea7565b93506040860135925060608601359150608086013567ffffffffffffffff8111156113f157600080fd5b61118f888289016110d2565b600181811c9082168061141157607f821691505b60208210810361143157634e487b7160e01b600052602260045260246000fd5b50919050565b6020808252602e908201527f455243313135353a2063616c6c6572206973206e6f7420746f6b656e206f776e60408201526d195c881bdc88185c1c1c9bdd995960921b606082015260800190565b634e487b7160e01b600052603260045260246000fd5b634e487b7160e01b600052601160045260246000fd5b6000600182016114c3576114c361149b565b5060010190565b6000602082840312156114dc57600080fd5b8151610f23816112b5565b601f82111561152d57600081815260208120601f850160051c8101602086101561150e5750805b601f850160051c820191505b818110156106785782815560010161151a565b505050565b815167ffffffffffffffff81111561154c5761154c610f9c565b6115608161155a84546113fd565b846114e7565b602080601f831160018114611595576000841561157d5750858301515b600019600386901b1c1916600185901b178555610678565b600085815260208120601f198616915b828110156115c4578886015182559484019460019091019084016115a5565b50858210156115e25787850151600019600388901b60f8161c191681555b5050505050600190811b01905550565b60208082526025908201527f455243313135353a207472616e7366657220746f20746865207a65726f206164604082015264647265737360d81b606082015260800190565b6020808252602a908201527f455243313135353a20696e73756666696369656e742062616c616e636520666f60408201526939103a3930b739b332b960b11b606082015260800190565b808201808211156102795761027961149b565b6040815260006116a76040830185611267565b82810360208401526116b98185611267565b95945050505050565b6001600160a01b0386811682528516602082015260a0604082018190526000906116ee90830186611267565b82810360608401526117008186611267565b905082810360808401526117148185610f43565b98975050505050505050565b60006020828403121561173257600080fd5b8151610f2381610eed565b600060033d11156117565760046000803e5060005160e01c5b90565b600060443d10156117675790565b6040516003193d81016004833e81513d67ffffffffffffffff816024840111818411171561179757505050505090565b82850191508151818111156117af5750505050505090565b843d87010160208285010111156117c95750505050505090565b6117d860208286010187610fb2565b509095945050505050565b60208082526028908201527f455243313135353a204552433131353552656365697665722072656a656374656040820152676420746f6b656e7360c01b606082015260800190565b6001600160a01b03868116825285166020820152604081018490526060810183905260a06080820181905260009061186590830184610f43565b97965050505050505056fea2646970667358221220469cdf0f706bfead0ba7a9e05a79aa16b07bddd76e8c6314afe4a65237b4cf1c64736f6c63430008110033",
  "immutableReferences": {},
  "source": "// SPDX-License-Identifier: GPL-3.0\npragma solidity 0.8.17;\n\nimport \"../node_modules/@openzeppelin/contracts/token/ERC1155/ERC1155.sol\";\nimport \"../node_modules/@openzeppelin/contracts/utils/Counters.sol\";\n\n// URI POUR TEST ==> \"https://gateway.pinata.cloud/ipfs/QmUegKTCJ8r6td4AfT22FjJHCVMJn4fKTVCK4MH7zNM7Mn/{id}.json\"\n\ninterface CollectorsDAO {\n    function getProposalStatus(uint256 _proposalId)\n        external\n        view\n        returns (bool proposalStatus);\n}\n\ncontract NftProperty is ERC1155 {\n    using Counters for Counters.Counter;\n    Counters.Counter public _id;\n\n    string public collectionName;\n    uint256 public collectionId;\n\n    struct PropertyNft {\n        uint256 itemId;\n        string name;\n        uint256 value;\n    }\n\n    CollectorsDAO collectorsDAO;\n\n    PropertyNft[] propertyNfts;\n\n    /// @notice URI structure have to be managed from the from end in order to define custom attributes for each collection\n    constructor(\n        uint256 collectionId_,\n        string memory collectionURI_,\n        address daoContractAddress_\n    )\n        ERC1155(\n            /* URI de la collection*/\n            collectionURI_\n        )\n    {\n        collectionId = collectionId_;\n        collectorsDAO = CollectorsDAO(daoContractAddress_);\n    }\n\n    /// @notice function mint() mint new NFT and send it to the owner of the object\n    function mint(\n        uint256 _proposalId,\n        string memory _name,\n        uint256 _value,\n        uint256 _numberOfItem\n    ) public {\n        // get the proposal status to allow the mint\n        bool proposalStatus = collectorsDAO.getProposalStatus(_proposalId);\n        require(proposalStatus == true, \"proposal is not accepted\");\n\n        uint256 newPropertyNftId = _id.current();\n        propertyNfts.push(PropertyNft(newPropertyNftId, _name, _value));\n        _mint(msg.sender, newPropertyNftId, _numberOfItem, \"\");\n        _id.increment();\n    }\n}\n",
  "sourcePath": "/Users/jeromejulien/Documents/vscode/FormationAlyra/02_Projets/CollectorChain_TokenizedCollectibles/truffle/contracts/NftProperty.sol",
  "compiler": {
    "name": "solc",
    "version": "0.8.17+commit.8df45f5f.Emscripten.clang"
  },
  "schemaVersion": "3.4.10",
  "updatedAt": "2022-12-06T08:51:33.577Z",
  "devdoc": {
    "kind": "dev",
    "methods": {
      "balanceOf(address,uint256)": {
        "details": "See {IERC1155-balanceOf}. Requirements: - `account` cannot be the zero address."
      },
      "balanceOfBatch(address[],uint256[])": {
        "details": "See {IERC1155-balanceOfBatch}. Requirements: - `accounts` and `ids` must have the same length."
      },
      "isApprovedForAll(address,address)": {
        "details": "See {IERC1155-isApprovedForAll}."
      },
      "safeBatchTransferFrom(address,address,uint256[],uint256[],bytes)": {
        "details": "See {IERC1155-safeBatchTransferFrom}."
      },
      "safeTransferFrom(address,address,uint256,uint256,bytes)": {
        "details": "See {IERC1155-safeTransferFrom}."
      },
      "setApprovalForAll(address,bool)": {
        "details": "See {IERC1155-setApprovalForAll}."
      },
      "supportsInterface(bytes4)": {
        "details": "See {IERC165-supportsInterface}."
      },
      "uri(uint256)": {
        "details": "See {IERC1155MetadataURI-uri}. This implementation returns the same URI for *all* token types. It relies on the token type ID substitution mechanism https://eips.ethereum.org/EIPS/eip-1155#metadata[defined in the EIP]. Clients calling this function must replace the `\\{id\\}` substring with the actual token type ID."
      }
    },
    "version": 1
  },
  "userdoc": {
    "kind": "user",
    "methods": {
      "constructor": {
        "notice": "URI structure have to be managed from the from end in order to define custom attributes for each collection"
      },
      "mint(uint256,string,uint256,uint256)": {
        "notice": "function mint() mint new NFT and send it to the owner of the object"
      }
    },
    "version": 1
  }
}