{
  "contractName": "NftProperty",
  "abi": [
    {
      "inputs": [
        {
          "internalType": "uint256",
          "name": "collectionId_",
          "type": "uint256"
        },
        {
          "internalType": "string",
          "name": "collectionURI_",
          "type": "string"
        },
        {
          "internalType": "address",
          "name": "daoContractAddress_",
          "type": "address"
        }
      ],
      "stateMutability": "nonpayable",
      "type": "constructor"
    },
    {
      "anonymous": false,
      "inputs": [
        {
          "indexed": true,
          "internalType": "address",
          "name": "account",
          "type": "address"
        },
        {
          "indexed": true,
          "internalType": "address",
          "name": "operator",
          "type": "address"
        },
        {
          "indexed": false,
          "internalType": "bool",
          "name": "approved",
          "type": "bool"
        }
      ],
      "name": "ApprovalForAll",
      "type": "event"
    },
    {
      "anonymous": false,
      "inputs": [
        {
          "indexed": true,
          "internalType": "address",
          "name": "operator",
          "type": "address"
        },
        {
          "indexed": true,
          "internalType": "address",
          "name": "from",
          "type": "address"
        },
        {
          "indexed": true,
          "internalType": "address",
          "name": "to",
          "type": "address"
        },
        {
          "indexed": false,
          "internalType": "uint256[]",
          "name": "ids",
          "type": "uint256[]"
        },
        {
          "indexed": false,
          "internalType": "uint256[]",
          "name": "values",
          "type": "uint256[]"
        }
      ],
      "name": "TransferBatch",
      "type": "event"
    },
    {
      "anonymous": false,
      "inputs": [
        {
          "indexed": true,
          "internalType": "address",
          "name": "operator",
          "type": "address"
        },
        {
          "indexed": true,
          "internalType": "address",
          "name": "from",
          "type": "address"
        },
        {
          "indexed": true,
          "internalType": "address",
          "name": "to",
          "type": "address"
        },
        {
          "indexed": false,
          "internalType": "uint256",
          "name": "id",
          "type": "uint256"
        },
        {
          "indexed": false,
          "internalType": "uint256",
          "name": "value",
          "type": "uint256"
        }
      ],
      "name": "TransferSingle",
      "type": "event"
    },
    {
      "anonymous": false,
      "inputs": [
        {
          "indexed": false,
          "internalType": "string",
          "name": "value",
          "type": "string"
        },
        {
          "indexed": true,
          "internalType": "uint256",
          "name": "id",
          "type": "uint256"
        }
      ],
      "name": "URI",
      "type": "event"
    },
    {
      "inputs": [],
      "name": "_id",
      "outputs": [
        {
          "internalType": "uint256",
          "name": "_value",
          "type": "uint256"
        }
      ],
      "stateMutability": "view",
      "type": "function"
    },
    {
      "inputs": [
        {
          "internalType": "address",
          "name": "account",
          "type": "address"
        },
        {
          "internalType": "uint256",
          "name": "id",
          "type": "uint256"
        }
      ],
      "name": "balanceOf",
      "outputs": [
        {
          "internalType": "uint256",
          "name": "",
          "type": "uint256"
        }
      ],
      "stateMutability": "view",
      "type": "function"
    },
    {
      "inputs": [
        {
          "internalType": "address[]",
          "name": "accounts",
          "type": "address[]"
        },
        {
          "internalType": "uint256[]",
          "name": "ids",
          "type": "uint256[]"
        }
      ],
      "name": "balanceOfBatch",
      "outputs": [
        {
          "internalType": "uint256[]",
          "name": "",
          "type": "uint256[]"
        }
      ],
      "stateMutability": "view",
      "type": "function"
    },
    {
      "inputs": [],
      "name": "collectionId",
      "outputs": [
        {
          "internalType": "uint256",
          "name": "",
          "type": "uint256"
        }
      ],
      "stateMutability": "view",
      "type": "function"
    },
    {
      "inputs": [],
      "name": "collectionName",
      "outputs": [
        {
          "internalType": "string",
          "name": "",
          "type": "string"
        }
      ],
      "stateMutability": "view",
      "type": "function"
    },
    {
      "inputs": [
        {
          "internalType": "address",
          "name": "account",
          "type": "address"
        },
        {
          "internalType": "address",
          "name": "operator",
          "type": "address"
        }
      ],
      "name": "isApprovedForAll",
      "outputs": [
        {
          "internalType": "bool",
          "name": "",
          "type": "bool"
        }
      ],
      "stateMutability": "view",
      "type": "function"
    },
    {
      "inputs": [
        {
          "internalType": "uint256",
          "name": "",
          "type": "uint256"
        }
      ],
      "name": "propertyNfts",
      "outputs": [
        {
          "internalType": "uint256",
          "name": "itemId",
          "type": "uint256"
        },
        {
          "internalType": "string",
          "name": "name",
          "type": "string"
        },
        {
          "internalType": "uint256",
          "name": "value",
          "type": "uint256"
        }
      ],
      "stateMutability": "view",
      "type": "function"
    },
    {
      "inputs": [
        {
          "internalType": "address",
          "name": "from",
          "type": "address"
        },
        {
          "internalType": "address",
          "name": "to",
          "type": "address"
        },
        {
          "internalType": "uint256[]",
          "name": "ids",
          "type": "uint256[]"
        },
        {
          "internalType": "uint256[]",
          "name": "amounts",
          "type": "uint256[]"
        },
        {
          "internalType": "bytes",
          "name": "data",
          "type": "bytes"
        }
      ],
      "name": "safeBatchTransferFrom",
      "outputs": [],
      "stateMutability": "nonpayable",
      "type": "function"
    },
    {
      "inputs": [
        {
          "internalType": "address",
          "name": "from",
          "type": "address"
        },
        {
          "internalType": "address",
          "name": "to",
          "type": "address"
        },
        {
          "internalType": "uint256",
          "name": "id",
          "type": "uint256"
        },
        {
          "internalType": "uint256",
          "name": "amount",
          "type": "uint256"
        },
        {
          "internalType": "bytes",
          "name": "data",
          "type": "bytes"
        }
      ],
      "name": "safeTransferFrom",
      "outputs": [],
      "stateMutability": "nonpayable",
      "type": "function"
    },
    {
      "inputs": [
        {
          "internalType": "address",
          "name": "operator",
          "type": "address"
        },
        {
          "internalType": "bool",
          "name": "approved",
          "type": "bool"
        }
      ],
      "name": "setApprovalForAll",
      "outputs": [],
      "stateMutability": "nonpayable",
      "type": "function"
    },
    {
      "inputs": [
        {
          "internalType": "bytes4",
          "name": "interfaceId",
          "type": "bytes4"
        }
      ],
      "name": "supportsInterface",
      "outputs": [
        {
          "internalType": "bool",
          "name": "",
          "type": "bool"
        }
      ],
      "stateMutability": "view",
      "type": "function"
    },
    {
      "inputs": [
        {
          "internalType": "uint256",
          "name": "",
          "type": "uint256"
        }
      ],
      "name": "uri",
      "outputs": [
        {
          "internalType": "string",
          "name": "",
          "type": "string"
        }
      ],
      "stateMutability": "view",
      "type": "function"
    },
    {
      "inputs": [
        {
          "internalType": "uint256",
          "name": "_proposalId",
          "type": "uint256"
        },
        {
          "internalType": "string",
          "name": "_name",
          "type": "string"
        },
        {
          "internalType": "uint256",
          "name": "_value",
          "type": "uint256"
        },
        {
          "internalType": "uint256",
          "name": "_numberOfItem",
          "type": "uint256"
        }
      ],
      "name": "mint",
      "outputs": [],
      "stateMutability": "nonpayable",
      "type": "function"
    }
  ],
  "bytecode": "0x60806040523480156200001157600080fd5b5060405162001d3f38038062001d3f8339810160408190526200003491620000b2565b8162000040816200006d565b5060059290925550600680546001600160a01b0319166001600160a01b03909216919091179055620002ff565b60026200007b828262000233565b5050565b634e487b7160e01b600052604160045260246000fd5b80516001600160a01b0381168114620000ad57600080fd5b919050565b600080600060608486031215620000c857600080fd5b8351602080860151919450906001600160401b0380821115620000ea57600080fd5b818701915087601f830112620000ff57600080fd5b8151818111156200011457620001146200007f565b604051601f8201601f19908116603f011681019083821181831017156200013f576200013f6200007f565b816040528281528a868487010111156200015857600080fd5b600093505b828410156200017c57848401860151818501870152928501926200015d565b60008684830101528097505050505050506200019b6040850162000095565b90509250925092565b600181811c90821680620001b957607f821691505b602082108103620001da57634e487b7160e01b600052602260045260246000fd5b50919050565b601f8211156200022e57600081815260208120601f850160051c81016020861015620002095750805b601f850160051c820191505b818110156200022a5782815560010162000215565b5050505b505050565b81516001600160401b038111156200024f576200024f6200007f565b6200026781620002608454620001a4565b84620001e0565b602080601f8311600181146200029f5760008415620002865750858301515b600019600386901b1c1916600185901b1785556200022a565b600085815260208120601f198616915b82811015620002d057888601518255948401946001909101908401620002af565b5085821015620002ef5787850151600019600388901b60f8161c191681555b5050505050600190811b01905550565b611a30806200030f6000396000f3fe608060405234801561001057600080fd5b50600436106100ce5760003560e01c80634e1273f41161008c578063dd1ccc8611610066578063dd1ccc86146101b9578063e5326ab1146101cc578063e985e9c5146101d4578063f242432a1461021057600080fd5b80634e1273f414610164578063a22cb46514610184578063bd2693801461019757600080fd5b8062fdd58e146100d357806301ffc9a7146100f9578063051802371461011c5780630e89341c146101265780632eb2c2d6146101465780633d26bb671461015b575b600080fd5b6100e66100e1366004611024565b610223565b6040519081526020015b60405180910390f35b61010c610107366004611067565b6102bc565b60405190151581526020016100f0565b6003546100e69081565b61013961013436600461108b565b61030c565b6040516100f091906110ea565b610159610154366004611253565b6103a0565b005b6100e660055481565b6101776101723660046112fd565b6103ec565b6040516100f09190611403565b610159610192366004611424565b610516565b6101aa6101a536600461108b565b610525565b6040516100f09392919061145b565b6101596101c7366004611484565b6105e3565b6101396107d9565b61010c6101e23660046114ef565b6001600160a01b03918216600090815260016020908152604080832093909416825291909152205460ff1690565b61015961021e366004611522565b610867565b60006001600160a01b0383166102935760405162461bcd60e51b815260206004820152602a60248201527f455243313135353a2061646472657373207a65726f206973206e6f742061207660448201526930b634b21037bbb732b960b11b60648201526084015b60405180910390fd5b506000818152602081815260408083206001600160a01b03861684529091529020545b92915050565b60006001600160e01b03198216636cdb3d1360e11b14806102ed57506001600160e01b031982166303a24d0760e21b145b806102b657506301ffc9a760e01b6001600160e01b03198316146102b6565b60606002805461031b90611587565b80601f016020809104026020016040519081016040528092919081815260200182805461034790611587565b80156103945780601f1061036957610100808354040283529160200191610394565b820191906000526020600020905b81548152906001019060200180831161037757829003601f168201915b50505050509050919050565b6001600160a01b0385163314806103bc57506103bc85336101e2565b6103d85760405162461bcd60e51b815260040161028a906115c1565b6103e585858585856108ac565b5050505050565b606081518351146104515760405162461bcd60e51b815260206004820152602960248201527f455243313135353a206163636f756e747320616e6420696473206c656e677468604482015268040dad2e6dac2e8c6d60bb1b606482015260840161028a565b6000835167ffffffffffffffff81111561046d5761046d6110fd565b604051908082528060200260200182016040528015610496578160200160208202803683370190505b50905060005b845181101561050e576104e18582815181106104ba576104ba61160f565b60200260200101518583815181106104d4576104d461160f565b6020026020010151610223565b8282815181106104f3576104f361160f565b60209081029190910101526105078161163b565b905061049c565b509392505050565b610521338383610a89565b5050565b6007818154811061053557600080fd5b6000918252602090912060039091020180546001820180549193509061055a90611587565b80601f016020809104026020016040519081016040528092919081815260200182805461058690611587565b80156105d35780601f106105a8576101008083540402835291602001916105d3565b820191906000526020600020905b8154815290600101906020018083116105b657829003601f168201915b5050505050908060020154905083565b60065460405163401853b760e01b8152600481018690526000916001600160a01b03169063401853b790602401602060405180830381865afa15801561062d573d6000803e3d6000fd5b505050506040513d601f19601f820116820180604052508101906106519190611654565b90506001811515146106a55760405162461bcd60e51b815260206004820152601860248201527f70726f706f73616c206973206e6f742061636365707465640000000000000000604482015260640161028a565b60006106b060035490565b604080516060810182528281526020810188815291810187905260078054600181018255600091909152815160039091027fa66cc928b5edb82af9bd49922954155ab7b0942694bea4ce44661d9a8736c68881019182559251939450909290917fa66cc928b5edb82af9bd49922954155ab7b0942694bea4ce44661d9a8736c689019061073d90826116bc565b5060408201518160020155505061076533828560405180602001604052806000815250610b69565b610773600380546001019055565b60065460405163845c776d60e01b8152600481018890526001600160a01b039091169063845c776d90602401600060405180830381600087803b1580156107b957600080fd5b505af11580156107cd573d6000803e3d6000fd5b50505050505050505050565b600480546107e690611587565b80601f016020809104026020016040519081016040528092919081815260200182805461081290611587565b801561085f5780601f106108345761010080835404028352916020019161085f565b820191906000526020600020905b81548152906001019060200180831161084257829003601f168201915b505050505081565b6001600160a01b038516331480610883575061088385336101e2565b61089f5760405162461bcd60e51b815260040161028a906115c1565b6103e58585858585610c7d565b815183511461090e5760405162461bcd60e51b815260206004820152602860248201527f455243313135353a2069647320616e6420616d6f756e7473206c656e677468206044820152670dad2e6dac2e8c6d60c31b606482015260840161028a565b6001600160a01b0384166109345760405162461bcd60e51b815260040161028a9061177c565b3360005b8451811015610a1b5760008582815181106109555761095561160f565b6020026020010151905060008583815181106109735761097361160f565b602090810291909101810151600084815280835260408082206001600160a01b038e1683529093529190912054909150818110156109c35760405162461bcd60e51b815260040161028a906117c1565b6000838152602081815260408083206001600160a01b038e8116855292528083208585039055908b16825281208054849290610a0090849061180b565b9250508190555050505080610a149061163b565b9050610938565b50846001600160a01b0316866001600160a01b0316826001600160a01b03167f4a39dc06d4c0dbc64b70af90fd698a233a518aa5d07e595d983b8c0526c8f7fb8787604051610a6b92919061181e565b60405180910390a4610a81818787878787610da7565b505050505050565b816001600160a01b0316836001600160a01b031603610afc5760405162461bcd60e51b815260206004820152602960248201527f455243313135353a2073657474696e6720617070726f76616c20737461747573604482015268103337b91039b2b63360b91b606482015260840161028a565b6001600160a01b03838116600081815260016020908152604080832094871680845294825291829020805460ff191686151590811790915591519182527f17307eab39ab6107e8899845ad3d59bd9653f200f220920489ca2b5937696c31910160405180910390a3505050565b6001600160a01b038416610bc95760405162461bcd60e51b815260206004820152602160248201527f455243313135353a206d696e7420746f20746865207a65726f206164647265736044820152607360f81b606482015260840161028a565b336000610bd585610f02565b90506000610be285610f02565b90506000868152602081815260408083206001600160a01b038b16845290915281208054879290610c1490849061180b565b909155505060408051878152602081018790526001600160a01b03808a1692600092918716917fc3d58168c5ae7397731d063d5bbf3d657854427343f4c083240f7aacaa2d0f62910160405180910390a4610c7483600089898989610f4d565b50505050505050565b6001600160a01b038416610ca35760405162461bcd60e51b815260040161028a9061177c565b336000610caf85610f02565b90506000610cbc85610f02565b90506000868152602081815260408083206001600160a01b038c16845290915290205485811015610cff5760405162461bcd60e51b815260040161028a906117c1565b6000878152602081815260408083206001600160a01b038d8116855292528083208985039055908a16825281208054889290610d3c90849061180b565b909155505060408051888152602081018890526001600160a01b03808b16928c821692918816917fc3d58168c5ae7397731d063d5bbf3d657854427343f4c083240f7aacaa2d0f62910160405180910390a4610d9c848a8a8a8a8a610f4d565b505050505050505050565b6001600160a01b0384163b15610a815760405163bc197c8160e01b81526001600160a01b0385169063bc197c8190610deb908990899088908890889060040161184c565b6020604051808303816000875af1925050508015610e26575060408051601f3d908101601f19168201909252610e23918101906118aa565b60015b610ed257610e326118c7565b806308c379a003610e6b5750610e466118e3565b80610e515750610e6d565b8060405162461bcd60e51b815260040161028a91906110ea565b505b60405162461bcd60e51b815260206004820152603460248201527f455243313135353a207472616e7366657220746f206e6f6e2d455243313135356044820152732932b1b2b4bb32b91034b6b83632b6b2b73a32b960611b606482015260840161028a565b6001600160e01b0319811663bc197c8160e01b14610c745760405162461bcd60e51b815260040161028a9061196d565b60408051600180825281830190925260609160009190602080830190803683370190505090508281600081518110610f3c57610f3c61160f565b602090810291909101015292915050565b6001600160a01b0384163b15610a815760405163f23a6e6160e01b81526001600160a01b0385169063f23a6e6190610f9190899089908890889088906004016119b5565b6020604051808303816000875af1925050508015610fcc575060408051601f3d908101601f19168201909252610fc9918101906118aa565b60015b610fd857610e326118c7565b6001600160e01b0319811663f23a6e6160e01b14610c745760405162461bcd60e51b815260040161028a9061196d565b80356001600160a01b038116811461101f57600080fd5b919050565b6000806040838503121561103757600080fd5b61104083611008565b946020939093013593505050565b6001600160e01b03198116811461106457600080fd5b50565b60006020828403121561107957600080fd5b81356110848161104e565b9392505050565b60006020828403121561109d57600080fd5b5035919050565b6000815180845260005b818110156110ca576020818501810151868301820152016110ae565b506000602082860101526020601f19601f83011685010191505092915050565b60208152600061108460208301846110a4565b634e487b7160e01b600052604160045260246000fd5b601f8201601f1916810167ffffffffffffffff81118282101715611139576111396110fd565b6040525050565b600067ffffffffffffffff82111561115a5761115a6110fd565b5060051b60200190565b600082601f83011261117557600080fd5b8135602061118282611140565b60405161118f8282611113565b83815260059390931b85018201928281019150868411156111af57600080fd5b8286015b848110156111ca57803583529183019183016111b3565b509695505050505050565b600067ffffffffffffffff8311156111ef576111ef6110fd565b604051611206601f8501601f191660200182611113565b80915083815284848401111561121b57600080fd5b83836020830137600060208583010152509392505050565b600082601f83011261124457600080fd5b611084838335602085016111d5565b600080600080600060a0868803121561126b57600080fd5b61127486611008565b945061128260208701611008565b9350604086013567ffffffffffffffff8082111561129f57600080fd5b6112ab89838a01611164565b945060608801359150808211156112c157600080fd5b6112cd89838a01611164565b935060808801359150808211156112e357600080fd5b506112f088828901611233565b9150509295509295909350565b6000806040838503121561131057600080fd5b823567ffffffffffffffff8082111561132857600080fd5b818501915085601f83011261133c57600080fd5b8135602061134982611140565b6040516113568282611113565b83815260059390931b850182019282810191508984111561137657600080fd5b948201945b8386101561139b5761138c86611008565b8252948201949082019061137b565b965050860135925050808211156113b157600080fd5b506113be85828601611164565b9150509250929050565b600081518084526020808501945080840160005b838110156113f8578151875295820195908201906001016113dc565b509495945050505050565b60208152600061108460208301846113c8565b801515811461106457600080fd5b6000806040838503121561143757600080fd5b61144083611008565b9150602083013561145081611416565b809150509250929050565b83815260606020820152600061147460608301856110a4565b9050826040830152949350505050565b6000806000806080858703121561149a57600080fd5b84359350602085013567ffffffffffffffff8111156114b857600080fd5b8501601f810187136114c957600080fd5b6114d8878235602084016111d5565b949794965050505060408301359260600135919050565b6000806040838503121561150257600080fd5b61150b83611008565b915061151960208401611008565b90509250929050565b600080600080600060a0868803121561153a57600080fd5b61154386611008565b945061155160208701611008565b93506040860135925060608601359150608086013567ffffffffffffffff81111561157b57600080fd5b6112f088828901611233565b600181811c9082168061159b57607f821691505b6020821081036115bb57634e487b7160e01b600052602260045260246000fd5b50919050565b6020808252602e908201527f455243313135353a2063616c6c6572206973206e6f7420746f6b656e206f776e60408201526d195c881bdc88185c1c1c9bdd995960921b606082015260800190565b634e487b7160e01b600052603260045260246000fd5b634e487b7160e01b600052601160045260246000fd5b60006001820161164d5761164d611625565b5060010190565b60006020828403121561166657600080fd5b815161108481611416565b601f8211156116b757600081815260208120601f850160051c810160208610156116985750805b601f850160051c820191505b81811015610a81578281556001016116a4565b505050565b815167ffffffffffffffff8111156116d6576116d66110fd565b6116ea816116e48454611587565b84611671565b602080601f83116001811461171f57600084156117075750858301515b600019600386901b1c1916600185901b178555610a81565b600085815260208120601f198616915b8281101561174e5788860151825594840194600190910190840161172f565b508582101561176c5787850151600019600388901b60f8161c191681555b5050505050600190811b01905550565b60208082526025908201527f455243313135353a207472616e7366657220746f20746865207a65726f206164604082015264647265737360d81b606082015260800190565b6020808252602a908201527f455243313135353a20696e73756666696369656e742062616c616e636520666f60408201526939103a3930b739b332b960b11b606082015260800190565b808201808211156102b6576102b6611625565b60408152600061183160408301856113c8565b828103602084015261184381856113c8565b95945050505050565b6001600160a01b0386811682528516602082015260a060408201819052600090611878908301866113c8565b828103606084015261188a81866113c8565b9050828103608084015261189e81856110a4565b98975050505050505050565b6000602082840312156118bc57600080fd5b81516110848161104e565b600060033d11156118e05760046000803e5060005160e01c5b90565b600060443d10156118f15790565b6040516003193d81016004833e81513d67ffffffffffffffff816024840111818411171561192157505050505090565b82850191508151818111156119395750505050505090565b843d87010160208285010111156119535750505050505090565b61196260208286010187611113565b509095945050505050565b60208082526028908201527f455243313135353a204552433131353552656365697665722072656a656374656040820152676420746f6b656e7360c01b606082015260800190565b6001600160a01b03868116825285166020820152604081018490526060810183905260a0608082018190526000906119ef908301846110a4565b97965050505050505056fea2646970667358221220a8cc4998a1b5558ddd311df502c0bf7591386a5c699613010a27ae0f30b7338264736f6c63430008110033",
  "immutableReferences": {},
  "source": "// SPDX-License-Identifier: GPL-3.0\npragma solidity 0.8.17;\n\nimport \"../node_modules/@openzeppelin/contracts/token/ERC1155/ERC1155.sol\";\nimport \"../node_modules/@openzeppelin/contracts/utils/Counters.sol\";\n\n// URI POUR TEST ==> \"https://gateway.pinata.cloud/ipfs/QmUegKTCJ8r6td4AfT22FjJHCVMJn4fKTVCK4MH7zNM7Mn/{id}.json\"\n\ninterface CollectorsDAO {\n    function getProposalStatus(uint256 _proposalId)\n        external\n        view\n        returns (bool proposalStatus);\n\n    function updatePropertyMintStatus(uint256 _proposalId) external;\n}\n\ncontract NftProperty is ERC1155 {\n    using Counters for Counters.Counter;\n    Counters.Counter public _id;\n\n    string public collectionName;\n    uint256 public collectionId;\n\n    struct PropertyNft {\n        uint256 itemId;\n        string name;\n        uint256 value;\n    }\n\n    CollectorsDAO collectorsDAO;\n\n    PropertyNft[] public propertyNfts;\n\n    /// @notice URI structure have to be managed from the from end in order to define custom attributes for each collection\n    constructor(\n        uint256 collectionId_,\n        string memory collectionURI_,\n        address daoContractAddress_\n    )\n        ERC1155(\n            /* URI de la collection*/\n            collectionURI_\n        )\n    {\n        collectionId = collectionId_;\n        collectorsDAO = CollectorsDAO(daoContractAddress_);\n    }\n\n    /// @notice function mint() mint new NFT and send it to the owner of the object\n    function mint(\n        uint256 _proposalId,\n        string memory _name,\n        uint256 _value,\n        uint256 _numberOfItem\n    ) public {\n        // get the proposal status to allow the mint\n        bool proposalStatus = collectorsDAO.getProposalStatus(_proposalId);\n        require(proposalStatus == true, \"proposal is not accepted\");\n\n        uint256 newPropertyNftId = _id.current();\n        propertyNfts.push(PropertyNft(newPropertyNftId, _name, _value));\n        _mint(msg.sender, newPropertyNftId, _numberOfItem, \"\");\n        _id.increment();\n        collectorsDAO.updatePropertyMintStatus(_proposalId);\n    }\n}\n",
  "sourcePath": "/Users/jeromejulien/Documents/vscode/FormationAlyra/02_Projets/CollectorChain_TokenizedCollectibles/truffle/contracts/NftProperty.sol",
  "compiler": {
    "name": "solc",
    "version": "0.8.17+commit.8df45f5f.Emscripten.clang"
  },
  "schemaVersion": "3.4.10",
  "updatedAt": "2022-12-06T13:14:19.082Z",
  "devdoc": {
    "kind": "dev",
    "methods": {
      "balanceOf(address,uint256)": {
        "details": "See {IERC1155-balanceOf}. Requirements: - `account` cannot be the zero address."
      },
      "balanceOfBatch(address[],uint256[])": {
        "details": "See {IERC1155-balanceOfBatch}. Requirements: - `accounts` and `ids` must have the same length."
      },
      "isApprovedForAll(address,address)": {
        "details": "See {IERC1155-isApprovedForAll}."
      },
      "safeBatchTransferFrom(address,address,uint256[],uint256[],bytes)": {
        "details": "See {IERC1155-safeBatchTransferFrom}."
      },
      "safeTransferFrom(address,address,uint256,uint256,bytes)": {
        "details": "See {IERC1155-safeTransferFrom}."
      },
      "setApprovalForAll(address,bool)": {
        "details": "See {IERC1155-setApprovalForAll}."
      },
      "supportsInterface(bytes4)": {
        "details": "See {IERC165-supportsInterface}."
      },
      "uri(uint256)": {
        "details": "See {IERC1155MetadataURI-uri}. This implementation returns the same URI for *all* token types. It relies on the token type ID substitution mechanism https://eips.ethereum.org/EIPS/eip-1155#metadata[defined in the EIP]. Clients calling this function must replace the `\\{id\\}` substring with the actual token type ID."
      }
    },
    "version": 1
  },
  "userdoc": {
    "kind": "user",
    "methods": {
      "constructor": {
        "notice": "URI structure have to be managed from the from end in order to define custom attributes for each collection"
      },
      "mint(uint256,string,uint256,uint256)": {
        "notice": "function mint() mint new NFT and send it to the owner of the object"
      }
    },
    "version": 1
  }
}