{
  "contractName": "NftProperty",
  "abi": [
    {
      "inputs": [
        {
          "internalType": "uint256",
          "name": "collectionId_",
          "type": "uint256"
        },
        {
          "internalType": "string",
          "name": "collectionURI_",
          "type": "string"
        }
      ],
      "stateMutability": "nonpayable",
      "type": "constructor"
    },
    {
      "anonymous": false,
      "inputs": [
        {
          "indexed": true,
          "internalType": "address",
          "name": "account",
          "type": "address"
        },
        {
          "indexed": true,
          "internalType": "address",
          "name": "operator",
          "type": "address"
        },
        {
          "indexed": false,
          "internalType": "bool",
          "name": "approved",
          "type": "bool"
        }
      ],
      "name": "ApprovalForAll",
      "type": "event"
    },
    {
      "anonymous": false,
      "inputs": [
        {
          "indexed": true,
          "internalType": "address",
          "name": "operator",
          "type": "address"
        },
        {
          "indexed": true,
          "internalType": "address",
          "name": "from",
          "type": "address"
        },
        {
          "indexed": true,
          "internalType": "address",
          "name": "to",
          "type": "address"
        },
        {
          "indexed": false,
          "internalType": "uint256[]",
          "name": "ids",
          "type": "uint256[]"
        },
        {
          "indexed": false,
          "internalType": "uint256[]",
          "name": "values",
          "type": "uint256[]"
        }
      ],
      "name": "TransferBatch",
      "type": "event"
    },
    {
      "anonymous": false,
      "inputs": [
        {
          "indexed": true,
          "internalType": "address",
          "name": "operator",
          "type": "address"
        },
        {
          "indexed": true,
          "internalType": "address",
          "name": "from",
          "type": "address"
        },
        {
          "indexed": true,
          "internalType": "address",
          "name": "to",
          "type": "address"
        },
        {
          "indexed": false,
          "internalType": "uint256",
          "name": "id",
          "type": "uint256"
        },
        {
          "indexed": false,
          "internalType": "uint256",
          "name": "value",
          "type": "uint256"
        }
      ],
      "name": "TransferSingle",
      "type": "event"
    },
    {
      "anonymous": false,
      "inputs": [
        {
          "indexed": false,
          "internalType": "string",
          "name": "value",
          "type": "string"
        },
        {
          "indexed": true,
          "internalType": "uint256",
          "name": "id",
          "type": "uint256"
        }
      ],
      "name": "URI",
      "type": "event"
    },
    {
      "inputs": [],
      "name": "_id",
      "outputs": [
        {
          "internalType": "uint256",
          "name": "_value",
          "type": "uint256"
        }
      ],
      "stateMutability": "view",
      "type": "function"
    },
    {
      "inputs": [
        {
          "internalType": "address",
          "name": "account",
          "type": "address"
        },
        {
          "internalType": "uint256",
          "name": "id",
          "type": "uint256"
        }
      ],
      "name": "balanceOf",
      "outputs": [
        {
          "internalType": "uint256",
          "name": "",
          "type": "uint256"
        }
      ],
      "stateMutability": "view",
      "type": "function"
    },
    {
      "inputs": [
        {
          "internalType": "address[]",
          "name": "accounts",
          "type": "address[]"
        },
        {
          "internalType": "uint256[]",
          "name": "ids",
          "type": "uint256[]"
        }
      ],
      "name": "balanceOfBatch",
      "outputs": [
        {
          "internalType": "uint256[]",
          "name": "",
          "type": "uint256[]"
        }
      ],
      "stateMutability": "view",
      "type": "function"
    },
    {
      "inputs": [],
      "name": "collectionId",
      "outputs": [
        {
          "internalType": "uint256",
          "name": "",
          "type": "uint256"
        }
      ],
      "stateMutability": "view",
      "type": "function"
    },
    {
      "inputs": [],
      "name": "collectionName",
      "outputs": [
        {
          "internalType": "string",
          "name": "",
          "type": "string"
        }
      ],
      "stateMutability": "view",
      "type": "function"
    },
    {
      "inputs": [
        {
          "internalType": "address",
          "name": "account",
          "type": "address"
        },
        {
          "internalType": "address",
          "name": "operator",
          "type": "address"
        }
      ],
      "name": "isApprovedForAll",
      "outputs": [
        {
          "internalType": "bool",
          "name": "",
          "type": "bool"
        }
      ],
      "stateMutability": "view",
      "type": "function"
    },
    {
      "inputs": [
        {
          "internalType": "address",
          "name": "from",
          "type": "address"
        },
        {
          "internalType": "address",
          "name": "to",
          "type": "address"
        },
        {
          "internalType": "uint256[]",
          "name": "ids",
          "type": "uint256[]"
        },
        {
          "internalType": "uint256[]",
          "name": "amounts",
          "type": "uint256[]"
        },
        {
          "internalType": "bytes",
          "name": "data",
          "type": "bytes"
        }
      ],
      "name": "safeBatchTransferFrom",
      "outputs": [],
      "stateMutability": "nonpayable",
      "type": "function"
    },
    {
      "inputs": [
        {
          "internalType": "address",
          "name": "from",
          "type": "address"
        },
        {
          "internalType": "address",
          "name": "to",
          "type": "address"
        },
        {
          "internalType": "uint256",
          "name": "id",
          "type": "uint256"
        },
        {
          "internalType": "uint256",
          "name": "amount",
          "type": "uint256"
        },
        {
          "internalType": "bytes",
          "name": "data",
          "type": "bytes"
        }
      ],
      "name": "safeTransferFrom",
      "outputs": [],
      "stateMutability": "nonpayable",
      "type": "function"
    },
    {
      "inputs": [
        {
          "internalType": "address",
          "name": "operator",
          "type": "address"
        },
        {
          "internalType": "bool",
          "name": "approved",
          "type": "bool"
        }
      ],
      "name": "setApprovalForAll",
      "outputs": [],
      "stateMutability": "nonpayable",
      "type": "function"
    },
    {
      "inputs": [
        {
          "internalType": "bytes4",
          "name": "interfaceId",
          "type": "bytes4"
        }
      ],
      "name": "supportsInterface",
      "outputs": [
        {
          "internalType": "bool",
          "name": "",
          "type": "bool"
        }
      ],
      "stateMutability": "view",
      "type": "function"
    },
    {
      "inputs": [
        {
          "internalType": "uint256",
          "name": "",
          "type": "uint256"
        }
      ],
      "name": "uri",
      "outputs": [
        {
          "internalType": "string",
          "name": "",
          "type": "string"
        }
      ],
      "stateMutability": "view",
      "type": "function"
    },
    {
      "inputs": [
        {
          "internalType": "address",
          "name": "_address",
          "type": "address"
        }
      ],
      "name": "setCollectorsDAO",
      "outputs": [],
      "stateMutability": "nonpayable",
      "type": "function"
    },
    {
      "inputs": [
        {
          "internalType": "uint256",
          "name": "_proposalId",
          "type": "uint256"
        },
        {
          "internalType": "string",
          "name": "_name",
          "type": "string"
        },
        {
          "internalType": "uint256",
          "name": "_value",
          "type": "uint256"
        },
        {
          "internalType": "uint256",
          "name": "_numberOfItem",
          "type": "uint256"
        }
      ],
      "name": "mint",
      "outputs": [],
      "stateMutability": "nonpayable",
      "type": "function"
    }
  ],
  "bytecode": "0x60806040523480156200001157600080fd5b5060405162001bd538038062001bd5833981016040819052620000349162000073565b8062000040816200004b565b5050600555620002ae565b6002620000598282620001e2565b5050565b634e487b7160e01b600052604160045260246000fd5b600080604083850312156200008757600080fd5b8251602080850151919350906001600160401b0380821115620000a957600080fd5b818601915086601f830112620000be57600080fd5b815181811115620000d357620000d36200005d565b604051601f8201601f19908116603f01168101908382118183101715620000fe57620000fe6200005d565b8160405282815289868487010111156200011757600080fd5b600093505b828410156200013b57848401860151818501870152928501926200011c565b60008684830101528096505050505050509250929050565b600181811c908216806200016857607f821691505b6020821081036200018957634e487b7160e01b600052602260045260246000fd5b50919050565b601f821115620001dd57600081815260208120601f850160051c81016020861015620001b85750805b601f850160051c820191505b81811015620001d957828155600101620001c4565b5050505b505050565b81516001600160401b03811115620001fe57620001fe6200005d565b62000216816200020f845462000153565b846200018f565b602080601f8311600181146200024e5760008415620002355750858301515b600019600386901b1c1916600185901b178555620001d9565b600085815260208120601f198616915b828110156200027f578886015182559484019460019091019084016200025e565b50858210156200029e5787850151600019600388901b60f8161c191681555b5050505050600190811b01905550565b61191780620002be6000396000f3fe608060405234801561001057600080fd5b50600436106100ce5760003560e01c80634e1273f41161008c578063dd1ccc8611610066578063dd1ccc86146101c7578063e5326ab1146101da578063e985e9c5146101e2578063f242432a1461021e57600080fd5b80634e1273f4146101645780637fa9136d14610184578063a22cb465146101b457600080fd5b8062fdd58e146100d357806301ffc9a7146100f9578063051802371461011c5780630e89341c146101265780632eb2c2d6146101465780633d26bb671461015b575b600080fd5b6100e66100e1366004610f19565b610231565b6040519081526020015b60405180910390f35b61010c610107366004610f5c565b6102ca565b60405190151581526020016100f0565b6003546100e69081565b610139610134366004610f80565b61031a565b6040516100f09190610fdf565b610159610154366004611148565b6103ae565b005b6100e660055481565b6101776101723660046111f2565b6103fa565b6040516100f091906112f8565b61015961019236600461130b565b600680546001600160a01b0319166001600160a01b0392909216919091179055565b6101596101c2366004611334565b610524565b6101596101d536600461136b565b610533565b6101396106d6565b61010c6101f03660046113d6565b6001600160a01b03918216600090815260016020908152604080832093909416825291909152205460ff1690565b61015961022c366004611409565b610764565b60006001600160a01b0383166102a15760405162461bcd60e51b815260206004820152602a60248201527f455243313135353a2061646472657373207a65726f206973206e6f742061207660448201526930b634b21037bbb732b960b11b60648201526084015b60405180910390fd5b506000818152602081815260408083206001600160a01b03861684529091529020545b92915050565b60006001600160e01b03198216636cdb3d1360e11b14806102fb57506001600160e01b031982166303a24d0760e21b145b806102c457506301ffc9a760e01b6001600160e01b03198316146102c4565b6060600280546103299061146e565b80601f01602080910402602001604051908101604052809291908181526020018280546103559061146e565b80156103a25780601f10610377576101008083540402835291602001916103a2565b820191906000526020600020905b81548152906001019060200180831161038557829003601f168201915b50505050509050919050565b6001600160a01b0385163314806103ca57506103ca85336101f0565b6103e65760405162461bcd60e51b8152600401610298906114a8565b6103f385858585856107a9565b5050505050565b6060815183511461045f5760405162461bcd60e51b815260206004820152602960248201527f455243313135353a206163636f756e747320616e6420696473206c656e677468604482015268040dad2e6dac2e8c6d60bb1b6064820152608401610298565b6000835167ffffffffffffffff81111561047b5761047b610ff2565b6040519080825280602002602001820160405280156104a4578160200160208202803683370190505b50905060005b845181101561051c576104ef8582815181106104c8576104c86114f6565b60200260200101518583815181106104e2576104e26114f6565b6020026020010151610231565b828281518110610501576105016114f6565b602090810291909101015261051581611522565b90506104aa565b509392505050565b61052f33838361097e565b5050565b6006546005546040516370379bcd60e11b81526004810191909152602481018690526000916001600160a01b03169063e06f379a90604401602060405180830381865afa158015610588573d6000803e3d6000fd5b505050506040513d601f19601f820116820180604052508101906105ac919061153b565b90506001811515146106005760405162461bcd60e51b815260206004820152601860248201527f70726f706f73616c206973206e6f7420616363657074656400000000000000006044820152606401610298565b600061060b60035490565b604080516060810182528281526020810188815291810187905260078054600181018255600091909152815160039091027fa66cc928b5edb82af9bd49922954155ab7b0942694bea4ce44661d9a8736c68881019182559251939450909290917fa66cc928b5edb82af9bd49922954155ab7b0942694bea4ce44661d9a8736c689019061069890826115a3565b506040820151816002015550506106c033828560405180602001604052806000815250610a5e565b6106ce600380546001019055565b505050505050565b600480546106e39061146e565b80601f016020809104026020016040519081016040528092919081815260200182805461070f9061146e565b801561075c5780601f106107315761010080835404028352916020019161075c565b820191906000526020600020905b81548152906001019060200180831161073f57829003601f168201915b505050505081565b6001600160a01b038516331480610780575061078085336101f0565b61079c5760405162461bcd60e51b8152600401610298906114a8565b6103f38585858585610b72565b815183511461080b5760405162461bcd60e51b815260206004820152602860248201527f455243313135353a2069647320616e6420616d6f756e7473206c656e677468206044820152670dad2e6dac2e8c6d60c31b6064820152608401610298565b6001600160a01b0384166108315760405162461bcd60e51b815260040161029890611663565b3360005b8451811015610918576000858281518110610852576108526114f6565b602002602001015190506000858381518110610870576108706114f6565b602090810291909101810151600084815280835260408082206001600160a01b038e1683529093529190912054909150818110156108c05760405162461bcd60e51b8152600401610298906116a8565b6000838152602081815260408083206001600160a01b038e8116855292528083208585039055908b168252812080548492906108fd9084906116f2565b925050819055505050508061091190611522565b9050610835565b50846001600160a01b0316866001600160a01b0316826001600160a01b03167f4a39dc06d4c0dbc64b70af90fd698a233a518aa5d07e595d983b8c0526c8f7fb8787604051610968929190611705565b60405180910390a46106ce818787878787610c9c565b816001600160a01b0316836001600160a01b0316036109f15760405162461bcd60e51b815260206004820152602960248201527f455243313135353a2073657474696e6720617070726f76616c20737461747573604482015268103337b91039b2b63360b91b6064820152608401610298565b6001600160a01b03838116600081815260016020908152604080832094871680845294825291829020805460ff191686151590811790915591519182527f17307eab39ab6107e8899845ad3d59bd9653f200f220920489ca2b5937696c31910160405180910390a3505050565b6001600160a01b038416610abe5760405162461bcd60e51b815260206004820152602160248201527f455243313135353a206d696e7420746f20746865207a65726f206164647265736044820152607360f81b6064820152608401610298565b336000610aca85610df7565b90506000610ad785610df7565b90506000868152602081815260408083206001600160a01b038b16845290915281208054879290610b099084906116f2565b909155505060408051878152602081018790526001600160a01b03808a1692600092918716917fc3d58168c5ae7397731d063d5bbf3d657854427343f4c083240f7aacaa2d0f62910160405180910390a4610b6983600089898989610e42565b50505050505050565b6001600160a01b038416610b985760405162461bcd60e51b815260040161029890611663565b336000610ba485610df7565b90506000610bb185610df7565b90506000868152602081815260408083206001600160a01b038c16845290915290205485811015610bf45760405162461bcd60e51b8152600401610298906116a8565b6000878152602081815260408083206001600160a01b038d8116855292528083208985039055908a16825281208054889290610c319084906116f2565b909155505060408051888152602081018890526001600160a01b03808b16928c821692918816917fc3d58168c5ae7397731d063d5bbf3d657854427343f4c083240f7aacaa2d0f62910160405180910390a4610c91848a8a8a8a8a610e42565b505050505050505050565b6001600160a01b0384163b156106ce5760405163bc197c8160e01b81526001600160a01b0385169063bc197c8190610ce09089908990889088908890600401611733565b6020604051808303816000875af1925050508015610d1b575060408051601f3d908101601f19168201909252610d1891810190611791565b60015b610dc757610d276117ae565b806308c379a003610d605750610d3b6117ca565b80610d465750610d62565b8060405162461bcd60e51b81526004016102989190610fdf565b505b60405162461bcd60e51b815260206004820152603460248201527f455243313135353a207472616e7366657220746f206e6f6e2d455243313135356044820152732932b1b2b4bb32b91034b6b83632b6b2b73a32b960611b6064820152608401610298565b6001600160e01b0319811663bc197c8160e01b14610b695760405162461bcd60e51b815260040161029890611854565b60408051600180825281830190925260609160009190602080830190803683370190505090508281600081518110610e3157610e316114f6565b602090810291909101015292915050565b6001600160a01b0384163b156106ce5760405163f23a6e6160e01b81526001600160a01b0385169063f23a6e6190610e86908990899088908890889060040161189c565b6020604051808303816000875af1925050508015610ec1575060408051601f3d908101601f19168201909252610ebe91810190611791565b60015b610ecd57610d276117ae565b6001600160e01b0319811663f23a6e6160e01b14610b695760405162461bcd60e51b815260040161029890611854565b80356001600160a01b0381168114610f1457600080fd5b919050565b60008060408385031215610f2c57600080fd5b610f3583610efd565b946020939093013593505050565b6001600160e01b031981168114610f5957600080fd5b50565b600060208284031215610f6e57600080fd5b8135610f7981610f43565b9392505050565b600060208284031215610f9257600080fd5b5035919050565b6000815180845260005b81811015610fbf57602081850181015186830182015201610fa3565b506000602082860101526020601f19601f83011685010191505092915050565b602081526000610f796020830184610f99565b634e487b7160e01b600052604160045260246000fd5b601f8201601f1916810167ffffffffffffffff8111828210171561102e5761102e610ff2565b6040525050565b600067ffffffffffffffff82111561104f5761104f610ff2565b5060051b60200190565b600082601f83011261106a57600080fd5b8135602061107782611035565b6040516110848282611008565b83815260059390931b85018201928281019150868411156110a457600080fd5b8286015b848110156110bf57803583529183019183016110a8565b509695505050505050565b600067ffffffffffffffff8311156110e4576110e4610ff2565b6040516110fb601f8501601f191660200182611008565b80915083815284848401111561111057600080fd5b83836020830137600060208583010152509392505050565b600082601f83011261113957600080fd5b610f79838335602085016110ca565b600080600080600060a0868803121561116057600080fd5b61116986610efd565b945061117760208701610efd565b9350604086013567ffffffffffffffff8082111561119457600080fd5b6111a089838a01611059565b945060608801359150808211156111b657600080fd5b6111c289838a01611059565b935060808801359150808211156111d857600080fd5b506111e588828901611128565b9150509295509295909350565b6000806040838503121561120557600080fd5b823567ffffffffffffffff8082111561121d57600080fd5b818501915085601f83011261123157600080fd5b8135602061123e82611035565b60405161124b8282611008565b83815260059390931b850182019282810191508984111561126b57600080fd5b948201945b838610156112905761128186610efd565b82529482019490820190611270565b965050860135925050808211156112a657600080fd5b506112b385828601611059565b9150509250929050565b600081518084526020808501945080840160005b838110156112ed578151875295820195908201906001016112d1565b509495945050505050565b602081526000610f7960208301846112bd565b60006020828403121561131d57600080fd5b610f7982610efd565b8015158114610f5957600080fd5b6000806040838503121561134757600080fd5b61135083610efd565b9150602083013561136081611326565b809150509250929050565b6000806000806080858703121561138157600080fd5b84359350602085013567ffffffffffffffff81111561139f57600080fd5b8501601f810187136113b057600080fd5b6113bf878235602084016110ca565b949794965050505060408301359260600135919050565b600080604083850312156113e957600080fd5b6113f283610efd565b915061140060208401610efd565b90509250929050565b600080600080600060a0868803121561142157600080fd5b61142a86610efd565b945061143860208701610efd565b93506040860135925060608601359150608086013567ffffffffffffffff81111561146257600080fd5b6111e588828901611128565b600181811c9082168061148257607f821691505b6020821081036114a257634e487b7160e01b600052602260045260246000fd5b50919050565b6020808252602e908201527f455243313135353a2063616c6c6572206973206e6f7420746f6b656e206f776e60408201526d195c881bdc88185c1c1c9bdd995960921b606082015260800190565b634e487b7160e01b600052603260045260246000fd5b634e487b7160e01b600052601160045260246000fd5b6000600182016115345761153461150c565b5060010190565b60006020828403121561154d57600080fd5b8151610f7981611326565b601f82111561159e57600081815260208120601f850160051c8101602086101561157f5750805b601f850160051c820191505b818110156106ce5782815560010161158b565b505050565b815167ffffffffffffffff8111156115bd576115bd610ff2565b6115d1816115cb845461146e565b84611558565b602080601f83116001811461160657600084156115ee5750858301515b600019600386901b1c1916600185901b1785556106ce565b600085815260208120601f198616915b8281101561163557888601518255948401946001909101908401611616565b50858210156116535787850151600019600388901b60f8161c191681555b5050505050600190811b01905550565b60208082526025908201527f455243313135353a207472616e7366657220746f20746865207a65726f206164604082015264647265737360d81b606082015260800190565b6020808252602a908201527f455243313135353a20696e73756666696369656e742062616c616e636520666f60408201526939103a3930b739b332b960b11b606082015260800190565b808201808211156102c4576102c461150c565b60408152600061171860408301856112bd565b828103602084015261172a81856112bd565b95945050505050565b6001600160a01b0386811682528516602082015260a06040820181905260009061175f908301866112bd565b828103606084015261177181866112bd565b905082810360808401526117858185610f99565b98975050505050505050565b6000602082840312156117a357600080fd5b8151610f7981610f43565b600060033d11156117c75760046000803e5060005160e01c5b90565b600060443d10156117d85790565b6040516003193d81016004833e81513d67ffffffffffffffff816024840111818411171561180857505050505090565b82850191508151818111156118205750505050505090565b843d870101602082850101111561183a5750505050505090565b61184960208286010187611008565b509095945050505050565b60208082526028908201527f455243313135353a204552433131353552656365697665722072656a656374656040820152676420746f6b656e7360c01b606082015260800190565b6001600160a01b03868116825285166020820152604081018490526060810183905260a0608082018190526000906118d690830184610f99565b97965050505050505056fea2646970667358221220d56d59b5ce8d58a1ecd64948eb3599f7e291ebff5defae0a367dafc5eefa1c6a64736f6c63430008110033",
  "immutableReferences": {},
  "source": "// SPDX-License-Identifier: GPL-3.0\npragma solidity 0.8.17;\n\nimport \"../node_modules/@openzeppelin/contracts/token/ERC1155/ERC1155.sol\";\nimport \"../node_modules/@openzeppelin/contracts/utils/Counters.sol\";\n\n// URI POUR TEST ==> \"https://gateway.pinata.cloud/ipfs/QmUegKTCJ8r6td4AfT22FjJHCVMJn4fKTVCK4MH7zNM7Mn/{id}.json\"\n\ninterface CollectorsDAO {\n    function getProposalStatus(uint256 _daoId, uint256 _proposalId)\n        external\n        view\n        returns (bool proposalStatus);\n}\n\ncontract NftProperty is ERC1155 {\n    using Counters for Counters.Counter;\n    Counters.Counter public _id;\n\n    string public collectionName;\n    uint256 public collectionId;\n\n    struct PropertyNft {\n        uint256 itemId;\n        string name;\n        uint256 value;\n    }\n\n    CollectorsDAO collectorsDAO;\n\n    PropertyNft[] propertyNfts;\n\n    /// @notice URI structure have to be managed from the from end in order to define custom attributes for each collection\n    constructor(uint256 collectionId_, string memory collectionURI_)\n        ERC1155(\n            /* URI de la collection*/\n            collectionURI_\n        )\n    {\n        collectionId = collectionId_;\n    }\n\n    function setCollectorsDAO(address _address) external {\n        collectorsDAO = CollectorsDAO(_address);\n    }\n\n    /// @notice function mint() mint new NFT and send it to the owner of the object\n    function mint(\n        uint256 _proposalId,\n        string memory _name,\n        uint256 _value,\n        uint256 _numberOfItem\n    ) public {\n        // get the proposal status to allow the mint\n        bool proposalStatus = collectorsDAO.getProposalStatus(\n            collectionId,\n            _proposalId\n        );\n        require(proposalStatus == true, \"proposal is not accepted\");\n\n        uint256 newPropertyNftId = _id.current();\n        propertyNfts.push(PropertyNft(newPropertyNftId, _name, _value));\n        _mint(msg.sender, newPropertyNftId, _numberOfItem, \"\");\n        _id.increment();\n    }\n}\n",
  "sourcePath": "/Users/jeromejulien/Documents/vscode/FormationAlyra/02_Projets/CollectorChain_TokenizedCollectibles/truffle/contracts/NftProperty.sol",
  "compiler": {
    "name": "solc",
    "version": "0.8.17+commit.8df45f5f.Emscripten.clang"
  },
  "schemaVersion": "3.4.10",
  "updatedAt": "2022-12-04T15:33:38.117Z",
  "devdoc": {
    "kind": "dev",
    "methods": {
      "balanceOf(address,uint256)": {
        "details": "See {IERC1155-balanceOf}. Requirements: - `account` cannot be the zero address."
      },
      "balanceOfBatch(address[],uint256[])": {
        "details": "See {IERC1155-balanceOfBatch}. Requirements: - `accounts` and `ids` must have the same length."
      },
      "isApprovedForAll(address,address)": {
        "details": "See {IERC1155-isApprovedForAll}."
      },
      "safeBatchTransferFrom(address,address,uint256[],uint256[],bytes)": {
        "details": "See {IERC1155-safeBatchTransferFrom}."
      },
      "safeTransferFrom(address,address,uint256,uint256,bytes)": {
        "details": "See {IERC1155-safeTransferFrom}."
      },
      "setApprovalForAll(address,bool)": {
        "details": "See {IERC1155-setApprovalForAll}."
      },
      "supportsInterface(bytes4)": {
        "details": "See {IERC165-supportsInterface}."
      },
      "uri(uint256)": {
        "details": "See {IERC1155MetadataURI-uri}. This implementation returns the same URI for *all* token types. It relies on the token type ID substitution mechanism https://eips.ethereum.org/EIPS/eip-1155#metadata[defined in the EIP]. Clients calling this function must replace the `\\{id\\}` substring with the actual token type ID."
      }
    },
    "version": 1
  },
  "userdoc": {
    "kind": "user",
    "methods": {
      "constructor": {
        "notice": "URI structure have to be managed from the from end in order to define custom attributes for each collection"
      },
      "mint(uint256,string,uint256,uint256)": {
        "notice": "function mint() mint new NFT and send it to the owner of the object"
      }
    },
    "version": 1
  }
}