{
  "contractName": "NftProperty",
  "abi": [
    {
      "inputs": [
        {
          "internalType": "uint256",
          "name": "collectionId_",
          "type": "uint256"
        },
        {
          "internalType": "string",
          "name": "collectionURI_",
          "type": "string"
        },
        {
          "internalType": "address",
          "name": "daoContractAddress_",
          "type": "address"
        }
      ],
      "stateMutability": "nonpayable",
      "type": "constructor"
    },
    {
      "anonymous": false,
      "inputs": [
        {
          "indexed": true,
          "internalType": "address",
          "name": "account",
          "type": "address"
        },
        {
          "indexed": true,
          "internalType": "address",
          "name": "operator",
          "type": "address"
        },
        {
          "indexed": false,
          "internalType": "bool",
          "name": "approved",
          "type": "bool"
        }
      ],
      "name": "ApprovalForAll",
      "type": "event"
    },
    {
      "anonymous": false,
      "inputs": [
        {
          "indexed": true,
          "internalType": "address",
          "name": "operator",
          "type": "address"
        },
        {
          "indexed": true,
          "internalType": "address",
          "name": "from",
          "type": "address"
        },
        {
          "indexed": true,
          "internalType": "address",
          "name": "to",
          "type": "address"
        },
        {
          "indexed": false,
          "internalType": "uint256[]",
          "name": "ids",
          "type": "uint256[]"
        },
        {
          "indexed": false,
          "internalType": "uint256[]",
          "name": "values",
          "type": "uint256[]"
        }
      ],
      "name": "TransferBatch",
      "type": "event"
    },
    {
      "anonymous": false,
      "inputs": [
        {
          "indexed": true,
          "internalType": "address",
          "name": "operator",
          "type": "address"
        },
        {
          "indexed": true,
          "internalType": "address",
          "name": "from",
          "type": "address"
        },
        {
          "indexed": true,
          "internalType": "address",
          "name": "to",
          "type": "address"
        },
        {
          "indexed": false,
          "internalType": "uint256",
          "name": "id",
          "type": "uint256"
        },
        {
          "indexed": false,
          "internalType": "uint256",
          "name": "value",
          "type": "uint256"
        }
      ],
      "name": "TransferSingle",
      "type": "event"
    },
    {
      "anonymous": false,
      "inputs": [
        {
          "indexed": false,
          "internalType": "string",
          "name": "value",
          "type": "string"
        },
        {
          "indexed": true,
          "internalType": "uint256",
          "name": "id",
          "type": "uint256"
        }
      ],
      "name": "URI",
      "type": "event"
    },
    {
      "inputs": [],
      "name": "_collectionId",
      "outputs": [
        {
          "internalType": "uint256",
          "name": "",
          "type": "uint256"
        }
      ],
      "stateMutability": "view",
      "type": "function"
    },
    {
      "inputs": [],
      "name": "_id",
      "outputs": [
        {
          "internalType": "uint256",
          "name": "_value",
          "type": "uint256"
        }
      ],
      "stateMutability": "view",
      "type": "function"
    },
    {
      "inputs": [
        {
          "internalType": "address",
          "name": "account",
          "type": "address"
        },
        {
          "internalType": "uint256",
          "name": "id",
          "type": "uint256"
        }
      ],
      "name": "balanceOf",
      "outputs": [
        {
          "internalType": "uint256",
          "name": "",
          "type": "uint256"
        }
      ],
      "stateMutability": "view",
      "type": "function"
    },
    {
      "inputs": [
        {
          "internalType": "address[]",
          "name": "accounts",
          "type": "address[]"
        },
        {
          "internalType": "uint256[]",
          "name": "ids",
          "type": "uint256[]"
        }
      ],
      "name": "balanceOfBatch",
      "outputs": [
        {
          "internalType": "uint256[]",
          "name": "",
          "type": "uint256[]"
        }
      ],
      "stateMutability": "view",
      "type": "function"
    },
    {
      "inputs": [],
      "name": "collectionName",
      "outputs": [
        {
          "internalType": "string",
          "name": "",
          "type": "string"
        }
      ],
      "stateMutability": "view",
      "type": "function"
    },
    {
      "inputs": [
        {
          "internalType": "address",
          "name": "account",
          "type": "address"
        },
        {
          "internalType": "address",
          "name": "operator",
          "type": "address"
        }
      ],
      "name": "isApprovedForAll",
      "outputs": [
        {
          "internalType": "bool",
          "name": "",
          "type": "bool"
        }
      ],
      "stateMutability": "view",
      "type": "function"
    },
    {
      "inputs": [
        {
          "internalType": "uint256",
          "name": "",
          "type": "uint256"
        }
      ],
      "name": "propertyNfts",
      "outputs": [
        {
          "internalType": "uint256",
          "name": "collectionId",
          "type": "uint256"
        },
        {
          "internalType": "uint256",
          "name": "nftId",
          "type": "uint256"
        },
        {
          "internalType": "string",
          "name": "name",
          "type": "string"
        },
        {
          "internalType": "uint256",
          "name": "value",
          "type": "uint256"
        },
        {
          "internalType": "address",
          "name": "minter",
          "type": "address"
        },
        {
          "internalType": "string",
          "name": "image",
          "type": "string"
        }
      ],
      "stateMutability": "view",
      "type": "function"
    },
    {
      "inputs": [
        {
          "internalType": "address",
          "name": "from",
          "type": "address"
        },
        {
          "internalType": "address",
          "name": "to",
          "type": "address"
        },
        {
          "internalType": "uint256[]",
          "name": "ids",
          "type": "uint256[]"
        },
        {
          "internalType": "uint256[]",
          "name": "amounts",
          "type": "uint256[]"
        },
        {
          "internalType": "bytes",
          "name": "data",
          "type": "bytes"
        }
      ],
      "name": "safeBatchTransferFrom",
      "outputs": [],
      "stateMutability": "nonpayable",
      "type": "function"
    },
    {
      "inputs": [
        {
          "internalType": "address",
          "name": "from",
          "type": "address"
        },
        {
          "internalType": "address",
          "name": "to",
          "type": "address"
        },
        {
          "internalType": "uint256",
          "name": "id",
          "type": "uint256"
        },
        {
          "internalType": "uint256",
          "name": "amount",
          "type": "uint256"
        },
        {
          "internalType": "bytes",
          "name": "data",
          "type": "bytes"
        }
      ],
      "name": "safeTransferFrom",
      "outputs": [],
      "stateMutability": "nonpayable",
      "type": "function"
    },
    {
      "inputs": [
        {
          "internalType": "address",
          "name": "operator",
          "type": "address"
        },
        {
          "internalType": "bool",
          "name": "approved",
          "type": "bool"
        }
      ],
      "name": "setApprovalForAll",
      "outputs": [],
      "stateMutability": "nonpayable",
      "type": "function"
    },
    {
      "inputs": [
        {
          "internalType": "bytes4",
          "name": "interfaceId",
          "type": "bytes4"
        }
      ],
      "name": "supportsInterface",
      "outputs": [
        {
          "internalType": "bool",
          "name": "",
          "type": "bool"
        }
      ],
      "stateMutability": "view",
      "type": "function"
    },
    {
      "inputs": [
        {
          "internalType": "uint256",
          "name": "tokenId",
          "type": "uint256"
        }
      ],
      "name": "uri",
      "outputs": [
        {
          "internalType": "string",
          "name": "",
          "type": "string"
        }
      ],
      "stateMutability": "view",
      "type": "function"
    },
    {
      "inputs": [
        {
          "internalType": "uint256",
          "name": "_proposalId",
          "type": "uint256"
        },
        {
          "internalType": "string",
          "name": "_name",
          "type": "string"
        },
        {
          "internalType": "uint256",
          "name": "_value",
          "type": "uint256"
        },
        {
          "internalType": "uint256",
          "name": "_numberOfItem",
          "type": "uint256"
        },
        {
          "internalType": "address",
          "name": "_minter",
          "type": "address"
        },
        {
          "internalType": "string",
          "name": "_image",
          "type": "string"
        }
      ],
      "name": "mintPropertyNft",
      "outputs": [],
      "stateMutability": "nonpayable",
      "type": "function"
    },
    {
      "inputs": [],
      "name": "getCollectionId",
      "outputs": [
        {
          "internalType": "uint256",
          "name": "",
          "type": "uint256"
        }
      ],
      "stateMutability": "view",
      "type": "function"
    }
  ],
  "bytecode": "0x60a0604052600060809081526003906200001a90826200013b565b503480156200002857600080fd5b50604051620026b3380380620026b38339810160408190526200004b9162000224565b81620000578162000084565b5060079290925550600880546001600160a01b0319166001600160a01b0390921691909117905562000316565b60026200009282826200013b565b5050565b634e487b7160e01b600052604160045260246000fd5b600181811c90821680620000c157607f821691505b602082108103620000e257634e487b7160e01b600052602260045260246000fd5b50919050565b601f8211156200013657600081815260208120601f850160051c81016020861015620001115750805b601f850160051c820191505b8181101562000132578281556001016200011d565b5050505b505050565b81516001600160401b0381111562000157576200015762000096565b6200016f81620001688454620000ac565b84620000e8565b602080601f831160018114620001a757600084156200018e5750858301515b600019600386901b1c1916600185901b17855562000132565b600085815260208120601f198616915b82811015620001d857888601518255948401946001909101908401620001b7565b5085821015620001f75787850151600019600388901b60f8161c191681555b5050505050600190811b01905550565b80516001600160a01b03811681146200021f57600080fd5b919050565b6000806000606084860312156200023a57600080fd5b8351602080860151919450906001600160401b03808211156200025c57600080fd5b818701915087601f8301126200027157600080fd5b81518181111562000286576200028662000096565b604051601f8201601f19908116603f01168101908382118183101715620002b157620002b162000096565b816040528281528a86848701011115620002ca57600080fd5b600093505b82841015620002ee5784840186015181850187015292850192620002cf565b60008684830101528097505050505050506200030d6040850162000207565b90509250925092565b61238d80620003266000396000f3fe608060405234801561001057600080fd5b50600436106100e95760003560e01c80637c8e7bfe1161008c578063bd26938011610066578063bd269380146101cd578063e5326ab1146101f2578063e985e9c5146101fa578063f242432a1461024357600080fd5b80637c8e7bfe146101a95780638296a2e8146101b1578063a22cb465146101ba57600080fd5b80630e89341c116100c85780630e89341c146101415780632eb2c2d6146101615780633c6c13ab146101765780634e1273f41461018957600080fd5b8062fdd58e146100ee57806301ffc9a7146101145780630518023714610137575b600080fd5b6101016100fc36600461189f565b610256565b6040519081526020015b60405180910390f35b6101276101223660046118fa565b61031c565b604051901515815260200161010b565b6005546101019081565b61015461014f366004611917565b6103ff565b60405161010b9190611980565b61017461016f366004611af8565b6104df565b005b610174610184366004611ba2565b61058e565b61019c610197366004611c32565b610884565b60405161010b9190611d38565b600754610101565b61010160075481565b6101746101c8366004611d59565b6109c2565b6101e06101db366004611917565b6109d1565b60405161010b96959493929190611d90565b610154610b48565b610127610208366004611df0565b73ffffffffffffffffffffffffffffffffffffffff918216600090815260016020908152604080832093909416825291909152205460ff1690565b610174610251366004611e23565b610bd6565b600073ffffffffffffffffffffffffffffffffffffffff83166102e65760405162461bcd60e51b815260206004820152602a60248201527f455243313135353a2061646472657373207a65726f206973206e6f742061207660448201527f616c6964206f776e65720000000000000000000000000000000000000000000060648201526084015b60405180910390fd5b5060008181526020818152604080832073ffffffffffffffffffffffffffffffffffffffff861684529091529020545b92915050565b60007fffffffff0000000000000000000000000000000000000000000000000000000082167fd9b67a260000000000000000000000000000000000000000000000000000000014806103af57507fffffffff0000000000000000000000000000000000000000000000000000000082167f0e89341c00000000000000000000000000000000000000000000000000000000145b8061031657507f01ffc9a7000000000000000000000000000000000000000000000000000000007fffffffff00000000000000000000000000000000000000000000000000000000831614610316565b60008181526004602052604081208054606092919061041d90611e88565b80601f016020809104026020016040519081016040528092919081815260200182805461044990611e88565b80156104965780601f1061046b57610100808354040283529160200191610496565b820191906000526020600020905b81548152906001019060200180831161047957829003601f168201915b5050505050905060008151116104b4576104af83610c7e565b6104d8565b6003816040516020016104c8929190611edb565b6040516020818303038152906040525b9392505050565b73ffffffffffffffffffffffffffffffffffffffff851633148061050857506105088533610208565b61057a5760405162461bcd60e51b815260206004820152602e60248201527f455243313135353a2063616c6c6572206973206e6f7420746f6b656e206f776e60448201527f6572206f7220617070726f76656400000000000000000000000000000000000060648201526084016102dd565b6105878585858585610d12565b5050505050565b6008546040517f401853b70000000000000000000000000000000000000000000000000000000081526004810188905260009173ffffffffffffffffffffffffffffffffffffffff169063401853b790602401602060405180830381865afa1580156105fe573d6000803e3d6000fd5b505050506040513d601f19601f820116820180604052508101906106229190611f80565b90506001811515146106765760405162461bcd60e51b815260206004820152601860248201527f70726f706f73616c206973206e6f74206163636570746564000000000000000060448201526064016102dd565b600061068160055490565b6040805160c0810182526007548152602081018381529181018a8152606082018a905273ffffffffffffffffffffffffffffffffffffffff8816608083015260a0820187905260098054600181018255600091909152825160069091027f6e1540171b6c0c960b71a7020d9f60077f6af931a8bbf590da0223dacf75c7af810191825593517f6e1540171b6c0c960b71a7020d9f60077f6af931a8bbf590da0223dacf75c7b08501559051939450909290917f6e1540171b6c0c960b71a7020d9f60077f6af931a8bbf590da0223dacf75c7b101906107609082611fe8565b506060820151600382015560808201516004820180547fffffffffffffffffffffffff00000000000000000000000000000000000000001673ffffffffffffffffffffffffffffffffffffffff90921691909117905560a082015160058201906107ca9082611fe8565b5050506107e833828760405180602001604052806000815250610ffe565b6107f6600580546001019055565b6008546040517f845c776d000000000000000000000000000000000000000000000000000000008152600481018a905273ffffffffffffffffffffffffffffffffffffffff9091169063845c776d90602401600060405180830381600087803b15801561086257600080fd5b505af1158015610876573d6000803e3d6000fd5b505050505050505050505050565b606081518351146108fd5760405162461bcd60e51b815260206004820152602960248201527f455243313135353a206163636f756e747320616e6420696473206c656e67746860448201527f206d69736d61746368000000000000000000000000000000000000000000000060648201526084016102dd565b6000835167ffffffffffffffff81111561091957610919611993565b604051908082528060200260200182016040528015610942578160200160208202803683370190505b50905060005b84518110156109ba5761098d858281518110610966576109666120e4565b6020026020010151858381518110610980576109806120e4565b6020026020010151610256565b82828151811061099f5761099f6120e4565b60209081029190910101526109b381612142565b9050610948565b509392505050565b6109cd338383611155565b5050565b600981815481106109e157600080fd5b9060005260206000209060060201600091509050806000015490806001015490806002018054610a1090611e88565b80601f0160208091040260200160405190810160405280929190818152602001828054610a3c90611e88565b8015610a895780601f10610a5e57610100808354040283529160200191610a89565b820191906000526020600020905b815481529060010190602001808311610a6c57829003601f168201915b50505050600383015460048401546005850180549495929473ffffffffffffffffffffffffffffffffffffffff909216935090610ac590611e88565b80601f0160208091040260200160405190810160405280929190818152602001828054610af190611e88565b8015610b3e5780601f10610b1357610100808354040283529160200191610b3e565b820191906000526020600020905b815481529060010190602001808311610b2157829003601f168201915b5050505050905086565b60068054610b5590611e88565b80601f0160208091040260200160405190810160405280929190818152602001828054610b8190611e88565b8015610bce5780601f10610ba357610100808354040283529160200191610bce565b820191906000526020600020905b815481529060010190602001808311610bb157829003601f168201915b505050505081565b73ffffffffffffffffffffffffffffffffffffffff8516331480610bff5750610bff8533610208565b610c715760405162461bcd60e51b815260206004820152602e60248201527f455243313135353a2063616c6c6572206973206e6f7420746f6b656e206f776e60448201527f6572206f7220617070726f76656400000000000000000000000000000000000060648201526084016102dd565b610587858585858561128e565b606060028054610c8d90611e88565b80601f0160208091040260200160405190810160405280929190818152602001828054610cb990611e88565b8015610d065780601f10610cdb57610100808354040283529160200191610d06565b820191906000526020600020905b815481529060010190602001808311610ce957829003601f168201915b50505050509050919050565b8151835114610d895760405162461bcd60e51b815260206004820152602860248201527f455243313135353a2069647320616e6420616d6f756e7473206c656e6774682060448201527f6d69736d6174636800000000000000000000000000000000000000000000000060648201526084016102dd565b73ffffffffffffffffffffffffffffffffffffffff8416610e125760405162461bcd60e51b815260206004820152602560248201527f455243313135353a207472616e7366657220746f20746865207a65726f20616460448201527f647265737300000000000000000000000000000000000000000000000000000060648201526084016102dd565b3360005b8451811015610f69576000858281518110610e3357610e336120e4565b602002602001015190506000858381518110610e5157610e516120e4565b6020908102919091018101516000848152808352604080822073ffffffffffffffffffffffffffffffffffffffff8e168352909352919091205490915081811015610f045760405162461bcd60e51b815260206004820152602a60248201527f455243313135353a20696e73756666696369656e742062616c616e636520666f60448201527f72207472616e736665720000000000000000000000000000000000000000000060648201526084016102dd565b60008381526020818152604080832073ffffffffffffffffffffffffffffffffffffffff8e8116855292528083208585039055908b16825281208054849290610f4e90849061217a565b9250508190555050505080610f6290612142565b9050610e16565b508473ffffffffffffffffffffffffffffffffffffffff168673ffffffffffffffffffffffffffffffffffffffff168273ffffffffffffffffffffffffffffffffffffffff167f4a39dc06d4c0dbc64b70af90fd698a233a518aa5d07e595d983b8c0526c8f7fb8787604051610fe092919061218d565b60405180910390a4610ff6818787878787611498565b505050505050565b73ffffffffffffffffffffffffffffffffffffffff84166110875760405162461bcd60e51b815260206004820152602160248201527f455243313135353a206d696e7420746f20746865207a65726f2061646472657360448201527f730000000000000000000000000000000000000000000000000000000000000060648201526084016102dd565b336000611093856116b6565b905060006110a0856116b6565b905060008681526020818152604080832073ffffffffffffffffffffffffffffffffffffffff8b168452909152812080548792906110df90849061217a565b9091555050604080518781526020810187905273ffffffffffffffffffffffffffffffffffffffff808a1692600092918716917fc3d58168c5ae7397731d063d5bbf3d657854427343f4c083240f7aacaa2d0f62910160405180910390a461114c83600089898989611701565b50505050505050565b8173ffffffffffffffffffffffffffffffffffffffff168373ffffffffffffffffffffffffffffffffffffffff16036111f65760405162461bcd60e51b815260206004820152602960248201527f455243313135353a2073657474696e6720617070726f76616c2073746174757360448201527f20666f722073656c66000000000000000000000000000000000000000000000060648201526084016102dd565b73ffffffffffffffffffffffffffffffffffffffff83811660008181526001602090815260408083209487168084529482529182902080547fffffffffffffffffffffffffffffffffffffffffffffffffffffffffffffff001686151590811790915591519182527f17307eab39ab6107e8899845ad3d59bd9653f200f220920489ca2b5937696c31910160405180910390a3505050565b73ffffffffffffffffffffffffffffffffffffffff84166113175760405162461bcd60e51b815260206004820152602560248201527f455243313135353a207472616e7366657220746f20746865207a65726f20616460448201527f647265737300000000000000000000000000000000000000000000000000000060648201526084016102dd565b336000611323856116b6565b90506000611330856116b6565b905060008681526020818152604080832073ffffffffffffffffffffffffffffffffffffffff8c168452909152902054858110156113d65760405162461bcd60e51b815260206004820152602a60248201527f455243313135353a20696e73756666696369656e742062616c616e636520666f60448201527f72207472616e736665720000000000000000000000000000000000000000000060648201526084016102dd565b60008781526020818152604080832073ffffffffffffffffffffffffffffffffffffffff8d8116855292528083208985039055908a1682528120805488929061142090849061217a565b9091555050604080518881526020810188905273ffffffffffffffffffffffffffffffffffffffff808b16928c821692918816917fc3d58168c5ae7397731d063d5bbf3d657854427343f4c083240f7aacaa2d0f62910160405180910390a461148d848a8a8a8a8a611701565b505050505050505050565b73ffffffffffffffffffffffffffffffffffffffff84163b15610ff6576040517fbc197c8100000000000000000000000000000000000000000000000000000000815273ffffffffffffffffffffffffffffffffffffffff85169063bc197c819061150f90899089908890889088906004016121bb565b6020604051808303816000875af192505050801561154a575060408051601f3d908101601f1916820190925261154791810190612226565b60015b6115ff57611556612243565b806308c379a00361158f575061156a61225f565b806115755750611591565b8060405162461bcd60e51b81526004016102dd9190611980565b505b60405162461bcd60e51b815260206004820152603460248201527f455243313135353a207472616e7366657220746f206e6f6e2d4552433131353560448201527f526563656976657220696d706c656d656e74657200000000000000000000000060648201526084016102dd565b7fffffffff0000000000000000000000000000000000000000000000000000000081167fbc197c81000000000000000000000000000000000000000000000000000000001461114c5760405162461bcd60e51b815260206004820152602860248201527f455243313135353a204552433131353552656365697665722072656a6563746560448201527f6420746f6b656e7300000000000000000000000000000000000000000000000060648201526084016102dd565b604080516001808252818301909252606091600091906020808301908036833701905050905082816000815181106116f0576116f06120e4565b602090810291909101015292915050565b73ffffffffffffffffffffffffffffffffffffffff84163b15610ff6576040517ff23a6e6100000000000000000000000000000000000000000000000000000000815273ffffffffffffffffffffffffffffffffffffffff85169063f23a6e61906117789089908990889088908890600401612307565b6020604051808303816000875af19250505080156117b3575060408051601f3d908101601f191682019092526117b091810190612226565b60015b6117bf57611556612243565b7fffffffff0000000000000000000000000000000000000000000000000000000081167ff23a6e61000000000000000000000000000000000000000000000000000000001461114c5760405162461bcd60e51b815260206004820152602860248201527f455243313135353a204552433131353552656365697665722072656a6563746560448201527f6420746f6b656e7300000000000000000000000000000000000000000000000060648201526084016102dd565b803573ffffffffffffffffffffffffffffffffffffffff8116811461189a57600080fd5b919050565b600080604083850312156118b257600080fd5b6118bb83611876565b946020939093013593505050565b7fffffffff00000000000000000000000000000000000000000000000000000000811681146118f757600080fd5b50565b60006020828403121561190c57600080fd5b81356104d8816118c9565b60006020828403121561192957600080fd5b5035919050565b60005b8381101561194b578181015183820152602001611933565b50506000910152565b6000815180845261196c816020860160208601611930565b601f01601f19169290920160200192915050565b6020815260006104d86020830184611954565b7f4e487b7100000000000000000000000000000000000000000000000000000000600052604160045260246000fd5b601f19601f830116810181811067ffffffffffffffff821117156119e8576119e8611993565b6040525050565b600067ffffffffffffffff821115611a0957611a09611993565b5060051b60200190565b600082601f830112611a2457600080fd5b81356020611a31826119ef565b604051611a3e82826119c2565b83815260059390931b8501820192828101915086841115611a5e57600080fd5b8286015b84811015611a795780358352918301918301611a62565b509695505050505050565b600082601f830112611a9557600080fd5b813567ffffffffffffffff811115611aaf57611aaf611993565b604051611ac66020601f19601f85011601826119c2565b818152846020838601011115611adb57600080fd5b816020850160208301376000918101602001919091529392505050565b600080600080600060a08688031215611b1057600080fd5b611b1986611876565b9450611b2760208701611876565b9350604086013567ffffffffffffffff80821115611b4457600080fd5b611b5089838a01611a13565b94506060880135915080821115611b6657600080fd5b611b7289838a01611a13565b93506080880135915080821115611b8857600080fd5b50611b9588828901611a84565b9150509295509295909350565b60008060008060008060c08789031215611bbb57600080fd5b86359550602087013567ffffffffffffffff80821115611bda57600080fd5b611be68a838b01611a84565b96506040890135955060608901359450611c0260808a01611876565b935060a0890135915080821115611c1857600080fd5b50611c2589828a01611a84565b9150509295509295509295565b60008060408385031215611c4557600080fd5b823567ffffffffffffffff80821115611c5d57600080fd5b818501915085601f830112611c7157600080fd5b81356020611c7e826119ef565b604051611c8b82826119c2565b83815260059390931b8501820192828101915089841115611cab57600080fd5b948201945b83861015611cd057611cc186611876565b82529482019490820190611cb0565b96505086013592505080821115611ce657600080fd5b50611cf385828601611a13565b9150509250929050565b600081518084526020808501945080840160005b83811015611d2d57815187529582019590820190600101611d11565b509495945050505050565b6020815260006104d86020830184611cfd565b80151581146118f757600080fd5b60008060408385031215611d6c57600080fd5b611d7583611876565b91506020830135611d8581611d4b565b809150509250929050565b86815285602082015260c060408201526000611daf60c0830187611954565b85606084015273ffffffffffffffffffffffffffffffffffffffff8516608084015282810360a0840152611de38185611954565b9998505050505050505050565b60008060408385031215611e0357600080fd5b611e0c83611876565b9150611e1a60208401611876565b90509250929050565b600080600080600060a08688031215611e3b57600080fd5b611e4486611876565b9450611e5260208701611876565b93506040860135925060608601359150608086013567ffffffffffffffff811115611e7c57600080fd5b611b9588828901611a84565b600181811c90821680611e9c57607f821691505b602082108103611ed5577f4e487b7100000000000000000000000000000000000000000000000000000000600052602260045260246000fd5b50919050565b6000808454611ee981611e88565b60018281168015611f015760018114611f3457611f63565b7fffffffffffffffffffffffffffffffffffffffffffffffffffffffffffffff0084168752821515830287019450611f63565b8860005260208060002060005b85811015611f5a5781548a820152908401908201611f41565b50505082870194505b505050508351611f77818360208801611930565b01949350505050565b600060208284031215611f9257600080fd5b81516104d881611d4b565b601f821115611fe357600081815260208120601f850160051c81016020861015611fc45750805b601f850160051c820191505b81811015610ff657828155600101611fd0565b505050565b815167ffffffffffffffff81111561200257612002611993565b612016816120108454611e88565b84611f9d565b602080601f83116001811461206957600084156120335750858301515b7fffffffffffffffffffffffffffffffffffffffffffffffffffffffffffffffff600386901b1c1916600185901b178555610ff6565b600085815260208120601f198616915b8281101561209857888601518255948401946001909101908401612079565b50858210156120d457878501517fffffffffffffffffffffffffffffffffffffffffffffffffffffffffffffffff600388901b60f8161c191681555b5050505050600190811b01905550565b7f4e487b7100000000000000000000000000000000000000000000000000000000600052603260045260246000fd5b7f4e487b7100000000000000000000000000000000000000000000000000000000600052601160045260246000fd5b60007fffffffffffffffffffffffffffffffffffffffffffffffffffffffffffffffff820361217357612173612113565b5060010190565b8082018082111561031657610316612113565b6040815260006121a06040830185611cfd565b82810360208401526121b28185611cfd565b95945050505050565b600073ffffffffffffffffffffffffffffffffffffffff808816835280871660208401525060a060408301526121f460a0830186611cfd565b82810360608401526122068186611cfd565b9050828103608084015261221a8185611954565b98975050505050505050565b60006020828403121561223857600080fd5b81516104d8816118c9565b600060033d111561225c5760046000803e5060005160e01c5b90565b600060443d101561226d5790565b6040517ffffffffffffffffffffffffffffffffffffffffffffffffffffffffffffffffc803d016004833e81513d67ffffffffffffffff81602484011181841117156122bb57505050505090565b82850191508151818111156122d35750505050505090565b843d87010160208285010111156122ed5750505050505090565b6122fc602082860101876119c2565b509095945050505050565b600073ffffffffffffffffffffffffffffffffffffffff808816835280871660208401525084604083015283606083015260a0608083015261234c60a0830184611954565b97965050505050505056fea2646970667358221220ce9585aa681a0e6aac5d264e34bde9758bb68d0ee75e74faf094706e2e030e0064736f6c63430008110033",
  "immutableReferences": {},
  "source": "// SPDX-License-Identifier: GPL-3.0\npragma solidity 0.8.17;\n\nimport \"../node_modules/@openzeppelin/contracts/token/ERC1155/extensions/ERC1155URIStorage.sol\";\nimport \"../node_modules/@openzeppelin/contracts/utils/Counters.sol\";\n\n// URI POUR TEST ==> \"https://gateway.pinata.cloud/ipfs/QmUegKTCJ8r6td4AfT22FjJHCVMJn4fKTVCK4MH7zNM7Mn/{id}.json\"\n\ninterface IIICollectorsDAO {\n    function getProposalStatus(uint256 _proposalId)\n        external\n        view\n        returns (bool proposalStatus);\n\n    function updatePropertyMintStatus(uint256 _proposalId) external;\n}\n\n/// @notice this contract manage the ERC1155 collection of each collector chain collections\n/// @notice (for Jury) IPFS upload not managed yet\ncontract NftProperty is ERC1155URIStorage {\n    using Counters for Counters.Counter;\n    Counters.Counter public _id;\n\n    string public collectionName;\n    uint256 public _collectionId;\n\n    struct PropertyNft {\n        uint256 collectionId;\n        uint256 nftId;\n        string name;\n        uint256 value;\n        address minter;\n        string image;\n    }\n\n    IIICollectorsDAO collectorsDAO;\n\n    PropertyNft[] public propertyNfts;\n\n    /// @notice URI structure have to be managed from the front end in order to define custom attributes for each collection\n    constructor(\n        uint256 collectionId_,\n        string memory collectionURI_,\n        address daoContractAddress_\n    )\n        ERC1155(\n            /* URI de la collection*/\n            collectionURI_\n        )\n    {\n        _collectionId = collectionId_;\n        collectorsDAO = IIICollectorsDAO(daoContractAddress_);\n    }\n\n    /// @notice function mint() mint new NFT and send it to the owner of the object\n    /// @notice 100 NFTs will be mint each time (managed by front end)\n    function mintPropertyNft(\n        uint256 _proposalId,\n        string memory _name,\n        uint256 _value,\n        uint256 _numberOfItem,\n        address _minter,\n        string memory _image\n    ) external {\n        // get the proposal status to allow the mint\n        bool proposalStatus = collectorsDAO.getProposalStatus(_proposalId);\n        require(proposalStatus == true, \"proposal is not accepted\");\n\n        uint256 newPropertyNftId = _id.current();\n        propertyNfts.push(\n            PropertyNft(\n                _collectionId,\n                newPropertyNftId,\n                _name,\n                _value,\n                _minter,\n                _image\n            )\n        );\n        _mint(msg.sender, newPropertyNftId, _numberOfItem, \"\");\n        _id.increment();\n        collectorsDAO.updatePropertyMintStatus(_proposalId);\n    }\n\n    function getCollectionId() external view returns (uint256) {\n        return _collectionId;\n    }\n}\n",
  "sourcePath": "/Users/jeromejulien/Documents/vscode/FormationAlyra/02_Projets/CollectorChain_TokenizedCollectibles/truffle/contracts/NftProperty.sol",
  "compiler": {
    "name": "solc",
    "version": "0.8.17+commit.8df45f5f.Emscripten.clang"
  },
  "schemaVersion": "3.4.10",
  "updatedAt": "2022-12-08T17:44:12.274Z",
  "devdoc": {
    "kind": "dev",
    "methods": {
      "balanceOf(address,uint256)": {
        "details": "See {IERC1155-balanceOf}. Requirements: - `account` cannot be the zero address."
      },
      "balanceOfBatch(address[],uint256[])": {
        "details": "See {IERC1155-balanceOfBatch}. Requirements: - `accounts` and `ids` must have the same length."
      },
      "isApprovedForAll(address,address)": {
        "details": "See {IERC1155-isApprovedForAll}."
      },
      "safeBatchTransferFrom(address,address,uint256[],uint256[],bytes)": {
        "details": "See {IERC1155-safeBatchTransferFrom}."
      },
      "safeTransferFrom(address,address,uint256,uint256,bytes)": {
        "details": "See {IERC1155-safeTransferFrom}."
      },
      "setApprovalForAll(address,bool)": {
        "details": "See {IERC1155-setApprovalForAll}."
      },
      "supportsInterface(bytes4)": {
        "details": "See {IERC165-supportsInterface}."
      },
      "uri(uint256)": {
        "details": "See {IERC1155MetadataURI-uri}. This implementation returns the concatenation of the `_baseURI` and the token-specific uri if the latter is set This enables the following behaviors: - if `_tokenURIs[tokenId]` is set, then the result is the concatenation   of `_baseURI` and `_tokenURIs[tokenId]` (keep in mind that `_baseURI`   is empty per default); - if `_tokenURIs[tokenId]` is NOT set then we fallback to `super.uri()`   which in most cases will contain `ERC1155._uri`; - if `_tokenURIs[tokenId]` is NOT set, and if the parents do not have a   uri value set, then the result is empty."
      }
    },
    "version": 1
  },
  "userdoc": {
    "kind": "user",
    "methods": {
      "constructor": {
        "notice": "URI structure have to be managed from the front end in order to define custom attributes for each collection"
      },
      "mintPropertyNft(uint256,string,uint256,uint256,address,string)": {
        "notice": "function mint() mint new NFT and send it to the owner of the object100 NFTs will be mint each time (managed by front end)"
      }
    },
    "notice": "this contract manage the ERC1155 collection of each collector chain collections(for Jury) IPFS upload not managed yet",
    "version": 1
  }
}